:020000040800F2
:100000000000022099020008B9230008BD2300085F
:10001000C1230008C5230008C92300080000000010
:10002000000000000000000000000000CD230008D8
:10003000D123000800000000D5230008D9230008C0
:10004000C9030008C9030008C9030008C903000860
:10005000C9030008C9030008C9030008C903000850
:10006000C9030008ED230008C9030008C9030008FC
:10007000C9030008C9030008C9030008C903000830
:10008000C9030008C9030008C9030008FD230008CC
:10009000F5230008052400080D240008C903000802
:1000A000C9030008C9030008C9030008C903000800
:1000B000C9030008C9030008C9030008C9030008F0
:1000C000C9030008C9030008C9030008C9030008E0
:1000D000C9030008C9030008C9030008C9030008D0
:1000E000F1230008C9030008C9030008C903000878
:1000F000C9030008C9030008C9030008C9030008B0
:10010000C9030008C9030008C9030008C90300089F
:10011000C9030008C9030008C9030008C90300088F
:10012000C9030008C9030008C9030008C90300087F
:10013000C9030008C9030008C9030008C90300086F
:10014000C9030008C9030008C9030008C90300085F
:10015000C9030008C9030008C9030008C90300084F
:10016000C9030008C9030008C9030008C90300083F
:10017000C9030008C9030008C9030008C90300082F
:10018000C903000800B583B000F078FE304B314A57
:100190001360314A1360314B314A03E01168196032
:1001A000043304322F498B42F8D32A4B1A682E4B62
:1001B0009A4204D1284B1A682C4B9A4200D0FEE791
:1001C000234B2B4A13602B4A13602B4B02E0002277
:1001D0001A600433294A9342F9D3254B1B6813B99B
:1001E000244B1B6803B1FEE700F054FE01A86946EA
:1001F00000F0E6FD224C234B1C1BA410002504E05C
:100200001F4B53F8253098470135AC42F8DC1E4CA3
:100210001E4B1C1BA410002504E01B4B53F825307B
:1002200098470135AC42F8DC0198009901F0E4FAF6
:100230000546174C174B1C1BA41004E0013C144B43
:1002400053F824309847002CF8DC284600F094FD41
:10025000BABADECA00000020B40800200000002066
:1002600004070108B80800207856341232547698F2
:10027000B808002038850020B80800203C85002000
:10028000F4030008F4030008F4030008F403000872
:10029000F4030008F403000808B5FFF773FF00BF7C
:1002A00000BEFEE71EF0040F0CBFEFF30880EFF373
:1002B00009807146414A10472DE9F04182B0044659
:1002C0008846134B5E6B9D6B9F6A1B6B13F0020F8E
:1002D0000DD00F4BDB6A002B09DA4BF6AB6100F057
:1002E00055FE20B14FF00042094BDA620CE009489C
:1002F00000F06EFDCDF800802046394632462B4690
:1003000000F0CCFD00BEFEE702B0BDE8F08100BF0A
:1003100000ED00E02802010800BEFEE71EF0040F19
:100320000CBFEFF30880EFF309807146244A1047B1
:100330002DE9F04182B007468846084B5D6B9C6B07
:100340009E6A074800F044FDCDF8008038463146EB
:100350002A46234600F0A2FD00BEFEE700ED00E0C5
:10036000380201081EF0040F0CBFEFF30880EFF312
:1003700009807146134A10472DE9F04182B00746C3
:100380008846084B5D6B9C6B9E6A074800F020FD19
:10039000CDF80080384631462A46234600F07EFDDF
:1003A00000BEFEE700ED00E04402010800BEFEE7EB
:1003B00000BEFEE700BEFEE770470000B90200087D
:0C03C000310300087903000800BEFEE7CE
:1003CC000407010800000020B808002004070108F9
:1003DC000000000000000000B80800203C85002050
:0803EC00000000000000000009
:1003F800C3781BB310B4194BDA68D243C2F3022294
:10040800C2F10401C9B20F2343FA02F443788B40C6
:10041800DAB2817804EA010313431B01DBB20278E4
:100428000F490A4482F800330378580903F01F0380
:10043800012202FA03F341F820300BE003785A094D
:1004480003F01F030121994002F12003044A42F8F6
:10045800231070475DF8044B704700BF00ED00E0C3
:1004680000E100E0084201D00120704700207047F9
:1004780008B50C4B98420AD14FF00070012100F0EA
:1004880073FB4FF00070002100F06EFB08BD4FF0C9
:100498008060012100F068FB4FF08060002100F0CF
:1004A80063FB08BD00640040036823F00203036097
:1004B800036843F001030360002300E0013342684E
:1004C80012F0010F03D14FF6FF729342F6D1436841
:1004D80013F0010F6BD08B79012B04D1036843F023
:1004E8008003036003E0036823F080030360CB7993
:1004F800012B04D1036843F04003036003E0036861
:1005080023F0400303600B7A012B04D1036843F006
:100518002003036003E0036823F0200303604B7AA1
:10052800012B04D1036843F01003036003E0036860
:1005380023F0100303608B7A012B04D1036843F086
:100548000803036003E0036823F008030360CB7A21
:10055800012B04D1036843F00403036003E003683C
:1005680023F0040303608A78CB781B0643EA82737E
:100578000A7943EA02434A7943EA02530A88013A6C
:100588001343C361036823F001030360002300E001
:100598000133426812F0010F03D04FF6FF72934205
:1005A800F6D1436813F0010F03D0002070470020F4
:1005B80070470120704700BF70B4827A01239340CE
:1005C800384AD2F8001241F00101C2F80012D2F8FC
:1005D8001C12DC432140C2F81C12027BB2B9314A1A
:1005E800D2F80C122140C2F80C12817AC6884588CC
:1005F80045EA0645483142F83150857A86880188AF
:1006080041EA0641483502EBC5025160027B012AE6
:1006180016D1244AD2F80C121943C2F80C12817A66
:100628000688458845EA0645483142F83150857ABA
:100638008688C18841EA0641483502EBC502516007
:10064800C27A32B91749D1F804222240C1F80422EB
:1006580005E01449D1F804221A43C1F8042202899A
:100668002AB91049D1F814221440C1F81442028959
:10067800012A05D10B49D1F814221A43C1F81422D2
:10068800427B012A05D1074AD2F81C120B43C2F853
:100698001C32044AD2F8003223F00103C2F80032B7
:1006A80070BC7047006400400346826812F0806F97
:1006B80009D1826812F0006F07D1826812F0805F5A
:1006C80005D0022004E0002002E0012000E0042020
:1006D800042850D0F0B4054600F1180212019C58C5
:1006E80004F001049C500A7A52B900F11806360148
:1006F8009F590A684C7A44EA42523A439A510AE0AE
:1007080000F1180636019F594C6842EAC4024C7A37
:1007180022433A439A518A7A02F00F028A7205F10B
:10072800180424011A19566826F00F0656605768EF
:100738008E7A3E4356608E7B4A7B120442EA0662FA
:100748000E7B42EA0622CE7A324303EB051505F505
:10075800C476C5F888218D7C4A7C120442EA056279
:100768000D7C42EA0522C97B0A4372601A5942F09D
:1007780001021A51F0BC704730B401F11B031B0190
:10078800C35803F00403DBB2137233B901F11B033E
:100798001B01C3585B0D136005E001F11B031B012E
:1007A800C358DB08536001F11B031B01C418C3586D
:1007B80003F002035372636803F00F0393726368D4
:1007C8001B0AD37400EB011303F5DC74D3F8B8519A
:1007D800D572D3F8B8512D0A1573D3F8B8512D0C2A
:1007E8005573D3F8B8311B0E93736368D37363687A
:1007F8001B0A137463681B0C537463681B0E937491
:1008080021B9C36843F02003C36003E0036943F0E0
:100818002003036130BC70471AB143691943416131
:100828007047436923EA01014161704708B543698C
:100838000B426FD0402945D00ED804292ED004D8B9
:10084800012921D0022924D066E0102930D020299E
:1008580033D0082960D126E0B1F5006F50D009D80F
:10086800B1F5007F42D0B1F5806F44D0B1F5807FFB
:1008780052D136E0B1F5803F29D0B1F5003F2BD0F9
:10088800B1F5004F48D140E080682449FFF7EAFD00
:1008980008BDC0680321FFF7E5FD08BDC068082151
:1008A800FFF7E0FD08BDC0681021FFF7DBFD08BDBC
:1008B80000690321FFF7D6FD08BD00690821FFF78D
:1008C800D1FD08BD00691021FFF7CCFD08BD4068C7
:1008D8000821FFF7C7FD08BD40681021FFF7C2FDDA
:1008E80008BD80690121FFF7BDFD08BD80690221AF
:1008F800FFF7B8FD08BD80690421FFF7B3FD08BD07
:1009080080697021FFF7AEFD08BD40680421FFF73C
:10091800A9FD08BD002008BD002008BD0101010097
:10092800B1F5807F37D00CD8082925D004D8012903
:100938001CD004291DD07047202920D0402921D05F
:100948007047B1F5006F2FD006D8B1F5007F25D0DC
:10095800B1F5806F25D07047B1F5803F15D0B1F55E
:10096800003F15D0B1F5004F27D122E0134B83602B
:1009780070470823C36070471023C360704708237B
:100988000361704710230361704708234360704771
:100998001023436070470423436070470423436077
:1009A8007047042343607047002383610423436036
:1009B80070470023836104234360704701010100ED
:1009C80070B4002239E0012393400C681C409C421B
:1009D80032D1046855000323AB40DB431C4004605C
:1009E80006680C79AC40344304600C79013CE4B2ED
:1009F800012C14D884682340836084684B79AB4009
:100A080023438360446896B20123B34024EA030376
:100A1800436044688B79B3409BB223434360C46806
:100A280096B276000323B34024EA0303C360C46884
:100A3800CB79AB402343C36001320F2AC3D970BCC2
:100A4800704700BF0183704730B401F007039B0073
:100A58009A40C908083150F821400F2505FA03F3D8
:100A680024EA030340F8213050F821301A4340F8B3
:100A7800212030BC704700BF10B4294B9B6803F09D
:100A88000C03042B05D0082B06D053BB254B036061
:100A980029E0254B036026E0214B5A685B6803F088
:100AA8003F0312F4800F09D01F4AB2FBF3F21C4B2C
:100AB8005B68C3F3881303FB02F208E0194AB2FB30
:100AC800F3F3174A5168C1F3881101FB03F2144B81
:100AD8005B68C3F3014301335B00B2FBF3F30360CC
:100AE80001E0104B03600E4A9368C3F303130F49E8
:100AF800CC5CE4B20368E34043609468C4F38224A6
:100B08000C5DE4B223FA04F484609268C2F34232C2
:100B18008A5CD2B2D340C3605DF8044B704700BF13
:100B2800003802400024F40040787D0104000020D1
:100B380021B1054B1A6B104318637047024A136BB7
:100B480023EA0000106370470038024021B1054BCA
:100B58001A69104318617047024A136923EA0000B2
:100B6800106170470038024021B1054B1A6A1043E2
:100B780018627047024A136A23EA0000106270473D
:100B880000380240002303E00133DBB20A38C0B268
:100B98000928F9D81B01DBB21843704782B000233B
:100BA8000193114BDB6813F0400F17D14FF0FF3260
:100BB8000D4BDA600C4BDB6803F04002019B0133FC
:100BC8000193019BB3F5803F01D0002AF2D0064B78
:100BD800DB6813F0400F03D0012002E0012000E0A1
:100BE800002002B0704700BF00280040024AD368C6
:100BF80023F08003D36070470028004082B00023B0
:100C08000193114BCA225A6253225A62DA6822F0BF
:100C1800A002DA600C4BDB6803F02002019B013371
:100C28000193019BB3F5004F01D0002AF2D0064B87
:100C3800DB6813F0200F01D0012000E00020FF2224
:100C4800014B5A6202B070470028004038B50D4683
:100C5800034638B9224A926812F0400F09D100229F
:100C6800CA7006E01E4A926812F0400F01D10022B5
:100C7800CA7053B12C786B781B0243EA0444AB78F2
:100C88002343E87843EA00440FE02878FFF77AFF27
:100C980004046878FFF776FF44EA0024A878FFF791
:100CA80071FF2043EC7840EA04440D4BCA225A6293
:100CB80053225A62FFF772FF58B104F07F3020F0D8
:100CC800FE40074B1860FFF791FFFFF797FF10B939
:100CD80002E0002000E00120FF22014B5A6238BDEB
:100CE8000028004038B50D46024638B94B7813F055
:100CF800100F03D023F010030A334B7052B1EC7875
:100D08006B781B0243EA0444AB782343287843EA10
:100D180040340FE0E878FFF735FF04046878FFF700
:100D280031FF44EA0024A878FFF72CFF20432C78F1
:100D380040EA44340D4BCA225A6253225A62FFF7E2
:100D48002DFF58B124F07F4020F0C000074B5860B9
:100D5800FFF74CFFFFF752FF10B902E0002000E058
:100D68000120FF22014B5A6238BD00BF0028004015
:100D7800FEE700BF08B50D4B1B6813B90C4A0B4BB7
:100D88001A600A4B1A68C31C23F003031344094969
:100D98008B4206D909F00AF80C2303604FF0FF30A4
:100DA80008BD02490B60104608BD00BFBC08002002
:100DB8003C85002000FC012001230360014B0B60EF
:100DC800704700BF140000200FB400B583B004AB17
:100DD80053F8042B0193084880210AF069FA011E90
:100DE80003DD054800F042F80146084603B05DF807
:100DF80004EB04B0704700BFC4080020F0B585B00C
:100E080006460C46174B1B6883B9174B01930423FE
:100E180002930323039301AF012528463946ABBE4D
:100E28000546B5F1FF3F13D00E4B1D600D4B1B68F7
:100E380001930296039401AE052528463146ABBEC0
:100E48000546B5F1FF3F06D0A54207D0601B07E075
:100E58004FF0FF3004E04FF0FF3001E04FF0FF307B
:100E680005B0F0BD440900200801010808B5FFF7E6
:100E7800C5FF08BD08B500F017F9024B024A9A6091
:100E880008BD00BF00ED00E00000000808B500F054
:100E98002DF908BDF8B504460D4617461E462648E6
:100EA800FFF792FF25482168FFF78EFF2448616805
:100EB800FFF78AFF2348A168FFF786FF2248E16809
:100EC800FFF782FF21482169FFF77EFF204861690B
:100ED800FFF77AFF1F48A169FFF776FF1E48E1690F
:100EE800FFF772FF1D48FFF76FFF1D482946FFF700
:100EF8006BFF1C4CE16A1C48FFF766FF216B1B481F
:100F0800FFF762FFE16B1A48FFF75EFF15F0800FED
:100F180003D018483946FFF757FF15F4004F03D0A0
:100F280015483146FFF750FF1448FFF74DFF1448A6
:100F38000699FFF749FFF8BD0C0101081C010108DB
:100F48002C0101083C0101084C0101085C01010861
:100F58006C0101087C0101088C0101089C01010851
:100F6800A801010800ED00E0B8010108C801010866
:100F7800D8010108E8010108F80101080802010880
:100F88001002010838B583691B888B4230D10446AA
:100F980003684568013B042B2CD8DFE803F0032BDA
:100FA80024241B002868144909F01CF870B96B68E0
:100FB80013B90123236016E0042B02D10223236016
:100FC80011E0082B02D1032323600CE04FF0FF331C
:100FD800236008E02B68023B012B02D80023036042
:100FE80001E0AB680360A3690233A361012038BD47
:100FF800002038BD002038BD0801010882B0002358
:1010080001930093254A136843F480331360234BFC
:101018001B6803F400330093019B01330193009B89
:101028001BB9019BB3F5A06FF1D11C4B1B6813F4DE
:10103800003F02D00123009301E000230093009BAE
:10104800012B29D1154B9A689A609A6842F400429C
:101058009A609A6842F4A0529A60114A5A601A68D3
:1010680042F080721A600D4B1B6813F0007FFAD0B3
:1010780040F203720B4B1A60A3F580639A6822F062
:1010880003029A609A6842F002029A60034B9B68D6
:1010980003F00C03082BF9D102B070470038024066
:1010A800193C4005003C024008B50D4B1A6842F057
:1010B80001021A60002199601A6822F0847222F4F1
:1010C80080321A60074A5A601A6822F480221A602D
:1010D800D960FFF793FF4FF00062034B9A6008BD99
:1010E800003802401030002400ED00E0234B9B68DC
:1010F80003F00C03042B07D0082B09D0002B2DD1AB
:101108001F4A204B1A602CE01F4A1E4B1A6028E029
:101118001A4B5A685B6803F03F0312F4800F09D03A
:10112800194AB2FBF3F2154B5B68C3F3881303FB50
:1011380002F208E0124AB2FBF3F3104A5168C1F315
:10114800881101FB03F20D4B5B68C3F301430133C4
:101158005B00B2FBF3F30B4A136002E0084A094B49
:101168001A60064B9B68C3F30313084AD25CD2B2D9
:1011780004490B68D3400B60704700BF0038024039
:101188000024F4002C00002040787D011C00002081
:1011980010B40B490B4B4B600B4B0C4A5A600022A6
:1011A8000A704A708A7014240C720420C8601A707D
:1011B8005A709A701C72D8605DF8044B704700BF73
:1011C80048360020980900203836002048090020B9
:1011D80010B5044643780278934204D180780128F8
:1011E80001D1013222702078E268904201D10022B8
:1011F80022706068227A02FB030008F00FFE637811
:101208000133DBB26370E268934201D1002363705B
:10121800627823789A4201D10123A370012010BD7E
:1012280010B5044603784278934201D182789AB186
:1012380008460022A2706168227A02FB031108F0B6
:10124800EDFD23780133DBB22370E268934205D1C8
:1012580000232370012010BD002010BD012010BD07
:10126800214B1A6C42F000721A641A6B42F00802A1
:101278001A63A3F530531A6822F003021A601A6839
:1012880042F002021A605A6802F001025A60DA68F3
:1012980022F00302DA609A6822F003029A609A68E0
:1012A80042F002029A601A6A42F009021A621A6847
:1012B80022F00C021A601A6842F008021A605A6892
:1012C80002F002025A60DA6822F00C02DA609A68C8
:1012D80022F00C029A609A6842F008029A601A6A30
:1012E80042F090021A6270470038024000B585B09B
:1012F8000368C3F30A02C3F3D123520142EA53320B
:10130800ADF80020027A817A920042EAC30343EAE8
:101318004103ADF802304368C3F30A02C3F3D12393
:10132800520142EA5332ADF80420427AC17A92005F
:1013380042EAC30343EA4103ADF806300023ADF89F
:1013480008308DF80A308DF80B3001238DF80C30F9
:101358008DF80D306846FFF72FF905B05DF804FBEE
:1013680010B586B001238DF8043000248DF80640AE
:101378008DF805408DF80740084B029301A800F04E
:10138800B9FE03904FF4801304938DF816408DF83E
:10139800174003A8FFF7AAFF06B010BDEFCDAB2397
:1013A80070B584B0344A136C43F000731364334B44
:1013B8001A68334B1A70FFF753FF324E3046FFF767
:1013C80057F80525ADF8045000248DF806408DF82F
:1013D80007408DF8085007238DF809308DF80A402A
:1013E8008DF80B408DF80C408DF80D408DF80E40AF
:1013F8008DF80F40304601A9FFF756F8FFF7B0FF08
:10140800304648F213410122FFF706FA14238DF8FB
:1014180000308DF801508DF8024001258DF80350F9
:101428006846FEF7E5FF15238DF8003006268DF88F
:1014380001608DF802408DF803506846FEF7D8FF2A
:1014480013238DF800308DF801608DF802408DF877
:1014580003506846FEF7CCFF16238DF800308DF850
:1014680001608DF802408DF803506846FEF7C0FF12
:10147800FFF78EFE04B070BD00380240107AFF1FDF
:10148800583600200064004010B586B00A48022192
:10149800FFF7CCF968B1084C20460221FFF740FA63
:1014A8002046002101AAFFF767F9044801A9FFF7C0
:1014B8008FFE06B010BD00BF006400404836002013
:1014C80010B586B00A481021FFF7B0F968B1084C8A
:1014D80020461021FFF724FA2046012101AAFFF730
:1014E8004BF9044801A9FFF773FE06B010BD00BF11
:1014F800006400404836002000B587B00A48012142
:10150800FFF794F960B108480121FFF709FA074885
:1015180001A9FFF785FE18B1034801A9FFF7C4F830
:1015280007B05DF804FB00BF0064004038360020B7
:1015380008B50D484FF48061FFF778F930B10A48D3
:101548004FF48061FFF7ECF9FFF72AFF06484FF4E4
:101558000041FFF76BF930B103484FF40041FFF742
:10156800DFF9FFF71DFF08BD0064004000B587B034
:101578000D4B9B6813F0806F09D10B4B9B6813F0E0
:10158800006F04D1084B9B6813F0805F08D00748B0
:1015980001A9FFF745FE18B1034801A9FFF784F830
:1015A80007B05DF804FB00BF006400403836002037
:1015B80030B400231BE01B01451C0078A0F1300269
:1015C800D2B2092A02D80344303B0EE0A0F16102EE
:1015D800D2B2052A02D80344573B06E0A0F14102E3
:1015E800D2B2052A08D80344373B214628464C1E68
:1015F8000029E0D1184601E04FF0FF3030BC7047B9
:10160800002300E00133C25C202AFBD0092AF9D06C
:101618000A2AF7D010B42D2A01D02B2A00D1013381
:10162800002205E002EB820252000A44303A0133FC
:10163800C15CA1F13004E4B2092CF3D910465DF87D
:10164800044B704738B505460C460E48A0FB0530DC
:10165800C00802D0FFF7F6FF00E000202268531C04
:101668002360084BA3FB0513DB0803EB83035B0034
:10167800EB1A30331370236800221A700130C0B29D
:1016880038BD00BFCDCCCCCC38B504460D460009DA
:1016980002D0FFF7F9FF00E0002004F00F04092C46
:1016A80001DC303400E037342B685A1C2A601C7087
:1016B8002B6800221A700130C0B238BD2DE9F04104
:1016C80082B004460D460191013AD6B2002108F0D5
:1016D80021FB38B104F100446B1C01932D232B70BE
:1016E800012500E00025204608F03CFB804608F074
:1016F8001BF90146204608F065F80746404601A94F
:10170800FFF7A0FF2844C5B2B5423CD238460021B5
:1017180008F0F6FA002836D1019B5A1C01922E22B5
:101728001A700135EDB21FE038461A4908F054F92D
:10173800074608F017FBC0B2174BA3FB0023DB08D2
:1017480003EB83035B00C31ADCB2204608F0F0F811
:101758000146384608F036F80746019B5A1C0192A4
:1017680030341C700135EDB23846002108F0C8FA53
:1017780020B9B542D8D301E0013B0193019B13F88E
:10178800012C302AF8D00022019B1A7002B0BDE863
:10179800F08100BF00002041CDCCCCCC00B585B095
:1017A8006846FFF769F90F4A019BA2FB03239B09CF
:1017B800013BB3F1807F09D20B4A5360F0210B4BF8
:1017C80083F8231000239360072313600022074B3C
:1017D80083F823204FF000424EF2FC031A6005B054
:1017E8005DF804FBD34D621010E000E000ED00E06E
:1017F80008B5FFF7D3FF00F075FEFFF7C9FCFFF748
:10180800CFFD07F095FD06F001FF00F0FBFC00F0AE
:1018180025FD00F03BFBFFF7A9FE00F045FD07F0B2
:1018280009FA08B106F016FF024B186806F068FFBF
:10183800F1E700BFE809002008B5032806D8DFE86B
:1018480000F016020304FEE7FEE7FEE741F28830E7
:1018580000F00AFFBFF34F8F0549CA6802F4E0623F
:10186800044B1343CB60BFF34F8F00BFFDE708BDA8
:1018780000ED00E00400FA05024A13680133136022
:10188800704700BFE8090020704700BFF0B583B07B
:101898001446002B34D1064692B30846118903F04A
:1018A800A1FC6068011D8278C37843EA022297B2DE
:1018B8003B1D03442589ED1B043D007800F0F00032
:1018C800302808D002D820280BD01CE0402813D09C
:1018D80090280DD017E0376900953046D2B2B84746
:1018E80011E00123B37108220A4B83F82C200AE087
:1018F800012386F8A23006E0012386F8A33002E02F
:10190800084603F025FF204603F030FA002003B014
:10191800F0BD00BF5837002008B5012383710622A7
:10192800044B83F82C200846034903F08FFC002061
:1019380008BD00BF583700209518000808B58379FE
:1019480043B990F8A430042B04D1084603F0E2FF11
:10195800F62005E090F8A430013380F8A430002088
:1019680040B208BD02680B46002901DA01F1FF0305
:10197800C3F3072313700268531C0360064B0B4024
:10198800002B03DA013B63F0FF0301335370036854
:1019980001330360704700BFFF00008070B5054643
:1019A8000E46084608F05AFC044628462146FFF72A
:1019B800D9FF28683146224608F030FA2B681C44C3
:1019C8002C6070BD30B40546002200E002460C4B86
:1019D8000B40002B03DA013B63F07F030133DBB2DA
:1019E8000C46002901DA01F17F04E111002901DD2B
:1019F80043F08003501CAB540029E7DC30BC70472F
:101A08007F00008083795BB110B50446806803F0DD
:101A180081FF0023A3710322024B83F82C2010BD01
:101A2800704700BF5837002070B50446049E036114
:101A3800016082800025857114301749062208F05C
:101A4800EDF904F11A00311D042208F0E7F9E571F7
:101A580004F11D00114908F0A3FB04F16D001049C1
:101A680008F09EFB0F4D2846314608F099FB2846A2
:101A78000D4908F097FAC4F89C500C4D2846314699
:101A880008F08EFB28460A4908F08CFAC4F89850EA
:101A98000123A4F8A03070BD5802010860020108B3
:101AA8006C020108083700207C02010888370020F2
:101AB8008402010838B5857925BB0446002380F8DF
:101AC800A43003F0CFFFA060214642F29B720F4B77
:101AD80003F0DEFF20B12046FFF794FF012512E056
:101AE800A068214603F0B0FBA068094903F0B0FBE9
:101AF800A0680849042203F0B1FBA068034903F079
:101B0800ABFB00E00125284638BD00BF21190008BD
:101B180091180008451900082DE9F041ADF5816DCF
:101B2800044602AB019300F11407384608F096FB0F
:101B38000C30C5B204F11D06304608F08FFBC0B268
:101B480018B10544023505F0FF0504F16D0840465B
:101B580008F084FBC0B218B10544023505F0FF0552
:101B6800019B5A1C019210221A7001982946FFF70E
:101B780029FF019B1844019001A82449FFF70EFF93
:101B8800019B5A1C019204221A70304608F066FB29
:101B980028B1019B5A1C0192C0221A7004E0019BD3
:101BA8005A1C019200221A7001A83221FFF7DAFEAE
:101BB80001A83946FFF7F2FE9DF91130002B07DA2C
:101BC80001A83146FFF7EAFE01A84146FFF7E6FE05
:101BD80002A9019A521AA068D2B2012305F000F9AD
:101BE80058B9A06805F03AFB094B1B68E360072267
:101BF800084B83F82C20002003E02046FFF702FF63
:101C080001200DF5816DBDE8F08100BF8802010853
:101C1800E8090020583700208379002B62D02DE98D
:101C2800F04F83B000AF164689460446084608F0D0
:101C380015FB054600F1030800F10A0323F007032A
:101C4800ADEB030DEB460DF10200494608F0A8FA8A
:101C58004FF0000A8DF800A0484608F0FFFA8DF80A
:101C68000100AB1C0DF803A030233B71304608F08F
:101C7800F5FA40447871304608F0F0FA404400F133
:101C88000209093020F00700ADEB000D6846514607
:101C98004A4608F039F96846391D022208F0BEF8AC
:101CA8000DF102005946424608F0B8F805356D4472
:101CB800304608F0D3FA02462846314608F0AEF816
:101CC800A06869461FFA89F2012305F089F820B94E
:101CD800A06805F0C3FA504606E02046FFF792FEDA
:101CE800012001E0012070470C37BD46BDE8F08FA8
:101CF8008379FBB110B582B00446104B1A889B78E3
:101D0800ADF804208DF80630806801A9032201236C
:101D180005F066F8A06800210422012305F060F8A8
:101D2800A06803F015FD0020A0710322044B83F87E
:101D38002C2001E00120704702B010BD54020108B8
:101D4800583700208379002B3CD0F0B589B00D4678
:101D5800044602AF0DF10906019682238DF808307A
:101D6800084608F07BFA411D3046FFF72BFE019B21
:101D7800013308AE46F81C3D3046B4F8A010FFF712
:101D8800F1FDB4F8A0300133A4F8A030304629465C
:101D9800FFF704FE019B5A1C019200221A70019A57
:101DA800D21BA068394692B2012305F019F820B970
:101DB800A06805F053FA002006E02046FFF722FE4F
:101DC800012001E0FF20704709B0F0BD8379D3B14D
:101DD80010B582B00446C0238DF8043000238DF876
:101DE8000530806801A90222012304F0F9FF20B917
:101DF800A06805F033FA012008E02046FFF702FE4C
:101E08004FF0FF3002E04FF0FF30704702B010BDD6
:101E180038B50D4B1D68C368EB1A48F6B8029342F3
:101E28000FD90446837913B1FFF7D0FF08E0C379CF
:101E380013B1FFF73FFE03E00322044B83F82C2085
:101E4800E560002038BD00BFE809002058370020B1
:101E580010B586B01C4601A800F064F9C3B27BB186
:101E680001A821469DF8202000F0AEF8012807D1EE
:101E7800044801A9FFF7ACF9034801A9FFF7A8F93D
:101E880006B010BD383600204836002000B587B0AF
:101E9800164B1A68164B1A60072314E0144A126886
:101EA80002F00F0101F13000392801D901F13700A2
:101EB80059B20DF1180E714401F80C0C12090C49B5
:101EC8000A60013BDBB213F0800FE7D000238DF8E6
:101ED8001430084B9A89996803AB00930648074B5E
:101EE800FFF7A2FD07B05DF804FB00BF107AFF1FE3
:101EF80004370020583700205C360020591E00089F
:101F0800184B9B796BB330B5ADF5077D0446164881
:101F180081A9FFF785F9F0B1D4F8980008F09EF987
:101F2800C5B201A8D4F898102A4607F077FF01AB8C
:101F3800581981A900F066F841A881A900F0B6F8FF
:101F4800084801A941AAFFF767FE38B1064881A9E8
:101F5800FFF73EF902E00348FFF75AFF0DF5077D4A
:101F680030BD70475C36002048360020F8B505467D
:101F78000F461646002421E004EB840304EB4303D8
:101F8800104A1344284619469A7A07F015FF98B95B
:101F9800012C04D13B7801333B70092373703B78E3
:101FA800022B03D1023CB4700120F8BD032B03D1EE
:101FB800033C74700120F8BD0134E4B20B2CDBD96A
:101FC8000020F8BD9002010810B50446013B012B22
:101FD8000DD8084607F0E6FE0022094B07F0B4F9D1
:101FE80007F0C4FBA4F80B000223A37206E008461E
:101FF800FFF706FBC4F80B000423A372012010BDF1
:1020080000003040F0B585B00F4604A902AB41F896
:102018000C3D441C2F2303707868C0F31300FFF7AE
:1020280033FB0646034604E0302222700133DBB25C
:102038000134072BF8D9204602A9324607F0EEFEF4
:10204800A51901352F23A3557B68C3F38554092CA3
:1020580017D0C3F340530233DBB203EB830103EB26
:102068004103114919448F7A28463A4607F0D6FEAB
:1020780007F10B06F6B22F447D1C2F233B70E31C9F
:1020880001E001230A2603EB830103EB4103064920
:1020980019448C7A2846224607F0C0FE30190023DE
:1020A8002B55C0B205B0F0BD9002010800B583B051
:1020B80001904B68C3F38553013BDBB2012B10D869
:1020C800B1F90B0007F034FC4FF0765107F084FCAF
:1020D80001990622FFF7F2FA019808F0BFF8C0B29A
:1020E80004E0D1F80B0001A9FFF7ACFA03B05DF8E2
:1020F80004FB00BF0278120702F0805243789B0568
:1021080003F07C6313438278520502F400121A43E9
:10211800C3781B0503F4801313434068C0F313000E
:1021280018437047F0B585B007460D46164600239C
:102138008DF80930931ECB5C0A2B04D1561EB6B21B
:10214800731E0022CA54002303E0B34246D0013371
:102158009BB2EA5C2F2AF8D1013398B201238DF89B
:10216800073026E00134A4B200E004462B5D2F2B93
:1021780001D0B442F6D3012A03D08AB1032A08D980
:102188000EE0211A284489B2FFF712FA039038B9F1
:1021980022E028440DF1070102AAFFF7E7FED8B1B3
:1021A8000134A0B2B04208D29DF8073001338DF84F
:1021B80007309DF80720032AD7D904A8012300F87F
:1021C800083DFFF797FF786004233B7200237B727A
:1021D8003B609DF8090002E0002000E0002005B007
:1021E800F0BD00BF39B10B682BB1054A93600323DA
:1021F80082F82C3070470422014B83F82C2070475A
:102208005837002038B5104C20460021302207F0FE
:102218007BFE0A2384F82C300C4B636042F29B73DC
:10222800A3810B4BA3614FF2CC63A383094B2361BA
:102238006FF07F436361084B2362002584F82450C4
:1022480005F06AFA284638BD5837002014030108FB
:10225800C0A80C07C0A80C044D58080808B502F01F
:102268008BFA0E4B1B6A1BB100200D4902F072FA63
:102278000A4B586803F108010A4A02F0B7FA10F14C
:10228800050F05D040B90322044B83F82C2008BD64
:102298000222024B83F82C2008BD00BF58370020CB
:1022A80078370020ED21000810B53D4B93F82C300D
:1022B800013B092B73D8DFE803F005720C052548AC
:1022C800724F6E690A22364B83F82D20FFF7C6FF3E
:1022D80010BD344B9B791BB13248FFF709FD10BD87
:1022E80006F028FB2E4CA3682E480360FFF7E2FB9C
:1022F800052384F82C302C4B1B6803F59C530833BA
:10230800A36210BD264B9A6A274B1B689A4246D295
:10231800234A92F82D30591E82F82D104BB1032311
:1023280082F82C30204B1B6803F59C5308339362CA
:1023380010BD1B4C042384F82C304FF4FA6000F0D5
:1023480093F90A2384F82D3010BD1648002380F82D
:10235800A230FFF7E1FB10BD124B93F8A2308BB906
:10236800124B1A68104B1B689A420BD20D4B184639
:10237800D3F89C10FFF7E6FC0B4B1B6803F5FA63D8
:102388000A4A13600748FFF7BBFD10BD0322044B40
:1023980083F82C2010BD0422014B83F82C2010BD9B
:1023A800583700205C360020E0370020D83700205E
:1023B800704700BFFEE700BFFEE700BFFEE700BFB3
:1023C800FEE700BF704700BF704700BF704700BFFF
:1023D80008B5FFF751FA024A13680133136008BDC4
:1023E800E0370020704700BF704700BF08B5FFF70F
:1023F8004BF808BD08B5FFF77FF808BD08B5FFF72B
:102408005FF808BD08B5FFF793F808BD314B1A6CA3
:1024180042F080521A6430490A6842F480720A60B5
:102428001A6F42F480321A671A6F22F480321A67E0
:102438001A6F42F001021A67284B1A686432D2B246
:102448000FE0264B1B689A420BD2224A536F43F087
:10245800010353671F4B5B6F13F0020FFAD0002183
:1024680005E01C4B1B6F13F0020FEAD00121194A3B
:10247800136F23F44073136721B1136F43F4807310
:10248800136704E0134A136F43F400731367114A88
:10249800136F43F400431367114BCA225A62532245
:1024A8005A62DA6842F08002DA600D4BDB6813F09A
:1024B800400FFAD009B1FF2200E0F922084B1A6157
:1024C80042F4FE021A61DA6822F08002DA60FF2222
:1024D8005A6270470038024000700040E037002020
:1024E8000028004000B587B0FFF790FF10238DF853
:1024F8000B3006238DF8093001238DF80A3006A920
:10250800032301F8103D0020FEF7ECFB012802D060
:102518000220FFF791F900238DF804308DF805307B
:102528008DF80630039801A9FEF790FB012802D028
:102538000220FFF781F907B05DF804FB014B18682A
:10254800704700BFE0370020F0B4002A03DB1646CE
:1025580046F2DF3502E0324E16440025314BA3FB2C
:1025680006231B0C1D44304C04FB13642F4BA3FBA8
:102578000423DB0A0B704FF4616202FB13422C4BFD
:10258800A3FB02435B094B70C3EB03139B00D41AF4
:102598008C706A1C274E82FB0667D119D317C3EBD0
:1025A800A103C3EBC303D31A0370234B83FB052397
:1025B8005A19EB17C3EB222300E00B46591E0A46B3
:1025C800002900DACA1C921013F0030602D11BB9C5
:1025D8001A4C02E0194C00E0194CB4F900402244AE
:1025E80040F26D1404FB0322AA42E6DCAA1AC37067
:1025F80016B91BB9114902E0104900E010490C2333
:10260800013B01EB430531F913409442F8DC0133F7
:1026180043702D88521B01328270F0BC704700BF96
:10262800807EAA8307452EC280510100C5B3A291BE
:102638008988888893244992B1F98CB340030108AA
:102648002803010800B583B00246684601A9FFF7D0
:102658007BFF002001A9FEF7F9FA00206946FEF782
:1026680041FB03B05DF804FB034B1B681844024BA5
:102678001B688342FBD37047E03700202DE9F04305
:1026880085B007468846154601202421002202F01D
:102698009DFB40B30646D7F80490446884F8008050
:1026A8006570002525716571A571E5714068083070
:1026B80079681C2207F0B2FBA570E5702046718985
:1026C80000F0F2F86080D9F80C3004AA42F8043D12
:1026D80000950123019330462946FF2300F05EFA56
:1026E800304602F043FB05B0BDE8F0832DE9F04326
:1026F80085B005460F464668337803F00F039B0004
:102708001FFA83F85B429CB221B202F0F1FA00286A
:102718007FD12B89032B7CD96B681B78082B74D14C
:10272800414B186800F0F003E02B02D04FF001098C
:1027380001E04FF00009394600F04CFA08B14FF0BB
:102748000009B9F1000F03D1284602F00FFB67E03A
:102758002B89072B5DD9284600F0ACF818B128461C
:1027680002F004FB5CE02846222102F0C1FAF8B12D
:102778002846414602F0BCFA00284ED10220298999
:10278800002202F023FB8146002846D0294602F0A9
:1027980009FC002841D1D9F80460484621B202F06A
:1027A800A7FA002839D1284602F0E0FA4D4605E09C
:1027B80028466FF0210102F09BFA70BB6A681A4B39
:1027C8001B68F360194B1B6833610023137053882F
:1027D8004FF6F6718B4202D90933538001E0083372
:1027E8005380FF2333720023B372F37228464146A5
:1027F80002F07EFA48B90022009201230193029761
:1028080028460949FF2300F06FF9284602F0AEFA7E
:1028180006E0284602F0AAFA02E0284602F0A6FAE4
:1028280005B0BDE8F08300BFF0370020E83700208E
:1028380008B50A460321FFF721FF08BD08B50A4677
:102848000B21FFF71BFF08BD10B483B00023ADF8C0
:10285800063010F0010406D0994204DD03788DF8A3
:10286800073001390130002303E00288134402399C
:1028780002300129F9DC002902DD02788DF80620F2
:10288800BDF80600034498B200EB13439AB202EB7A
:10289800134024B103029BB2C0F30720184380B24F
:1028A80003B05DF8044B704708B5FFF7CDFFC04390
:1028B80080B208BD70B505460026344614E0686845
:1028C8006989FFF7C1FF204484B204EB10446B8987
:1028D80013F0010F07D0C6F10106F6B223029BB22E
:1028E800C4F307241C432D68002DE8D126B1230228
:1028F8009BB2C4F307241C43E04380B270BD00BF01
:1029080010B40F4B1B680DE093F82D2012F0010F47
:1029180007D004685A68996862400A4201D118468B
:102928000BE01B68002BEFD1064B186828B190F814
:102938002D3013F0010F00D100205DF8044B7047D3
:1029480040600020446000202DE9F8430746D0F895
:10295800049099F800301A09042A02D002F006FA05
:10296800B5E00E4603F00F034FEA8308B9F80200FA
:1029780000F0DCFC01467B89434502D33B89834256
:1029880003D2384602F0F2F9A1E0384602F0B6FA6E
:10299800D9F810204F4B1A60D9F80C204E4B1A600A
:1029A8003446012594F82D3013F0010F0CD014F1A2
:1029B800040F09D063683BB1464A106883420ED0C1
:1029C800214600F007F950B91DB1444B1C68002599
:1029D80000E02468B44200D12468002CE2D15CB93C
:1029E80099F80930112B09D1C844B8F80230B3F569
:1029F800884F05D0012305E0012303E0012301E00E
:102A08003446002383B1344B186868B1314600F06E
:102A1800E1F828B9304B1B6803F0F003E02B03D131
:102A2800384602F0A3F952E01CB9384602F09EF984
:102A38004DE0B9F8063023F0C0039BB23BB13846ED
:102A480000F0F6FA0746002841D0D0F80490244B4D
:102A58001E60244BC3F800903846314602F036FB1E
:102A680060BB99F80930062B09D0112B02D0012B35
:102A78000FD109E03846314604F008FF1EE0384619
:102A8800314603F083FE19E038463146FFF72EFE43
:102A980014E0104B1868314600F09CF858B90D4BFB
:102AA8001B6803F0F003E02B05D0C7F80490384604
:102AB8000221FFF7BDFE384602F058F90023084A04
:102AC8001360084A1360044A1360024A1360002026
:102AD800BDE8F883F0370020E83700204060002088
:102AE800EC370020F43700202DE9F04383B0054689
:102AF8000C9EAAB3894698461746142102F0F8F8A6
:102B0800002843D16C6884F808809DF82C306372E3
:102B18003B682361452323709DF82830637028891A
:102B280000F0FEFB60800023A371E371DFF868808A
:102B3800B8F8000000F0F4FBA080B8F800300133CA
:102B4800A8F80030B9F1000F02D0D9F8003013B955
:102B58007368E36000E0E3600023A372E37204E0BB
:102B680043681B6902AF47F8043DB38C43B12A8917
:102B7800934205D2284631463A4600F013FB06E058
:102B88007369304629463A46984700E0FE2040B22D
:102B980003B0BDE8F08300BFEC090020F0B585B0B4
:102BA80007460E4614461D461046FFF7A9FE68B1B3
:102BB8009DF8282000929DF82C200192029038461A
:102BC800314622462B46FFF78FFF00E0FC2040B23B
:102BD80005B0F0BD0346421E12F1030F13D891F859
:102BE8002D2002F0020202F0FF009AB14A689A42D0
:102BF8000BD089685A400A4209D1C9430B4099420F
:102C080007D000207047012070470020704700203F
:102C180070470120704700BFF0B585B005460C46E7
:102C280003786E46A3F13002D2B2092A00F28580F9
:102C38005AB2302A0AD1691C6B785AB2782A01D064
:102C4800582A05D1AB780235102703E00A2701E09E
:102C58000D4608270020DAB2A2F13001C9B20929CD
:102C680007D85AB200FB0723A3F1300015F8013F3B
:102C7800F1E7102F1BD1092909D9A2F16101C9B2C5
:102C8800052904D9A2F14101C9B205290FD80001CB
:102C98005BB203F10A01613AD2B2192A01D8612361
:102CA80000E04123CB1A184315F8013FD3E75AB285
:102CB8002E2A07D103AB9E4241D230606B7804368E
:102CC8000135AFE763B15AB2202A09D00C2A07D0E0
:102CD8000A2A05D00D2A03D0092A01D00B2A30D19F
:102CE8006B46F31A9B100133042B20D8DFE803F05E
:102CF800321F030A1400B0F1807F24D2009B40EAFF
:102D0800036014E0B0F5803F1FD2019B1B04009ABA
:102D180043EA026318430AE0FF2818D8019B1B0402
:102D2800009A43EA0263029A43EA0223184384B1F1
:102D380000F000FB206001230CE000230AE00023E0
:102D480008E0002306E0002304E0002302E000235B
:102D580000E00123184605B0F0BD00BF00B583B000
:102D680001A9FFF759FF08B1019801E04FF0FF30C2
:102D780003B05DF804FB00BF08B50346074A1268B4
:102D8800824203D10168054A116001E002680A60C5
:102D98000520194601F0D0FE08BD00BFF00900204B
:102DA8002DE9F04107468846446863689A889AB9CD
:102DB8001B684360606807F10801142207F02EF8C9
:102DC80020460121FFF73AFD204602F0BDF885B202
:102DD800204601F0CBFF00E000257C680AE063682C
:102DE8001E68204602F0B0F8284485B2204601F05B
:102DF800BDFF3446002CF2D138464146FFF7BCFFF0
:102E0800034A13885B1B13802846BDE8F08100BF86
:102E1800F40900202DE9F041054688460026184BA4
:102E28001B680024214620461DE0EA685F69974236
:102E380009D19A69D5F810E0724504D1B3F80CE0CD
:102E4800AA8896450AD0013428B193F81FE0C27FBA
:102E5800964502D902E0184600E018461A6802B9F9
:102E68000B4619461346002BDFD110B1FFF798FF28
:102E78000644464501DA012CD1DC3046BDE8F08134
:102E8800F009002008B50146062001F055FE08BDEE
:102E980010B50446406908B101F068FF2046FFF705
:102EA800F1FF10BDF8B507460E464C68608800F083
:102EB8003DFA227802F00F02C2EB823293001844E6
:102EC80085B2E08800F032FAC0F30C00C1007068E7
:102ED8000024047044708470C470818001EB050E76
:102EE8001FFA8EFEA0F806E07D684FF0010C1CE08A
:102EF8006B689A8891420BD205603CB1E288914296
:102F08003FD39B889E453CD8266010E07E600EE04B
:102F1800914236D0DD88A94233D324B1E488A24255
:102F280001D04FF0000C1D681C46002DE0D155B9AA
:102F38002CB12660E28883889A4202D103E07E6041
:102F480001E04FF0000CBB7F13F0010F25D0BCF15E
:102F5800000F14D07B685B689B885BB9026806E049
:102F68005368C1889A88914207D11A681846002A7E
:102F7800F6D104E04FF0000C01E04FF0000C604681
:102F8800F8BD304601F0E0FF054A1388181A108092
:102F9800304601F0EBFE0020F8BD0020F8BD00BF70
:102FA800F409002008B5062001F0B6FD08BD00BFF1
:102FB80070B505460E46052001F0AEFD044650B931
:102FC80028463146FFF726FFB04203DB052001F013
:102FD800A3FD044694B120460021202206F094FF68
:102FE8000323E377064B1A6822601C6004F108008B
:102FF8002946142206F012FF204670BD002070BD3D
:10300800F009002038B5094B186800240BE0C37F8D
:1030180023B1013BC3770446006804E005682146F4
:10302800FFF7BEFE28460028F1D138BDF009002080
:103038002DE9F047804645682B7803F00F03052BF0
:1030480040F0A380E88800F071F9C0F30C004FEA63
:10305800C00A688800F06AF92B7803F00F03C3EB05
:1030680083339F00384487B2404601F06DFF8146A4
:103078004A4B1B8803440A2B0BDD28464946FFF7B9
:10308800C9FE002800F08180444B1B884B440A2B62
:103098007BDC434B1C6800260DE06269EB689A42B2
:1030A80007D1A2692B699A4203D1A289AB889A42B7
:1030B80003D026462468002CEFD134B92846494667
:1030C800FFF776FF044690B95FE0E88800F02EF934
:1030D800C0F30C0058B9E08900F028F9C0F30C00DF
:1030E80028B104F108002946142206F097FE2B4A5D
:1030F80013889944A2F80090EB8803F020039BB250
:103108002BB9A37F43F00103A3775744A783204635
:103118004146FFF7C7FE00283DD0A38B1433A38395
:1031280063685F683D68384604F10801142206F0B8
:1031380075FEA08B00F0F4F878800023BB71FB715A
:10314800BB72FB7238461421FFF7AEFB7881D4F8C6
:1031580004800AE06F6828466FF0130101F0C8FD8B
:103168004046294601F000FF3D68002DF2D1204677
:103178003146FFF701FE404601F0E6FE074A138894
:10318800181A10804046BDE8F087404601F0EEFD71
:103198000020BDE8F0870020BDE8F087F409002092
:1031A800F00900202DE9F04F8DB005460A910B92E9
:1031B8008C8C43680993D88800F0B8F8C0F30C03E6
:1031C800049300F4005083B20893B5F80890A9F16D
:1031D80014091FFA89F9A4F114030793002B00DAE4
:1031E8000733C3F3CF030693002414268AE0079B12
:1031F8004B45B4BF00230123049AC2F30C0208997B
:1032080041EA020A0BB94AF4005A23B9069BDB00CB
:103218009BB2059301E0CDF81490022014210022FE
:1032280001F0D4FD8046002872D040680999142224
:1032380006F0F4FDD8F804B06B6833446B606B8912
:103248009E1B6E81059E31E06C89B44228BF3446CE
:10325800A4B20CB92D6829E0FFF7A4FE074620B9EF
:10326800404601F083FDFF2053E06B680093019412
:103278000320214602223B4601F00AFD039038B99B
:103288003846FFF7FFFD404601F070FDFF2040E0A3
:10329800284601F063FE7D61204B3B61404603995F
:1032A80001F062FE361BB6B206B12D68002ECBD1F6
:1032B8002646504600F034F8ABF80600059F07F1A3
:1032C800140080B200F02CF8ABF8020000238BF851
:1032D8000A308BF80B3058461421FFF7E5FAABF8A3
:1032E8000A000A98436941460B9A9847404601F0FC
:1032F8003DFDC7EB09091FFA89F9049B069A134497
:103308009BB20493B9F1000F7FF471AF002000E085
:10331800FF2040B20DB0BDE8F08F00BF992E000825
:10332800030A43EA002080B2704700BF08B5FFF7E0
:10333800F7FF08BD00F47F431B0243EA006300F473
:103348007F0243EA122343EA1060704708B5FFF78B
:10335800F1FF08BD037B8B4203D001730023437345
:103368004383704730B44469038B5D1C0583234451
:1033780083F8F0104169038B5C1C04830B4483F8C9
:10338800F02030BC704700BF10B44269038B5C1C4E
:103398000483134483F8F0105DF8044B704700BFB2
:1033A80010B44469038B5A1C02830A0A234483F825
:1033B800F0204269038B5C1C0483134483F8F010EB
:1033C8005DF8044B704700BF10B44469038B5A1C66
:1033D80002830A0E234483F8F0204469038B5A1CA5
:1033E8000283C1F30742234483F8F0204469038B26
:1033F8005A1C0283C1F30722234483F8F020426950
:10340800038B5C1C0483134483F8F0105DF8044BB1
:10341800704700BF0246B8B14169038B581C10833E
:103428000B44FF2183F8F01006E05169581C108303
:103438000B44002183F8F010138B432B02D913F0AF
:10344800030F01D0432BF0D9704700BF002800F0CC
:10345800A3802DE9F0410646002900F0A08015461A
:103468000C4600204FF49A71024601F0AFFC20612F
:10347800002800F09680637B1BB94C4A136801331F
:1034880013604A4B1B682360426862610123137012
:1034980062695370636996F826209A7063690027F9
:1034A800DF70D4F814802068FFF744FFC8F80400E0
:1034B80063691F725F7263699F72DF7263691F734A
:1034C8005F739F73DF73082D08D0042D06D0032D7A
:1034D80007D1237B043BDBB2012B02D863697268F6
:1034E800DA6062690023137453749374D374626945
:1034F800137553759375D3756269137653769376FE
:10350800D3760EE060691A4696F82610994203D9D8
:10351800F11891F8271000E00021024411770133D7
:103528009BB20F2BEED9002306E062691A440021F2
:1035380082F82C1001339BB23F2BF6D9002306E00A
:1035480060691844002280F86C2001339BB27F2BFD
:10355800F6D962690023632182F8EC106FF07D00D0
:1035680082F8ED00532082F8EE0082F8EF102383F2
:1035780005E062691A4482F8F03001339BB2432BAC
:10358800F7D9204635210122FFF7ECFE20462946CF
:10359800FFF7FAFE002005E0F22040B27047FA205B
:1035A80000E0FF2040B2BDE8F08100BF30000020FD
:1035B80048B110B50446006908B101F0D7FB0023F3
:1035C8002361636110BD704770B582B00646046A16
:1035D80020460421FFF7BEFE304621460322FFF7AE
:1035E80035FF0546D8B9204639210222FFF7BAFE31
:1035F8002046B18CFFF7D4FE2046FFF70BFF218B46
:10360800F031206989B201F079FC6068216900967F
:10361800104A432304F04CFA2046FFF7C9FF637BA6
:103628000133DBB26373092B06D8C3EB431203EBF8
:103638008202D3009BB201E042F2107303F2F3134B
:10364800054A82FB0312DB17C3EB62136383284628
:1036580002B070BD58030108D34D621008B5036A63
:103668001B7B012B03D00A2B01D0052B01D1FFF7BF
:10367800ABFF08BD70B582B00646046A00236362DA
:1036880020460621FFF766FE304621460122FFF755
:10369800DDFE054680BB204639210222FFF762FE87
:1036A8002046B18CFFF77CFE204637210422FFF725
:1036B80059FE20460121FFF767FE20460321FFF748
:1036C80063FE20461C21FFF75FFE20460621FFF718
:1036D8005BFE2046FFF79EFE218BF031206989B200
:1036E80001F00CFC606821690096104A432304F03D
:1036F800DFF92046FFF75CFF627B0132D2B26273CA
:10370800052A04D84FF47A7393409BB201E04EF631
:10371800602303F2F313064A82FB0312DB17C3EBA1
:1037280062136383284602B070BD00BF58030108C6
:10373800D34D621070B582B00646046A2046012156
:10374800FFF708FE304621460322FFF77FFE0546B5
:10375800002848D1204639210222FFF703FE2046DF
:10376800B18CFFF71DFE204632210422FFF7FAFD37
:10377800606AFFF7EBFD01462046FFF725FE20466D
:1037880036210422FFF7EEFD206AFFF7DFFD014630
:103798002046FFF719FE204637210422FFF7E2FDF5
:1037A80020460121FFF7F0FD20460321FFF7ECFD3D
:1037B80020461C21FFF7E8FD20460621FFF7E4FD1F
:1037C8002046FFF727FE218BF031206989B201F0EE
:1037D80095FB6068216900960F4A432304F068F955
:1037E8002046FFF7E5FE627B0132D2B26273052AFA
:1037F80004D84FF47A7393409BB201E04EF66023ED
:1038080003F2F313054A82FB0312DB17C3EB6213BF
:103818006383284602B070BD58030108D34D621077
:1038280038B5056A074B9B785BB10446064B986828
:10383800FFF780FD2862AB681B696B622046FFF7C3
:1038480079FF38BDF83700200438002070B582B001
:103858000646046A20460321FFF77CFD30462146D0
:103868000322FFF7F3FD054640BB2046392102221B
:10387800FFF778FD20464FF41071FFF791FD2046C1
:1038880032210422FFF76EFD606AFFF75FFD0146F3
:103898002046FFF799FD2046FFF7BCFD218BF0314C
:1038A800206989B201F02AFB606821690096114AF3
:1038B800432304F0FDF82046FFF77AFE637B0133CB
:1038C800DBB26373092B06D8C3EB431203EB820206
:1038D800D3009BB201E042F2107303F2F313064ADD
:1038E80082FB0312DB17C3EB62136383284602B023
:1038F80070BD00BF58030108D34D621070B582B087
:103908000546046A20460C21FFF724FD2846214677
:103918000422FFF79BFD0646F0B920463221042217
:10392800FFF720FD606AFFF711FD01462046FFF70B
:103938004BFD2046FFF76EFD218BF031206989B2DF
:1039480001F0DCFA606821690095074A432304F016
:10395800AFF82046FFF72CFE637B01336373142313
:103968006383304602B070BD5803010838B5054678
:10397800046A20460821FFF7EDFC284604F12401DB
:10398800002204F005FC637B013363730123638326
:1039980038BD00BF002867D030B583B00546046A3B
:1039A800002C5FD0636BB3F1FF3F0ED01E332F4A5C
:1039B800A2FB03235B09B3F5803F01D34FF6FF73E6
:1039C8009BB2A3830BB90123A383A36BB3F1FF3F7E
:1039D8000ED01E33254AA2FB03235B09B3F5803FB3
:1039E80001D34FF6FF739BB2E3830BB90123E38343
:1039F800A28BE38B9A4202D30BB10023A383A37B50
:103A080013B1A36A019310E094F8243013F0800FE7
:103A180002D1FF23019308E0BF2B03D96FF07F4346
:103A2800019302E04FF6FF730193E36A00932BB909
:103A3800626A019B134043F080730093284604F1A7
:103A4800240101F085F8284601A901F0B9F82846B3
:103A5800694601F0AFF8284601F0F4F820460A213B
:103A6800FFF778FC03B030BD704700BF89888888AD
:103A78002DE9F04F85B004468B469A4800210A226A
:103A880006F042FABBF80A302B2B40F22881DBF80B
:103A98000430A360BBF80870002301930093F0255D
:103AA80008E000230093EC276C2503E00023019332
:103AB8006C272C255B4604E0AD1AADB2BF1ABFB225
:103AC8001B6813B15A89AA42F6D99946002B00F00F
:103AD8000D81D3F804A0D5E0AE1CB6B26B1CB9F8C2
:103AE8000A00834203DA01311AF8013006E0D9F8F6
:103AF800003013B15B681B7800E000233B2A6CD8C8
:103B0800DFE802F01E256B2C6B6B336B6B6B6B6BFA
:103B18006B6B6B6B6B6B6B6B6B6B6B6B6B6B6B6BED
:103B28006B6B6B6B6B6B6B6B6B6B6B6B6B6B6B6BDD
:103B38006B6B6B6B6B6B6B41484F566B6B6B5D6460
:103B4800013DADB24FF0FF380024234648E0042B76
:103B580040F0CE801C464FF0060841E0032B40F2AF
:103B6800C9804FF0070804243AE013F0030F40F02F
:103B7800C3801C46082B28BF0824A342C0F0BE807F
:103B88004FF008082CE0042B40F0BA801C464FF098
:103B9800030825E0012B40F0B5801C464FF00008D3
:103BA8001EE0012B40F0B0801C464FF0010817E0E2
:103BB800042B40F0AB801C464FF0020810E0042BA9
:103BC80040F0A6801C464FF0040809E0042B40F0A2
:103BD800A1801C464FF0050802E04FF0FF38002492
:103BE8001D440235ADB2002C3DD0002303933D4B5C
:103BF80013F80830002B36D1032C01D8A2B200E00C
:103C08000422484603A9334601F022FA042C13D9AA
:103C180014F0030F25D10122324B03F80820039832
:103C2800FFF788FB304B43F82800043CE4B2043625
:103C3800B6B208F10108DAE7042C04D10398FFF7BB
:103C480085FB039004E0012C0BD19DF80C30039305
:103C58000122244B03F80820039A234B43F8282019
:103C680001E0FA2057E0B9F80A30AB420AD8ED1A59
:103C7800ADB2FF1ABFB2BD420FD277B1D9F80090EA
:103C8800D9F804A0B9F1000F07D029461AF8052081
:103C9800FF2A02D0BD42FFF41FAF124B1B78A3B11D
:103CA800114B1B6800210F4A1170012B04D0022B05
:103CB80005D0032B09D105E00123009305E001237A
:103CC800019302E0012301930093009B002B7FF4F2
:103CD800E8AE019B002B7FF4E9AE00201BE0FE203C
:103CE80019E000BFF837002004380020FE2012E059
:103CF800FA2010E0FA200EE0FA200CE0FA200AE0A0
:103D0800FA2008E0FA2006E0FA2004E0FA2002E0AF
:103D1800FA2000E0FA2040B205B0BDE8F08F00BFFD
:103D280010B582B0046A0023A362E362244BDB78F7
:103D380013B1244BDB682363214B1B791BB1214B47
:103D48001B69636302E0236B5B0863631C4B5B794D
:103D58001BB11C4B5B69A36301E0236BA363A368DE
:103D68001B696362164B9B793BB1164B9869FFF749
:103D7800E1FAA0620123A37301E00023A373104BAF
:103D8800DB7923B10F4BD869FFF7D4FAE06200243E
:103D98000CE00C4A52F82300FFF7CCFA02A941F8CC
:103DA800040D204600F0D6FC0134E4B204F1080307
:103DB800034AD25C0AB1012CEBD902B010BD00BF96
:103DC800F83700200438002070B50446066A00F071
:103DD8004FFF0A4D2046294600F0BAFE20462946E4
:103DE80000F0E8FE2046294600F0EAFE30460C21A5
:103DF800FFF7B0FA2046FFF73DFC70BD5C030108F1
:103E080070B504461546066A506853892B2B4ED95F
:103E18000378022B4BD1002308E0E21892F8271010
:103E2800C218127F914242D10133DBB294F82620A6
:103E38009A42F2D84068FFF789FA3368984236D137
:103E480030462946FFF714FE88BB1C4B5B7873B3DA
:103E58001B4B1B79052B11D1337B012B06D1204637
:103E6800FFF75EFF2046FFF781FD20E0033BDBB252
:103E7800022B1CD82046FFF78DFD18E0062B0CD12D
:103E8800327B032A05D0012A03D0042A01D0052A4F
:103E980003D12046FFF798FF09E0022B07D1337BB7
:103EA800062B04D1002373832046FFF7B9FC0023B7
:103EB800B360284600F05AFF70BD00BFF8370020F5
:103EC8000438002070B108B50246036A4BB1187B6C
:103ED800082806D109685B6A994202D11046FFF7A3
:103EE8000DFD08BD704700BF70B582B00646046A74
:103EF80020460521FFF72EFA304621460322FFF718
:103F0800A5FA0546E0B9204639210222FFF72AFA28
:103F18002046B18CFFF744FA2046FFF77BFA218B45
:103F2800F031206989B200F0E9FF606821690096E4
:103F380004F12002432303F0BBFD2046FFF738FBC2
:103F4800637B0133DBB26373092B06D8C3EB4312DF
:103F580003EB820213019BB201E044F6206303F2F3
:103F6800F313054A82FB0312DB17C3EB6213638367
:103F7800284602B070BD00BFD34D621008B5036A71
:103F88001B7B012B03D00A2B01D0052B01D1FFF796
:103F9800ABFF08BD10B50D4B1C6814E0236A8BB14C
:103FA800DA8B511ED983012A03D12046FFF756FB2D
:103FB80008E0226A938B591E9183012B02D1204677
:103FC800FFF7DCFF2468002CE8D110BD406000201A
:103FD80070B582B00546046A20460021FFF7BAF999
:103FE800002323626362A362E362A36363632363C0
:103FF800284621460722FFF729FA064698B920469F
:10400800FFF708FA218BF031206989B200F076FFBA
:1040180060682169009504F12002432303F048FDFC
:104028002046FFF7C5FA637B0133DBB26373092BC4
:1040380006D8C3EB431203EB8202D3009BB201E024
:1040480042F2107303F2F3130C4A82FB0312DB17DC
:10405800C3EB62136383284600F00AFE084C284627
:10406800214600F075FD2846214600F0A3FD2846AC
:10407800214600F0A5FD304602B070BDD34D621058
:104088005C03010810B50446026A137B0C2B01D0AF
:10409800062B03D12046FFF7EDFA10BD012B0BD1FB
:1040A800537B052B02D8FFF745FB10BDFFF790FFA8
:1040B8002046FFF7DFFA10BD082B08D1537B012BF0
:1040C80002D8FFF753FC10BDFFF764FC10BD052BA9
:1040D80002D1FFF709FF10BD042B0BD1537B082B2E
:1040E80002D8FFF771FA10BDFFF772FF2046FFF7FD
:1040F800C1FA10BD032B07D1537B012B02D8FFF760
:10410800A5FB10BDFFF7B6FA10BD00BF10B50B4BED
:104118001C680FE0226A62B1538B012B02D9013B64
:10412800538306E0012B04D1013B53832046FFF75C
:10413800A9FF2468002CEDD110BD00BF406000200D
:1041480098B110B5046A90F82D2022F0080280F882
:104158002D204CB1606818B103F04EFD0023636058
:1041680020460021FFF7F6F810BD7047002849D017
:1041780070B5056A90F82D3003F0F70380F82D30FC
:1041880013F0200F41D0838CB3F5107F3FD3044642
:104198003DB93C2000F032FC0546002839D02062A9
:1041A80003E0686808B103F027FD284600213C2297
:1041B80005F0AAFE03F03AFD686060B3037A43F0A5
:1041C80020030372154E68683146442203F034FC1C
:1041D80068683146432203F0E3FC686810492246C8
:1041E80003F006FD2046FFF745FA20B12046FFF709
:1041F800A7FFFF2010E094F82D2042F0080284F871
:104208002D2009E0F22040B27047F22004E0FF20A0
:1042180002E0FF2000E0FF2040B270BD5C0301080F
:10422800093E000810B40246481C0B7803F0C00190
:10423800C02910D0014607E01478087884420CD1D0
:1042480001310132013BDBB2002BF5D10132087894
:104258000028E9D102E0002000E001205DF8044BCD
:10426800704700BF421C037803F0C001C0290AD080
:10427800104602E00130013BDBB2002BFAD1037893
:10428800002BEFD100E01046013070472DE9F047D0
:1042980084B014461289B2F5007F00F2BE80192A54
:1042A80040F2BB802046604B1968002300F0D0FE26
:1042B8002389984240F0B1805B4B1E683088FFF735
:1042C8002FF80546032800F2A8804FF48C7303FBEF
:1042D80000F3564AD35C022B40F09F804FF48C7356
:1042E80003FB00F3D1180320D054F37803F00F0335
:1042F8004B71B088FFF714F88046F088FFF710F884
:10430800074696F90230002B69DA4FF48C73474A56
:1043180003FB05235B79002B61D1B8F1010F5ED156
:104328004FF48C7303FB05260C363F4B1B6803F1D7
:104338000C0830464146FFF775FF00284FD140462C
:10434800FFF790FF043048E0FFF78CFF814601A893
:1043580049460A2205F062FD019BB3F1012F34D1D1
:10436800BDF80C30B3F5806F2FD10298FEF7EEFF41
:104378004FF48C732D4A03FB052398602C4B98420D
:1043880005D94FF48C7303FB0523294A9A60DFF89B
:104398009CA04FF48C7303FB05F70AEB070808F59C
:1043A8008678404609F10A01042205F037FD574492
:1043B800D7F810718FB34FF48C7303FB05A5304603
:1043C8004146D5F81421B84727E0BDF80C00FEF7A0
:1043D800A7FF0A304844013FBFB2002FB4D14FF4C1
:1043E8008C73124A03FB0523D3F810615EB11146A2
:1043F8004FF48C7202FB05F3C81803460C300021F9
:10440800D3F81421B047094A4FF48C7303FB05F520
:10441800511900235355C1F81031204600F0A6FC6D
:1044280004B0BDE8F08700BF68100020F80900203C
:10443800803A09002DE9F04182B006460C469046C4
:1044480000204FF48871024600F0C0FC00284FD0CD
:1044580005464768384600210C2205F055FD4046C0
:10446800FEF75EFF38800123BB7000233B710123F8
:104478007B710C37611E00E007460131781C002271
:1044880004E000F8013B0132D2B201310B785CB292
:104498002E2C01D0002BF4D13A700B78002BEBD1E5
:1044A800044604F8053B4FF48073ADF80430ADF8CA
:1044B8000630013001A9042205F0B0FC6968611AD0
:1044C800284689B200F01AFD0C4B03EB86060C4C0B
:1044D80020683146352203F063FB206829463246BE
:1044E800352303F047FB0446284600F03FFC00E074
:1044F800FF2460B202B0BDE8F08100BF580E002072
:104508006410002038B504464FF48C7303FB00F3A5
:10451800454AD35C022B17D0032B71D0012B40F0F6
:10452800828011464FF48C7202FB00F3CA180220F5
:10453800C8540020507001259570D07011460C3178
:104548002246FFF777FF38BD4FF48C73364A03FBDA
:1045580000229378013BDBB29370002B63D14FF4B8
:104568008C73314A03FB0022D3780133DBB2D3705A
:10457800042B37D14FF48C732B4A03FB00235B7851
:104588005A1C012A0FDC294951F822205AB14FF44C
:104598008C72254902FB0014013363700123A37058
:1045A8000023E37038BD4FF48C731F4A03FB0423C8
:1045B800D3F810515DB111464FF48C7202FB04F32D
:1045C800C81803460C300021D3F81421A847164A0E
:1045D8004FF48C7303FB04F4111900231355C1F82D
:1045E800103138BD10494FF48C7000FB04F2881864
:1045F8008370014640780C312246FFF71BFF38BD17
:104608004FF48C73084A03FB00229368013B9360C4
:104618004BB9054A4FF48C7303FB04F411190023BA
:104628001355C1F8103138BDF8090020580E002084
:1046380010B5002404E02046FFF764FF0134E4B21B
:10464800032CF8D910BD00BF2DE9F0410026B6466D
:10465800B446344614E02A4D4FF48C7303FB04F33C
:10466800EE18EB5C73B1032B08D1264B1B78357918
:104678005F1B674502DD5FFA87FCA6460134E4B29A
:10468800032CE8D9042C10D1BEF1030F32D84FF413
:104698008C7303FB0EF31A4CE35C032B2CD174468A
:1046A8004FF48C76164B06FB0E3607460123337003
:1046B800144803785D1C05703371C6F81011C6F8EC
:1046C8001421384605F0CAFDFE2804D8384605F0FE
:1046D800C5FD054600E0FF2506F10C0039462A46CF
:1046E80005F09CFB2E44002333732046FFF70AFF96
:1046F800FB2002E0FF2000E0FF2040B2BDE8F0818F
:10470800F8090020F609002070B5064600241AE0D2
:104718004FF48C7303FB04F30D4AD35C032B10D1C5
:104728004FF48C7303FB042130460C3105F05AFC1E
:1047380038B94FF48C72064B02FB0435D5F80C01DE
:1047480070BD0134E4B2032CE2D94FF0FF3070BDE4
:10475800F809002001280AD8054B1B683BB131B184
:1047680029B10B681BB11A46024B43F82020704749
:1047780064100020580E002000B583B0104B23F0C1
:104788000303104A13601048FEF7E8FA01900F4B34
:104798001B6893B903F04AFA0C4B186068B10C49CE
:1047A800002203F049F9094B18680A49002203F06E
:1047B8001FFA002001A9FFF7CDFF03B05DF804FB45
:1047C800630E0020681000206003010864100020B8
:1047D8005C0301089542000808B5034B1B680BB140
:1047E800FFF726FF08BD00BF64100020F8B5174C7E
:1047F800246804B309B310B3047814B31E461746EB
:104808000D46044605F02AFDFF281CD82046FEF771
:10481800A5FAB0F1FF3F02D12046FFF775FFB0F1CE
:10482800FF3F02D0286000200EE02046394632467D
:10483800FFF70AFF08E0F22006E0F22004E0F22089
:1048480002E0F22000E0F22040B2F8BD641000203F
:1048580010B4164B1B6801885A18904211D014796D
:104868007CB9134C2468A2420BD0124C24689442A1
:1048780001D1104A10605A5A02805A5A1A44C11A71
:10488800518041885A1882420DD014795CB9094C7C
:104898002468844201D1074C226004885C52018854
:1048A8001944D31A4B805DF8044B704774100020EC
:1048B800701000206C1000200A4B23F003030A4AF2
:1048C80013604FF42051198000225A801A715A1827
:1048D800064802600120107111805180044A13605B
:1048E800704700BF2F38002074100020701000207F
:1048F8006C100020B0B108B503460B4A126890420C
:104908000FD30A4A126890420BD20838002203F8E3
:10491800042C074B1B68984201D2054B1860FFF71F
:1049280097FF08BD704700BF74100020701000206A
:104938006C10002003314FF6FC730B400B2B00D892
:104948000C23B3F5205F4DD8F0B4294A1468A0426F
:104958004BD3284A1268904247D2A0F10801091B9C
:1049680089B230F8085C6A1A083A92B293423BD886
:104978003BD066193779C7B9655B0B4408339BB2DE
:104988001D4A1268B24202D1E2181B4E3260E21888
:1049980000261671E552518020F8083CE25AB2F51B
:1049A800205F22D0144463801FE003F11405954270
:1049B8001BD80B4408339BB2E2180F4D2D68AA424E
:1049C80001D20D4D2A600025157130F8085CE552BA
:1049D800518020F8083CE25AB2F5205F05D0144413
:1049E800638002E0002070470020F0BC704700BFE1
:1049F80074100020701000206C10002000284ED089
:104A080030B4034603334FF6FC751D400B2D00D818
:104A18000C25B5F5205F44D8234B1C68234B1B6835
:104A28001B1B9BB235E0E0180179002930D1E25A0E
:104A3800D21A083A2946AA422AD314318A4212D3F2
:104A48005A19083292B2A11800250D710588A5528D
:104A58004B80028001230371A35AB3F5205F04D071
:104A680023445A8001E001230371104B1B689842CC
:104A78000CD103E00C4A12681B8813441A791AB146
:104A88000B4A12689342F5D1084A1360083009E0CE
:104A98000388C5F520518B42C5DB002002E00020C9
:104AA8007047002030BC7047741000206C10002044
:104AB80070100020002301E001339BB2092BFBD9C1
:104AC80030B4114921F00301002518E02A460023DB
:104AD8000E4840F825300BE00C4850F822400C6096
:104AE80040F822100A4830F81200014401339BB202
:104AF800084830F812009842EED80135ADB2092DB9
:104B0800E4D930BC704700BF7B100020A4340020DB
:104B18008403010870030108092809D8054B53F8D4
:104B280020301BB11968034A42F820101846704714
:104B380000207047A43400200B4629B1034A52F8DC
:104B48002010196042F82030704700BFA4340020BC
:104B580070B504460D4619B30A6843689A421FD0D7
:104B6800124B186809E0026863689A4204D1C66863
:104B780000F0D0FE304600E0C0680028F3D10C4BAE
:104B88001B680BE04BB11A683AB161688A4204D1DC
:104B98000DB12A6800E000221A60DB68002BF1D111
:104BA8000DB12B6800E00023636070BD4C600020ED
:104BB8005460002009B10B6800E00023C36070470F
:104BC80009B10B6800E000238360704770B50446A4
:104BD80016461D46FFF7BCFF20463146FFF7F0FF9B
:104BE80020462946FFF7E6FF70BD00BFF8B504462A
:104BF800002545608560C56080F82D500562069DDA
:104C0800C5610B4E35786F1C377080F83050089DA1
:104C18000561FFF7DBFF2046079B984728B9054B3E
:104C28001A6822601C602046F8BD0020F8BD00BF4D
:104C3800CC34002040600020014B1860704700BF52
:104C48004460002008B590F82D3013F0010F0DD105
:104C580043F0010380F82D3013F0100F06D013F045
:104C6800200F03D00146043103F048FA08BD00BF05
:104C780008B590F82D3013F0010F08D003F0FE03AB
:104C880080F82D3013F0200F01D003F019FA08BD79
:104C980070B4039D032825D8DFE800F00208040655
:104CA800362004E00E2002E0002000E0222003303D
:104CB80020F003040C44BDF81060B44214DC002456
:104CC8001C6025B120F003002844586001E0002052
:104CD800586002205873198159811A730122DA81A8
:104CE800184602E0002000E0002070BC704700BFBA
:104CF80010B461B30B4660B3002905DA494289B2A2
:104D080042898A4201D226E089B2027B44680AB10C
:104D1800032A08D1E21A426000F110018A420DD23A
:104D2800446001201EE0013A92B2012A15D8002BF6
:104D380015DA42898A4214D3E41A44609BB2428944
:104D48001A44428102891344038100200AE00020AA
:104D580008E0002006E0012004E0012002E0012034
:104D680000E001205DF8044B704700BF60B338B520
:104D78000146002424E0CB89013B9BB2CB81F3B9E7
:104D88000D680B7B4A7B12F0020F03D00B690846B3
:104D9800984710E0032B03D10920FFF7CDFE0AE066
:104DA800013B9BB2012B03D80820FFF7C5FE02E0A8
:104DB8000846FFF79FFD0134E4B2294600E00021D0
:104DC8000029D8D1204638BD002070472DE9F04190
:104DD80088461646032800F28180DFE800F00208C2
:104DE8000406362704E00E2702E0002700E0222709
:104DF800032E76D8DFE806F0435E5E020920FFF74F
:104E08008BFE054600286FD0067300230360C31984
:104E1800133323F003034360A0F80880FC1C24F03C
:104E28000304C4F500744445A8BF4446A3B24381B3
:104E38000122C281C3EB080407461DE00920FFF7E1
:104E48006BFE28B92846FFF791FF0020BDE8F081E6
:104E580006730022427302603860A2B20281B2F582
:104E6800007F28BF4FF40072428100F110014160B9
:104E78000121C181A41A0746002CDFDC27E007F1D5
:104E8800130020F0030008F1030323F00303184480
:104E980080B2FFF7B3FD054648B30744133727F040
:104EA80003074760A0F80880A0F80A800023036081
:104EB80006730CE00820FFF72FFE0546D0B100234B
:104EC8004360A0F80880A0F80A80036006730123F5
:104ED800EB8100236B732846BDE8F0810020BDE814
:104EE800F0810020BDE8F0810020BDE8F0810020BD
:104EF800BDE8F0810020BDE8F08100BF38B5044668
:104F08000D4602898A421ED98A1A05E0691A8DB2AD
:104F180023891344238124686189A942F6D3237B1A
:104F28004BB9A94207D063681B1B5919204689B29F
:104F3800FFF700FD044665812581206808B1FFF769
:104F480015FF0023236038BD0346002002E001302E
:104F5800C0B21B68002BFAD1704700BF10B1C389DB
:104F68000133C381704700BF98B1034631B9704718
:104F78000C891A8922441A81034600E010B4186883
:104F88000028F5D108891A8902441A8119605DF848
:104F9800044B704710B50C46FFF7E6FF2046FFF7B5
:104FA800DDFF10BD002844D02DE9F0410D4607462D
:104FB800002941D002890B899A423FD34FF000085B
:104FC80046467B89991B6C89C8EB0402914201DB38
:104FD80094B201E09B1B9CB27868696830444144F4
:104FE800224604F01BFF2644B6B244441FFA84F854
:104FF8006B89434502D82D684FF000087B89B3427E
:1050080005D13F6817B9DDB9002600E000262DB1AB
:105018006A892B899A4201D12B689BB92FB17A8969
:105028003B899A4201D13B6873B9002DC9D1002050
:105038000BE0F22040B27047F22006E0F22004E0D4
:10504800F22002E0FA2000E0FA2040B2BDE8F08148
:1050580080B32DE9F84388469146054661B370B39D
:1050680081B300273E461DE02BB16989994202D8D9
:105078005B1A9BB215E06C89E41AA4B24C4500D9BE
:105088004C46696808EB06001944224604F0C6FE3F
:105098002744BFB22644B6B2C4EB09041FFA84F908
:1050A80000232D68B9F1000F01D0002DDCD138465E
:1050B800BDE8F883002070470020BDE8F883002091
:1050C800BDE8F8830020BDE8F88300BF2DE9F04172
:1050D800804643685F7A184B1C6800252E4624E0FA
:1050E800237C9F421FD12CB123681BB1134A12683D
:1050F800934218D1D4F814C0BCF1000F13D0A069A2
:10510800214642460E4BE04768B14EB1E368F36072
:10511800094B1A68E2601C6001254FF0000802E0A4
:1051280001254FF000082646E4680DB9002CD7D1B8
:105138002846BDE8F08100BFD0340020F0370020B9
:10514800E837002010B40024154A1388591C118030
:105158004FF6FF72934203D14FF44042104B1A802E
:10516800002014E00F4B53F820301B680BE0598BDC
:105178000B4A1288914205D10134A4B2B4F5804F8C
:10518800E2D309E0DB68002BF1D10130C0B203287B
:10519800E8D9034B188800E000205DF8044B7047FD
:1051A800340000209803010870B4856A848D2A1998
:1051B800016BC38E40F2B456B34200D933460B4458
:1051C800D31A002B02DBC485501A09E06B1A002B96
:1051D80003DD0022C285104602E0491BC18500207C
:1051E80070BC704710B50446838D194489B2818517
:1051F80040F66833994200D983852046FFF7D4FFEB
:1052080040F2D923984206DDA37F43F00203A37737
:10521800204602F023F810BD50B110B5044640688E
:1052280008B1FFF7A3FD04202146FFF785FC10BD58
:10523800704700BF10B503E00468FFF7EDFF204694
:105248000028F9D110BD00BF01617047C1677047E0
:10525800C0F88810704700BF41617047C0F88410DB
:1052680080F82020704700BF037ED3B10A2B18D0E6
:10527800012B16D010B50446406F18B1FFF776FD24
:10528800002363674FF6FF73A386E06EFFF7D2FF34
:10529800206FFFF7CFFF0023E3662367A4F86A3087
:1052A80010BD70472DE9F04182B0A84A1368013358
:1052B8001360A74A137801331370A64B1C680026A5
:1052C8001CE194F82120A24B1B789A4201D1E46892
:1052D80014E184F82130237E022B03D194F8462070
:1052E800062A54D094F846100C2952D094F89120EC
:1052F800BAB194F890300133DBB284F89030511E83
:105308009548415C8B4246D3002384F89030062AA6
:1053180002D8013284F89120204602F047F900258E
:105328003EE0A28E12F4004F01D10132A286226F14
:105338009AB3B4F93400B4F9442090422FDB022B1D
:105348000AD0B4F94020B4F9423003EBE203834AAF
:10535800525C9340A4F844300023A386B4F860203C
:10536800B4F84C30934228BF13465B08A4F84E307B
:10537800E28EB3EB420F02DA5200A4F84E20E38E1D
:10538800A4F84C30204602F085F8002508E00125F5
:1053980006E0012504E0002502E0002500E00025E4
:1053A800237E062B0BD1A27F12F0100F07D0616A63
:1053B800664A1268521A282A01D90135EDB2227AB2
:1053C80012F0080F2CD0042B01D0072B2AD1626AC7
:1053D8005E4B1B689A1AD4F88C0000F5242303F658
:1053E800B8435F49A1FB0313B2EB531F03D901353F
:1053F800EDB2012719E094F892105A4B03FB010310
:105408005749A1FB0313B2EB531F0DD9204602F0F5
:10541800AFF894F89230013384F89230002704E012
:10542800002702E0002700E00027237E032B07D196
:10543800616A464A1268521A282A01D90135EDB222
:10544800092B07D1626A414B1B689B1AF02B01D9C3
:105458000135EDB265B32046FFF706FF16B1E368E4
:10546800F36002E0E2683B4B1A604FB1206DA16A1D
:10547800638B0093A38B01932246231D01F0CCFF7D
:10548800D4F88850D4F81080E76802202146FFF746
:1054980053FB0022344B1A701DB140466FF00901CE
:1054A800A847314B1B78002B7FF407AF3C4625E01B
:1054B800E568E37F0133DBB2E37794F82020934279
:1054C80017D30023E377284A1370D4F884301BB12C
:1054D80020692146984700E00020234B1B78002BC9
:1054E8007FF4EBAE40B9204601F0B8FE26462C46C4
:1054F80004E026462C4601E026462C46002C7FF484
:10550800E0AE1A4B1D681CE06A6A104B1B689B1AB8
:10551800F02B01D8002300E0012383B12846FFF7D0
:10552800A3FE14B1EB68E36002E0EA680F4B1A606F
:10553800EE6802202946FFF7FFFA354601E02C46BF
:10554800ED68002DE0D102B0BDE8F0815060002088
:10555800D53400204C600020B8030108A8030108D6
:10556800D34D6210F82401004860002064600020D8
:1055780010B50C4603688B4202D1DB6803600EE06D
:10558800124A136007E0DA68A24202D1E268DA60E0
:1055980005E00E4B1A600D4B1B68002BF3D100235E
:1055A800E3602046FFF760FE237E0A2B0BD0012B19
:1055B80009D0A37F13F0010F05D043F00203A377AE
:1055C800204601F04BFE0023237610BD58600020D2
:1055D80030B583B00446002947D0037E042B01D0A0
:1055E800072B42D1636F23B9A28D40F668339A42E4
:1055F8003BD0206DA16A638B0093A38B0193224655
:10560800231D01F009FF2046FFF72EFE4A4B1B68B9
:10561800A34203D1DA68484B1A600EE0474A136088
:1056280007E0DA68A24202D1E268DA6005E0434B9B
:105638001A60424B1B68002BF3D10023E360012260
:105648003F4B1A70237E042B09D10A2323763D4B46
:105658001A68E2601C6002F027F8002069E0022066
:105668002146FFF769FA002063E0237E072B58D80C
:10567800DFE803F00426313F4757574F638BC3B128
:10568800314B1B68A34203D1DA682F4B1A600EE036
:105698002A4A136007E0DA68A24202D1E268DA60B7
:1056A80005E0264B1A60254B1B68002BF3D100231D
:1056B800E36002202146FFF73FFA0024254632E046
:1056C80022482146FFF754FF03202146FFF734FA0A
:1056D8000024254627E018482146FFF749FF012204
:1056E800174B1A7002202146FFF726FA0024254698
:1056F80019E0204601F06AFD0546A0B90523237686
:1057080011E0204601F062FD054660B905232376C5
:1057180009E0204601F05AFD054620B90923237601
:1057280001E000252C461CB115B9204601F096FD74
:10573800284640B203B030BD4C60002058600020BD
:1057480048600020646000205C60002054600020F5
:1057580008B5037E012B03D0837F43F010038377C2
:105768000121FFF735FF08BD10B54AB114460846B8
:105778001189FFF737FD2046FFF7F8FA002005E00A
:105788001BB90846FFF7E4FF00E0002040B210BD57
:10579800F8B50446456F6F7B00234367C66F26B193
:1057A800006921462A46B04705E0002021462A46DE
:1057B8000346FFF7D9FFB0B917F0200F1AD0A38D11
:1057C80040F66832934201D00133A385E56F25B1D5
:1057D8002069214600221346A84740B210F10A0F5B
:1057E8000AD1F6200BE040B210F10A0F06D0656727
:1057F800002004E0002002E0002000E0F62040B293
:10580800F8BD00BF70B5164A137801331370154BF5
:105818001C6822E094F82120114B1B789A421CD076
:1058280084F82130A37F13F0010F09D043F002035D
:10583800A377204601F012FDA37F23F00303A3778B
:10584800E668636F43B1084D00232B702046FFF7CD
:105858009FFF2B78002BDAD13446002CDAD170BDAB
:10586800D53400204C6000204860002008B5FFF7C0
:10587800C9FF054A13780133DBB2137013F0010F27
:1058880001D0FFF70FFD08BDD43400202DE9F04307
:1058980083B00446037E0A2B08D11B482146FFF734
:1058A80067FE02202146FFF747F92AE00E46D0F8A6
:1058B8005090D0F82880D0F88850076913482146BE
:1058C800FFF756FE0122124B1A70206F08B1FFF73E
:1058D800B1FCE06E08B1FFF7ADFC4EB1638B0093ED
:1058E800A38B0193484641462246231D01F094FDAF
:1058F80002202146FFF720F91DB138466FF0090153
:10590800A84703B0BDE8F083646000204C60002025
:105918004860002008B50121FFF7B8FF08BD00BFA7
:1059280010B50A4B1B680024204608E0596A084A4B
:105938001268521AA24201D314461846DB68002B9B
:10594800F4D108B1FFF7E6FF10BD00BF6460002086
:1059580050600020F8B50E4B1B687F2400252F46A9
:105968000EE05A7E82420AD8944208D35E6A0949F8
:105978000968891BA94202D314460D461F46DB68F5
:10598800002BEED117B13846FFF7C4FFF8BD00BFB2
:105998004C60002050600020034A1068034B1B68CD
:1059A80018441060704700BF380000205060002085
:1059B80038B505460220FFF7AFF8044668B9FFF787
:1059C800AFFF0220FFF7A8F8044630B92846FFF7D2
:1059D800C1FF0220FFF7A0F80446002C38D020466B
:1059E8000021942204F090FA657641F2D063A4F87D
:1059F80066300025A4F8685040F66833A385E3852F
:105A08006572FF23A3724FF40673E3860623A4F896
:105A18004430A4F84050A4F842304FF6FF73A386F0
:105A28000123A4F84C30FFF7B7FFA0652065A064F8
:105A3800E065084B1B686362074B1B7884F82130CC
:105A4800E577064BE367064BC4F88C3084F8925030
:105A5800204638BD50600020D5340020715700081A
:105A680000DD6D0008B54020FFF7A2FF08BD00BFAC
:105A780010B504460846FCF743FF30B1838C23B1C8
:105A8800283B9BB29C4228BF1C46204610BD00BF45
:105A9800F8B504461F46037E002B67D10D46002942
:105AA80066D00B684360828308B1036833B9201D50
:105AB800FCF726FF00285DD043682360668B26B973
:105AC800FFF740FB6083002856D0FFF765FF0022F0
