:020000040800F2
:100000000000022099020008D5100008D91000084D
:10001000DD100008E1100008E510000800000000F5
:10002000000000000000000000000000E9100008CF
:10003000ED10000800000000F1100008F5100008A5
:10004000C9030008C9030008C9030008C903000860
:10005000C9030008C9030008C9030008C903000850
:10006000C9030008FD100008C9030008C9030008FF
:10007000C9030008C9030008C9030008C903000830
:10008000C9030008C9030008C9030008C903000820
:10009000C9030008C9030008C9030008C903000810
:1000A000C9030008C9030008C9030008C903000800
:1000B000C9030008C9030008C9030008C9030008F0
:1000C000C9030008C9030008C9030008C9030008E0
:1000D000C9030008C9030008C9030008C9030008D0
:1000E000C9030008C9030008C9030008C9030008C0
:1000F000C9030008C9030008C9030008C9030008B0
:10010000C9030008C9030008C9030008C90300089F
:10011000C9030008C9030008C9030008C90300088F
:10012000C9030008C9030008C9030008C90300087F
:10013000C9030008C9030008C9030008C90300086F
:10014000C9030008C9030008C9030008C90300085F
:10015000C9030008C9030008C9030008C90300084F
:10016000C9030008C9030008C9030008C90300083F
:10017000C9030008C9030008C9030008C90300082F
:10018000C903000800B583B000F028FD304B314AA8
:100190001360314A1360314B314A03E01168196032
:1001A000043304322F498B42F8D32A4B1A682E4B62
:1001B0009A4204D1284B1A682C4B9A4200D0FEE791
:1001C000234B2B4A13602B4A13602B4B02E0002277
:1001D0001A600433294A9342F9D3254B1B6813B99B
:1001E000244B1B6803B1FEE700F004FD01A869463B
:1001F00000F096FC224C234B1C1BA410002504E0AD
:100200001F4B53F8253098470135AC42F8DC1E4CA3
:100210001E4B1C1BA410002504E01B4B53F825307B
:1002200098470135AC42F8DC0198009900F084FE53
:100230000546174C174B1C1BA41004E0013C144B43
:1002400053F824309847002CF8DC284600F044FC92
:10025000BABADECA00000020AC080020000000206E
:1002600078BB0008B00800207856341232547698D3
:10027000B00800202CB20020B008002030B20020CE
:10028000F4030008F4030008F4030008F403000872
:10029000F4030008F403000808B5FFF773FF00BF7C
:1002A00000BEFEE71EF0040F0CBFEFF30880EFF373
:1002B00009807146414A10472DE9F04182B0044659
:1002C0008846134B5E6B9D6B9F6A1B6B13F0020F8E
:1002D0000DD00F4BDB6A002B09DA4BF6AB6100F057
:1002E00005FD20B14FF00042094BDA620CE00948ED
:1002F00000F01EFCCDF800802046394632462B46E1
:1003000000F07CFC00BEFEE702B0BDE8F08100BF5B
:1003100000ED00E0F0B8000800BEFEE71EF0040F9C
:100320000CBFEFF30880EFF309807146244A1047B1
:100330002DE9F04182B007468846084B5D6B9C6B07
:100340009E6A074800F0F4FBCDF80080384631463D
:100350002A46234600F052FC00BEFEE700ED00E016
:1003600000B900081EF0040F0CBFEFF30880EFF394
:1003700009807146134A10472DE9F04182B00746C3
:100380008846084B5D6B9C6B9E6A074800F0D0FB6B
:10039000CDF80080384631462A46234600F02EFC30
:1003A00000BEFEE700ED00E00CB9000800BEFEE76D
:1003B00000BEFEE700BEFEE770470000B90200087D
:0C03C000310300087903000800BEFEE7CE
:1003CC0078BB000800000020B008002078BB0008B3
:1003DC000000000000000000B008002030B2002037
:0803EC00000000000000000009
:1003F80010B50446B0F5E06F0FD0B0F5C06F0CD063
:10040800B0F5A06F09D0B0F5806F06D0B0F5407F89
:1004180003D00548792100F0D7FD44F0BF6444F4C7
:100428000034024BDC6010BDDCB6000800ED00E0D3
:1004380010B50446C378012B03D92148932100F055
:10044800C3FD63780F2B03D91D48942100F0BCFD30
:10045800A3780F2B03D91A48952100F0B5FDE3784E
:1004680013B3184BDA68D243C2F30222C2F1040173
:10047800C9B20F2343FA02F063788B40DAB2A1784D
:1004880000EA010313431B01DBB222780E490A4438
:1004980082F800332378580903F01F03012202FA77
:1004A80003F341F8203010BD23785A0903F01F03E5
:1004B8000121994002F12003034A42F8231010BD9C
:1004C800DCB6000800ED00E000E100E010B50446ED
:1004D800042806D010F1050F03D00948ED2100F0DB
:1004E80073FD042C05D1074A136843F00403136015
:1004F80010BD044A136823F00403136010BD00BF45
:10050800DCB6000810E000E010B5044603792BB112
:10051800042B03D03048822100F056FD6379082B64
:1005280007D00C2B05D0102B03D02B48832100F0CB
:100538004BFD2268D30DDB0503B91AB9264884217F
:1005480000F042FDA379012B03D92348852100F04F
:100558003BFDA379002B33D0204B1A68216822EA8F
:1005680001021A605A68216822EA01025A60227957
:1005780002F1804202F59E32106821680143116041
:100588009A68216822EA01029A60DA68216822EAF8
:100598000102DA606379102B09D1104B996822683F
:1005A8000A439A60D96822680A43DA6010BD03F1E9
:1005B800804303F59E33196822680A431A6010BD08
:1005C800237903F1804303F59E331A68216822EAF0
:1005D80001021A6010BD00BF04B70008003C0140CA
:1005E80010B50446431E012B3DD904283BD00828EA
:1005F80039D0102837D0202835D0402833D080284B
:1006080031D0B0F5807F2ED0B0F5007F2BD0B0F57B
:10061800806F28D0B0F5006F25D0B0F5805F22D06C
:10062800B0F5005F1FD0B0F5804F1CD0B0F5004F7B
:1006380019D0B0F5803F16D0B0F5003F13D0B0F513
:10064800802F10D0B0F5002F0DD0B0F5801F0AD044
:10065800B0F5001F07D0B0F5800F04D008484FF45C
:10066800867100F0B1FC074A1368234052692242A0
:1006780002D01BB9002010BD002010BD012010BD04
:1006880004B70008003C014010B50446C30DDB0563
:1006980003B920B9034840F2231100F095FC024B3E
:1006A8005C6110BD04B70008003C01402DE9F04131
:1006B80005460E46464B984223D003F58063984280
:1006C8001FD003F5806398421BD003F580639842DE
:1006D80017D003F58063984213D003F580639842DE
:1006E8000FD003F5806398420BD003F580639842DE
:1006F80007D003F58063984203D03648C12100F043
:1007080063FC33681BB93348C22100F05DFC3379C0
:10071800032B03D92F48C32100F056FCF379022B91
:1007280003D92C48C42100F04FFC00244CE00123DD
:10073800A34032681A409A4245D12B684FEA4408D0
:10074800032707FA08F7FF433B402B602A683379F1
:1007580003FA08F313432B603379013BDBB2012B17
:1007680023D87379032B03D91A48D62100F02CFC1F
:10077800AB681F40AF60AA68737903FA08F31343A4
:10078800AB60B379012B03D91248DD2100F01CFCC2
:100798006A68A1B201238B4022EA03036B606A688E
:1007A800B3798B409BB213436B60EA68A1B24900EE
:1007B80003238B4022EA0303EB60EA68F37903FA28
:1007C80008F31343EB6001340F2CB0D9BDE8F08176
:1007D8000000024038B7000870B505460C461646BA
:1007E800364B984224D003F58063984220D003F515
:1007F800806398421CD003F58063984218D003F5B3
:100808008063984214D003F58063984210D003F5B2
:10081800806398420CD003F58063984208D003F5B2
:100828008063984204D026484FF4077100F0CCFB4F
:100838000F2C04D9224840F21D2100F0C5FB3EB31D
:10084800092E25D026B3012E22D0022E20D0032E29
:100858001ED0042E1CD0052E1AD0092E18D0062E14
:1008680016D0092E14D0072E12D0082E10D0092E1B
:100878000ED00A2E0CD00B2E0AD00C2E08D00D2E1E
:1008880006D00F2E04D00E4840F21E2100F09CFB2B
:1008980004F007039B009E40E108083155F8212029
:1008A8000F2000FA03F322EA030345F8213055F834
:1008B80021301E4345F8216070BD00BF0000024092
:1008C80038B7000810B4294B9B6803F00C03042BBD
:1008D80005D0082B06D053BB254B036029E0254BD8
:1008E800036026E0214B5A685B6803F03F0312F46B
:1008F800800F09D01F4AB2FBF3F21C4B5B68C3F3AD
:10090800881303FB02F208E0194AB2FBF3F3174A13
:100918005168C1F3881101FB03F2144B5B68C3F300
:10092800014301335B00B2FBF3F3036001E0104BBA
:1009380003600E4A9368C3F303130F49CC5CE4B217
:100948000368E34043609468C4F382240C5DE4B216
:1009580023FA04F484609268C2F342328A5CD2B209
:10096800D340C3605DF8044B704700BF00380240B5
:100978000024F40040787D010400002038B50446C6
:100988000D460E4B034003B920B90D4840F24941CA
:1009980000F01AFB012D04D9094840F24B4100F040
:1009A80013FB25B1074B1A6B14431C6338BD054A6A
:1009B800136B23EA0404146338BD00BF00EE9B8167
:1009C8006CB700080038024038B504460D460E4B97
:1009D800034003B920B90D4840F2DE4100F0F4FAB3
:1009E800012D04D9094840F2DF4100F0EDFA25B1A4
:1009F800074B5A6C14435C6438BD054A536C23EAB0
:100A08000404546438BD00BFCCA0F8FF6CB70008DC
:100A18000038024038B504460D460E4B034003B972
:100A280020B90D4840F2055100F0CEFA012D04D945
:100A3800094840F2065100F0C7FA25B1074B1A6978
:100A480014431C6138BD054A136923EA0404146180
:100A580038BD00BF00EE9FDD6CB7000800380240CB
:100A680038B505460C46082803D90F48892100F0F7
:100A7800ABFA0F2C03D90C488A2100F0A5FA04F030
:100A8800030292000F209040A108084B023153F84E
:100A9800214024EA000043F8210053F82100954042
:100AA800054343F8215038BD9CB700080038014081
:100AB80010B50446012803D903489B2100F084FAA5
:100AC800024B1C6010BD00BF9CB70008DC00274229
:100AD800FEE700BF08B50D4B1B6813B90C4A0B4B5A
:100AE8001A600A4B1A68C31C23F00303134409490C
:100AF8008B4206D905F0A0FF0C2303604FF0FF30AE
:100B080008BD02490B60104608BD00BFB4080020AC
:100B180030B2002000FC012001230360014B0B6070
:100B2800704700BF140000200FB400B583B004ABB9
:100B380053F8042B01930848802106F061FC011E3C
:100B480003DD054800F042F80146084603B05DF8A9
:100B580004EB04B0704700BFBC080020F0B585B0B6
:100B680006460C46174B1B6883B9174B01930423A1
:100B780002930323039301AF012528463946ABBEF0
:100B88000546B5F1FF3F13D00E4B1D600D4B1B689A
:100B980001930296039401AE052528463146ABBE63
:100BA8000546B5F1FF3F06D0A54207D0601B07E018
:100BB8004FF0FF3004E04FF0FF3001E04FF0FF301E
:100BC80005B0F0BD3C090020D0B7000808B5FFF714
:100BD800C5FF08BD08B500F017F9024B024A9A6034
:100BE80008BD00BF00ED00E00000000808B500F0F7
:100BF8002DF908BDF8B504460D4617461E46264889
:100C0800FFF792FF25482168FFF78EFF24486168A7
:100C1800FFF78AFF2348A168FFF786FF2248E168AB
:100C2800FFF782FF21482169FFF77EFF20486169AD
:100C3800FFF77AFF1F48A169FFF776FF1E48E169B1
:100C4800FFF772FF1D48FFF76FFF1D482946FFF7A2
:100C58006BFF1C4CE16A1C48FFF766FF216B1B48C1
:100C6800FFF762FFE16B1A48FFF75EFF15F0800F90
:100C780003D018483946FFF757FF15F4004F03D043
:100C880015483146FFF750FF1448FFF74DFF144849
:100C98000699FFF749FFF8BDD4B70008E4B7000884
:100CA800F4B7000804B8000814B8000824B800080D
:100CB80034B8000844B8000854B8000864B80008FC
:100CC80070B8000800ED00E080B8000890B800088F
:100CD800A0B80008B0B80008C0B80008D0B800082C
:100CE800D8B8000838B583691B888B4230D10446D0
:100CF80003684568013B042B2CD8DFE803F0032B7D
:100D080024241B002868144906F036FA70B96B6869
:100D180013B90123236016E0042B02D102232360B8
:100D280011E0082B02D1032323600CE04FF0FF33BE
:100D3800236008E02B68023B012B02D800230360E4
:100D480001E0AB680360A3690233A361012038BDE9
:100D5800002038BD002038BDD0B7000882B000237D
:100D680001930093254A136843F480331360234B9F
:100D78001B6803F400330093019B01330193009B2C
:100D88001BB9019BB3F5A06FF1D11C4B1B6813F481
:100D9800003F02D00123009301E000230093009B51
:100DA800012B29D1154B9A689A609A6842F400423F
:100DB8009A609A6842F4A0529A60114A5A601A6876
:100DC80042F080721A600D4B1B6813F0007FFAD056
:100DD80040F203720B4B1A60A3F580639A6822F005
:100DE80003029A609A6842F002029A60034B9B6879
:100DF80003F00C03082BF9D102B070470038024009
:100E0800193C4005003C024008B50D4B1A6842F0F9
:100E180001021A60002199601A6822F0847222F493
:100E280080321A60074A5A601A6822F480221A60CF
:100E3800D960FFF793FF4FF00062034B9A6008BD3B
:100E4800003802401030002400ED00E0234B9B687E
:100E580003F00C03042B07D0082B09D0002B2DD14D
:100E68001F4A204B1A602CE01F4A1E4B1A6028E0CC
:100E78001A4B5A685B6803F03F0312F4800F09D0DD
:100E8800194AB2FBF3F2154B5B68C3F3881303FBF3
:100E980002F208E0124AB2FBF3F3104A5168C1F3B8
:100EA800881101FB03F20D4B5B68C3F30143013367
:100EB8005B00B2FBF3F30B4A136002E0084A094BEC
:100EC8001A60064B9B68C3F30313084AD25CD2B27C
:100ED80004490B68D3400B60704700BF00380240DC
:100EE8000024F4002C00002040787D011C00002024
:100EF80070B504460E4615460021182206F0D8F8AB
:100F08002660E5600A23637465B9304605F09AFDEA
:100F1800E06018B900232360012070BD237C43F0F2
:100F280002032374237C43F001032374002070BD63
:100F380008B505F03DFD04F051FD00F057F800F04C
:100F48009FF804F02DFF08B104F074FD024B1868F7
:100F580004F078FDF5E700BF40090020044B1B684A
:100F68001844044B1860024B1B689842FBD8704722
:100F780040090020B05E0020012804D0B0B102284A
:100F880002D008B501E0FEE7FEE741F28830FFF73E
:100F9800E5FFBFF34F8F0649CA6802F4E062054BCC
:100FA8001343CB60BFF34F8F00BFFDE7704700BF0F
:100FB80000ED00E00400FA05024A136801331360EB
:100FC800704700BF40090020FEE700BF31B10B6841
:100FD80023B10222044B83F85C2270470322024BA0
:100FE80083F85C22704700BFB45E002010B51C4C2B
:100FF800204600214FF4187206F05AF8072384F8A7
:101008005C32184B63604FF2DA63A381164BA3611D
:101018004FF2CC63A383154B23616FF07F43636169
:10102800134B2362012384F82531002384F82631E9
:1010380004F50B704FF400710E4AFFF759FF10B119
:101048000120FFF799FF0C484FF400710B4AFFF796
:101058004FFF10B10120FFF78FFF002010BD00BF28
:10106800B45E00201CB90008C0A8000AC0A800018E
:101078004D58080814610020F8600020146300200F
:1010880008B501F021F90E4B1B6A1BB100200D4970
:1010980001F008F90A4B586803F108010A4A01F0FF
:1010A80043F910F1050F05D040B90222044B83F82B
:1010B8005C2208BD0122024B83F85C2208BD00BFF8
:1010C800B45E0020D45E0020D50F0008704700BF32
:1010D800FEE700BFFEE700BFFEE700BFFEE700BF78
:1010E800704700BF704700BF704700BF08B5FFF7E3
:1010F80063FF08BD08B50820FFF772FA28B1012080
:1011080005F08AFC0820FFF7BFFA08BD2DE9F04377
:1011180085B007468846154601202421002201F0A3
:10112800E1FB40B30646D7F80490446884F8008091
:101138006570002525716571A571E57140680830F5
:1011480079681C2205F03EFFA570E570204671897C
:1011580000F0F2F86080D9F80C3004AA42F8043D97
:1011680000950123019330462946FF2300F048FAF1
:10117800304601F087FB05B0BDE8F0832DE9F04368
:1011880085B005460F464668337803F00F039B0089
:101198001FFA83F85B429CB221B201F035FB0028AC
:1011A8007FD12B89032B7CD96B681B78082B74D1D2
:1011B800414B186800F0F003E02B02D04FF0010912
:1011C80001E04FF00009394600F036FA08B14FF057
:1011D8000009B9F1000F03D1284601F053FB67E07D
:1011E8002B89072B5DD9284600F0ACF818B12846A2
:1011F80001F048FB5CE02846222101F005FBF8B12C
:101208002846414601F000FB00284ED102202989DA
:10121800002201F067FB8146002846D0294601F0EC
:101228004DFC002841D1D9F80460484621B201F0AC
:10123800EBFA002839D1284601F024FB4D4605E099
:1012480028466FF0210101F0DFFA70BB6A681A4B7B
:101258001B68F360194B1B683361002313705388B4
:101268004FF6F6718B4202D90933538001E00833F7
:101278005380FF2333720023B372F372284641462A
:1012880001F0C2FA48B900220092012301930297A3
:1012980028460949FF2300F059F9284601F0F2FAD7
:1012A80006E0284601F0EEFA02E0284601F0EAFAE4
:1012B80005B0BDE8F08300BF1C6500201465002060
:1012C80008B50A460321FFF721FF08BD08B50A46FD
:1012D8000B21FFF71BFF08BD10B483B00023ADF846
:1012E800063010F0010406D0994204DD03788DF829
:1012F800073001390130002303E002881344023922
:1013080002300129F9DC002902DD02788DF8062077
:10131800BDF80600034498B200EB13439AB202EBFF
:10132800134024B103029BB2C0F30720184380B2D4
:1013380003B05DF8044B704708B5FFF7CDFFC04315
:1013480080B208BD70B505460026344614E06868CA
:101358006989FFF7C1FF204484B204EB10446B890C
:1013680013F0010F07D0C6F10106F6B223029BB2B3
:10137800C4F307241C432D68002DE8D126B12302AD
:101388009BB2C4F307241C43E04380B270BD00BF86
:1013980010B40F4B1B680DE093F8292012F0010FD1
:1013A80007D004685A68996862400A4201D1184611
:1013B8000BE01B68002BEFD1064B186828B190F89A
:1013C800293013F0010F00D100205DF8044B70475D
:1013D800388D00203C8D00202DE9F0410746D0F8DB
:1013E800048098F800301A09042A02D001F04AFA59
:1013F8009FE00E4603F00F039C00B8F8020000F0CF
:10140800B1FC01467B89A34202D33B89834203D2C4
:10141800384601F037FA8CE0384601F0FBFAD8F884
:101428001020454B1A60D8F80C20444B1A603446FB
:10143800012594F8293013F0010F0CD014F1040F92
:1014480009D063683BB13C4A106883420ED02146FC
:1014580000F0F2F850B91DB1394B1C68002500E0C6
:101468002468B44200D12468002CE2D1334B1868B8
:10147800314600F0E1F828B9304B1B6803F0F0035F
:10148800E02B03D1384601F0FDF952E01CB938468B
:1014980001F0F8F94DE0B8F8063023F0C0039BB22C
:1014A8003BB1384600F0E0FA0746002841D0D0F8B2
:1014B8000480244B1E60244BC3F800803846314614
:1014C80001F090FB60BB98F80930062B09D0112B6E
:1014D80002D0012B0FD109E03846314603F01EFC3B
:1014E8001EE03846314602F015FE19E0384631460E
:1014F800FFF744FE14E0104B1868314600F09CF8E2
:1015080058B90D4B1B6803F0F003E02B05D0C7F862
:10151800048038460221FFF7D3FE384601F0B2F9BD
:101528000023084A1360084A1360044A1360024AF9
:1015380013600020BDE8F0811C65002014650020C0
:10154800388D002018650020206500202DE9F04323
:1015580083B005460C9EAAB38946984617461421BF
:1015680001F052F9002843D16C6884F808809DF88E
:101578002C3063723B682361452323709DF8283023
:101588006370288900F0E8FB60800023A371E37191
:10159800DFF86880B8F8000000F0DEFBA080B8F83B
:1015A80000300133A8F80030B9F1000F02D0D9F8A3
:1015B800003013B97368E36000E0E3600023A372AE
:1015C800E37204E043681B6902AF47F8043D338CBB
:1015D80043B12A89934205D2284631463A4600F05B
:1015E800FDFA06E07369304629463A46984700E016
:1015F800FE2040B203B0BDE8F08300BF44090020DC
:10160800F0B585B007460E4614461D461046FFF74E
:10161800BFFE68B19DF8282000929DF82C20019209
:1016280002903846314622462B46FFF78FFF00E0EE
:10163800FC2040B205B0F0BD0346421E12F1030F74
:1016480013D891F8292002F0020202F0FF009AB1A3
:101658004A689A420BD089685A400A4209D1C9435C
:101668000B40994207D000207047012070470020A6
:101678007047002070470120704700BFF0B585B063
:1016880005460C4603786E46A3F13002D2B2092A09
:1016980000F285805AB2302A0AD1691C6B785AB296
:1016A800782A01D0582A05D1AB780235102703E0F3
:1016B8000A2701E00D4608270020DAB2A2F130011E
:1016C800C9B2092907D85AB200FB0723A3F1300091
:1016D80015F8013FF1E7102F1BD1092909D9A2F10B
:1016E8006101C9B2052904D9A2F14101C9B205298C
:1016F8000FD800015BB203F10A01613AD2B2192A8C
:1017080001D8612300E04123CB1A184315F8013FA3
:10171800D3E75AB22E2A07D103AB9E4241D230609A
:101728006B7804360135AFE763B15AB2202A09D085
:101738000C2A07D00A2A05D00D2A03D0092A01D07D
:101748000B2A30D16B46F31A9B100133042B20D897
:10175800DFE803F0321F030A1400B0F1807F24D2BF
:10176800009B40EA036014E0B0F5803F1FD2019B64
:101778001B04009A43EA026318430AE0FF2818D8BA
:10178800019B1B04009A43EA0263029A43EA02237C
:10179800184384B100F0EAFA206001230CE000232A
:1017A8000AE0002308E0002306E0002304E0002309
:1017B80002E0002300E00123184605B0F0BD00BF99
:1017C80000B583B001A9FFF759FF08B1019801E0FE
:1017D8004FF0FF3003B05DF804FB00BF08B50346C7
:1017E800074A1268824203D10168054A116001E084
:1017F80002680A600520194600F03CFF08BD00BFDA
:10180800480900202DE9F041074688464468636886
:101818009A889AB91B684360606807F10801142226
:1018280005F0D0FB20460121FFF750FD204601F0CE
:1018380017F985B2204601F025F800E000257C68FC
:101848000AE063681E68204601F00AF9284485B258
:10185800204601F017F83446002CF2D138464146AC
:10186800FFF7BCFF034A13885B1B13802846BDE8BB
:10187800F08100BF4C0900202DE9F041054688465B
:101888000026184B1B680024214620461DE0EA6804
:101898005F69974209D19A69D5F810E0724504D179
:1018A800B3F80CE0AA8896450AD0013428B193F819
:1018B8001FE0C27F964502D902E0184600E01846AC
:1018C8001A6802B90B4619461346002BDFD110B12E
:1018D800FFF798FF0644464501DA012CD1DC304673
:1018E800BDE8F0814809002008B50146062000F04F
:1018F800C1FE08BD10B50446406908B100F0C2FF3A
:101908002046FFF7F1FF10BDF8B507460E464C68B4
:10191800608800F027FA227802F00F02C2EB8232C8
:101928009300184485B2E08800F01CFAC0F30C005C
:10193800C10070680024047044708470C470818091
:1019480001EB050E1FFA8EFEA0F806E07D684FF049
:10195800010C1CE06B689A8891420BD205603CB17F
:10196800E28891423FD39B889E453CD8266010E090
:101978007E600EE0914236D0DD88A94233D324B18F
:10198800E488A24201D04FF0000C1D681C46002DCF
:10199800E0D155B92CB12660E28883889A4202D1F9
:1019A80003E07E6001E04FF0000CBB7F13F0010FF5
:1019B80025D0BCF1000F14D07B685B689B885BB9AD
:1019C800026806E05368C1889A88914207D11A686C
:1019D8001846002AF6D104E04FF0000C01E04FF061
:1019E800000C6046F8BD304601F03AF8054A138805
:1019F800181A1080304600F045FF0020F8BD00207E
:101A0800F8BD00BF4C09002008B5062000F022FEF2
:101A180008BD00BF70B505460E46052000F01AFE49
:101A2800044650B928463146FFF726FFB04203DB8B
:101A3800052000F00FFE044694B120460021202224
:101A480005F036FB0323E377064B1A6822601C6017
:101A580004F108002946142205F0B4FA204670BDA6
:101A6800002070BD480900202DE9F04780464568F0
:101A78002B7803F00F03052B40F0A380E88800F0D3
:101A880071F9C0F30C004FEAC00A688800F06AF9DF
:101A98002B7803F00F03C3EB83339F00384487B2DE
:101AA800404600F0DDFF81464A4B1B8803440A2B61
:101AB8000BDD28464946FFF7DFFE002800F081804D
:101AC800444B1B884B440A2B7BDC434B1C68002689
:101AD8000DE06269EB689A4207D1A2692B699A42C4
:101AE80003D1A289AB889A4203D026462468002CE9
:101AF800EFD134B928464946FFF78CFF044690B920
:101B08005FE0E88800F02EF9C0F30C0058B9E089CE
:101B180000F028F9C0F30C0028B104F108002946A8
:101B2800142205F04FFA2B4A13889944A2F8009022
:101B3800EB8803F020039BB22BB9A37F43F001038A
:101B4800A3775744A78320464146FFF7DDFE0028C8
:101B58003DD0A38B1433A38363685F683D68384620
:101B680004F10801142205F02DFAA08B00F0F4F816
:101B780078800023BB71FB71BB72FB72384614215D
:101B8800FFF7DAFB7881D4F804800AE06F6828460A
:101B98006FF0130100F038FE4046294600F070FF50
:101BA8003D68002DF2D120463146FFF717FE40462A
:101BB80000F056FF074A1388181A10804046BDE8FF
:101BC800F087404600F05EFE0020BDE8F087002068
:101BD800BDE8F0874C090020480900202DE9F04FA6
:101BE8008DB005460A910B920C8C43680993D888EE
:101BF80000F0B8F8C0F30C03049300F4005083B26B
:101C08000893B5F80890A9F114091FFA89F9A4F105
:101C180014030793002B00DA0733C3F3CF030693AB
:101C2800002414268AE0079B4B45B4BF00230123F8
:101C3800049AC2F30C02089941EA020A0BB94AF461
:101C4800005A23B9069BDB009BB2059301E0CDF84F
:101C5800149002201421002200F044FE804600283F
:101C680072D040680999142205F0ACF9D8F804B08C
:101C78006B6833446B606B899E1B6E81059E31E0F7
:101C88006C89B44228BF3446A4B20CB92D6829E047
:101C9800FFF7BAFE074620B9404600F0F3FDFF20E3
:101CA80053E06B68009301940320214602223B46CF
:101CB80000F07AFD039038B93846FFF715FE404624
:101CC80000F0E0FDFF2040E0284600F0D3FE7D61F3
:101CD800204B3B614046039900F0D2FE361BB6B25A
:101CE80006B12D68002ECBD12646504600F034F8B8
:101CF800ABF80600059F07F1140080B200F02CF83D
:101D0800ABF8020000238BF80A308BF80B305846EA
:101D18001421FFF711FBABF80A000A984369414602
:101D28000B9A9847404600F0ADFDC7EB09091FFA2A
:101D380089F9049B069A13449BB20493B9F1000FE6
:101D48007FF471AF002000E0FF2040B20DB0BDE885
:101D5800F08F00BFFD180008030A43EA002080B294
:101D6800704700BF08B5FFF7F7FF08BD00F47F43D1
:101D78001B0243EA006300F47F0243EA122343EAAA
:101D88001060704708B5FFF7F1FF08BD10B40246B0
:101D9800481C0B7803F0C001C02910D0014607E0A9
:101DA8001478087884420CD101310132013BDBB24E
:101DB800002BF5D1013208780028E9D102E0002093
:101DC80000E001205DF8044B704700BF421C037817
:101DD80003F0C001C0290AD0104602E00130013BDF
:101DE800DBB2002BFAD10378002BEFD100E01046CC
:101DF800013070472DE9F04784B014461289B2F5D6
:101E0800007F00F2BE80192A40F2BB802046604B5A
:101E18001968002300F0A8FE2389984240F0B18099
:101E28005B4B1E683088FFF797FF0546032800F2D2
:101E3800A8804FF48C7303FB00F3564AD35C022B43
:101E480040F09F804FF48C7303FB00F3D1180320FC
:101E5800D054F37803F00F034B71B088FFF77CFF81
:101E68008046F088FFF778FF074696F90230002B86
:101E780069DA4FF48C73474A03FB05235B79002B1F
:101E880061D1B8F1010F5ED14FF48C7303FB0526C5
:101E98000C363F4B1B6803F10C0830464146FFF7F0
:101EA80075FF00284FD14046FFF790FF043048E007
:101EB800FFF78CFF814601A849460A2205F082F8FF
:101EC800019BB3F1012F34D1BDF80C30B3F5806F0D
:101ED8002FD10298FFF756FF4FF48C732D4A03FB5E
:101EE800052398602C4B984205D94FF48C7303FB5B
:101EF8000523294A9A60DFF89CA04FF48C7303FBF2
:101F080005F70AEB070808F58678404609F10A0143
:101F1800042205F057F85744D7F810718FB34FF4DF
:101F28008C7303FB05A530464146D5F81421B84704
:101F380027E0BDF80C00FFF70FFF0A304844013FC7
:101F4800BFB2002FB4D14FF48C73124A03FB0523A0
:101F5800D3F810615EB111464FF48C7202FB05F3A1
:101F6800C81803460C300021D3F81421B047094A99
:101F78004FF48C7303FB05F5511900235355C1F831
:101F88001031204600F07EFC04B0BDE8F08700BFA9
:101F9800C00F002050090020803A09002DE9F041C7
:101FA80082B006460C46904600204FF488710246DF
:101FB80000F098FC00284FD00546476838460021B5
:101FC8000C2205F075F84046FFF7C6FE388001235D
:101FD800BB7000233B7101237B710C37611E00E04D
:101FE80007460131781C002204E000F8013B013269
:101FF800D2B201310B785CB22E2C01D0002BF4D177
:102008003A700B78002BEBD1044604F8053B4FF4EB
:102018008073ADF80430ADF80630013001A9042210
:1020280004F0D0FF6968611A284689B200F0F2FC12
:102038000C4B03EB86060C4C20683146352202F027
:10204800D9FF206829463246352302F0BDFF0446F1
:10205800284600F017FC00E0FF2460B202B0BDE89B
:10206800F08100BFB00D0020BC0F002038B5044639
:102078004FF48C7303FB00F3454AD35C022B17D053
:10208800032B71D0012B40F0828011464FF48C72E3
:1020980002FB00F3CA180220C85400205070012522
:1020A8009570D07011460C312246FFF777FF38BD86
:1020B8004FF48C73364A03FB00229378013BDBB262
:1020C8009370002B63D14FF48C73314A03FB0022C9
:1020D800D3780133DBB2D370042B37D14FF48C7330
:1020E8002B4A03FB00235B785A1C012A0FDC294981
:1020F80051F822205AB14FF48C72254902FB001482
:10210800013363700123A3700023E37038BD4FF4DB
:102118008C731F4A03FB0423D3F810515DB1114699
:102128004FF48C7202FB04F3C81803460C300021EC
:10213800D3F81421A847164A4FF48C7303FB04F410
:10214800111900231355C1F8103138BD10494FF447
:102158008C7000FB04F288188370014640780C31BB
:102168002246FFF71BFF38BD4FF48C73084A03FB68
:1021780000229368013B93604BB9054A4FF48C7376
:1021880003FB04F4111900231355C1F8103138BDAD
:1021980050090020B00D00202DE9F0410026B64678
:1021A800B446344614E02A4D4FF48C7303FB04F311
:1021B800EE18EB5C73B1032B08D1264B1B783579ED
:1021C8005F1B674502DD5FFA87FCA6460134E4B26F
:1021D800032CE8D9042C10D1BEF1030F32D84FF4E8
:1021E8008C7303FB0EF31A4CE35C032B2CD174465F
:1021F8004FF48C76164B06FB0E36074601233370D8
:10220800144803785D1C05703371C6F81011C6F8C0
:102218001421384605F08EF8FE2804D8384605F013
:1022280089F8054600E0FF2506F10C0039462A46E4
:1022380004F0C8FE2E44002333732046FFF716FF30
:10224800FB2002E0FF2000E0FF2040B2BDE8F08163
:10225800500900204E09002070B5064600241AE0F7
:102268004FF48C7303FB04F30D4AD35C032B10D19A
:102278004FF48C7303FB042130460C3104F07CFFCF
:1022880038B94FF48C72064B02FB0435D5F80C01B3
:1022980070BD0134E4B2032CE2D94FF0FF3070BDB9
:1022A8005009002001280AD8054B1B683BB131B101
:1022B80029B10B681BB11A46024B43F8202070471E
:1022C800BC0F0020B00D002000B583B0104B23F0E8
:1022D8000303104A13601048FFF772FA01900F4B7E
:1022E8001B6893B902F0B2FE0C4B186068B10C4938
:1022F800002202F0CBFD094B18680A49002202F0BF
:10230800A1FE002001A9FFF7CDFF03B05DF804FB93
:10231800BB0D0020C00F002034B90008BC0F0020FE
:1023280030B90008FD1D0008F8B5174C246804B33F
:1023380009B310B3047814B31E4617460D46044675
:1023480004F0F8FFFF281CD82046FFF739FAB0F14F
:10235800FF3F02D12046FFF77FFFB0F1FF3F02D0D9
:10236800286000200EE0204639463246FFF714FF69
:1023780008E0F22006E0F22004E0F22002E0F22079
:1023880000E0F22040B2F8BDBC0F002010B4164B9C
:102398001B6801885A18904211D014797CB9134CE3
:1023A8002468A2420BD0124C2468944201D1104AEE
:1023B80010605A5A02805A5A1A44C11A51804188E8
:1023C8005A1882420DD014795CB9094C24688442A9
:1023D80001D1074C226004885C5201881944D31A41
:1023E8004B805DF8044B7047CC0F0020C80F0020CD
:1023F800C40F00200A4B23F003030A4A13604FF46A
:102408002051198000225A801A715A180648026011
:102418000120107111805180044A1360704700BF79
:1024280027650020CC0F0020C80F0020C40F002013
:10243800B0B108B503460B4A126890420FD30A4A56
:10244800126890420BD20838002203F8042C074B7C
:102458001B68984201D2054B1860FFF797FF08BD2B
:10246800704700BFCC0F0020C80F0020C40F002009
:1024780003314FF6FC730B400B2B00D80C23B3F53C
:10248800205F4DD8F0B4294A1468A0424BD3284A9B
:102498001268904247D2A0F10801091B89B230F8AE
:1024A800085C6A1A083A92B293423BD83BD0661944
:1024B8003779C7B9655B0B4408339BB21D4A12686C
:1024C800B24202D1E2181B4E3260E21800261671A1
:1024D800E552518020F8083CE25AB2F5205F22D03C
:1024E800144463801FE003F1140595421BD80B4484
:1024F80008339BB2E2180F4D2D68AA4201D20D4D48
:102508002A600025157130F8085CE552518020F8E2
:10251800083CE25AB2F5205F05D01444638002E01B
:10252800002070470020F0BC704700BFCC0F00208F
:10253800C80F0020C40F002000284ED030B4034636
:1025480003334FF6FC751D400B2D00D80C25B5F54F
:10255800205F44D8234B1C68234B1B681B1B9BB272
:1025680035E0E0180179002930D1E25AD21A083A48
:102578002946AA422AD314318A4212D35A19083258
:1025880092B2A11800250D710588A5524B800280D2
:1025980001230371A35AB3F5205F04D023445A8062
:1025A80001E001230371104B1B6898420CD103E032
:1025B8000C4A12681B8813441A791AB10B4A12681C
:1025C8009342F5D1084A1360083009E00388C5F53D
:1025D80020518B42C5DB002002E00020704700201C
:1025E80030BC7047CC0F0020C40F0020C80F00205B
:1025F800002301E001339BB2092BFBD930B4114908
:1026080021F00301002518E02A4600230E4840F86F
:1026180025300BE00C4850F822400C6040F822109E
:102628000A4830F81200014401339BB2084830F8D8
:1026380012009842EED80135ADB2092DE4D930BC6C
:10264800704700BFD30F0020345D002058B9000840
:1026580044B90008092809D8054B53F820301BB1A4
:102668001968034A42F8201018467047002070473E
:10267800345D00200B4629B1034A52F82010196036
:1026880042F82030704700BF345D002070B5044622
:102698000D4619B30A6843689A421FD0124B18684E
:1026A80009E0026863689A4204D1C66800F07CFEBB
:1026B800304600E0C0680028F3D10C4B1B680BE0E3
:1026C8004BB11A683AB161688A4204D10DB12A68DF
:1026D80000E000221A60DB68002BF1D10DB12B68F5
:1026E80000E00023636070BD448D00204C8D002005
:1026F80009B10B6800E00023C360704709B10B689B
:1027080000E000238360704770B5044616461D46F6
:10271800FFF7BCFF20463146FFF7F0FF2046294669
:10272800FFF7E6FF70BD00BFF8B504460025456019
:102738008560C56080F82950069DC5610A4E3578C8
:102748006F1C377080F82C50089D0561FFF7DCFF7F
:102758002046079B984728B9044B1A6822601C60DA
:102768002046F8BD0020F8BD5C5D0020388D0020B3
:10277800014B1860704700BF3C8D002008B590F8E9
:10278800293013F0010F0DD143F0010380F82930EF
:1027980013F0100F06D013F0200F03D001460431B8
:1027A80002F094FE08BD00BF70B4039D032825D82D
:1027B800DFE800F002080406362004E00E2002E0FC
:1027C800002000E02220033020F003040C44BDF870
:1027D8001060B44214DC00241C6025B120F0030012
:1027E8002844586001E0002058600220587319817D
:1027F80059811A730122DA81184602E0002000E0AC
:10280800002070BC704700BF10B461B30B4660B3C2
:10281800002905DA494289B242898A4201D226E072
:1028280089B2027B44680AB1032A08D1E21A4260DD
:1028380000F110018A420DD2446001201EE0013AE5
:1028480092B2012A15D8002B15DA42898A4214D38C
:10285800E41A44609BB242891A44428102891344B3
:10286800038100200AE0002008E0002006E00120A3
:1028780004E0012002E0012000E001205DF8044BA3
:10288800704700BF60B338B50146002424E0CB8907
:10289800013B9BB2CB81F3B90D680B7B4A7B12F0ED
:1028A800020F03D00B690846984710E0032B03D1A9
:1028B8000920FFF7DFFE0AE0013B9BB2012B03D89A
:1028C8000820FFF7D7FE02E00846FFF7B1FD013404
:1028D800E4B2294600E000210029D8D1204638BDBD
:1028E800002070472DE9F04188461646032800F27B
:1028F8008180DFE800F002080406362704E00E278E
:1029080002E0002700E02227032E76D8DFE806F051
:10291800435E5E020920FFF79DFE054600286FD042
:10292800067300230360C319133323F003034360C2
:10293800A0F80880FC1C24F00304C4F5FA7444458C
:10294800A8BF4446A3B243810122C281C3EB080455
:1029580007461DE00920FFF77DFE28B92846FFF746
:1029680091FF0020BDE8F0810673002242730260E7
:102978003860A2B20281B2F5FA7F28BF4FF4FA722A
:10298800428100F1100141600121C181A41A07466A
:10299800002CDFDC27E007F1130020F0030008F12A
:1029A800030323F00303184480B2FFF7C5FD05466F
:1029B80048B30744133727F003074760A0F8088097
:1029C800A0F80A800023036006730CE00820FFF7D4
:1029D80041FE0546D0B100234360A0F80880A0F866
:1029E8000A80036006730123EB8100236B7328467A
:1029F800BDE8F0810020BDE8F0810020BDE8F0814D
:102A08000020BDE8F0810020BDE8F0810020BDE88D
:102A1800F08100BF38B504460D4602898A421ED9A6
:102A28008A1A05E0691A8DB2238913442381246820
:102A38006189A942F6D3237B4BB9A94207D06368C1
:102A48001B1B5919204689B2FFF712FD0446658100
:102A58002581206808B1FFF715FF0023236038BDE2
:102A68000346002002E00130C0B21B68002BFAD1F7
:102A7800704700BF10B1C3890133C381704700BFDD
:102A880098B1034631B970470C891A8922441A81D2
:102A9800034600E010B418680028F5D108891A899F
:102AA80002441A8119605DF8044B704710B50C4652
:102AB800FFF7E6FF2046FFF7DDFF10BD002844D0F2
:102AC8002DE9F0410D460746002941D002890B89BE
:102AD8009A423FD34FF0000846467B89991B6C8980
:102AE800C8EB0402914201DB94B201E09B1B9CB24B
:102AF8007868696830444144224604F063FA264401
:102B0800B6B244441FFA84F86B89434502D82D684D
:102B18004FF000087B89B34205D13F6817B9DDB98A
:102B2800002600E000262DB16A892B899A4201D13E
:102B38002B689BB92FB17A893B899A4201D13B68AE
:102B480073B9002DC9D100200BE0F22040B27047C4
:102B5800F22006E0F22004E0F22002E0FA2000E091
:102B6800FA2040B2BDE8F08180B32DE9F8438846E9
:102B78009146054661B370B381B300273E461DE018
:102B88002BB16989994202D85B1A9BB215E06C890E
:102B9800E41AA4B24C4500D94C46696808EB060013
:102BA8001944224604F00EFA2744BFB22644B6B2AE
:102BB800C4EB09041FFA84F900232D68B9F1000F4A
:102BC80001D0002DDCD13846BDE8F88300207047DD
:102BD8000020BDE8F8830020BDE8F8830020BDE8A8
:102BE800F88300BF2DE9F041804643685F7A184BAF
:102BF8001C6800252E4624E0237C9F421FD12CB15F
:102C080023681BB1134A1268934218D1D4F814C030
:102C1800BCF1000F13D0A069214642460E4BE04795
:102C280068B14EB1E368F360094B1A68E2601C6052
:102C380001254FF0000802E001254FF00008264664
:102C4800E4680DB9002CD7D12846BDE8F08100BF53
:102C5800605D00201C6500201465002070B4856A42
:102C6800848D2A19016BC38E40F2B456B34200D941
:102C780033460B44D31A002B02DBC485501A09E0F3
:102C88006B1A002B03DD0022C285104602E0491BA7
:102C9800C185002070BC704710B50446838D194467
:102CA80089B2818540F66833994200D983852046E8
:102CB800FFF7D4FF40F2D923984206DDA37F43F003
:102CC8000203A377204601F0A3FD10BD50B110B553
:102CD8000446406808B1FFF7D5FD04202146FFF7F8
:102CE800C9FC10BD704700BF10B503E00468FFF7CA
:102CF800EDFF20460028F9D110BD00BF037ED3B1F7
:102D08000A2B18D0012B16D010B50446406F18B105
:102D1800FFF7B8FD002363674FF6FF73A386E06EE5
:102D2800FFF7E2FF206FFFF7DFFF0023E36623676B
:102D3800A4F86A3010BD70472DE9F04182B0A84A66
:102D4800136801331360A74A137801331370A64B35
:102D58001C6800261CE194F82120A24B1B789A429B
:102D680001D1E46814E184F82130237E022B03D1D9
:102D780094F84620062A54D094F846100C2952D0CC
:102D880094F89120BAB194F890300133DBB284F80A
:102D98009030511E9548415C8B4246D3002384F8FD
:102DA8009030062A02D8013284F89120204601F09A
:102DB800D7FE00253EE0A28E12F4004F01D1013269
:102DC800A286226F9AB3B4F93400B4F94420904231
:102DD8002FDB022B0AD0B4F94020B4F9423003EBC0
:102DE800E203834A525C9340A4F844300023A3864C
:102DF800B4F86020B4F84C30934228BF13465B08FF
:102E0800A4F84E30E28EB3EB420F02DA5200A4F877
:102E18004E20E38EA4F84C30204601F015FE002524
:102E280008E0012506E0012504E0002502E0002570
:102E380000E00025237E062B0BD1A27F12F0100F95
:102E480007D0616A664A1268521A282A01D90135E0
:102E5800EDB2227A12F0080F2CD0042B01D0072BE8
:102E68002AD1626A5E4B1B689A1AD4F88C0000F566
:102E7800242303F6B8435F49A1FB0313B2EB531FA6
:102E880003D90135EDB2012719E094F892105A4B95
:102E980003FB01035749A1FB0313B2EB531F0DD9E1
:102EA800204601F03FFE94F89230013384F89230C6
:102EB800002704E0002702E0002700E00027237E27
:102EC800032B07D1616A464A1268521A282A01D987
:102ED8000135EDB2092B07D1626A414B1B689B1A79
:102EE800F02B01D90135EDB265B32046FFF706FF97
:102EF80016B1E368F36002E0E2683B4B1A604FB139
:102F0800206DA16A638B0093A38B01932246231D36
:102F180001F05CFDD4F88850D4F81080E7680220EE
:102F28002146FFF7A7FB0022344B1A701DB140461B
:102F38006FF00901A847314B1B78002B7FF407AFCE
:102F48003C4625E0E568E37F0133DBB2E37794F89C
:102F58002020934217D30023E377284A1370D4F82C
:102F680084301BB120692146984700E00020234B9C
:102F78001B78002B7FF4EBAE40B9204601F048FCEB
:102F880026462C4604E026462C4601E026462C46DA
:102F9800002C7FF4E0AE1A4B1D681CE06A6A104BE7
:102FA8001B689B1AF02B01D8002300E0012383B192
:102FB8002846FFF7A3FE14B1EB68E36002E0EA6875
:102FC8000F4B1A60EE6802202946FFF753FB35467F
:102FD80001E02C46ED68002DE0D102B0BDE8F0819B
:102FE800488D0020655D0020448D00207CB90008D4
:102FF8006CB90008D34D6210F8240100408D002000
:103008005C8D002010B50C4603688B4202D1DB684A
:1030180003600EE0124A136007E0DA68A24202D1A8
:10302800E268DA6005E00E4B1A600D4B1B68002B56
:10303800F3D10023E3602046FFF760FE237E0A2BCE
:103048000BD0012B09D0A37F13F0010F05D043F05B
:103058000203A377204601F0DBFB0023237610BD93
:10306800508D002030B583B00446002947D0037E38
:10307800042B01D0072B42D1636F23B9A28D40F6F0
:1030880068339A423BD0206DA16A638B0093A38B6F
:1030980001932246231D01F099FC2046FFF72EFEDE
:1030A8004A4B1B68A34203D1DA68484B1A600EE00A
:1030B800474A136007E0DA68A24202D1E268DA60A0
:1030C80005E0434B1A60424B1B68002BF3D10023E9
:1030D800E36001223F4B1A70237E042B09D10A2397
:1030E80023763D4B1A68E2601C6001F0B7FD0020B2
:1030F80069E002202146FFF7BDFA002063E0237E45
:10310800072B58D8DFE803F00426313F4757574FBD
:10311800638BC3B1314B1B68A34203D1DA682F4BD1
:103128001A600EE02A4A136007E0DA68A24202D168
:10313800E268DA6005E0264B1A60254B1B68002B15
:10314800F3D10023E36002202146FFF793FA00241D
:10315800254632E022482146FFF754FF0320214646
:10316800FFF788FA0024254627E018482146FFF78C
:1031780049FF0122174B1A7002202146FFF77AFAFD
:103188000024254619E0204601F0FAFA0546A0B9C0
:103198000523237611E0204601F0F2FA054660B9CE
:1031A8000523237609E0204601F0EAFA054620B90E
:1031B8000923237601E000252C461CB115B92046C9
:1031C80001F026FB284640B203B030BD448D0020F4
:1031D800508D0020408D00205C8D0020548D0020F3
:1031E8004C8D002008B5037E012B03D0837F43F06C
:1031F800100383770121FFF735FF08BD10B54AB1E9
:10320800144608461189FFF747FD2046FFF73AFBA9
:10321800002005E01BB90846FFF7E4FF00E00020A6
:1032280040B210BDF8B50446456F6F7B0023436775
:10323800C66F26B1006921462A46B04705E000203E
:1032480021462A460346FFF7D9FFB0B917F0200FE9
:103258001AD0A38D40F66832934201D00133A3857A
:10326800E56F25B12069214600221346A84740B2E0
:1032780010F10A0F0AD1F6200BE040B210F10A0F44
:1032880006D06567002004E0002002E0002000E08E
:10329800F62040B2F8BD00BF70B5164A1378013366
:1032A8001370154B1C6822E094F82120114B1B78F1
:1032B8009A421CD084F82130A37F13F0010F09D063
:1032C80043F00203A377204601F0A2FAA37F23F07C
:1032D8000303A377E668636F43B1084D00232B709F
:1032E8002046FFF79FFF2B78002BDAD13446002CBD
:1032F800DAD170BD655D0020448D0020408D00202E
:1033080008B5FFF7C9FF054A13780133DBB213701C
:1033180013F0010F01D0FFF70FFD08BD645D002019
:103328002DE9F04383B00446037E0A2B08D11B48DD
:103338002146FFF767FE02202146FFF79BF92AE0A6
:103348000E46D0F85090D0F82880D0F888500769F9
:1033580013482146FFF756FE0122124B1A70206FC0
:1033680008B1FFF7C1FCE06E08B1FFF7BDFC4EB134
:10337800638B0093A38B0193484641462246231D45
:1033880001F024FB02202146FFF774F91DB13846ED
:103398006FF00901A84703B0BDE8F0835C8D0020F9
:1033A800448D0020408D002008B50121FFF7B8FFAB
:1033B80008BD00BF10B50A4B1B680024204608E072
:1033C800596A084A1268521AA24201D3144618468A
:1033D800DB68002BF4D108B1FFF7E6FF10BD00BF92
:1033E8005C8D0020488D0020F8B50E4B1B687F24AB
:1033F80000252F460EE05A7E82420AD8944208D30E
:103408005E6A09490968891BA94202D314460D4618
:103418001F46DB68002BEED117B13846FFF7C4FF13
:10342800F8BD00BF448D0020488D0020034A106875
:10343800034B1B6818441060704700BF3000002021
:10344800488D002038B505460220FFF703F90446E9
:1034580068B9FFF7AFFF0220FFF7FCF8044630B960
:103468002846FFF7C1FF0220FFF7F4F80446002CB6
:1034780038D020460021942203F01AFE657641F2E6
:103488001C13A4F866300025A4F8685040F6683389
:10349800A385E3856572FF23A3724FF40673E38661
:1034A8000623A4F84430A4F84050A4F842304FF65C
:1034B800FF73A3860123A4F84C30FFF7B7FFA0657C
:1034C8002065A064E065084B1B686362074B1B78A6
:1034D80084F82130E577064BE367064BC4F88C3057
:1034E80084F89250204638BD488D0020655D002044
:1034F8000532000800DD6D0010B504460846FDF7EA
:1035080047FF30B1038C23B1283B9BB29C4228BFB4
:103518001C46204610BD00BF70B50546204B1B68F1
:1035280003F114049889FEF71DFCC0F30F30052839
:1035380034D91B4B1B689889FEF714FC000B05381F
:10354800800080B2002327E01946E25C012A03D0FC
:1035580022B3022A03D01AE001339BB21CE0E2181E
:103568005278042A1AD11A1D824217DC21448E7817
:10357800CA7842EA0622511E89B240F2B356B142D5
:1035880001D940F2B452EA8604339BB204E02144E4
:103598004A781AB113449BB28342D5D370BD00BF99
:1035A800685D002000B583B01D4B1B7813F0040F35
:1035B8002ED113F0020F1BD01A4B1A68816A531AC6
:1035C800002B1BDB838D0B44D31A002B16DC164B08
:1035D8001B6816490988588800901B880193144B6A
:1035E80018681144134A144B01F0F0F9002012E056
:1035F80013F0010F02D0114B1B6843620B4B1B8861
:1036080043B1837F43F00203837701F001F902E0BD
:10361800002000E0002040B203B05DF804FB00BFCA
:10362800785D00206C5D0020685D0020705D0020E2
:10363800745D00201C65002014650020488D002062
:103648003A4B1B7813F0040F67D130B583B00546A9
:1036580013F0100F12D0364B1B68364A1068364AE2
:103668001188364A12685C8800941B8801931144BB
:10367800334A344B01F0AAF9002054E013F0020F4A
:103688004ED0407EFFF7DEFE044600284AD02C4B81
:103698001B6803606B8B43832A4B1B684360244B76
:1036A8001A681388838303230376244B1B68591CE9
:1036B80081620163D189A0F86010D289A0F86220E4
:1036C800A0F84E10013B43652B6903616B694361A8
:1036D8002B7A23F0730303721B4B1A68C2601860BD
:1036E80001F0BCFA0122194B1A702046FFF714FFAB
:1036F800E08E211DFFF700FFE0862046122100F032
:10370800DDFF054628B120460021FFF709FE2846BF
:1037180009E0204601F07CF805E0002040B270473F
:10372800002000E0FF2040B203B030BD785D0020EB
:10373800685D0020745D0020705D00206C5D0020D5
:103748001C65002014650020448D0020408D002059
:10375800F8B504468B4B1B7813F0100F00F08881E6
:10376800B0F86000A26D8618616D874B1B68CD1A92
:10377800002D0FDB994204D184490968511A0029A8
:1037880008DB824909688A4226D1814A1268D289AF
:10379800904221D27E4A1268D18988B2A4F860107A
:1037A800B4F86250D28991B28D4201D2A4F8622055
:1037B8006365764B1B68A36540B994F891305BB993
:1037C80084F89030012384F8913005E094F8913022
:1037D80013B1002384F891306C4B1A68A36CD11A8A
:1037E800002940DC0021A4F864106A49098849BB13
:1037F800A06DB4F860100144B14225D1B4F9341079
:10380800002923DB9A4223D194F84720531CDBB2CA
:103818009A4201D284F8473094F84730032B0AD9EA
:10382800B4F84C20E38E13449BB29A4212D2A4F807
:103838004C30012311E0032B0ED1204601F044F94E
:1038480001230AE0002308E0002306E0002304E047
:10385800002302E0012300E00123002B40F0BF8099
:1038680084F84730BBE0012900F18780216D511AA7
:10387800002900F38280A17F11F0040F06D021F007
:103888000401A177B4F84E10A4F84C10002084F875
:103898004600B4F84210B4F9405001EBE501A4F831
:1038A8004410D31A9BB2A4F86430B4F866100B44E1
:1038B800A4F8663084F84700A264237E032B39D924
:1038C800B4F84C20B4F84E309A4207D2E38E134431
:1038D8009BB29A422ED2A4F84C302BE0E38E03FB25
:1038E80003F393FBF2F313449BB29A4222D2A4F857
:1038F8004C301FE0256F2B6823676868FFF7B0F826
:10390800B4F864305BB1EB689889FEF72BFA10F0D5
:10391800010F04D0B4F86430013BA4F8643068683F
:10392800FFF79EF8B4F86830181AA4F8680028461B
:10393800FFF7CCF9236FABB1DB685868FEF722FAC2
:103948000546236F1E89DB689889FEF70BFA10F08D
:10395800030018BF0120304428440C4B1B68C01AD0
:103968000028C7DD236F1BB94FF6FF73A38601E05C
:103978000023A3860023E37731E00023A4F8643012
:103988002DE000BF785D00206C5D0020745D002094
:10399800685D0020705D0020E56E2B68E3660BB95A
:1039A800A4F86A306868FFF75BF8B4F864305BB174
:1039B800EB689889FEF7D6F910F0010F04D0B4F837
:1039C8006430013BA4F864306868FFF749F8B4F83C
:1039D8006830181AA4F868002846FFF777F9E36EEC
:1039E800DBB1944A1568DB685868FEF7CBF90646E0
:1039F800E36E1F89DB689889FEF7B4F910F00300BD
:103A080018BF012038443044281A002805DB226DED
:103A1800884B1B689B1A002BBEDDA36B43B3E26B7C
:103A280084490968521A002A22DA834A1168CB1A93
:103A3800B4F8402042F3CC01591A89B288B28B18E5
:103A48009BB2A4F8403010F4004F01D0494288B22C
:103A5800B4F8422042F38D01411A0A4492B2A4F804
:103A6800422043F3CC031344A4F844300023A36357
:103A7800724B1B88002B00F0CB80227E062A00F2B6
:103A8800C780A16A6E4A12688D1A012D2BD413447F
:103A9800CB1A0133002B26DC2B466A4A5068428930
:103AA800AA4210DA0189491B89B204E09B1A0181F4
:103AB80000224281006842899A42F7DB594209B2E2
:103AC800FEF7A2FE03E0694209B2FEF79DFE5C4DD7
:103AD8002988A36AC81A5B4A118901441181D268EE
:103AE8002B60536006E0521A002A03DAA37F43F0E2
:103AF8000203A377524B1968A26A8B1A002BC0F2F3
:103B08008380A38D1344CB1A0133002B7CDC9142B4
:103B180076D14C4B1D89DB689889FEF723F910F0A4
:103B2800030018BF01202B189BB2444A1380A28DB2
:103B3800934235D9434BDB689889FEF713F910F0A7
:103B4800010F0DD03F4BDE68B5892846FEF70AF90C
:103B580000F03E00FEF700F925F47C552843B081BB
:103B6800A28D384B1A81DB689889FEF7FBF800F0C4
:103B7800020083B21BB1334A1389013B1381314DD3
:103B880068682989FEF746FF2E89EB689889FEF751
:103B9800E9F810F0030018BF01203044274B1880C3
:103BA800264B1988264B1A680A44A262A38D5B1A11
:103BB800A3852046FFF752F8224B5B681A8922B189
:103BC800214A136000221F4B5A601E4BDB689889FC
:103BD800FEF7C8F810F0010F04D01C4A137843F020
:103BE80020031370A37F13F0010F05D003F0FE0329
:103BF80043F00203A377F8BD43F00103A377F8BDB0
:103C0800204600F0E1FDF8BD204600F0DDFDF8BDDE
:103C18000B4B1B68A16A5A1A002A05DBA28D0A44BD
:103C28009B1A0133002B03DDA37F43F00203A37724
:103C3800F8BD00BF745D0020488D0020705D002035
:103C48006C5D0020845D00207C5D0020795D002093
:103C580030B583B0A54B1B7813F0040F29D0037E31
:103C6800022B06D1026DA24B1B689A420ED000238C
:103C780011E0A04B1B68816A5A1A002A08DB828D62
:103C88000A449B1A002B05DD002304E0012302E00F
:103C9800002300E00123002B00F00B82964A1378E2
:103CA80043F008031370837F23F001038377F52023
:103CB8001EE213F0020F0AD0037E023BDBB2012B97
:103CC80005D9837F43F002038377002010E2837FC6
:103CD80013F0100F02D1894B1B684362044600237E
:103CE80080F89230FFF718FC237E023B072B00F286
:103CF800E281DFE813F008008200E9000D016201AB
:103D0800E9009601CA01794B1B7803F01203122BC4
:103D18005AD1236FDB685868FEF734F80130744BCA
:103D28001B68984250D1B4F866200132A4F8662086
:103D3800704A1268511CA1622163A364704B1B680E
:103D4800D989A4F86010DB89A4F86230013A626569
:103D580004232376E08EE118FFF7CEFBE08600EB24
:103D680080035B00A4F84E30B4F84C30012B01D12D
:103D7800400080B2A4F84C00B4F86830013BA4F8C5
:103D88006830206F03682367FEF7A0FF236F1BB915
:103D98004FF6FF73A38603E00023A38684F846301A
:103DA800D4F8803023B1206921460022984700E0EA
:103DB800002040B210F10A0F00F07F81A37F43F08A
:103DC8000203A377002093E1484B1B7813F0100FF0
:103DD80000F075814A4B1B68454A1068494A1188AA
:103DE800444A12685C8800941B8801931144464A2F
:103DF800464B00F0EBFD00207AE13C4B1B7813F0BA
:103E0800100F51D03A4B1868A36CC31A012B3AD43F
:103E1800236DC31A002B36DC04232376636923B190
:103E2800206921460022984700E0F22048B140B2BC
:103E380010F10A0F00F045812046FFF7B5FAF62089
:103E480056E1B4F84C502046FFF782FCB4F86430D1
:103E580013B1013BA4F86430012D03D1E38E5B005C
:103E68009BB200E0E38EA4F84C30234B1B7813F090
:103E7800200F00F02881A37F43F00203A3770723D4
:103E88002376002034E11E4B1B681E4A1188194A0C
:103E980012685C8800941B88019311441A4A1B4BD2
:103EA80000F094FD002023E113F0020F00F00D81D3
:103EB800A36A013B0F4A1268934240F008812046EA
:103EC80000F0DAFD002013E12046FFF741FC0A4B21
:103ED8001B7813F0200F00F0FC80A37F43F002034F
:103EE800A37707232376002002E100BF785D002036
:103EF800745D00206C5D0020795D0020488D0020F5
:103F0800685D0020705D00201C650020146500209D
:103F18002046FFF71DFC784B1B7813F0200F3CD090
:103F2800764B1B7813F0100F2FD0226D744B1B6843
:103F38009A422AD1A37F43F00203A3772046FEF7D3
:103F4800DDFE704B1B68A34203D1DA686D4B1A6023
:103F58000EE06D4A136007E0DA68A24202D1E26817
:103F6800DA6005E0684B1A60674B1B68002BF3D1D9
:103F78000122664B1A700A232376654B1A68E260A1
:103F88001C6000F06BFE0020B2E0A37F43F0020348
:103F9800A377082323760020AAE0584B1B7813F058
:103FA800100F00F09880226D554B1B689A4240F024
:103FB80094800623237600209AE02046FFF7C8FB6A
:103FC8004D4B1B7813F0200F00F08980A37F43F03E
:103FD8000203A3772046FEF791FE4A4B1B68A342D3
:103FE80003D1DA68474B1A600EE0474A136007E0CE
:103FF800DA68A24202D1E268DA6005E0424B1A6050
:10400800414B1B68002BF3D10122404B1A700A2345
:1040180023763F4B1A68E2601C6000F01FFE002008
:1040280066E02046FFF794FB344B1B7813F0100F23
:1040380057D0226D324B1B689A4254D12046FEF766
:104048005DFE304B1B68A34203D1DA682D4B1A6022
:104058000EE02D4A136007E0DA68A24202D1E26856
:10406800DA6005E0284B1A60274B1B68002BF3D158
:104078000122264B1A700A232376254B1A68E26020
:104088001C6000F0EBFD002032E02046FFF760FBEB
:104098001A4B1B7813F0100F27D0226D184B1B6892
:1040A8009A4224D1144A137843F010031370002065
:1040B8001EE000201CE000201AE0F62018E0002096
:1040C80016E0F62014E0002012E0002010E00020A6
:1040D8000EE000200CE000200AE0002008E00020AC
:1040E80006E0002004E0002002E0002000E00020BC
:1040F80040B203B030BD00BF795D0020785D00207C
:10410800745D0020448D0020508D0020408D0020DB
:104118005C8D0020F0B583B004460D464368A24A82
:104128001360197801F00F0103EB81039F4A1360B4
:1041380089004942FEF768FB002840F0B9812389CD
:10414800132B40F2B5819A4B18682946FDF774FA8B
:10415800002840F0AD81964B1B6803F0F003E02B7C
:1041680000F0A681914B1B689889FDF7FBFDC0F311
:104178000F30C0EB80308100204609B2FEF744FBC7
:10418800002840F09581894D2E683088FDF7EAFDBA
:1041980030802E687088FDF7E5FD70802E687068A5
:1041A800FDF7F0FD7060834B18602E68B068FDF76E
:1041B800E9FDB060804B18602E68F089FDF7D2FDEC
:1041C800F0812B689889FDF7CDFD00F03F077B4B08
:1041D8001F70228917F0030318BF01231344784A7C
:1041E8001380784B1868054600261CE0A98B6F4B96
:1041F8001B681A88914214D16A8B5B889A4210D145
:104208006A68714B1B689A420BD12A68684B1B6815
:104218009A4206D14EB1EB68F360E860694B1D60C5
:1042280003E02E46ED68002DE0D1002D43D1674B09
:104238001D681BE0A98B5D4B1B681A88914214D13D
:104248006A8B5B889A4210D16A685F4B1B689A42F6
:104258000BD12A68564B1B689A4206D12846FFF7AD
:10426800A1F92046FEF70EFB25E1ED68002DE1D10E
:10427800574B1E68304600210EE0428B4B4B1B68A3
:104288005B889A4206D10368494A1268934205D06E
:1042980020B11BB10146C0680028EED158B121B148
:1042A800C368CB60C6604A4B1860FFF7C9F920465F
:1042B800FEF7E8FAFFE0002D00F0DC80454B002215
:1042C8001A60218919815C6038490968D960424BB4
:1042D8001A60424B1A7017F0080F03D0637B43F043
:1042E800010363736B6F6BB12846FEF79BFF10F1F8
:1042F8000A0F00F0B1806B6F23B1314B1B88002B84
:1043080040F0AA80364B1D602846FFF7A1FC10F14B
:104318000A0F00F0A180314B1B7813F0080F0FD063
:10432800D5F888301BB128696FF00A0198472548ED
:104338002946FEF767FE02202946FEF79BF98BE027
:1043480013F0100F13D0AB7F13F0100F06D1D5F870
:1043580088301BB128696FF00B0198471948294626
:10436800FEF750FE02202946FEF784F974E0B5F8FE
:10437800642052B1AB6F1BB128692946984700E009
:10438800002040B210F10A0F66D0134B1A68002AB9
:104398003CD0AB7F13F0100F24D01046FEF772FA12
:1043A8002846FFF701F857E0805D0020685D00208F
:1043B8001C6500206C5D0020745D0020785D002085
:1043C800705D0020448D0020146500205C8D002065
:1043D8004C8D0020845D00207C5D0020795D0020EC
:1043E800608D0020EC6F24B1286929460023A0477E
:1043F80004E0002029460346FEF700FF43B213F10C
:104408000A0F29D010B12D4B1B686B672C4B1B78FA
:1044180013F0200F1AD06B6F23B15A7B42F02002A1
:104428005A7313E0AB8D40F66832934201D00133E2
:10443800AB85EC6F2CB12869294600221346A047AA
:1044480000E0002040B210F10A0F05D000221D4BF9
:104458001A60284600F0DCF900231A4A1360174A4C
:104468001360194B586830B3FEF70CFA0022164B4C
:104478005A6020E0154B1B689889FDF773FC00F023
:10448800040083B283B9114B1B68114A1188114A81
:104498001268588800901B8801930F4B18681144C4
:1044A8000E4A0F4B00F092FA2046FEF7EBF902E0B5
:1044B8002046FEF7E7F903B0F0BD00BF7C5D0020A1
:1044C800795D0020608D0020845D0020685D0020FB
:1044D800705D00206C5D0020745D00201C6500206C
:1044E800146500202DE9F0478146884616469A460D
:1044F8009DF8207017F0010500D0042507F002038D
:1045080003F0FF0203B10C2215440420FEF7A2F8C1
:10451800044628B94046FEF7B5F90020BDE8F08703
:10452800877200230360C0F80480B8F808305B1B6A
:10453800038140461421FEF767F928B12046FEF7AB
:10454800C5FB0020BDE8F08763685F68E760B9F8DD
:104558001A00FDF701FC3880E768B9F81C00FDF780
:10456800FBFB7880E7685046FDF700FC7860E76859
:10457800C5F38705053546EA0535A8B2FDF7ECFB16
:10458800B881E36800229A74DA742046BDE8F0879F
:104598002DE9F04106460C4698460A4402F11401FA
:1045A800012089B20022FEF79DF9074628B3456825
:1045B800708BFDF7D1FB2880B08BFDF7CDFB6880B1
:1045C800C5F80480B06AFDF7D1FBA860A0080530E3
:1045D800000300F4704040F01000FDF7BDFBA88117
:1045E800F08DFDF7B9FBE88100232B746B74AB7475
:1045F800EB74B26AF38D134433633846BDE8F08137
:1046080070B582B005460C46C668886AFDF7AEFBF1
:10461800B060EE68E08DFDF79FFBF081A26AE38D44
:1046280013442363EE68AB7A13F0010F09D040F20C
:10463800B450211DFEF760FF40F00170FDF796FBB6
:104648007061B4F93430B3F1FF3F01D10023A38680
:104658000CB1236833B9201DFCF79AFE002828D036
:1046680043682360A36B3BB9134B1B68A363EB68D8
:104678005868FDF787FBE063EB686A6851685B1A66
:104688009BB25189C91A518169680A89D31A0B8169
:104698006B68EA685A60EB6800221A745A74686892
:1046A800A37A627A0092062201922146221DFCF723
:1046B800A7FF02B070BD00BF488D0020B0F8683079
:1046C800052B06D9837F63F07F038377FF2040B2F1
:1046D800704770B582B00D4611F0020F01D1002667
:1046E80000E00126314606B10421B0F86630002BFF
:1046F80042D0044600200246FEF7F4F8014628B9E5
:10470800A37F63F07F03A377FF2036E0009620465F
:104718002A46E36DFFF7E6FE014628B9A37F63F05A
:104728007F03A377FF2028E0E26E12B9E06604E079
:104738001A461368002BFBD111600023A4F86A30D5
:1047480015F0030F07D0E36D0133E365B4F8663065
:10475800013BA4F8663015F0010F03D0A37F43F0A6
:104768002003A3774868FEF77BF9B4F8683018444B
:10477800A4F86800002000E0FF2040B202B070BD3D
:1047880070B50546C46E0CB917E01C462368002BAB
:10479800FBD1E3689889FDF7E5FA10F0070F0CD113
:1047A800E668B4890120FDF7D7FA2043B081AB7FD2
:1047B80043F02003AB77002003E028460121FFF7F0
:1047C8007DFF40B270BD00BF30B583B00446006DB8
:1047D800FDF7CCFA0346204600210A46FFF7D8FE2B
:1047E80090B10546A37F23F00303A377A37A627AE7
:1047F8000092062201922146221DFCF701FF28465D
:10480800FEF740F8002000E0FE2040B203B030BDC3
:104818002DE9F8436C4B1B68834200F0D1800546B4
:10482800B0F84C80B0F86030984528BF9846C46E00
:10483800837F13F0020F0ED04CB1E3685868FDF780
:10484800A1FAAB6CC01A23891844404503D92846FD
:10485800FFF7BAFFB5E02F6F0FB99BE01F463B6823
:10486800002BFBD196E0E3689889FDF77BFA2B6F64
:10487800A3B1AB7F13F0440F12D1EB6E2BB11A68C2
:1048880082B91A89EB8E9A420ED2B5F866306BB1AE
:10489800B5F86830052B0BD901230AE0012308E09D
:1048A800012306E0012304E0012302E0012300E0E4
:1048B80000231BB9AB7F13F0A00F77D02368EB66FA
:1048C8002B7E022B0DD0D4F80C90B9F80C60102078
:1048D800FDF742FA3043A9F80C00AB7F23F003033D
:1048E800AB7720462946FFF78BFEE3685868FDF74B
:1048F80049FA0646B4F80890E3689889FDF732FA51
:1049080010F0030018BF0120484430442B6D1B1AD7
:10491800002B00DA28652689E3689889FDF722FAD2
:1049280010F0030018BF0120C6422FD000232360D7
:104938002B6F13B92C6727462BE0E3685868FDF7FF
:1049480021FA0646FB685868FDF71CFA301A002859
:1049580019DA05F1700901E0D9F80090D9F80030AA
:104968005BB1DB685868FDF70DFA0646E3685868DE
:10497800FDF708FA301A0028EEDBD9F8003023607A
:10498800C9F8004005E03C60274602E02046FEF7F3
:104998009DF9EC6E54B1E3685868FDF7F3F9AB6C18
:1049A800C01A2389184440457FF65DAFEB6E0BB9FA
:1049B800A5F86A30AB7F03F07F03AB77002000E0F7
:1049C800002040B2BDE8F883608D00202DE9F04357
:1049D80083B08146884617461E46012014210022CE
:1049E800FDF780FF68B305464468BDF82800FDF769
:1049F800B3F92080BDF82C00FDF7AEF96080484679
:104A0800FDF7B4F960604046FDF7B0F9A06045F2E3
:104A18001400FDF7A1F9A08100230B22A2736822DC
:104A2800E27323746374A374E374009306230193FD
:104A3800284639463246FF23FCF7E2FD2846FDF7B3
:104A480021FF03B0BDE8F083026F12B970471A4620
:104A580000E008B51368002BF9D1C36E1360036F2B
:104A6800C3660022026790F84630013380F846306A
:104A78008263FFF7CDFE08BDF8B5066F16B307468B
:104A88003368036700F16C0500E02D682B685BB1A3
:104A9800DB685868FDF776F90446F3685868FDF74F
:104AA80071F9201A0028F0DB2B6833602E60336818
:104AB8000BB9A7F86A3097F84630013387F84630C3
:104AC8000023BB63F8BD00BF036F4BB3837F13F0B4
:104AD800040F25D110B50446FFF7CEFFB4F84C30CB
:104AE800B4F86020934203D95208A4F84E2002E09B
:104AF8005B08A4F84E30B4F84E20E38EB2EB430FB7
:104B080002DA5A00A4F84E20B4F84E2003EB43030F
:104B18001344A4F84C30A37F43F00403A37710BDDB
:104B2800704700BF30B583B00446006D0138FDF70B
:104B38001DF90346204600210A46FFF729FD60B10A
:104B48000546A37A00220092062201922146221DE0
:104B5800FCF756FD2846FDF795FE03B030BD00BFB3
:104B68002DE9F04182B0056F05B9C56E002D3ED024
:104B78000446EB689889FDF7F5F810F0010F03D0AB
:104B88002B891BB1002202E0002200E0012202F082
:104B9800FF08EB682046002182F001025B68FFF7FE
:104BA800F7FC064618B34768B8F1000F08D0BD896E
:104BB8001120FDF7D1F825F47C552843B88109E088
:104BC800686803892A899B1A07F1140101229BB29C
:104BD800FDF7CAFFA37A002200920622019230460E
:104BE8002146221DFCF70CFD3046FDF74BFE02B0B6
:104BF800BDE8F081F8B505460F4616460720FDF7D3
:104C080029FD002827D00446002303608760C6607A
:104C18004560114B1A680AB91860F8BD5368AB4271
:104C280017D95D1B556002600B4B1860F8BD5168C1
:104C380063685B1A6360116811B14868834207D2E0
:104C480011B14868C31A4B60136823601460F8BD3B
:104C58000A46002AEBD1F8BD985D002008B5094B3B
:104C68001B686BB9084B1B6813B9084B1B683BB131
:104C78000122044B1A60FA2005490022FFF7BAFF07
:104C880008BD00BF945D0020448D00205C8D00208D
:104C98009D4C000808B5FEF733FB084B1B6813B999
:104CA800074B1B682BB1FA2006490022FFF7A2FF29
:104CB80008BD0022044B1A6008BD00BF448D0020C7
:104CC8005C8D00209D4C0008945D00200020114A56
:104CD8001388591C11804FF6FF72934203D14FF489
:104CE80040420C4B1A800C4B1B680BE0598A094A4E
:104CF8001288914205D1013080B2B0F5804FE6D3D9
:104D080005E0DB68002BF1D1024B188870470020C2
:104D1800704700BF34000020648D00202DE9F04367
:104D280083B005468946D0F80480038998F80010B6
:104D380001F00F018A1CB3EB820F04DB89004942A2
:104D4800FDF762FD18B12846FDF79CFD95E06C68FB
:104D58004B4B18684946FCF76FFC07462088FDF75F
:104D680001F806466088FCF7FDFF464BD3F800E0E3
:104D7800744600210A4642E0638A83421CD117B96F
:104D88009CB123688BB1D4F800C03D4B1B689C458F
:104D98000BD09FB14CB1BCF1000F06D08CEA030CCC
:104DA800D9F808301CEA030F0AD159B9237C13F04B
:104DB800040F09D0012309E0002307E0002305E0E0
:104DC800002303E0012301E021460123ABB1A38ABC
:104DD800B34212D114F1040F07D063682BB1DFF886
:104DE800A8C0DCF800C0634507D152B1E368D360BE
:104DF800C4F80CE0234B1C6003E02246E468002C56
:104E0800BAD104B90C462CB9D9F804201C4B1B683C
:104E18009A422FD128466FF00701FDF7F5FC18B12B
:104E28002846FDF72FFD28E064B1A76937B1E0698E
:104E3800009621462A46144BB8471EE02846FDF73F
:104E480021FD1AE097B90E4B1B6803F0F003E02B25
:104E58000CD098F8001001F00F01023128468900A3
:104E6800FDF7D2FC28460321FCF72AFA2846FDF76D
:104E780009FD02E02846FDF705FD03B0BDE8F08313
:104E88001C650020648D00201465002070B5044660
:104E98001B4B1B6800260FE09C420BD0588A90429F
:104EA80009D1EBB11868E8B1F1B10D68F5B1A842C4
:104EB80001D11DE00126DB68002BEDD109B10B689B
:104EC80000E0002323601AB9FFF700FF024688B10B
:104ED80062828EB90A4B1A68E2601C6000200CE0FE
:104EE800F8200AE0F82008E0F82006E0F82004E0BE
:104EF800F82002E0F82000E0002040B270BD00BFBA
:104F0800648D00202DE9F04784B004460F46924690
:104F18009946DDF83080428A22B92146FFF7B6FF6C
:104F2800002849D138460821FDF76EFC68B10120F8
:104F380008210022FDF7D6FC064600283DD03B8913
:104F480023B13946FDF7B2FD00E03E467568608A38
:104F5800FCF702FF28804846FCF7FEFE6880002325
:104F6800AB71EB71A1460CB1236813B908F10409C0
:104F78000AE0D8F80420934206D0BE421FD030463B
:104F8800FDF780FCFA201BE03089FCF7E5FEA880DD
:104F9800A37A627A009211220192CDF808803046F5
:104FA80049465246FCF7D2FA0446BE4202D0304681
:104FB800FDF768FC204603E002E0FF2000E0FA204D
:104FC80040B204B0BDE8F087F0B583B007460E469E
:104FD80014461D461046FCF7DBF938B100903846F8
:104FE800314622462B46FFF78DFF00E0FC2040B2F9
:104FF80003B0F0BD70B504460D461646428A1AB98C
:105008002146FFF743FFB8B90DB12B6800E0002334
:105018006360A682237C43F004032374084B1A6858
:10502800134602E09C4208D0DB68002BFAD1E2600C
:10503800034B1C60002001E000E0002040B270BD7E
:10504800648D00208161C261704700BF10B50120E6
:10505800FDF700FB044628B10021202202F028F8C1
:10506800FF23A372204610BD10B5044600EB800351
:105078009B00094AD05838B1FDF704FC04EB8403BF
:105088009B000021044AD15004EB8404A400034B84
:105098001C440023A37010BDA05D0020B05D00205B
:1050A8002DE9F84F4FF0000E4FF00A0CF04673460A
:1050B8006746E146E34676468A464AE01A4603EBE7
:1050C8008304A400434921448C7879B20A2902D187
:1050D8000CB9DFB23BE0002C39D050B102EB8205AD
:1050E800AD003D490D44696805688D4201D1D8B2CB
:1050F8006DE0012C1ED102EB82018900364C61580B
:1051080061B102EB8202920004F110010A44D278E4
:1051180072451CD35FFA83FC964618E002EB8202C4
:1051280092002C490A44D278B24210D35FFA83FB2A
:1051380016460CE0012C0AD902EB8202920025499E
:105148000A44D278424502D35FFA83F99046013384
:10515800DBB2092BB2D91AF0020F33D17BB20A2B7A
:1051680002D11AF0010F2FD004467BB2092B01DCC3
:10517800FFB216E04FFA89F3092B02DC5FFA89F7D0
:105188000CE04FFA8BF3092B02DC5FFA8BF705E092
:105198004FFA8CF3092B19DC5FFA8CF73846FFF7C6
:1051A80063FF34B1226807EB87039B000A490B446D
:1051B8005A6007EB87029200064B13440022DA700C
:1051C800F8B204E0FF2002E0FF2000E0FF2040B238
:1051D800BDE8F88FB05D0020A05D0020F8B5064658
:1051E8000D4617464C6820461946062201F0EAFE8D
:1051F800A01D3946062201F0E5FE0823237300238B
:105208006373B369304629469847F8BD002942D0F0
:105218002DE9F8430F46096800293FD01C46164679
:10522800054608462946FCF707FAC8BB3B6803F061
:10523800F003E02B36D038462146FFF731FF041E35
:1052480032DBDFF87080A0000719BF0008EB070306
:1052580003F1100902229A749D6018460C303146F9
:10526800062201F0AFFE002389F8033058F80770D2
:10527800E7B104EB840080001C4648F8004028464B
:10528800394605F123023346FFF7A8FF3846FDF7F4
:10529800F9FA20460BE0F22040B27047F22006E00F
:1052A800F22004E0F22002E0204600E0002040B2B4
:1052B800BDE8F883A05D00202DE9F84306460F46B7
:1052C8009046994603202A210022FDF70BFB00286F
:1052D80040D005464468BDF82C00FCF73DFDA0828F
:1052E80004F116004946062201F06CFE04F1200084
:1052F8000999062201F066FE20464146062201F081
:1053080061FEA01D3946062201F05CFE04F11C0076
:105318000899042201F056FE04F126000A99042295
:1053280001F050FE0022A2730123E37308232374C3
:1053380062740622A2740422E27423730623637340
:10534800B36930462946984704462846FDF79AFA35
:10535800204600E0FF2040B2BDE8F88300287FD057
:105368002DE9F04F85B0054614460E465389292B82
:1053780003D81046FDF786FA6FE05768FB89B3F546
:10538800807F08D1BB7C062B05D1FB7C042B02D186
:105398003B8A082B03D02046FDF774FA5DE007F13D
:1053A8001C0A03A85146042201F00CFE07F1260B43
:1053B80002A85946042201F005FE2B1D019309D0CD
:1053C8006B6853B1029A934214BF4FF000084FF034
:1053D800010804E04FF0000801E04FF0000807F171
:1053E8001609B8F1000F01D0012300E00223284676
:1053F80003A94A46FFF70AFFBB8AB3F5807F29D184
:10540800B8F1000F26D00220FCF7A6FCB882584657
:105418005146042201F0D6FD50460199042201F0BC
:10542800D1FD07F120004946062201F0CBFD3846A0
:105438004946062201F0C6FD48463146062201F0DB
:10544800C1FDB81D3146062201F0BCFDAB692846F6
:10545800214698472046FDF715FA05B0BDE8F08FBC
:10546800704700BF10B500242AE0204604EB8402F0
:105478009200154B13449B7803B3A30023449B006D
:10548800114A1A44D3780133DBB2D370EF2B09D811
:1054980004EB840189000C4A0A449278012A04D159
:1054A800012B02D9FFF7E0FD08E0032A06D100EB43
:1054B80080008000044B1844022383700134E4B256
:1054C800092CD2D910BD00BFB05D002000B585B051
:1054D800024600F1230304320092064A0192029127
:1054E800012203921946044AFFF7E6FE05B05DF86B
:1054F80004FB00BF8CB9000884B9000870B50546E4
:105508000E46144602EB82029200124B13449B781B
:10551800022B13D104EB840292000E4B1344DB7868
:10552800E32B0BD90C491144FFF7D0FF30B904EB3A
:1055380084029200074B134403229A7004EB8404FC
:10554800A4002846314605F12302044B2344FFF703
:1055580045FE70BDB05D0020A45D0020AC5D00205C
:105568002DE9F04106460D46174600F12308086864
:105578003146FCF761F8002874D12B6803F0F0027B
:10558800E02A71D0002D71D0002B71D0284601215E
:10559800FFF786FD041E6DDB04EB84029200374B97
:1055A80013449B7833B904EB84029200334B1344C1
:1055B80001229A7004EB84029200304B13449B78CA
:1055C800012B00D02FB930462946FFF77FFF0FB9CE
:1055D80051E0FF2004EB84029200284B13449B788F
:1055E800012B0AD9264B1C701446304639464246D0
:1055F800244B2344FFF7F2FD3DE0012B3BD104E0AF
:105608001A7B012A06D11B6800E03B46002BF7D124
:10561800002200E001227AB1032019890022FDF757
:1056280061F9054660B13946FDF748FA40B12846A8
:10563800FDF728F9002503E03846FDF71BFA3D463B
:1056480075B104EB84039B000F4AD05808B1FDF7ED
:1056580019F904EB8404A4000B4B1D5100200AE047
:10566800FF2008E0F22006E0F22004E0F22002E049
:10567800F22000E0204640B2BDE8F081B05D002095
:105688009C5D0020AC5D0020A05D002070B582B05C
:1056980005460E46144608460E21FDF7B5F80028C3
:1056A80077D120682946FBF7C7FF002869D123680E
:1056B80003F0F002E02A15D101238DF80030002311
:1056C8008DF801305E238DF80230637803F07F0394
:1056D8008DF80330A3788DF80430E3788DF8053021
:1056E8006B464FE06A68A9685A400A420AD09BB2E2
:1056F8004FF6A962934205D015F10C044BD0EB6824
:10570800002B4AD0274B1A7802EB82018900264BDE
:105718000B449B78012B28D9216802EB82039B005C
:10572800224803445B68994221D128463146FFF755
:10573800E5FE33E053B203EB830080001A490144CD
:10574800897801290ED921680346184803445B6803
:10575800994207D1D2B2134B1A7028463146FFF747
:10576800CDFE1BE00132D2B202E0002200E00022AE
:1057780053B2092BDEDD284621463246FFF7F0FEFC
:105788000CE00B4B2846314605F12302FFF726FDB6
:1057980004E0FE2002E0FC2000E0FC2040B202B061
:1057A80070BD00BF9C5D0020B05D0020A05D0020A2
:1057B80084B9000870B5044643890E2B3DD90E46BE
:1057C80040688589037813F0010F14D0012B09D1A3
:1057D800437883B983785E2B0DD1637B43F0100344
:1057E800637308E01749062201F0BAFB18B9637B16
:1057F80043F008036373082D03D0B5F5C16F10D0CB
:105808001BE096F8293013F0200F16D020466FF0D1
:105818000D01FCF7F9FF80B920463146FBF7DCFDA6
:105828000EE096F8293013F0200F06D0304606F126
:1058380023012246FFF792FD02E02046FDF722F8F9
:10584800002070BD84B90008F0B585B001A800F04B
:10585800E7F9029F0320BDF804100246FDF742F85D
:10586800064648B90CE060687919628901F0AAFB1C
:1058780063891D44246801E004460025002CF2D108
:10588800144B1B689A68012A02D91A68002306E09B
:10589800039AFBE74FF000411160D26801330D49CC
:1058A800096888689842F5D800238B6041F2140390
:1058B800094AD35813F0800F08D01346802141F2CB
:1058C80014029950002141F208029950304605B05F
:1058D800F0BD00BFC0A500200080024070B50C4696
:1058E800094B1B689E68002507E07019616862898A
:1058F80001F068FB63891D442468002CF5D1A8B227
:1059080000F0AEF9002070BDA88D002070B50546E6
:10591800062380F82230022680F8236080F824606D
:10592800032380F82530002480F8264080F827409B
:1059380080F82840204605F1230100F049F940F29B
:10594800DC532B84322385F829300C480C49324625
:1059580000F06CFA0B480C49042200F0F1F907E05A
:10596800064800EB44104FF4400100F085FA01347A
:10597800012CF5DD00F0F2FA70BD00BFAC8D0020FF
:1059880044A60020C4A50020EC8D002038B50446AC
:10599800FFF75AFF50B10546236921469847044648
:1059A80010B12846FCF76EFF204600E0FF2040B209
:1059B80038BD00BF08B5732280F82A20742280F809
:1059C8002B20044A4261044A8261FFF79FFF0020AE
:1059D80008BD00BF95560008E558000810B588B006
:1059E800FCF708FDFCF704FE0E4B07936FF07F43AE
:1059F800069303F52843C13305930B4C002300930A
:105A08000A4B01930A4B0293204607A906AA05AB45
:105A1800FCF78AFE2046FCF7ABFE2046FCF7AEFEFC
:105A280008B010BDC0A8000A688D0020BD59000844
:105A3800BD57000808B50248FFF7A8FF08BD00BF1A
:105A4800688D002000B583B00190019B0C4A126854
:105A58009B1AF92B04D9019A094B1A60FDF750FCDF
:105A6800019B084A12689B1A41F28732934204D973
:105A7800019A044B1A60FFF7F5FC03B05DF804FBCC
:105A8800685E00206C5E002084B0019000230393C0
:105A9800019B039302E0039B013B0393039B002BB1
:105AA800F9D104B0704700BF08B54FF0007001216C
:105AB800FAF7B0FF4FF000700021FAF7ABFF08BD0E
:105AC80001230360002343608360C36003614FF4D4
