:020000040800F2
:100000000000022099020008592400085D2400081D
:10001000612400086524000869240008000000002D
:100020000000000000000000000000006D24000837
:1000300071240008000000007524000879240008DD
:10004000C9030008C9030008C9030008C903000860
:10005000C9030008C9030008C9030008C903000850
:10006000C90300088D240008C9030008C90300085B
:10007000C9030008C9030008C9030008C903000830
:10008000C9030008C9030008C9030008AD2400081B
:10009000A5240008B5240008BD240008C9030008F1
:1000A000C9030008C9030008C9030008C903000800
:1000B000C9030008C9030008C9030008C9030008F0
:1000C000C9030008C9030008C9030008C9030008E0
:1000D000C9030008C9030008C9030008C9030008D0
:1000E000C9030008C9030008C9030008C9030008C0
:1000F000C9030008C9030008C9030008C9030008B0
:10010000C9030008C9030008C9030008C90300089F
:10011000C9030008C9030008C9030008C90300088F
:10012000C9030008C9030008C9030008C90300087F
:10013000C9030008C9030008C9030008C90300086F
:10014000C9030008C9030008C9030008C90300085F
:10015000C9030008C9030008C9030008C90300084F
:10016000C9030008C9030008C9030008C90300083F
:10017000C9030008C9030008C9030008C90300082F
:10018000C903000800B583B000F01CFF304B314AB2
:100190001360314A1360314B314A03E01168196032
:1001A000043304322F498B42F8D32A4B1A682E4B62
:1001B0009A4204D1284B1A682C4B9A4200D0FEE791
:1001C000234B2B4A13602B4A13602B4B02E0002277
:1001D0001A600433294A9342F9D3254B1B6813B99B
:1001E000244B1B6803B1FEE700F0F8FE01A8694646
:1001F00000F08AFE224C234B1C1BA410002504E0B7
:100200001F4B53F8253098470135AC42F8DC1E4CA3
:100210001E4B1C1BA410002504E01B4B53F825307B
:1002200098470135AC42F8DC0198009901F08EFB4B
:100230000546174C174B1C1BA41004E0013C144B43
:1002400053F824309847002CF8DC284600F038FE9C
:10025000BABADECA00000020AC080020000000206E
:1002600010F60008B0080020785634123254769800
:10027000B008002024AE0020B008002028AE0020E6
:10028000F4030008F4030008F4030008F403000872
:10029000F4030008F403000808B5FFF773FF00BF7C
:1002A00000BEFEE71EF0040F0CBFEFF30880EFF373
:1002B00009807146414A10472DE9F04182B0044659
:1002C0008846134B5E6B9D6B9F6A1B6B13F0020F8E
:1002D0000DD00F4BDB6A002B09DA4BF6AB6100F057
:1002E000F9FE20B14FF00042094BDA620CE00948F8
:1002F00000F012FECDF800802046394632462B46EB
:1003000000F070FE00BEFEE702B0BDE8F08100BF65
:1003100000ED00E050F1000800BEFEE71EF0040F03
:100320000CBFEFF30880EFF309807146244A1047B1
:100330002DE9F04182B007468846084B5D6B9C6B07
:100340009E6A074800F0E8FDCDF800803846314647
:100350002A46234600F046FE00BEFEE700ED00E020
:1003600060F100081EF0040F0CBFEFF30880EFF3FC
:1003700009807146134A10472DE9F04182B00746C3
:100380008846084B5D6B9C6B9E6A074800F0C4FD75
:10039000CDF80080384631462A46234600F022FE3A
:1003A00000BEFEE700ED00E06CF1000800BEFEE7D5
:1003B00000BEFEE700BEFEE770470000B90200087D
:0C03C000310300087903000800BEFEE7CE
:1003CC0010F6000800000020B008002010F600080D
:1003DC000000000000000000B008002028AE002043
:0803EC00000000000000000009
:1003F80040F0BF6040F40030014BD860704700BF48
:1004080000ED00E0C3781BB310B4194BDA68D2438F
:10041800C2F30222C2F10401C9B20F2343FA02F463
:1004280043788B40DAB2817804EA010313431B0155
:10043800DBB202780F490A4482F80033037858097E
:1004480003F01F03012202FA03F341F820300BE006
:1004580003785A0903F01F030121994002F1200390
:10046800044A42F8231070475DF8044B704700BFF8
:1004780000ED00E000E100E0042805D1054A13681A
:1004880043F0040313607047024A136823F004031F
:100498001360704710E000E0084201D00120704767
:1004A8000020704708B50C4B98420AD14FF00070F5
:1004B800012100F0DDFB4FF00070002100F0D8FBB7
:1004C80008BD4FF08060012100F0D2FB4FF0806042
:1004D800002100F0CDFB08BD00640040036823F054
:1004E80002030360036843F001030360002300E094
:1004F8000133426812F0010F03D14FF6FF729342A5
:10050800F6D1436813F0010F6BD08B79012B04D11E
:10051800036843F08003036003E0036823F080036B
:100528000360CB79012B04D1036843F040030360D7
:1005380003E0036823F0400303600B7A012B04D126
:10054800036843F02003036003E0036823F02003FB
:1005580003604B7A012B04D1036843F01003036056
:1005680003E0036823F0100303608B7A012B04D1A6
:10057800036843F00803036003E0036823F00803FB
:100588000360CB7A012B04D1036843F004030360B2
:1005980003E0036823F0040303608A78CB781B0622
:1005A80043EA82730A7943EA02434A7943EA0253E7
:1005B8000A88013A1343C361036823F00103036007
:1005C800002300E00133426812F0010F03D04FF618
:1005D800FF729342F6D1436813F0010F03D0002055
:1005E8007047002070470120704700BF70B4827ABE
:1005F80001239340384AD2F8001241F00101C2F8B1
:100608000012D2F81C12DC432140C2F81C12027BF3
:10061800B2B9314AD2F80C122140C2F80C12817AD0
:10062800C688458845EA0645483142F83150857AFA
:100638008688018841EA0641483502EBC5025160C7
:10064800027B012A16D1244AD2F80C121943C2F8A7
:100658000C12817A0688458845EA0645483142F8F1
:100668003150857A8688C18841EA0641483502EBCF
:10067800C5025160C27A32B91749D1F80422224022
:10068800C1F8042205E01449D1F804221A43C1F83C
:10069800042202892AB91049D1F814221440C1F859
:1006A80014420289012A05D10B49D1F814221A43B0
:1006B800C1F81422427B012A05D1074AD2F81C123C
:1006C8000B43C2F81C32044AD2F8003223F001036B
:1006D800C2F8003270BC704700640040034682686C
:1006E80012F0806F09D1826812F0006F07D182681A
:1006F80012F0805F05D0022004E0002002E0012013
:1007080000E00420042850D0F0B4054600F1180297
:1007180012019C5804F001049C500A7A52B900F165
:10072800180636019F590A684C7A44EA42523A43FD
:100738009A510AE000F1180636019F594C6842EABE
:10074800C4024C7A22433A439A518A7A02F00F0241
:100758008A7205F1180424011A19566826F00F0642
:10076800566057688E7A3E4356608E7B4A7B1204E9
:1007780042EA06620E7B42EA0622CE7A324303EB55
:10078800051505F5C476C5F888218D7C4A7C1204C8
:1007980042EA05620D7C42EA0522C97B0A4372607F
:1007A8001A5942F001021A51F0BC704730B401F1F5
:1007B8001B031B01C35803F00403DBB2137233B9E4
:1007C80001F11B031B01C3585B0D136005E001F128
:1007D8001B031B01C358DB08536001F11B031B01FA
:1007E800C418C35803F002035372636803F00F037D
:1007F800937263681B0AD37400EB011303F5DC746E
:10080800D3F8B851D572D3F8B8512D0A1573D3F867
:10081800B8512D0C5573D3F8B8311B0E9373636818
:10082800D37363681B0A137463681B0C537463687F
:100838001B0E937421B9C36843F02003C36003E01F
:10084800036943F02003036130BC70471AB1436960
:10085800194341617047436923EA010141617047C7
:1008680008B543690B426FD0402945D00ED80429FA
:100878002ED004D8012921D0022924D066E01029DD
:1008880030D0202933D0082960D126E0B1F5006F97
:1008980050D009D8B1F5007F42D0B1F5806F44D06F
:1008A800B1F5807F52D136E0B1F5803F29D0B1F55E
:1008B800003F2BD0B1F5004F48D140E08068244973
:1008C800FFF7EAFD08BDC0680321FFF7E5FD08BD95
:1008D800C0680821FFF7E0FD08BDC0681021FFF7D8
:1008E800DBFD08BD00690321FFF7D6FD08BD0069DF
:1008F8000821FFF7D1FD08BD00691021FFF7CCFDE5
:1009080008BD40680821FFF7C7FD08BD40681021F1
:10091800FFF7C2FD08BD80690121FFF7BDFD08BDD5
:1009280080690221FFF7B8FD08BD80690421FFF73F
:10093800B3FD08BD80697021FFF7AEFD08BD4068B2
:100948000421FFF7A9FD08BD002008BD002008BD4F
:1009580001010100B1F5807F37D00CD8082925D0D6
:1009680004D801291CD004291DD07047202920D083
:10097800402921D07047B1F5006F2FD006D8B1F5C6
:10098800007F25D0B1F5806F25D07047B1F5803F45
:1009980015D0B1F5003F15D0B1F5004F27D122E0B1
:1009A800134B836070470823C36070471023C360EC
:1009B80070470823036170471023036170470823B9
:1009C80043607047102343607047042343607047B7
:1009D8000423436070470423436070470023836106
:1009E80004234360704700238361042343607047F6
:1009F800010101008379002B34D010B4204B1A6810
:100A0800016822EA01021A605A68016822EA0102B2
:100A18005A60027902F1804202F59E321468016838
:100A2800214311609A68016822EA01029A60DA6833
:100A3800016822EA0102DA604379102B09D1104BD0
:100A4800996802680A439A60D96802680A43DA60BA
:100A580013E003F1804303F59E33196802680A43E3
:100A68001A600AE0037903F1804303F59E331A689C
:100A7800016822EA01021A6070475DF8044B70476A
:100A8800003C0140064A136803405269024202D002
:100A98001BB900207047002070470120704700BF35
:100AA800003C0140014B5861704700BF003C0140C9
:100AB80070B4002239E0012393400C681C409C422A
:100AC80032D1046855000323AB40DB431C4004606B
:100AD80006680C79AC40344304600C79013CE4B2FC
:100AE800012C14D884682340836084684B79AB4018
:100AF80023438360446896B20123B34024EA030386
:100B0800436044688B79B3409BB223434360C46815
:100B180096B276000323B34024EA0303C360C46893
:100B2800CB79AB402343C36001320F2AC3D970BCD1
:100B3800704700BF30B401F007039B009A40C90812
:100B4800083150F821400F2505FA03F324EA03037E
:100B580040F8213050F821301A4340F8212030BCA9
:100B6800704700BF10B4294B9B6803F00C03042B9B
:100B780005D0082B06D053BB254B036029E0254B35
:100B8800036026E0214B5A685B6803F03F0312F4C8
:100B9800800F09D01F4AB2FBF3F21C4B5B68C3F30A
:100BA800881303FB02F208E0194AB2FBF3F3174A71
:100BB8005168C1F3881101FB03F2144B5B68C3F35E
:100BC800014301335B00B2FBF3F3036001E0104B18
:100BD80003600E4A9368C3F303130F49CC5CE4B275
:100BE8000368E34043609468C4F382240C5DE4B274
:100BF80023FA04F484609268C2F342328A5CD2B267
:100C0800D340C3605DF8044B704700BF0038024012
:100C18000024F40040787D010400002021B1054B38
:100C28001A6B104318637047024A136B23EA0000DB
:100C3800106370470038024021B1054B5A6C1043CD
:100C480058647047024A536C23EA000050647047A6
:100C58000038024021B1054B1A69104318617047EA
:100C6800024A136923EA0000106170470038024005
:100C780021B1054B1A6A104318627047024A136A79
:100C880023EA00001062704700380240002303E0A6
:100C98000133DBB20A38C0B20928F9D81B01DBB22C
:100CA8001843704782B000230193114BDB6813F09F
:100CB800400F17D14FF0FF320D4BDA600C4BDB6859
:100CC80003F04002019B01330193019BB3F5803F80
:100CD80001D0002AF2D0064BDB6813F0400F03D096
:100CE800012002E0012000E0002002B0704700BFB0
:100CF80000280040024AD36823F08003D36070477D
:100D08000028004082B000230193114BCA225A6286
:100D180053225A62DA6822F0A002DA600C4BDB68D0
:100D280003F02002019B01330193019BB3F5004FAF
:100D380001D0002AF2D0064BDB6813F0200F01D057
:100D4800012000E00020FF22014B5A6202B07047E8
:100D58000028004038B50D46034638B9224A926843
:100D680012F0400F09D10022CA7006E01E4A9268AC
:100D780012F0400F01D10022CA7053B12C786B7861
:100D88001B0243EA0444AB782343E87843EA00446F
:100D98000FE02878FFF77AFF04046878FFF776FFFA
:100DA80044EA0024A878FFF771FF2043EC7840EA72
:100DB80004440D4BCA225A6253225A62FFF772FF4B
:100DC80058B104F07F3020F0FE40074B1860FFF761
:100DD80091FFFFF797FF10B902E0002000E0012023
:100DE800FF22014B5A6238BD0028004038B50D4635
:100DF800024638B94B7813F0100F03D023F01003D4
:100E08000A334B7052B1EC786B781B0243EA044406
:100E1800AB782343287843EA40340FE0E878FFF7BB
:100E280035FF04046878FFF731FF44EA0024A87806
:100E3800FFF72CFF20432C7840EA44340D4BCA229C
:100E48005A6253225A62FFF72DFF58B124F07F40AF
:100E580020F0C000074B5860FFF74CFFFFF752FF28
:100E680010B902E0002000E00120FF22014B5A6285
:100E780038BD00BF0028004030B401F003029200E2
:100E88000F2494408908084B023153F8215025EA71
:100E9800040443F8214053F821409040204343F88C
:100EA800210030BC704700BF00380140014B18607A
:100EB800704700BFDC002742FEE700BF08B50D4BB6
:100EC8001B6813B90C4A0B4B1A600A4B1A68C31CEF
:100ED80023F00303134409498B4206D907F0FAFEAD
:100EE8000C2303604FF0FF3008BD02490B60104629
:100EF80008BD00BFB408002028AE002000FC012077
:100F080001230360014B0B60704700BF14000020F1
:100F18000FB400B583B004AB53F8042B0193084811
:100F280080210AF0D3FB011E03DD054800F042F8DA
:100F38000146084603B05DF804EB04B0704700BFF3
:100F4800BC080020F0B585B006460C46174B1B6858
:100F580083B9174B0193042302930323039301AF2F
:100F6800012528463946ABBE0546B5F1FF3F13D0EB
:100F78000E4B1D600D4B1B6801930296039401AE46
:100F8800052528463146ABBE0546B5F1FF3F06D0DC
:100F9800A54207D0601B07E04FF0FF3004E04FF098
:100FA800FF3001E04FF0FF3005B0F0BD3C090020F4
:100FB80030F0000808B5FFF7C5FF08BD08B500F018
:100FC80017F9024B024A9A6008BD00BF00ED00E025
:100FD8000000000808B500F02DF908BDF8B5044672
:100FE8000D4617461E462648FFF792FF25482168FA
:100FF800FFF78EFF24486168FFF78AFF2348A1683E
:10100800FFF786FF2248E168FFF782FF2148216940
:10101800FFF77EFF20486169FFF77AFF1F48A16943
:10102800FFF776FF1E48E169FFF772FF1D48FFF7DB
:101038006FFF1D482946FFF76BFF1C4CE16A1C48EF
:10104800FFF766FF216B1B48FFF762FFE16B1A4849
:10105800FFF75EFF15F0800F03D018483946FFF7F9
:1010680057FF15F4004F03D015483146FFF750FFDE
:101078001448FFF74DFF14480699FFF749FFF8BDDC
:1010880034F0000844F0000854F0000864F0000848
:1010980074F0000884F0000894F00008A4F0000838
:1010A800B4F00008C4F00008D0F0000800ED00E03B
:1010B800E0F00008F0F0000800F1000810F1000866
:1010C80020F1000830F1000838F1000838B58369CC
:1010D8001B888B4230D1044603684568013B042BCA
:1010E8002CD8DFE803F0032B24241B0028681449BC
:1010F80007F00CFF70B96B6813B90123236016E081
:10110800042B02D10223236011E0082B02D1032310
:1011180023600CE04FF0FF33236008E02B68023BAC
:10112800012B02D80023036001E0AB680360A369C8
:101138000233A361012038BD002038BD002038BD2E
:1011480030F0000882B0002301930093254A136809
:1011580043F480331360234B1B6803F4003300937C
:10116800019B01330193009B1BB9019BB3F5A06F51
:10117800F1D11C4B1B6813F4003F02D001230093EC
:1011880001E000230093009B012B29D1154B9A689D
:101198009A609A6842F400429A609A6842F4A052AF
:1011A8009A60114A5A601A6842F080721A600D4BB0
:1011B8001B6813F0007FFAD040F203720B4B1A60E1
:1011C800A3F580639A6822F003029A609A6842F055
:1011D80002029A60034B9B6803F00C03082BF9D1B9
:1011E80002B0704700380240193C4005003C0240FC
:1011F80008B50D4B1A6842F001021A600021996087
:101208001A6822F0847222F480321A60074A5A60FF
:101218001A6822F480221A60D960FFF793FF4FF012
:101228000062034B9A6008BD003802401030002469
:1012380000ED00E0234B9B6803F00C03042B07D060
:10124800082B09D0002B2DD11F4A204B1A602CE007
:101258001F4A1E4B1A6028E01A4B5A685B6803F055
:101268003F0312F4800F09D0194AB2FBF3F2154B71
:101278005B68C3F3881303FB02F208E0124AB2FB6F
:10128800F3F3104A5168C1F3881101FB03F20D4BC7
:101298005B68C3F3014301335B00B2FBF3F30B4A12
:1012A800136002E0084A094B1A60064B9B68C3F3B7
:1012B8000313084AD25CD2B204490B68D3400B60CE
:1012C800704700BF003802400024F4002C000020C2
:1012D80040787D011C00002010B40B490B4B4B607B
:1012E8000B4B0C4A5A6000220A704A708A70142408
:1012F8000C720420C8601A705A709A701C72D860F8
:101308005DF8044B704700BF6C5F00209009002017
:101318005C5F00204009002010B50446437802783D
:10132800934204D18078012801D1013222702078BB
:10133800E268904201D1002222706068227A02FBA2
:10134800030007F0FFFC63780133DBB26370E268E7
:10135800934201D100236370627823789A4201D1C5
:101368000123A370012010BD10B50446037842780C
:10137800934201D182789AB108460022A27061682E
:10138800227A02FB031107F0DDFC23780133DBB27C
:101398002370E268934205D100232370012010BD19
:1013A800002010BD012010BD214B1A6C42F00072C4
:1013B8001A641A6B42F002021A63A3F550531A68B2
:1013C80022F440721A601A6842F400721A605A686D
:1013D80002F480725A60DA6822F44072DA609A681D
:1013E80022F440729A609A6842F400729A605A6ACB
:1013F80042F009025A621A6822F4C0621A601A6836
:1014080042F480621A605A6802F400725A60DA681C
:1014180022F4C062DA609A6822F4C0629A609A681C
:1014280042F480629A605A6A42F090025A627047A7
:101438000038024000B585B00368C3F30A02C3F35D
:10144800D123520142EA5332ADF80020027A817A60
:10145800920042EAC30343EA4103ADF8023043680D
:10146800C3F30A02C3F3D123520142EA5332ADF85F
:101478000420427AC17A920042EAC30343EA410354
:10148800ADF806300023ADF808308DF80A308DF835
:101498000B3001238DF80C308DF80D306846FFF7BE
:1014A800A5F805B05DF804FB10B586B001238DF8EA
:1014B800043000248DF806408DF805408DF807406B
:1014C8000A4B029301A800F071FE03904FF48013B9
:1014D80004938DF814408DF815408DF816408DF85A
:1014E800174003A8FFF7A6FF06B010BDEFCDAB234A
:1014F80070B584B0354A136C43F000731364344BF1
:101508001A68344B1A70FFF74FFF334E3046FEF718
:10151800C9FF0423ADF8043000248DF806408DF887
:10152800074001258DF8085002238DF809308DF801
:101538000A408DF80B408DF80C408DF80D408DF861
:101548000E408DF80F40304601A9FEF7C7FFFFF7A0
:10155800ABFF304648F213412A46FFF777F91423C8
:101568008DF8003005238DF801308DF802408DF894
:1015780003506846FEF746FF15238DF8003006260F
:101588008DF801608DF802408DF803506846FEF72B
:1015980039FF13238DF800308DF801608DF8024073
:1015A8008DF803506846FEF72DFF16238DF800309E
:1015B8008DF801608DF802408DF803506846FEF7FB
:1015C80021FFFFF789FE04B070BD00BF003802405C
:1015D800107AFF1F7C5F00200064004010B586B0C1
:1015E8000A480221FFF73CF968B1084C204602215D
:1015F800FFF7B0F92046002101AAFFF7D7F8044801
:1016080001A9FFF789FE06B010BD00BF00640040C5
:101618006C5F002010B586B00A481021FFF720F94A
:1016280068B1084C20461021FFF794F920460121A3
:1016380001AAFFF7BBF8044801A9FFF76DFE06B041
:1016480010BD00BF006400406C5F002000B587B08B
:101658000A480121FFF704F960B108480121FFF7A2
:1016680079F9074801A9FFF77FFE18B1034801A9D6
:10167800FFF734F807B05DF804FB00BF00640040D2
:101688005C5F002008B50D484FF48061FFF7E8F86B
:1016980030B10A484FF48061FFF75CF9FFF728FF83
:1016A80006484FF40041FFF7DBF830B103484FF428
:1016B8000041FFF74FF9FFF71BFF08BD006400402A
:1016C80000B587B00D4B9B6813F0806F09D10B4BA9
:1016D8009B6813F0006F04D1084B9B6813F0805F80
:1016E80008D0074801A9FFF73FFE18B1034801A930
:1016F800FEF7F4FF07B05DF804FB00BF006400408C
:101708005C5F002030B400231BE01B01451C0078FF
:10171800A0F13002D2B2092A02D80344303B0EE0CD
:10172800A0F16102D2B2052A02D80344573B06E071
:10173800A0F14102D2B2052A08D80344373B21461A
:1017480028464C1E0029E0D1184601E04FF0FF3032
:1017580030BC7047002300E00133C25C202AFBD074
:10176800092AF9D00A2AF7D010B42D2A01D02B2A39
:1017780000D10133002205E002EB820252000A4444
:10178800303A0133C15CA1F13004E4B2092CF3D939
:1017980010465DF8044B704738B505460C460E48B0
:1017A800A0FB0530C00802D0FFF7F6FF00E00020DC
:1017B8002268531C2360084BA3FB0513DB0803EBCB
:1017C80083035B00EB1A30331370236800221A700E
:1017D8000130C0B238BD00BFCDCCCCCC38B5044642
:1017E8000D46000902D0FFF7F9FF00E0002004F0E1
:1017F8000F04092C01DC303400E037342B685A1C04
:101808002A601C702B6800221A700130C0B238BDE3
:101818002DE9F04182B004460D460191013AD6B255
:10182800002107F00BFA38B104F100446B1C019356
:101838002D232B70012500E00025204607F026FA0D
:10184800804607F005F80146204606F04FFF074698
:10185800404601A9FFF7A0FF2844C5B2B5423CD2D3
:101868003846002107F0E0F9002836D1019B5A1CC0
:1018780001922E221A700135EDB21FE038461A493E
:1018880007F03EF8074607F001FAC0B2174BA3FB72
:101898000023DB0803EB83035B00C31ADCB220469A
:1018A80006F0DAFF0146384606F020FF0746019B9E
:1018B8005A1C019230341C700135EDB238460021B3
:1018C80007F0B2F920B9B542D8D301E0013B019342
:1018D800019B13F8012C302AF8D00022019B1A70C2
:1018E80002B0BDE8F08100BF00002041CDCCCCCCD7
:1018F80000B585B06846FFF735F90F4A019BA2FB92
:1019080003239B09013BB3F1807F09D20B4A536043
:10191800F0210B4B83F823100023936007231360F7
:101928000022074B83F823204FF000424EF2FC03BD
:101938001A6005B05DF804FBD34D621010E000E0BA
:1019480000ED00E008B5FFF7D3FFFFF7C5FCFFF790
:10195800CFFD06F049FC05F02DFE00F0ADFC00F0CF
:10196800D7FC00F0EFFAFFF7ABFE00F0F7FC06F04B
:10197800CBF808B105F04CFE024B186805F050FE94
:10198800F1E700BFE0090020024A13680133136041
:10199800704700BFE0090020704700BFF0B583B072
:1019A8001446002B34D1064692B30846118902F03A
:1019B80049FC6068011D8278C37843EA022297B225
:1019C8003B1D03442589ED1B043D007800F0F00021
:1019D800302808D002D820280BD01CE0402813D08B
:1019E80090280DD017E0376900953046D2B2B84735
:1019F80011E00123B37107220A4B83F82C200AE077
:101A0800012386F8A23006E0012386F8A33002E01D
:101A1800084602F0CDFE204602F0D8F9002003B0B7
:101A2800F0BD00BF7C60002008B50123837105224A
:101A3800044B83F82C200846034902F037FC0020A9
:101A480008BD00BF7C600020A519000808B583798F
:101A580043B990F8A430042B04D1084602F08AFF59
:101A6800F62005E090F8A430013380F8A430002077
:101A780040B208BD02680B46002901DA01F1FF03F4
:101A8800C3F3072313700268531C0360064B0B4013
:101A9800002B03DA013B63F0FF0301335370036843
:101AA80001330360704700BFFF00008070B5054632
:101AB8000E46084607F066FB044628462146FFF70F
:101AC800D9FF28683146224607F03CF92B681C44A8
:101AD8002C6070BD30B40546002200E002460C4B75
:101AE8000B40002B03DA013B63F07F030133DBB2C9
:101AF8000C46002901DA01F17F04E111002901DD1A
:101B080043F08003501CAB540029E7DC30BC70471D
:101B18007F00008083795BB110B50446806802F0CD
:101B280029FF0023A3710222024B83F82C2010BD49
:101B3800704700BF7C60002070B50446049E0361B6
:101B4800016082800025857114301749062207F04C
:101B5800F9F804F11A00311D042207F0F3F8E571D1
:101B680004F11D00114907F0AFFA04F16D001049A6
:101B780007F0AAFA0F4D2846314607F0A5FA28467D
:101B88000D4907F0A3F9C4F89C500C4D284631467E
:101B980007F09AFA28460A4907F098F9C4F89850C5
:101BA8000123A4F8A03070BD7CF1000884F100087E
:101BB80088F100082C60002090F10008AC6000203B
:101BC80098F1000838B5857925BB0446002380F8CC
:101BD800A43002F077FFA060214640F25B720F4B01
:101BE80002F086FF20B12046FFF794FF012512E09E
:101BF800A068214602F058FBA068094902F058FB8A
:101C0800A0680849042202F059FBA068034902F0C1
:101C180053FB00E00125284638BD00BF311A0008F3
:101C2800A1190008551A00082DE9F041ADF5816D9C
:101C3800044602AB019300F11407384607F0A2FAF4
:101C48000C30C5B204F11D06304607F09BFAC0B24D
:101C580018B10544023505F0FF0504F16D0840464A
:101C680007F090FAC0B218B10544023505F0FF0537
:101C7800019B5A1C019210221A7001982946FFF7FD
:101C880029FF019B1844019001A82449FFF70EFF82
:101C9800019B5A1C019204221A70304607F072FA0E
:101CA80028B1019B5A1C0192C0221A7004E0019BC2
:101CB8005A1C019200221A7001A83221FFF7DAFE9D
:101CC80001A83946FFF7F2FE9DF91130002B07DA1B
:101CD80001A83146FFF7EAFE01A84146FFF7E6FEF4
:101CE80002A9019A521AA068D2B2012304F0A8F8F6
:101CF80058B9A06804F0E2FA094B1B68E3600622B1
:101D0800084B83F82C20002003E02046FFF702FF51
:101D180001200DF5816DBDE8F08100BF9CF1000840
:101D2800E00900207C6000208379002B62D02DE937
:101D3800F04F83B000AF164689460446084607F0C0
:101D480021FA054600F1030800F10A0323F007030E
:101D5800ADEB030DEB460DF10200494607F0B4F96F
:101D68004FF0000A8DF800A0484607F00BFA8DF8EE
:101D78000100AB1C0DF803A030233B71304607F07F
:101D880001FA40447871304607F0FCF9404400F10C
:101D98000209093020F00700ADEB000D68465146F6
:101DA8004A4607F045F86846391D022206F0CAFF80
:101DB8000DF102005946424606F0C4FF05356D4450
:101DC800304607F0DFF902462846314606F0BAFFEA
:101DD800A06869461FFA89F2012304F031F820B996
:101DE800A06804F06BFA504606E02046FFF792FE22
:101DF800012001E0012070470C37BD46BDE8F08F97
:101E08008379002B3CD0F0B589B00D46044602AF6B
:101E18000DF10906019682238DF80830084607F06F
:101E2800B1F9411D3046FFF755FE019B013308AE5D
:101E380046F81C3D3046B4F8A010FFF71BFEB4F876
:101E4800A0300133A4F8A03030462946FFF72EFE13
:101E5800019B5A1C019200221A70019AD21BA06899
:101E6800394692B2012303F0EBFF20B9A06804F0D1
:101E780025FA002006E02046FFF74CFE012001E08D
:101E8800FF20704709B0F0BD8379D3B110B582B097
:101E98000446C0238DF8043000238DF8053080688F
:101EA80001A90222012303F0CBFF20B9A06804F0A6
:101EB80005FA012008E02046FFF72CFE4FF0FF301E
:101EC80002E04FF0FF30704702B010BD38B50C4B40
:101ED8001D68C368EB1AB3F5FA6F0FD90446837906
:101EE80013B1FFF7D1FF08E0C37913B1FFF76AFE1A
:101EF80003E00222034B83F82C20E560002038BD64
:101F0800E00900207C60002010B586B01C4601A8BE
:101F180000F064F9C3B27BB101A821469DF82020E6
:101F280000F0AEF8012807D1044801A9FFF7F4F939
:101F3800034801A9FFF7F0F906B010BD5C5F002067
:101F48006C5F002000B587B0164B1A68164B1A60F4
:101F5800072314E0144A126802F00F0101F130005F
:101F6800392801D901F1370059B20DF1180E714421
:101F780001F80C0C12090C490A60013BDBB213F0A2
:101F8800800FE7D000238DF81430084B9A899968A0
:101F980003AB00930648074BFFF7CEFD07B05DF88B
:101FA80004FB00BF107AFF1F286000207C6000201F
:101FB800805F0020111F0008184B9B796BB330B568
:101FC800ADF5077D0446164881A9FFF7CDF9F0B1B4
:101FD800D4F8980007F0D6F8C5B201A8D4F898103C
:101FE8002A4606F0AFFE01AB581981A900F066F841
:101FF80041A881A900F0B6F8084801A941AAFFF74D
:1020080093FE38B1064881A9FFF786F902E0034834
:10201800FFF75CFF0DF5077D30BD7047805F00203E
:102028006C5F0020F8B505460F461646002421E0EF
:1020380004EB840304EB4303104A1344284619466F
:102048009A7A06F04DFE98B9012C04D13B780133F9
:102058003B70092373703B78022B03D1023CB470A8
:102068000120F8BD032B03D1033C74700120F8BD97
:102078000134E4B20B2CDBD90020F8BDA4F1000830
:1020880010B50446013B012B0DD8084606F01EFE8C
:102098000022094B06F0ECF806F0FCFAA4F80B0055
:1020A8000223A37206E00846FFF754FBC4F80B00AE
:1020B8000423A372012010BD00003040F0B585B0A4
:1020C8000F4604A902AB41F80C3D441C2F230370B2
:1020D8007868C0F31300FFF781FB0646034604E067
:1020E800302222700133DBB20134072BF8D92046A5
:1020F80002A9324606F026FEA51901352F23A3555D
:102108007B68C3F38554E2B2092A16D0C3F340535F
:102118000233DBB203EB830103EB4103104919449B
:102128008E7A2846324606F00DFE06F10B00C7B23D
:102138002E44751C2F23337000E00A2704EB84011A
:1021480004EB4104064921448C7A2846224606F0CD
:10215800F9FD381900232B55C0B205B0F0BD00BFFA
:10216800A4F1000800B583B001904B68C3F3855310
:10217800013BDBB2012B10D8B1F90B0006F06CFB68
:102188004FF0765106F0BCFB01990622FFF740FBA1
:10219800019806F0F7FFC0B204E0D1F80B0001A9DE
:1021A800FFF7FAFA03B05DF804FB00BF02781207E4
:1021B80002F0805243789B0503F07C6313438278D6
:1021C800520502F400121A43C3781B0503F4801366
:1021D80013434068C0F3130018437047F0B585B047
:1021E80007460D46164600238DF80930931ECB5C32
:1021F8000A2B04D1561EB6B2731E0022CA540023FD
:1022080003E0B34245D001339BB2EA5C2F2AF8D1F0
:10221800013398B201238DF8073026E00134A4B2C7
:1022280000E004462B5D2F2B01D0B442F6D3012ADF
:1022380003D08AB1032A08D90EE0211A284489B2AA
:10224800FFF760FA039038B921E028440DF107013F
:1022580002AAFFF7E7FED0B10134A0B2B04208D21B
:102268009DF8073001338DF807309DF80720032AC1
:10227800D7D9012404A800F8084DFFF797FF786024
:102288003C7200237B723B609DF8090002E000204D
:1022980000E0002005B0F0BD39B10B682BB1054A4C
:1022A8009360022382F82C3070470322014B83F895
:1022B8002C2070477C60002038B5104C2046002147
:1022C800302206F0B5FD092384F82C300C4B6360EE
:1022D80040F25B73A3810B4BA3614FF2CC63A383E2
:1022E800094B23616FF07F436361084B236200252C
:1022F80084F8245004F040FA284638BD7C60002059
:1023080028F20008C0A80B07C0A80B014D58080800
:1023180008B501F073FA0E4B1B6A1BB100200D497A
:1023280001F05AFA0A4B586803F108010A4A01F009
:102338009FFA10F1050F05D040B90222044B83F82B
:102348002C2008BD0122024B83F82C2008BD00BFB9
:102358007C6000209C600020A122000810B5384B4A
:1023680093F82C30023B072B69D8DFE803F00B0405
:102378001B3E6845645F0A22314B83F82D20FFF726
:10238800C7FF10BD05F040FA2E48FFF71BFC2C4A8A
:10239800042382F82C302C4B1B6803F59C5308331C
:1023A800936210BD264B9A6A274B1B689A4246D205
:1023B800234A92F82D30591E82F82D104BB1022372
:1023C80082F82C30204B1B6803F59C53083393622A
:1023D80010BD1B4C032384F82C304FF4FA6000F036
:1023E80003F90A2384F82D3010BD1648002380F81D
:1023F800A230FFF719FC10BD124B93F8A2308BB92D
:10240800124B1A68104B1B689A420BD20D4B184698
:10241800D3F89C10FFF7F4FC0B4B1B6803F5FA6329
:102428000A4A13600748FFF7C7FD10BD0222044B94
:1024380083F82C2010BD0322014B83F82C2010BDFB
:102448007C600020805F002004610020FC60002088
:10245800704700BFFEE700BFFEE700BFFEE700BF12
:10246800FEE700BF704700BF704700BF704700BF5E
:1024780008B5FFF789FA024A13680133136008BDEB
:102488000461002008B50820FEF7FCFA28B10120F5
:1024980005F0DEFE0820FEF705FB08BD08B5FFF7CE
:1024A8009DF808BD08B5FFF7D1F808BD08B5FFF7D6
:1024B800B1F808BD08B5FFF7E5F808BD014B186885
:1024C800704700BF04610020F0B4002A03DB164601
:1024D80046F2DF3502E0324E16440025314BA3FBAD
:1024E80006231B0C1D44304C04FB13642F4BA3FB29
:1024F8000423DB0A0B704FF4616202FB13422C4B7E
:10250800A3FB02435B094B70C3EB03139B00D41A74
:102518008C706A1C274E82FB0667D119D317C3EB50
:10252800A103C3EBC303D31A0370234B83FB052317
:102538005A19EB17C3EB222300E00B46591E0A4633
:10254800002900DACA1C921013F0030602D11BB945
:102558001A4C02E0194C00E0194CB4F9004022442E
:1025680040F26D1404FB0322AA42E6DCAA1AC370E7
:1025780016B91BB9114902E0104900E010490C23B3
:10258800013B01EB430531F913409442F8DC013378
:1025980043702D88521B01328270F0BC704700BF17
:1025A800807EAA8307452EC280510100C5B3A2913F
:1025B8008988888893244992B1F98CB350F200082D
:1025C80038F2000800B583B00246684601A9FFF753
:1025D8007BFF002001A9FEF7BDFB00206946FEF73E
:1025E80005FC03B05DF804FB034B1B681844024B61
:1025F8001B688342FBD37047046100202DE9F04338
:1026080085B007468846154601202421002201F09E
:102618000DFC40B30646D7F80490446884F800805F
:102628006570002525716571A571E57140680830F0
:1026380079681C2206F086FBA570E5702046718932
:1026480000F0F2F86080D9F80C3004AA42F8043D92
:1026580000950123019330462946FF2300F048FAEC
:10266800304601F0B3FB05B0BDE8F0832DE9F04337
:1026780085B005460F464668337803F00F039B0084
:102688001FFA83F85B429CB221B201F061FB00287B
:102698007FD12B89032B7CD96B681B78082B74D1CD
:1026A800414B186800F0F003E02B02D04FF001090D
:1026B80001E04FF00009394600F036FA08B14FF052
:1026C8000009B9F1000F03D1284601F07FFB67E04C
:1026D8002B89072B5DD9284600F0ACF818B128469D
:1026E80001F074FB5CE02846222101F031FBF8B1CF
:1026F8002846414601F02CFB00284ED102202989AA
:10270800002201F093FB8146002846D0294601F0BB
:1027180079FC002841D1D9F80460484621B201F07B
:1027280017FB002839D1284601F050FB4D4605E03B
:1027380028466FF0210101F00BFB70BB6A681A4B49
:102748001B68F360194B1B683361002313705388AF
:102758004FF6F6718B4202D90933538001E00833F2
:102768005380FF2333720023B372F3722846414625
:1027780001F0EEFA48B90022009201230193029772
:1027880028460949FF2300F059F9284601F01EFBA5
:1027980006E0284601F01AFB02E0284601F016FB85
:1027A80005B0BDE8F08300BF146100200C61002073
:1027B80008B50A460321FFF721FF08BD08B50A46F8
:1027C8000B21FFF71BFF08BD10B483B00023ADF841
:1027D800063010F0010406D0994204DD03788DF824
:1027E800073001390130002303E00288134402391D
:1027F80002300129F9DC002902DD02788DF8062073
:10280800BDF80600034498B200EB13439AB202EBFA
:10281800134024B103029BB2C0F30720184380B2CF
:1028280003B05DF8044B704708B5FFF7CDFFC04310
:1028380080B208BD70B505460026344614E06868C5
:102848006989FFF7C1FF204484B204EB10446B8907
:1028580013F0010F07D0C6F10106F6B223029BB2AE
:10286800C4F307241C432D68002DE8D126B12302A8
:102878009BB2C4F307241C43E04380B270BD00BF81
:1028880010B40F4B1B680DE093F8292012F0010FCC
:1028980007D004685A68996862400A4201D118460C
:1028A8000BE01B68002BEFD1064B186828B190F895
:1028B800293013F0010F00D100205DF8044B704758
:1028C80030890020348900202DE9F0410746D0F8EE
:1028D800048098F800301A09042A02D001F076FA28
:1028E8009FE00E4603F00F039C00B8F8020000F0CA
:1028F800C7FC01467B89A34202D33B89834203D2AA
:10290800384601F063FA8CE0384601F027FBD8F826
:102918001020454B1A60D8F80C20444B1A603446F6
:10292800012594F8293013F0010F0CD014F1040F8D
:1029380009D063683BB13C4A106883420ED02146F7
:1029480000F0F2F850B91DB1394B1C68002500E0C1
:102958002468B44200D12468002CE2D1334B1868B3
:10296800314600F0E1F828B9304B1B6803F0F0035A
:10297800E02B03D1384601F029FA52E01CB9384659
:1029880001F024FA4DE0B8F8063023F0C0039BB2FA
:102998003BB1384600F0F6FA0746002841D0D0F897
:1029A8000480244B1E60244BC3F80080384631460F
:1029B80001F0BCFB60BB98F80930062B09D0112B3D
:1029C80002D0012B0FD109E03846314603F092FFBF
:1029D8001EE03846314602F009FF19E03846314614
:1029E800FFF744FE14E0104B1868314600F09CF8DD
:1029F80058B90D4B1B6803F0F003E02B05D0C7F85E
:102A0800048038460221FFF7D3FE384601F0DEF98C
:102A18000023084A1360084A1360044A1360024AF4
:102A280013600020BDE8F081146100200C610020D3
:102A38003089002010610020186100202DE9F04342
:102A480083B005460C9EAAB38946984617461421BA
:102A580001F07EF9002843D16C6884F808809DF85D
:102A68002C3063723B682361452323709DF828301E
:102A78006370288900F0FEFB60800023A371E37176
:102A8800DFF86880B8F8000000F0F4FBA080B8F820
:102A980000300133A8F80030B9F1000F02D0D9F89E
:102AA800003013B97368E36000E0E3600023A372A9
:102AB800E37204E043681B6902AF47F8043D338CB6
:102AC80043B12A89934205D2284631463A4600F056
:102AD80013FB06E07369304629463A46984700E0FA
:102AE800FE2040B203B0BDE8F08300BFE409002037
:102AF800F0B585B007460E4614461D461046FFF74A
:102B0800BFFE68B19DF8282000929DF82C20019204
:102B180002903846314622462B46FFF78FFF00E0E9
:102B2800FC2040B205B0F0BD0346421E12F1030F6F
:102B380013D891F8292002F0020202F0FF009AB19E
:102B48004A689A420BD089685A400A4209D1C94357
:102B58000B40994207D000207047012070470020A1
:102B68007047002070470120704700BFF0B585B05E
:102B780005460C4603786E46A3F13002D2B2092A04
:102B880000F285805AB2302A0AD1691C6B785AB291
:102B9800782A01D0582A05D1AB780235102703E0EE
:102BA8000A2701E00D4608270020DAB2A2F1300119
:102BB800C9B2092907D85AB200FB0723A3F130008C
:102BC80015F8013FF1E7102F1BD1092909D9A2F106
:102BD8006101C9B2052904D9A2F14101C9B2052987
:102BE8000FD800015BB203F10A01613AD2B2192A87
:102BF80001D8612300E04123CB1A184315F8013F9F
:102C0800D3E75AB22E2A07D103AB9E4241D2306095
:102C18006B7804360135AFE763B15AB2202A09D080
:102C28000C2A07D00A2A05D00D2A03D0092A01D078
:102C38000B2A30D16B46F31A9B100133042B20D892
:102C4800DFE803F0321F030A1400B0F1807F24D2BA
:102C5800009B40EA036014E0B0F5803F1FD2019B5F
:102C68001B04009A43EA026318430AE0FF2818D8B5
:102C7800019B1B04009A43EA0263029A43EA022377
:102C8800184384B100F000FB206001230CE000230E
:102C98000AE0002308E0002306E0002304E0002304
:102CA80002E0002300E00123184605B0F0BD00BF94
:102CB80000B583B001A9FFF759FF08B1019801E0F9
:102CC8004FF0FF3003B05DF804FB00BF08B50346C2
:102CD800074A1268824203D10168054A116001E07F
:102CE80002680A600520194600F068FF08BD00BFA9
:102CF800E80900202DE9F0410746884644686368E2
:102D08009A889AB91B684360606807F10801142221
:102D180006F018F820460121FFF750FD204601F083
:102D280043F985B2204601F051F800E000257C689F
:102D38000AE063681E68204601F036F9284485B227
:102D4800204601F043F83446002CF2D1384641467B
:102D5800FFF7BCFF034A13885B1B13802846BDE8B6
:102D6800F08100BFEC0900202DE9F04105468846B6
:102D78000026184B1B680024214620461DE0EA68FF
:102D88005F69974209D19A69D5F810E0724504D174
:102D9800B3F80CE0AA8896450AD0013428B193F814
:102DA8001FE0C27F964502D902E0184600E01846A7
:102DB8001A6802B90B4619461346002BDFD110B129
:102DC800FFF798FF0644464501DA012CD1DC30466E
:102DD800BDE8F081E809002008B50146062000F0AA
:102DE800EDFE08BD10B50446406908B100F0EEFFDD
:102DF8002046FFF7F1FF10BDF8B507460E464C68B0
:102E0800608800F03DFA227802F00F02C2EB8232AD
:102E18009300184485B2E08800F032FAC0F30C0041
:102E2800C10070680024047044708470C47081808C
:102E380001EB050E1FFA8EFEA0F806E07D684FF044
:102E4800010C1CE06B689A8891420BD205603CB17A
:102E5800E28891423FD39B889E453CD8266010E08B
:102E68007E600EE0914236D0DD88A94233D324B18A
:102E7800E488A24201D04FF0000C1D681C46002DCA
:102E8800E0D155B92CB12660E28883889A4202D1F4
:102E980003E07E6001E04FF0000CBB7F13F0010FF0
:102EA80025D0BCF1000F14D07B685B689B885BB9A8
:102EB800026806E05368C1889A88914207D11A6867
:102EC8001846002AF6D104E04FF0000C01E04FF05C
:102ED800000C6046F8BD304601F066F8054A1388D4
:102EE800181A1080304600F071FF0020F8BD00204D
:102EF800F8BD00BFEC09002008B5062000F04EFE22
:102F080008BD00BF70B505460E46052000F046FE18
:102F1800044650B928463146FFF726FFB04203DB86
:102F2800052000F03BFE044694B1204600212022F3
:102F380005F07EFF0323E377064B1A6822601C60C6
:102F480004F108002946142205F0FCFE204670BD55
:102F5800002070BDE809002038B5094B1868002426
:102F68000BE0C37F23B1013BC3770446006804E04C
:102F780005682146FFF7BEFE28460028F1D138BD76
:102F8800E80900202DE9F047804645682B7803F0D2
:102F98000F03052B40F0A380E88800F071F9C0F317
:102FA8000C004FEAC00A688800F06AF92B7803F031
:102FB8000F03C3EB83339F00384487B2404600F0C9
:102FC800F3FF81464A4B1B8803440A2B0BDD284636
:102FD8004946FFF7C9FE002800F08180444B1B8852
:102FE8004B440A2B7BDC434B1C6800260DE06269CE
:102FF800EB689A4207D1A2692B699A4203D1A28948
:10300800AB889A4203D026462468002CEFD134B905
:1030180028464946FFF776FF044690B95FE0E888FE
:1030280000F02EF9C0F30C0058B9E08900F028F937
:10303800C0F30C0028B104F108002946142205F059
:1030480081FE2B4A13889944A2F80090EB8803F07C
:1030580020039BB22BB9A37F43F00103A377574406
:10306800A78320464146FFF7C7FE00283DD0A38B23
:103078001433A38363685F683D68384604F1080128
:10308800142205F05FFEA08B00F0F4F8788000238E
:10309800BB71FB71BB72FB7238461421FFF7C4FB8E
:1030A8007881D4F804800AE06F6828466FF013012D
:1030B80000F04EFE4046294600F086FF3D68002D90
:1030C800F2D120463146FFF701FE404600F06CFF82
:1030D800074A1388181A10804046BDE8F087404612
:1030E80000F074FE0020BDE8F0870020BDE8F087FE
:1030F800EC090020E80900202DE9F04F8DB00546C5
:103108000A910B920C8C43680993D88800F0B8F8A0
:10311800C0F30C03049300F4005083B20893B5F88D
:103128000890A9F114091FFA89F9A4F11403079367
:10313800002B00DA0733C3F3CF03069300241426C9
:103148008AE0079B4B45B4BF00230123049AC2F3CE
:103158000C02089941EA020A0BB94AF4005A23B949
:10316800069BDB009BB2059301E0CDF8149002208A
:103178001421002200F05AFE8046002872D04068D0
:103188000999142205F0DEFDD8F804B06B683344C1
:103198006B606B899E1B6E81059E31E06C89B44221
:1031A80028BF3446A4B20CB92D6829E0FFF7A4FE65
:1031B800074620B9404600F009FEFF2053E06B683F
:1031C800009301940320214602223B4600F090FD23
:1031D800039038B93846FFF7FFFD404600F0F6FD8A
:1031E800FF2040E0284600F0E9FE7D61204B3B616E
:1031F8004046039900F0E8FE361BB6B206B12D68CA
:10320800002ECBD12646504600F034F8ABF8060025
:10321800059F07F1140080B200F02CF8ABF802000B
:1032280000238BF80A308BF80B3058461421FFF72F
:10323800FBFAABF80A000A98436941460B9A98478B
:10324800404600F0C3FDC7EB09091FFA89F9049B42
:10325800069A13449BB20493B9F1000F7FF471AF3F
:10326800002000E0FF2040B20DB0BDE8F08F00BFA5
:10327800ED2D0008030A43EA002080B2704700BF22
:1032880008B5FFF7F7FF08BD00F47F431B0243EAC8
:10329800006300F47F0243EA122343EA1060704798
:1032A80008B5FFF7F1FF08BD10B40246481C0B78BB
:1032B80003F0C001C02910D0014607E0147808784F
:1032C80084420CD101310132013BDBB2002BF5D134
:1032D800013208780028E9D102E0002000E001204E
:1032E8005DF8044B704700BF421C037803F0C0012F
:1032F800C0290AD0104602E00130013BDBB2002BA6
:10330800FAD10378002BEFD100E010460130704766
:103318002DE9F04784B014461289B2F5007F00F217
:10332800BE80192A40F2BB802046604B19680023F2
:1033380000F0BEFE2389984240F0B1805B4B1E68C6
:103348003088FFF797FF0546032800F2A8804FF45E
:103358008C7303FB00F3564AD35C022B40F09F802A
:103368004FF48C7303FB00F3D1180320D054F37887
:1033780003F00F034B71B088FFF77CFF8046F0889D
:10338800FFF778FF074696F90230002B69DA4FF409
:103398008C73474A03FB05235B79002B61D1B8F195
:1033A800010F5ED14FF48C7303FB05260C363F4B9F
:1033B8001B6803F10C0830464146FFF775FF0028EB
:1033C8004FD14046FFF790FF043048E0FFF78CFFED
:1033D800814601A849460A2205F0B4FC019BB3F1D5
:1033E800012F34D1BDF80C30B3F5806F2FD102987E
:1033F800FFF756FF4FF48C732D4A03FB05239860A3
:103408002C4B984205D94FF48C7303FB0523294AAA
:103418009A60DFF89CA04FF48C7303FB05F70AEB66
:10342800070808F58678404609F10A01042205F0E4
:1034380089FC5744D7F810718FB34FF48C7303FB92
:1034480005A530464146D5F81421B84727E0BDF810
:103458000C00FFF70FFF0A304844013FBFB2002FAE
:10346800B4D14FF48C73124A03FB0523D3F81061CF
:103478005EB111464FF48C7202FB05F3C81803467F
:103488000C300021D3F81421B047094A4FF48C734B
:1034980003FB05F5511900235355C1F81031204697
:1034A80000F094FC04B0BDE8F08700BF6010002075
:1034B800F0090020803A09002DE9F04182B0064663
:1034C8000C46904600204FF48871024600F0AEFC8E
:1034D80000284FD005464768384600210C2205F0E1
:1034E800A7FC4046FFF7C6FE38800123BB700023C7
:1034F8003B7101237B710C37611E00E007460131E7
:10350800781C002204E000F8013B0132D2B20131FC
:103518000B785CB22E2C01D0002BF4D13A700B78CA
:10352800002BEBD1044604F8053B4FF48073ADF84B
:103538000430ADF80630013001A9042205F002FC80
:103548006968611A284689B200F008FD0C4B03EB44
:1035580086060C4C20683146352203F037FB20687C
:1035680029463246352303F01BFB0446284600F063
:103578002DFC00E0FF2460B202B0BDE8F08100BF7E
:10358800500E00205C10002038B504464FF48C73B0
:1035980003FB00F3454AD35C022B17D0032B71D0F1
:1035A800012B40F0828011464FF48C7202FB00F32D
:1035B800CA180220C8540020507001259570D07098
:1035C80011460C312246FFF777FF38BD4FF48C7354
:1035D800364A03FB00229378013BDBB29370002B41
:1035E80063D14FF48C73314A03FB0022D378013343
:1035F800DBB2D370042B37D14FF48C732B4A03FB07
:1036080000235B785A1C012A0FDC294951F8222033
:103618005AB14FF48C72254902FB001401336370D0
:103628000123A3700023E37038BD4FF48C731F4A45
:1036380003FB0423D3F810515DB111464FF48C728B
:1036480002FB04F3C81803460C300021D3F81421F8
:10365800A847164A4FF48C7303FB04F4111900238E
:103668001355C1F8103138BD10494FF48C7000FB68
:1036780004F288188370014640780C312246FFF71F
:103688001BFF38BD4FF48C73084A03FB0022936874
:10369800013B93604BB9054A4FF48C7303FB04F468
:1036A800111900231355C1F8103138BDF009002055
:1036B800500E002010B5002404E02046FFF764FFF8
:1036C8000134E4B2032CF8D910BD00BF2DE9F04154
:1036D8000026B646B446344614E02A4D4FF48C739F
:1036E80003FB04F3EE18EB5C73B1032B08D1264BF4
:1036F8001B7835795F1B674502DD5FFA87FCA646B4
:103708000134E4B2032CE8D9042C10D1BEF1030F24
:1037180032D84FF48C7303FB0EF31A4CE35C032B83
:103728002CD174464FF48C76164B06FB0E360746A2
:1037380001233370144803785D1C05703371C6F893
:103748001011C6F81421384605F01CFDFE2804D8CF
:10375800384605F017FD054600E0FF2506F10C0088
:1037680039462A4605F0EEFA2E44002333732046E4
:10377800FFF70AFFFB2002E0FF2000E0FF2040B235
:10378800BDE8F081F0090020EE09002070B506467A
:1037980000241AE04FF48C7303FB04F30D4AD35C46
:1037A800032B10D14FF48C7303FB042130460C31EA
:1037B80005F0ACFB38B94FF48C72064B02FB0435AC
:1037C800D5F80C0170BD0134E4B2032CE2D94FF0F6
:1037D800FF3070BDF009002001280AD8054B1B688E
:1037E8003BB131B129B10B681BB11A46024B43F802
:1037F800202070475C100020500E002000B583B0D8
:10380800104B23F00303104A13601048FFF750FAD7
:1038180001900F4B1B6893B903F004FA0C4B186026
:1038280068B10C49002203F01DF9094B18680A49D0
:10383800002203F0F3F9002001A9FFF7CDFF03B040
:103848005DF804FB5B0E0020601000206CF200089D
:103858005C10002068F200081933000808B5034B13
:103868001B680BB1FFF726FF08BD00BF5C100020E6
:10387800F8B5174C246804B309B310B3047814B32B
:103888001E4617460D46044605F07CFCFF281CD84A
:103898002046FFF70DFAB0F1FF3F02D12046FFF7AF
:1038A80075FFB0F1FF3F02D0286000200EE02046EF
:1038B80039463246FFF70AFF08E0F22006E0F22018
:1038C80004E0F22002E0F22000E0F22040B2F8BD6D
:1038D8005C10002010B4164B1B6801885A189042DF
:1038E80011D014797CB9134C2468A2420BD0124C25
:1038F8002468944201D1104A10605A5A02805A5AD8
:103908001A44C11A518041885A1882420DD014793C
:103918005CB9094C2468844201D1074C22600488B0
:103928005C5201881944D31A4B805DF8044B7047E8
:103938006C10002068100020641000200A4B23F04F
:1039480003030A4A13604FF42051198000225A8059
:103958001A715A18064802600120107111805180AE
:10396800044A1360704700BF1F6100206C100020DC
:103978006810002064100020B0B108B503460B4A57
:10398800126890420FD30A4A126890420BD2083844
:10399800002203F8042C074B1B68984201D2054B00
:1039A8001860FFF797FF08BD704700BF6C10002034
:1039B800681000206410002003314FF6FC730B40A0
:1039C8000B2B00D80C23B3F5205F4DD8F0B4294A4F
:1039D8001468A0424BD3284A1268904247D2A0F1FB
:1039E8000801091B89B230F8085C6A1A083A92B2D1
:1039F80093423BD83BD066193779C7B9655B0B440E
:103A080008339BB21D4A1268B24202D1E2181B4E1B
:103A18003260E21800261671E552518020F8083C01
:103A2800E25AB2F5205F22D0144463801FE003F10C
:103A3800140595421BD80B4408339BB2E2180F4D6E
:103A48002D68AA4201D20D4D2A600025157130F863
:103A5800085CE552518020F8083CE25AB2F5205F34
:103A680005D01444638002E0002070470020F0BCB9
:103A7800704700BF6C100020681000206410002000
:103A880000284ED030B4034603334FF6FC751D4072
:103A98000B2D00D80C25B5F5205F44D8234B1C68A6
:103AA800234B1B681B1B9BB235E0E01801790029EA
:103AB80030D1E25AD21A083A2946AA422AD31431F6
:103AC8008A4212D35A19083292B2A11800250D71F0
:103AD8000588A5524B80028001230371A35AB3F5D0
:103AE800205F04D023445A8001E001230371104B66
:103AF8001B6898420CD103E00C4A12681B881344D7
:103B08001A791AB10B4A12689342F5D1084A136020
:103B1800083009E00388C5F520518B42C5DB002039
:103B280002E000207047002030BC70476C10002075
:103B38006410002068100020002301E001339BB2CC
:103B4800092BFBD930B4114921F00301002518E0F5
:103B58002A4600230E4840F825300BE00C4850F860
:103B680022400C6040F822100A4830F81200014444
:103B780001339BB2084830F812009842EED801355C
:103B8800ADB2092DE4D930BC704700BF73100020D6
:103B9800D45D002090F200087CF20008092809D8BA
:103BA800054B53F820301BB11968034A42F820101E
:103BB8001846704700207047D45D00200B4629B195
:103BC800034A52F82010196042F82030704700BFAD
:103BD800D45D002070B504460D4619B30A684368E1
:103BE8009A421FD0124B186809E0026863689A422B
:103BF80004D1C66800F0BEFE304600E0C068002868
:103C0800F3D10C4B1B680BE04BB11A683AB16168F1
:103C18008A4204D10DB12A6800E000221A60DB68EC
:103C2800002BF1D10DB12B6800E00023636070BD5B
:103C38003C8900204489002009B10B6800E000237A
:103C4800C360704709B10B6800E0002383607047C8
:103C580070B5044616461D46FFF7BCFF20463146A0
:103C6800FFF7F0FF20462946FFF7E6FF70BD00BFCB
:103C7800F8B50446002545608560C56080F8295080
:103C8800069DC5610A4E35786F1C377080F82C5038
:103C9800089D0561FFF7DCFF2046079B984728B978
:103CA800044B1A6822601C602046F8BD0020F8BD4D
:103CB800FC5D002030890020014B1860704700BF70
:103CC8003489002008B590F8293013F0010F0DD180
:103CD80043F0010380F8293013F0100F06D013F0D9
:103CE800200F03D00146043103F0DCF908BD00BF02
:103CF80070B4039D032825D8DFE800F00208040605
:103D0800362004E00E2002E0002000E022200330EC
:103D180020F003040C44BDF81060B44214DC002405
:103D28001C6025B120F003002844586001E0002001
:103D3800586002205873198159811A730122DA8157
:103D4800184602E0002000E0002070BC704700BF69
:103D580010B461B30B4660B3002905DA494289B251
:103D680042898A4201D226E089B2027B44680AB1BC
:103D7800032A08D1E21A426000F110018A420DD2EA
:103D8800446001201EE0013A92B2012A15D8002BA6
:103D980015DA42898A4214D3E41A44609BB24289F4
:103DA8001A44428102891344038100200AE000205A
:103DB80008E0002006E0012004E0012002E00120E4
:103DC80000E001205DF8044B704700BF60B338B5D0
:103DD8000146002424E0CB89013B9BB2CB81F3B997
:103DE8000D680B7B4A7B12F0020F03D00B69084663
:103DF800984710E0032B03D10920FFF7DFFE0AE004
:103E0800013B9BB2012B03D80820FFF7D7FE02E045
:103E18000846FFF7B1FD0134E4B2294600E000216D
:103E28000029D8D1204638BD002070472DE9F0413F
:103E380088461646032800F28180DFE800F0020871
:103E48000406362704E00E2702E0002700E02227B8
:103E5800032E76D8DFE806F0435E5E020920FFF7FE
:103E68009DFE054600286FD0067300230360C31922
:103E7800133323F003034360A0F80880FC1C24F0EC
:103E88000304C4F5FA744445A8BF4446A3B2438169
:103E98000122C281C3EB080407461DE00920FFF791
:103EA8007DFE28B92846FFF791FF0020BDE8F08184
:103EB80006730022427302603860A2B20281B2F532
:103EC800FA7F28BF4FF4FA72428100F11001416075
:103ED8000121C181A41A0746002CDFDC27E007F185
:103EE800130020F0030008F1030323F00303184430
:103EF80080B2FFF7C5FD054648B30744133727F0DE
:103F080003074760A0F80880A0F80A800023036030
:103F180006730CE00820FFF741FE0546D0B10023E8
:103F28004360A0F80880A0F80A80036006730123A4
:103F3800EB8100236B732846BDE8F0810020BDE8C3
:103F4800F0810020BDE8F0810020BDE8F08100206C
:103F5800BDE8F0810020BDE8F08100BF38B5044617
:103F68000D4602898A421ED98A1A05E0691A8DB25D
:103F780023891344238124686189A942F6D3237BCA
:103F88004BB9A94207D063681B1B5919204689B24F
:103F9800FFF712FD044665812581206808B1FFF707
:103FA80015FF0023236038BD0346002002E00130DE
:103FB800C0B21B68002BFAD1704700BF10B1C3898B
:103FC8000133C381704700BF98B1034631B97047C8
:103FD8000C891A8922441A81034600E010B4186833
:103FE8000028F5D108891A8902441A8119605DF8F8
:103FF800044B704710B50C46FFF7E6FF2046FFF765
:10400800DDFF10BD002844D02DE9F0410D460746DC
:10401800002941D002890B899A423FD34FF000080A
:1040280046467B89991B6C89C8EB0402914201DBE7
:1040380094B201E09B1B9CB27868696830444144A3
:10404800224604F07FFE2644B6B244441FFA84F8A0
:104058006B89434502D82D684FF000087B89B3422D
:1040680005D13F6817B9DDB9002600E000262DB15B
:104078006A892B899A4201D12B689BB92FB17A8919
:104088003B899A4201D13B6873B9002DC9D1002000
:104098000BE0F22040B27047F22006E0F22004E084
:1040A800F22002E0FA2000E0FA2040B2BDE8F081F8
:1040B80080B32DE9F84388469146054661B370B34D
:1040C80081B300273E461DE02BB16989994202D889
:1040D8005B1A9BB215E06C89E41AA4B24C4500D96E
:1040E8004C46696808EB06001944224604F02AFE8B
:1040F8002744BFB22644B6B2C4EB09041FFA84F9B8
:1041080000232D68B9F1000F01D0002DDCD138460D
:10411800BDE8F883002070470020BDE8F883002040
:10412800BDE8F8830020BDE8F88300BF2DE9F04121
:10413800804643685F7A184B1C6800252E4624E0A9
:10414800237C9F421FD12CB123681BB1134A1268EC
:10415800934218D1D4F814C0BCF1000F13D0A06951
:10416800214642460E4BE04768B14EB1E368F36022
:10417800094B1A68E2601C6001254FF0000802E054
:1041880001254FF000082646E4680DB9002CD7D168
:104198002846BDE8F08100BF005E002014610020C1
:1041A8000C61002010B40024154A1388591C118092
:1041B8004FF6FF72934203D14FF44042104B1A80DE
:1041C800002014E00F4B53F820301B680BE0598B8C
:1041D8000B4A1288914205D10134A4B2B4F5804F3C
:1041E800E2D309E0DB68002BF1D10130C0B203282B
:1041F800E8D9034B188800E000205DF8044B7047AD
:1042080034000020A4F2000870B4856A848D2A194D
:10421800016BC38E40F2B456B34200D933460B4407
:10422800D31A002B02DBC485501A09E06B1A002B45
:1042380003DD0022C285104602E0491BC18500202B
:1042480070BC704710B50446838D194489B28185C6
:1042580040F66833994200D983852046FFF7D4FF9A
:1042680040F2D923984206DDA37F43F00203A377E7
:10427800204602F023F810BD50B110B5044640683E
:1042880008B1FFF7A3FD04202146FFF797FC10BDF6
:10429800704700BF10B503E00468FFF7EDFF204644
:1042A8000028F9D110BD00BF01617047C167704790
:1042B800C0F88810704700BF41617047C0F884108B
:1042C80080F82020704700BF037ED3B10A2B18D096
:1042D800012B16D010B50446406F18B1FFF776FDD4
:1042E800002363674FF6FF73A386E06EFFF7D2FFE4
:1042F800206FFFF7CFFF0023E3662367A4F86A3037
:1043080010BD70472DE9F04182B0A84A1368013307
:104318001360A74A137801331370A64B1C68002654
:104328001CE194F82120A24B1B789A4201D1E46841
:1043380014E184F82130237E022B03D194F846201F
:10434800062A54D094F846100C2952D094F891209B
:10435800BAB194F890300133DBB284F89030511E32
:104368009548415C8B4246D3002384F89030062A56
:1043780002D8013284F89120204602F047F900253E
:104388003EE0A28E12F4004F01D10132A286226FC4
:104398009AB3B4F93400B4F9442090422FDB022BCD
:1043A8000AD0B4F94020B4F9423003EBE203834A5F
:1043B800525C9340A4F844300023A386B4F86020EC
:1043C800B4F84C30934228BF13465B08A4F84E302B
:1043D800E28EB3EB420F02DA5200A4F84E20E38ECD
:1043E800A4F84C30204602F085F8002508E00125A5
:1043F80006E0012504E0002502E0002500E0002594
:10440800237E062B0BD1A27F12F0100F07D0616A12
:10441800664A1268521A282A01D90135EDB2227A61
:1044280012F0080F2CD0042B01D0072B2AD1626A76
:104438005E4B1B689A1AD4F88C0000F5242303F607
:10444800B8435F49A1FB0313B2EB531F03D90135EE
:10445800EDB2012719E094F892105A4B03FB0103BF
:104468005749A1FB0313B2EB531F0DD9204602F0A5
:10447800AFF894F89230013384F89230002704E0C2
:10448800002702E0002700E00027237E032B07D146
:10449800616A464A1268521A282A01D90135EDB2D2
:1044A800092B07D1626A414B1B689B1AF02B01D973
:1044B8000135EDB265B32046FFF706FF16B1E36894
:1044C800F36002E0E2683B4B1A604FB1206DA16ACD
:1044D800638B0093A38B01932246231D01F0CCFF2D
:1044E800D4F88850D4F81080E76802202146FFF7F6
:1044F80065FB0022344B1A701DB140466FF009016C
:10450800A847314B1B78002B7FF407AF3C4625E0CA
:10451800E568E37F0133DBB2E37794F82020934228
:1045280017D30023E377284A1370D4F884301BB1DB
:1045380020692146984700E00020234B1B78002B78
:104548007FF4EBAE40B9204601F0B8FE26462C4673
:1045580004E026462C4601E026462C46002C7FF433
:10456800E0AE1A4B1D681CE06A6A104B1B689B1A68
:10457800F02B01D8002300E0012383B12846FFF780
:10458800A3FE14B1EB68E36002E0EA680F4B1A601F
:10459800EE6802202946FFF711FB354601E02C465C
:1045A800ED68002DE0D102B0BDE8F081408900201F
:1045B800055E00203C890020C4F20008B4F200081F
:1045C800D34D6210F8240100388900205489002056
:1045D80010B50C4603688B4202D1DB6803600EE01D
:1045E800124A136007E0DA68A24202D1E268DA6090
:1045F80005E00E4B1A600D4B1B68002BF3D100230E
:10460800E3602046FFF760FE237E0A2B0BD0012BC8
:1046180009D0A37F13F0010F05D043F00203A3775D
:10462800204601F04BFE0023237610BD4889002068
:1046380030B583B00446002947D0037E042B01D04F
:10464800072B42D1636F23B9A28D40F668339A4293
:104658003BD0206DA16A638B0093A38B0193224604
:10466800231D01F009FF2046FFF72EFE4A4B1B6869
:10467800A34203D1DA68484B1A600EE0474A136038
:1046880007E0DA68A24202D1E268DA6005E0434B4B
:104698001A60424B1B68002BF3D10023E360012210
:1046A8003F4B1A70237E042B09D10A2323763D4BF6
:1046B8001A68E2601C6002F027F8002069E0022016
:1046C8002146FFF77BFA002063E0237E072B58D8AA
:1046D800DFE803F00426313F4757574F638BC3B1D8
:1046E800314B1B68A34203D1DA682F4B1A600EE0E6
:1046F8002A4A136007E0DA68A24202D1E268DA6067
:1047080005E0264B1A60254B1B68002BF3D10023CC
:10471800E36002202146FFF751FA0024254632E0E3
:1047280022482146FFF754FF03202146FFF746FAA7
:104738000024254627E018482146FFF749FF0122B3
:10474800174B1A7002202146FFF738FA0024254635
:1047580019E0204601F06AFD0546A0B90523237635
:1047680011E0204601F062FD054660B90523237675
:1047780009E0204601F05AFD054620B909232376B1
:1047880001E000252C461CB115B9204601F096FD24
:10479800284640B203B030BD3C890020488900203B
:1047A80038890020548900204C8900204489002041
:1047B80008B5037E012B03D0837F43F01003837772
:1047C8000121FFF735FF08BD10B54AB11446084668
:1047D8001189FFF737FD2046FFF7F8FA002005E0BA
:1047E8001BB90846FFF7E4FF00E0002040B210BD07
:1047F800F8B50446456F6F7B00234367C66F26B143
:10480800006921462A46B04705E0002021462A468D
:104818000346FFF7D9FFB0B917F0200F1AD0A38DC0
:1048280040F66832934201D00133A385E56F25B184
:104838002069214600221346A84740B210F10A0F0A
:104848000AD1F6200BE040B210F10A0F06D06567D6
:10485800002004E0002002E0002000E0F62040B242
:10486800F8BD00BF70B5164A137801331370154BA5
:104878001C6822E094F82120114B1B789A421CD026
:1048880084F82130A37F13F0010F09D043F002030D
:10489800A377204601F012FDA37F23F00303A3773B
:1048A800E668636F43B1084D00232B702046FFF77D
:1048B8009FFF2B78002BDAD13446002CDAD170BD5B
:1048C800055E00203C8900203889002008B5FFF7E4
:1048D800C9FF054A13780133DBB2137013F0010FD7
:1048E80001D0FFF70FFD08BD045E00202DE9F0435D
:1048F80083B00446037E0A2B08D11B482146FFF7E4
:1049080067FE02202146FFF759F92AE00E46D0F843
:104918005090D0F82880D0F888500769134821466D
:10492800FFF756FE0122124B1A70206F08B1FFF7ED
:10493800B1FCE06E08B1FFF7ADFC4EB1638B00939C
:10494800A38B0193484641462246231D01F094FD5E
:1049580002202146FFF732F91DB138466FF00901F0
:10496800A84703B0BDE8F083548900203C890020A3
:104978003889002008B50121FFF7B8FF08BD00BF3E
:1049880010B50A4B1B680024204608E0596A084AFB
:104998001268521AA24201D314461846DB68002B4B
:1049A800F4D108B1FFF7E6FF10BD00BF548900201D
:1049B80040890020F8B50E4B1B687F2400252F4640
:1049C8000EE05A7E82420AD8944208D35E6A0949A8
:1049D8000968891BA94202D314460D461F46DB68A5
:1049E800002BEED117B13846FFF7C4FFF8BD00BF62
:1049F8003C89002040890020034A1068034B1B684B
:104A080018441060704700BF300000204089002023
:104A180038B505460220FFF7C1F8044668B9FFF724
:104A2800AFFF0220FFF7BAF8044630B92846FFF76F
:104A3800C1FF0220FFF7B2F80446002C38D0204608
:104A48000021942204F0F4F9657641F21C13A4F8CD
:104A580066300025A4F8685040F66833A385E385DE
:104A68006572FF23A3724FF40673E3860623A4F846
:104A78004430A4F84050A4F842304FF6FF73A386A0
:104A88000123A4F84C30FFF7B7FFA0652065A064A8
:104A9800E065084B1B686362074B1B7884F821307C
:104AA800E577064BE367064BC4F88C3084F89250E0
:104AB800204638BD40890020055E0020D147000807
:104AC80000DD6D0008B54020FFF7A2FF08BD00BF5C
:104AD80010B504460846FDF7D3FE30B1038C23B168
:104AE800283B9BB29C4228BF1C46204610BD00BFF5
:104AF800F8B504461F46037E002B67D10D460029F2
:104B080066D00B684360828308B1036833B9201DFF
:104B1800FDF7B6FE00285DD043682360668B26B992
:104B2800FFF740FB6083002856D0FFF765FF00229F
:104B3800A26220650138A064E06540F66833A38569
:104B4800E3852263A4F860304FF40670E0862946B6
:104B5800FFF7BEFFE0860123A4F84C3000EB80008D
:104B680000FA03F3A4F84E30C4F8807020460221FE
:104B780001F0FAFA054638BB02232376C6B1184B72
:104B88001B68A34203D1DA68154B1A600EE0154A78
:104B9800136007E0DA68A24202D1E268DA6005E051
:104BA800104B1A600F4B1B68002BF3D10023E360F6
:104BB8000D4B1A68E2601C6001F0A6FD01220B4B48
:104BC8001A70204601F07AFB284606E0F72004E038
:104BD800FA2002E0FC2000E0FE2040B2F8BD00BF51
:104BE8004C890020488900203C8900203889002011
:104BF80070B50546204B1B6803F114049889FEF72D
:104C08003FFBC0F30F30052834D91B4B1B6898892C
:104C1800FEF736FB000B0538800080B2002327E042
:104C28001946E25C012A03D022B3022A03D01AE013
:104C380001339BB21CE0E2185278042A1AD11A1DDB
:104C4800824217DC21448E78CA7842EA0622511E35
:104C580089B240F2B356B14201D940F2B452EA8661
:104C680004339BB204E021444A781AB113449BB23E
:104C78008342D5D370BD00BF085E002000B583B065
:104C88001D4B1B7813F0040F2ED113F0020F1BD00D
:104C98001A4B1A68816A531A002B1BDB838D0B444D
:104CA800D31A002B16DC164B1B681649098858883E
:104CB80000901B880193144B18681144134A144B35
:104CC80001F0DAFB002012E013F0010F02D0114BC3
:104CD8001B6843620B4B1B8843B1837F43F002037D
:104CE800837701F0EBFA02E0002000E0002040B2F8
:104CF80003B05DF804FB00BF185E00200C5E0020C6
:104D0800085E0020105E0020145E00201461002060
:104D18000C610020408900203A4B1B7813F0040FE7
:104D280067D130B583B0054613F0100F12D0364B5B
:104D38001B68364A1068364A1188364A12685C88F9
:104D480000941B8801931144334A344B01F094FBBF
:104D5800002054E013F0020F4ED0407EFFF758FEBB
:104D6800044600284AD02C4B1B6803606B8B438396
:104D78002A4B1B684360244B1A68138883830323D8
:104D88000376244B1B68591C81620163D189A0F802
:104D98006010D289A0F86220A0F84E10013B43654C
:104DA8002B6903616B6943612B7A23F073030372E8
:104DB8001B4B1A68C260186001F0A6FC0122194B4F
:104DC8001A702046FFF714FFE08E211DFFF780FEC2
:104DD800E0862046122101F0C7F9054628B1204691
:104DE8000021FFF783FD284609E0204601F066FA16
:104DF80005E0002040B27047002000E0FF2040B2EC
:104E080003B030BD185E0020085E0020145E00204C
:104E1800105E00200C5E0020146100200C61002050
:104E28003C89002038890020F8B504468B4B1B7854
:104E380013F0100F00F08881B0F86000A26D86189A
:104E4800616D874B1B68CD1A002D0FDB994204D189
:104E580084490968511A002908DB824909688A428D
:104E680026D1814A1268D289904221D27E4A12689C
:104E7800D18988B2A4F86010B4F86250D28991B28E
:104E88008D4201D2A4F862206365764B1B68A36546
:104E980040B994F891305BB984F89030012384F8D4
:104EA800913005E094F8913013B1002384F89130E3
:104EB8006C4B1A68A36CD11A002940DC0021A4F8B5
:104EC80064106A49098849BBA06DB4F860100144B0
:104ED800B14225D1B4F93410002923DB9A4223D1F9
:104EE80094F84720531CDBB29A4201D284F8473029
:104EF80094F84730032B0AD9B4F84C20E38E1344B6
:104F08009BB29A4212D2A4F84C30012311E0032B31
:104F18000ED1204601F02EFB01230AE0002308E011
:104F2800002306E0002304E0002302E0012300E060
:104F38000123002B40F0BF8084F84730BBE00129F3
:104F480000F18780216D511A002900F38280A17F2A
:104F580011F0040F06D021F00401A177B4F84E1027
:104F6800A4F84C10002084F84600B4F84210B4F9B4
:104F7800405001EBE501A4F84410D31A9BB2A4F801
:104F88006430B4F866100B44A4F8663084F847001F
:104F9800A264237E032B39D9B4F84C20B4F84E30E0
:104FA8009A4207D2E38E13449BB29A422ED2A4F8B7
:104FB8004C302BE0E38E03FB03F393FBF2F3134433
:104FC8009BB29A4222D2A4F84C301FE0256F2B687E
:104FD80023676868FEF7E8FFB4F864305BB1EB68F4
:104FE8009889FEF74DF910F0010F04D0B4F8643039
:104FF800013BA4F864306868FEF7D6FFB4F868305F
:10500800181AA4F868002846FFF736F9236FABB1E1
:10501800DB685868FEF744F90546236F1E89DB688C
:105028009889FEF72DF910F0030018BF01203044CD
:1050380028440C4B1B68C01A0028C7DD236F1BB916
:105048004FF6FF73A38601E00023A3860023E377CE
:1050580031E00023A4F864302DE000BF185E002082
:105068000C5E0020145E0020085E0020105E002008
:10507800E56E2B68E3660BB9A4F86A306868FEF73A
:1050880093FFB4F864305BB1EB689889FEF7F8F8E1
:1050980010F0010F04D0B4F86430013BA4F8643078
:1050A8006868FEF781FFB4F86830181AA4F8680039
:1050B8002846FFF7E1F8E36EDBB1944A1568DB6830
:1050C8005868FEF7EDF80646E36E1F89DB68988995
:1050D800FEF7D6F810F0030018BF0120384430441A
:1050E800281A002805DB226D884B1B689B1A002BA9
:1050F800BEDDA36B43B3E26B84490968521A002AE8
:1051080022DA834A1168CB1AB4F8402042F3CC0162
:10511800591A89B288B28B189BB2A4F8403010F49F
:10512800004F01D0494288B2B4F8422042F38D01C1
:10513800411A0A4492B2A4F8422043F3CC03134420
:10514800A4F844300023A363724B1B88002B00F0A3
:10515800CB80227E062A00F2C780A16A6E4A1268B6
:105168008D1A012D2BD41344CB1A0133002B26DCC6
:105178002B466A4A50684289AA4210DA0189491BBB
:1051880089B204E09B1A01810022428100684289A9
:105198009A42F7DB594209B2FEF7DAFD03E06942A9
:1051A80009B2FEF7D5FD5C4D2988A36AC81A5B4A87
:1051B800118901441181D2682B60536006E0521AAC
:1051C800002A03DAA37F43F00203A377524B19683E
:1051D800A26A8B1A002BC0F28380A38D1344CB1ACA
:1051E8000133002B7CDC914276D14C4B1D89DB6866
:1051F8009889FEF745F810F0030018BF01202B1816
:105208009BB2444A1380A28D934235D9434BDB6845
:105218009889FEF735F810F0010F0DD03F4BDE6886
:10522800B5892846FEF72CF800F03E00FEF722F874
:1052380025F47C552843B081A28D384B1A81DB6850
:105248009889FEF71DF800F0020083B21BB1334ABB
:105258001389013B1381314D68682989FEF77EFE69
:105268002E89EB689889FEF70BF810F0030018BF39
:1052780001203044274B1880264B1988264B1A6882
:105288000A44A262A38D5B1AA3852046FEF7BCFFE1
:10529800224B5B681A8922B1214A136000221F4BF6
:1052A8005A601E4BDB689889FDF7EAFF10F0010F82
:1052B80004D01C4A137843F020031370A37F13F023
:1052C800010F05D003F0FE0343F00203A377F8BDF6
:1052D80043F00103A377F8BD204600F0CBFFF8BDEB
:1052E800204600F0C7FFF8BD0B4B1B68A16A5A1A8D
:1052F800002A05DBA28D0A449B1A0133002B03DD2B
:10530800A37F43F00203A377F8BD00BF145E00201B
:1053180040890020105E00200C5E0020245E0020E2
:105328001C5E0020195E002030B583B0A54B1B78A9
:1053380013F0040F29D0037E022B06D1026DA24B75
:105348001B689A420ED0002311E0A04B1B68816AAB
:105358005A1A002A08DB828D0A449B1A002B05DDA5
:10536800002304E0012302E0002300E00123002BD6
:1053780000F00B82964A137843F008031370837F7A
:1053880023F001038377F5201EE213F0020F0AD001
:10539800037E023BDBB2012B05D9837F43F0020376
:1053A8008377002010E2837F13F0100F02D1894B1E
:1053B8001B6843620446002380F89230FFF718FC0C
:1053C800237E023B072B00F2E281DFE813F008009E
:1053D8008200E9000D016201E9009601CA01794BDA
:1053E8001B7803F01203122B5AD1236FDB6858681D
:1053F800FDF756FF0130744B1B68984250D1B4F842
:1054080066200132A4F86620704A1268511CA16215
:105418002163A364704B1B68D989A4F86010DB89E9
:10542800A4F86230013A626504232376E08EE1181D
:10543800FFF74EFBE08600EB80035B00A4F84E30DC
:10544800B4F84C30012B01D1400080B2A4F84C00D4
:10545800B4F86830013BA4F86830206F036823670C
:10546800FEF70AFF236F1BB94FF6FF73A38603E00D
:105478000023A38684F84630D4F8803023B120690D
:1054880021460022984700E0002040B210F10A0FA0
:1054980000F07F81A37F43F00203A377002093E10C
:1054A800484B1B7813F0100F00F075814A4B1B68AE
:1054B800454A1068494A1188444A12685C88009431
:1054C8001B8801931144464A464B00F0D5FF002043
:1054D8007AE13C4B1B7813F0100F51D03A4B186807
:1054E800A36CC31A012B3AD4236DC31A002B36DCE4
:1054F80004232376636923B1206921460022984753
:1055080000E0F22048B140B210F10A0F00F04581E6
:105518002046FFF72FFAF62056E1B4F84C50204603
:10552800FFF782FCB4F8643013B1013BA4F864308F
:10553800012D03D1E38E5B009BB200E0E38EA4F85B
:105548004C30234B1B7813F0200F00F02881A37FE9
:1055580043F00203A37707232376002034E11E4B90
:105568001B681E4A1188194A12685C8800941B88B7
:10557800019311441A4A1B4B00F07EFF002023E1DF
:1055880013F0020F00F00D81A36A013B0F4A126865
:10559800934240F00881204600F0C4FF002013E148
:1055A8002046FFF741FC0A4B1B7813F0200F00F050
:1055B800FC80A37F43F00203A37707232376002010
:1055C80002E100BF185E0020145E00200C5E00207F
:1055D800195E002040890020085E0020105E00202F
:1055E800146100200C6100202046FFF71DFC784B59
:1055F8001B7813F0200F3CD0764B1B7813F0100F5C
:105608002FD0226D744B1B689A422AD1A37F43F096
:105618000203A3772046FEF757FE704B1B68A34290
:1056280003D1DA686D4B1A600EE06D4A136007E02B
:10563800DA68A24202D1E268DA6005E0684B1A60D3
:10564800674B1B68002BF3D10122664B1A700A23A3
:105658002376654B1A68E2601C6001F055F800205B
:10566800B2E0A37F43F00203A37708232376002048
:10567800AAE0584B1B7813F0100F00F09880226DA9
:10568800554B1B689A4240F09480062323760020ED
:105698009AE02046FFF7C8FB4D4B1B7813F0200F0C
:1056A80000F08980A37F43F00203A3772046FEF72A
:1056B8000BFE4A4B1B68A34203D1DA68474B1A60BA
:1056C8000EE0474A136007E0DA68A24202D1E268B6
:1056D800DA6005E0424B1A60414B1B68002BF3D19E
:1056E8000122404B1A700A2323763F4B1A68E26066
:1056F8001C6001F009F8002066E02046FFF794FBE3
:10570800344B1B7813F0100F57D0226D324B1B68A7
:105718009A4254D12046FEF7D7FD304B1B68A3426E
:1057280003D1DA682D4B1A600EE02D4A136007E0AA
:10573800DA68A24202D1E268DA6005E0284B1A6012
:10574800274B1B68002BF3D10122264B1A700A2322
:105758002376254B1A68E2601C6000F0D5FF002014
:1057680032E02046FFF760FB1A4B1B7813F0100F4E
:1057780027D0226D184B1B689A4224D1144A1378FB
:1057880043F01003137000201EE000201CE00020EE
:105798001AE0F62018E0002016E0F62014E00020B9
:1057A80012E0002010E000200EE000200CE00020B5
:1057B8000AE0002008E0002006E0002004E00020C5
:1057C80002E0002000E0002040B203B030BD00BF7E
:1057D800195E0020185E0020145E00203C8900201D
:1057E800488900203889002054890020F0B583B00A
:1057F80004460D464368A24A1360197801F00F0168
:1058080003EB81039F4A136089004942FEF7A0FA1F
:10581800002840F0B9812389132B40F2B5819A4BB7
:1058280018682946FDF780F9002840F0AD81964BAD
:105838001B6803F0F003E02B00F0A681914B1B6876
:105848009889FDF71DFDC0F30F30C0EB8030810053
:10585800204609B2FEF77CFA002840F09581894D70
:105868002E683088FDF70CFD30802E687088FDF7B3
:1058780007FD70802E687068FDF712FD7060834B1D
:1058880018602E68B068FDF70BFDB060804B18609B
:105898002E68F089FDF7F4FCF0812B689889FDF7F4
:1058A800EFFC00F03F077B4B1F70228917F00303C2
:1058B80018BF01231344784A1380784B18680546AB
:1058C80000261CE0A98B6F4B1B681A88914214D1E3
:1058D8006A8B5B889A4210D16A68714B1B689A423E
:1058E8000BD12A68684B1B689A4206D14EB1EB6807
:1058F800F360E860694B1D6003E02E46ED68002DFB
:10590800E0D1002D43D1674B1D681BE0A98B5D4B8F
:105918001B681A88914214D16A8B5B889A4210D10D
:105928006A685F4B1B689A420BD12A68564B1B6802
:105938009A4206D12846FFF7A1F92046FEF746FA13
:1059480025E1ED68002DE1D1574B1E683046002156
:105958000EE0428B4B4B1B685B889A4206D103686A
:10596800494A1268934205D020B11BB10146C0686C
:105978000028EED158B121B1C368CB60C6604A4B4C
:105988001860FFF7C9F92046FEF720FAFFE0002D5E
:1059980000F0DC80454B00221A60218919815C6087
:1059A80038490968D960424B1A60424B1A7017F09F
:1059B800080F03D0637B43F0010363736B6F6BB114
:1059C8002846FEF715FF10F10A0F00F0B1806B6F43
:1059D80023B1314B1B88002B40F0AA80364B1D6049
:1059E8002846FFF7A1FC10F10A0F00F0A180314B07
:1059F8001B7813F0080F0FD0D5F888301BB1286931
:105A08006FF00A01984725482946FEF7E1FD022074
:105A18002946FEF7D3F88BE013F0100F13D0AB7FB5
:105A280013F0100F06D1D5F888301BB128696FF034
:105A38000B01984719482946FEF7CAFD0220294656
:105A4800FEF7BCF874E0B5F8642052B1AB6F1BB137
:105A580028692946984700E0002040B210F10A0F53
:105A680066D0134B1A68002A3CD0AB7F13F0100F96
:105A780024D01046FEF7AAF92846FEF77BFF57E028
:105A8800205E0020085E0020146100200C5E0020CB
:105A9800145E0020185E0020105E00203C89002063
:105AA8000C6100205489002044890020245E0020D5
:105AB8001C5E0020195E002058890020EC6F24B17C
:105AC800286929460023A04704E000202946034608
