:020000040800F2
:100000000000022099020008F5190008F9190008FB
:10001000FD190008011A0008051A00080000000078
:10002000000000000000000000000000091A0008A5
:100030000D1A000800000000111A0008151A000827
:10004000C9030008C9030008C9030008C903000860
:10005000C9030008C9030008C9030008C903000850
:10006000C9030008291A0008C9030008C9030008C9
:10007000C9030008C9030008C9030008C903000830
:10008000C9030008C9030008C9030008C903000820
:10009000C9030008C9030008C9030008C903000810
:1000A000C9030008C9030008C9030008C903000800
:1000B000C9030008C9030008C9030008C9030008F0
:1000C000C9030008C9030008C9030008C9030008E0
:1000D000C9030008C9030008C9030008C9030008D0
:1000E000C9030008C9030008C9030008C9030008C0
:1000F000C9030008C9030008C9030008C9030008B0
:10010000C9030008C9030008C9030008C90300089F
:10011000C9030008C9030008C9030008C90300088F
:10012000C9030008C9030008C9030008C90300087F
:10013000C9030008C9030008C9030008C90300086F
:10014000C9030008C9030008C9030008C90300085F
:10015000C9030008C9030008C9030008C90300084F
:10016000C9030008C9030008C9030008C90300083F
:10017000C9030008C9030008C9030008C90300082F
:10018000C903000800B583B000F0ACFC304B314A25
:100190001360314A1360314B314A03E01168196032
:1001A000043304322F498B42F8D32A4B1A682E4B62
:1001B0009A4204D1284B1A682C4B9A4200D0FEE791
:1001C000234B2B4A13602B4A13602B4B02E0002277
:1001D0001A600433294A9342F9D3254B1B6813B99B
:1001E000244B1B6803B1FEE700F088FC01A86946B8
:1001F00000F01AFC224C234B1C1BA410002504E029
:100200001F4B53F8253098470135AC42F8DC1E4CA3
:100210001E4B1C1BA410002504E01B4B53F825307B
:1002200098470135AC42F8DC0198009900F03EFF98
:100230000546174C174B1C1BA41004E0013C144B43
:1002400053F824309847002CF8DC284600F0C8FB0F
:10025000BABADECA000000206809002000000020B1
:1002600000CC00086C09002078563412325476987D
:100270006C09002004AD00206C09002008AD0020AE
:10028000F4030008F4030008F4030008F403000872
:10029000F4030008F403000808B5FFF773FF00BF7C
:1002A00000BEFEE71EF0040F0CBFEFF30880EFF373
:1002B00009807146414A10472DE9F04182B0044659
:1002C0008846134B5E6B9D6B9F6A1B6B13F0020F8E
:1002D0000DD00F4BDB6A002B09DA4BF6AB6100F057
:1002E00089FC20B14FF00042094BDA620CE009486A
:1002F00000F0A2FBCDF800802046394632462B465E
:1003000000F000FC00BEFEE702B0BDE8F08100BFD7
:1003100000ED00E010C8000800BEFEE71EF0040F6C
:100320000CBFEFF30880EFF309807146244A1047B1
:100330002DE9F04182B007468846084B5D6B9C6B07
:100340009E6A074800F078FBCDF8008038463146B9
:100350002A46234600F0D6FB00BEFEE700ED00E093
:1003600020C800081EF0040F0CBFEFF30880EFF365
:1003700009807146134A10472DE9F04182B00746C3
:100380008846084B5D6B9C6B9E6A074800F054FBE7
:10039000CDF80080384631462A46234600F0B2FBAD
:1003A00000BEFEE700ED00E02CC8000800BEFEE73E
:1003B00000BEFEE700BEFEE770470000B90200087D
:0C03C000310300087903000800BEFEE7CE
:1003CC0000CC0008000000206C09002000CC0008C4
:1003DC0000000000000000006C09002008AD0020A7
:0803EC00000000000000000009
:1003F80040F0BF6040F40030014BD860704700BF48
:1004080000ED00E0C3781BB310B4194BDA68D2438F
:10041800C2F30222C2F10401C9B20F2343FA02F463
:1004280043788B40DAB2817804EA010313431B0155
:10043800DBB202780F490A4482F80033037858097E
:1004480003F01F03012202FA03F341F820300BE006
:1004580003785A0903F01F030121994002F1200390
:10046800044A42F8231070475DF8044B704700BFF8
:1004780000ED00E000E100E0042805D1054A13681A
:1004880043F0040313607047024A136823F004031F
:100498001360704710E000E08379002B34D010B46B
:1004A800204B1A68016822EA01021A605A6801683A
:1004B80022EA01025A60027902F1804202F59E3274
:1004C80014680168214311609A68016822EA0102F0
:1004D8009A60DA68016822EA0102DA604379102B2F
:1004E80009D1104B996802680A439A60D968026872
:1004F8000A43DA6013E003F1804303F59E33196879
:1005080002680A431A600AE0037903F1804303F59D
:100518009E331A68016822EA01021A6070475DF882
:10052800044B7047003C0140064A13680340526977
:10053800024202D01BB900207047002070470120FA
:10054800704700BF003C0140014B5861704700BF35
:10055800003C014070B4002239E0012393400C684C
:100568001C409C4232D1046855000323AB40DB4356
:100578001C40046006680C79AC40344304600C7974
:10058800013CE4B2012C14D8846823408360846859
:100598004B79AB4023438360446896B20123B34050
:1005A80024EA0303436044688B79B3409BB2234336
:1005B8004360C46896B276000323B34024EA030379
:1005C800C360C468CB79AB402343C36001320F2AB0
:1005D800C3D970BC704700BF30B401F007039B005B
:1005E8009A40C908083150F821400F2505FA03F34D
:1005F80024EA030340F8213050F821301A4340F828
:10060800212030BC704700BF10B4294B9B6803F011
:100618000C03042B05D0082B06D053BB254B0360D5
:1006280029E0254B036026E0214B5A685B6803F0FC
:100638003F0312F4800F09D01F4AB2FBF3F21C4BA0
:100648005B68C3F3881303FB02F208E0194AB2FBA4
:10065800F3F3174A5168C1F3881101FB03F2144BF5
:100668005B68C3F3014301335B00B2FBF3F3036040
:1006780001E0104B03600E4A9368C3F303130F495C
:10068800CC5CE4B20368E34043609468C4F382241A
:100698000C5DE4B223FA04F484609268C2F3423237
:1006A8008A5CD2B2D340C3605DF8044B704700BF88
:1006B800003802400024F40040787D010400002046
:1006C80021B1054B1A6B104318637047024A136B2C
:1006D80023EA0000106370470038024021B1054B3F
:1006E8005A6C104358647047024A536C23EA00005E
:1006F800506470470038024021B1054B1A69104315
:1007080018617047024A136923EA000010617047B4
:1007180000380240002303E00133DBB20A38C0B2DC
:100728000928F9D81B01DBB218437047030903EB0A
:1007380083035A0000F00F001044C0B2704700BF96
:1007480082B000230193114BDB6813F0400F17D1DF
:100758004FF0FF320D4BDA600C4BDB6803F04002C0
:10076800019B01330193019BB3F5803F01D0002A1F
:10077800F2D0064BDB6813F0400F03D0012002E0F3
:10078800012000E0002002B0704700BF00280040B0
:10079800024AD36823F08003D360704700280040E2
:1007A80082B000230193114BCA225A6253225A6223
:1007B800DA6822F0A002DA600C4BDB6803F0200252
:1007C800019B01330193019BB3F5004F01D0002A2F
:1007D800F2D0064BDB6813F0200F01D0012000E0B7
:1007E8000020FF22014B5A6202B0704700280040E7
:1007F80038B50D46034638B9224A926812F0400FC0
:1008080009D10022CA7006E01E4A926812F0400F11
:1008180001D10022CA7053B12C786B781B0243EACD
:100828000444AB782343E87843EA00440FE028788F
:10083800FFF770FF04046878FFF76CFF44EA0024B0
:10084800A878FFF767FF2043EC7840EA04440D4B93
:10085800CA225A6253225A62FFF772FF58B104F053
:100868007F3020F0FE40074B1860FFF791FFFFF73D
:1008780097FF10B902E0002000E00120FF22014BA1
:100888005A6238BD0028004070B50F4B1B68C3F38F
:1008980005420A70C3F306264E7003F07F058D707B
:1008A80003F480031B0CCB7060B90C461046FFF7AD
:1008B8003DFF20703046FFF739FF60702846FFF78C
:1008C80035FFA07070BD00BF0028004038B50D4648
:1008D800024638B94B7813F0100F03D023F01003F9
:1008E8000A334B7052B1EC786B781B0243EA04442C
:1008F800AB782343287843EA40340FE0E878FFF7E1
:1009080009FF04046878FFF705FF44EA0024A87883
:10091800FFF700FF20432C7840EA44340D4BCA22ED
:100928005A6253225A62FFF70BFF58B124F07F40F6
:1009380020F0C000074B5860FFF72AFFFFF730FF91
:1009480010B902E0002000E00120FF22014B5A62AA
:1009580038BD00BF0028004070B50E4B5B68C3F37C
:100968000742CA70C3F304264E7003F03F058D702A
:10097800C3F342330B7060B90C461046FFF7D6FE3E
:10098800E0703046FFF7D2FE60702846FFF7CEFED3
:10099800A07070BD0028004030B401F0030292003E
:1009A8000F2494408908084B023153F8215025EA56
:1009B800040443F8214053F821409040204343F871
:1009C800210030BC704700BF00380140014B18605F
:1009D800704700BFDC002742FEE700BF08B50D4B9B
:1009E8001B6813B90C4A0B4B1A600A4B1A68C31CD4
:1009F80023F00303134409498B4206D906F034FF58
:100A08000C2303604FF0FF3008BD02490B6010460D
:100A180008BD00BF7009002008AD002000FC0120BF
:100A280001230360014B0B60704700BF14000020D6
:100A38000FB400B583B004AB53F8042B01930848F6
:100A4800802108F0C3FC011E03DD054800F042F8D0
:100A58000146084603B05DF804EB04B0704700BFD8
:100A680078090020F0B585B006460C46174B1B6880
:100A780083B9174B0193042302930323039301AF14
:100A8800012528463946ABBE0546B5F1FF3F13D0D0
:100A98000E4B1D600D4B1B6801930296039401AE2B
:100AA800052528463146ABBE0546B5F1FF3F06D0C1
:100AB800A54207D0601B07E04FF0FF3004E04FF07D
:100AC800FF3001E04FF0FF3005B0F0BDF80900201D
:100AD800F0C6000808B5FFF7C5FF08BD08B500F067
:100AE80017F9024B024A9A6008BD00BF00ED00E00A
:100AF8000000000808B500F02DF908BDF8B5044657
:100B08000D4617461E462648FFF792FF25482168DE
:100B1800FFF78EFF24486168FFF78AFF2348A16822
:100B2800FFF786FF2248E168FFF782FF2148216925
:100B3800FFF77EFF20486169FFF77AFF1F48A16928
:100B4800FFF776FF1E48E169FFF772FF1D48FFF7C0
:100B58006FFF1D482946FFF76BFF1C4CE16A1C48D4
:100B6800FFF766FF216B1B48FFF762FFE16B1A482E
:100B7800FFF75EFF15F0800F03D018483946FFF7DE
:100B880057FF15F4004F03D015483146FFF750FFC3
:100B98001448FFF74DFF14480699FFF749FFF8BDC1
:100BA800F4C6000804C7000814C7000824C70008D2
:100BB80034C7000844C7000854C7000864C70008C1
:100BC80074C7000884C7000890C7000800ED00E05B
:100BD800A0C70008B0C70008C0C70008D0C70008F1
:100BE800E0C70008F0C70008F8C7000838B58369EF
:100BF8001B888B4230D1044603684568013B042BAF
:100C08002CD8DFE803F0032B24241B0028681449A0
:100C180006F026FF70B96B6813B90123236016E04C
:100C2800042B02D10223236011E0082B02D10323F5
:100C380023600CE04FF0FF33236008E02B68023B91
:100C4800012B02D80023036001E0AB680360A369AD
:100C58000233A361012038BD002038BD002038BD13
:100C6800F0C6000882B0002301930093254A136858
:100C780043F480331360234B1B6803F40033009361
:100C8800019B01330193009B1BB9019BB3F5A06F36
:100C9800F1D11C4B1B6813F4003F02D001230093D1
:100CA80001E000230093009B012B29D1154B9A6882
:100CB8009A609A6842F400429A609A6842F4A05294
:100CC8009A60114A5A601A6842F080721A600D4B95
:100CD8001B6813F0007FFAD040F203720B4B1A60C6
:100CE800A3F580639A6822F003029A609A6842F03A
:100CF80002029A60034B9B6803F00C03082BF9D19E
:100D080002B0704700380240193C4005003C0240E0
:100D180008B50D4B1A6842F001021A60002199606B
:100D28001A6822F0847222F480321A60074A5A60E4
:100D38001A6822F480221A60D960FFF793FF4FF0F7
:100D48000062034B9A6008BD00380240103000244E
:100D580000ED00E0234B9B6803F00C03042B07D045
:100D6800082B09D0002B2DD11F4A204B1A602CE0EC
:100D78001F4A1E4B1A6028E01A4B5A685B6803F03A
:100D88003F0312F4800F09D0194AB2FBF3F2154B56
:100D98005B68C3F3881303FB02F208E0124AB2FB54
:100DA800F3F3104A5168C1F3881101FB03F20D4BAC
:100DB8005B68C3F3014301335B00B2FBF3F30B4AF7
:100DC800136002E0084A094B1A60064B9B68C3F39C
:100DD8000313084AD25CD2B204490B68D3400B60B3
:100DE800704700BF003802400024F4002C000020A7
:100DF80040787D011C00002010B504464378027835
:100E0800934204D18078012801D1013222702078E0
:100E1800E268904201D1002222706068227A02FBC7
:100E2800030006F059FD63780133DBB26370E268B2
:100E3800934201D100236370627823789A4201D1EA
:100E48000123A370012010BD10B504460378427831
:100E5800934201D182789AB108460022A270616853
:100E6800227A02FB031106F037FD23780133DBB247
:100E78002370E268934205D100232370012010BD3E
:100E8800002010BD012010BD70B4154600231AE0E3
:100E98001B014E1C0C78A4F13001C9B2092902D8F3
:100EA8002344303B0EE0A4F16101C9B2052902D800
:100EB8002344573B06E0A4F14101C9B2052907D8EC
:100EC8002344373B3146013DE2D10360501E01E027
:100ED8004FF0FF3070BC7047002300E00133C25C64
:100EE800202AFBD0092AF9D00A2AF7D010B42D2AD3
:100EF80001D02B2A00D10133002205E002EB820247
:100F080052000A44303A0133C15CA1F13004E4B222
:100F1800092CF3D910465DF8044B704738B50546DF
:100F28000C460E48A0FB0530C00802D0FFF7F6FFBC
:100F380000E000202268531C2360084BA3FB051324
:100F4800DB0803EB83035B00EB1A30331370236871
:100F580000221A700130C0B238BD00BFCDCCCCCC55
:100F680010B582B00191002806DA4A1C01922D22A0
:100F78000A704042012400E0002401A9FFF7CEFFD7
:100F88002044C0B202B010BD38B504460D46000971
:100F980002D0FFF7F9FF00E0002004F00F04092C4D
:100FA80001DC303400E037342B685A1C2A601C708E
:100FB8002B6800221A700130C0B238BD00B585B068
:100FC8000246019102A803A900F070FD9DF80A30BD
:100FD800092B04D8019B5A1C019230221A709DF8E3
:100FE8000A0001A9FFF79AFF019B5A1C01922E22C1
:100FF8001A709DF80930092B04D8019B5A1C0192DC
:1010080030221A709DF8090001A9FFF787FF019B9C
:101018005A1C01922E221A709DF80B0000F26C7077
:1010280001A9FFF77BFF019B5A1C019220221A702D
:101038009DF80C30092B04D8019B5A1C01923022D0
:101048001A709DF80C0001A9FFF768FF019B5A1C54
:1010580001923A221A709DF80D30092B04D8019B91
:101068005A1C019230221A709DF80D0001A9FFF751
:1010780055FF019B5A1C01923A221A709DF80E30B6
:10108800092B04D8019B5A1C019230221A709DF832
:101098000E0001A9FFF742FF0022019B1A7005B05C
:1010A8005DF804FB08B506F097FB05F07DFD00F040
:1010B8001FFC00F049FC00F06DFC06F01DF808B1BB
:1010C80005F09EFD024B186805F0A2FDF3E700BF8E
:1010D800FC090020024A136801331360704700BFFF
:1010E800FC090020704700BFF0B583B014460BBB65
:1010F8000646FAB10846118902F09EFB6068011D98
:101108008278C37843EA022297B23B1D03442589BB
:10111800ED1B043D007800F0F000202807D03028AF
:101128000BD1376900953046D2B2B84705E00123A4
:10113800B37102E0084602F035FE204602F040F99D
:10114800002003B0F0BD00BF08B50123837105225C
:10115800044B83F826200846034902F0A1FB00202F
:1011680008BD00BFBC5F0020F110000808B58379F6
:101178003BB9437F042B04D1084602F0F5FEF62064
:1011880003E0437F01334377002040B208BD00BF2E
:1011980083795BB110B50446806802F0E5FE002350
:1011A800A3710222024B83F8262010BD704700BFAE
:1011B800BC5F002038B504460361016082800025C9
:1011C800857114300499092206F086FBE57138BD53
:1011D8002DE9F04786B000AF8579002D40F0878073
:1011E80004460023437702F067FFA060214640F2DF
:1011F8005B72424B02F076FF20B12046FFF7C8FF32
:10120800012575E0A068214602F048FBA0683C492A
:1012180002F048FBA0683B49042202F049FBA068A1
:10122800364902F043FB4FF0000887F80880062390
:101238007B724D23BB725123FB7249233B7373238B
:101248007B736423BB737023FB7303233B744FF0DE
:10125800020A87F811A087F812800523FB7487F823
:10126800148004F11406304606F036FD7875102314
:101278003B71304606F030FD0E307871304606F08E
:101288002BFD00F11009173020F00700ADEB000D21
:10129800684641464A4606F095FB6846391D52465F
:1012A80006F01AFB0DEB0A0007F108010E2206F002
:1012B80013FB0DF11008304606F00EFD02464046BD
:1012C800314606F009FBA06869461FFA89F2012336
:1012D80004F0B0F830B9A06804F0EAFA0A4B1B68C9
:1012E800E36005E02046FFF753FF012500E00125F4
:1012F80028461837BD46BDE8F08700BF51110008E1
:10130800ED10000875110008FC0900208379002BF6
:1013180062D02DE9F04F83B000AF164689460446E7
:10132800084606F0D9FC054600F1030800F10A0357
:1013380023F00703ADEB030DEB460DF10200494620
:1013480006F06CFC4FF0000A8DF800A0484606F045
:10135800C3FC8DF80100AB1C0DF803A030233B71D2
:10136800304606F0B9FC40447871304606F0B4FCCB
:10137800404400F10209093020F00700ADEB000DF0
:10138800684651464A4606F01DFB6846391D02224A
:1013980006F0A2FA0DF102005946424606F09CFA00
:1013A80005356D44304606F097FC0246284631461E
:1013B80006F092FAA06869461FFA89F2012304F040
:1013C80039F820B9A06804F073FA504606E02046C0
:1013D800FFF7DEFE012001E0012070470C37BD4613
:1013E800BDE8F08F8379D3B110B582B00446C0232D
:1013F8008DF8043000238DF80530806801A9022299
:10140800012304F017F820B9A06804F051FA01206C
:1014180008E02046FFF7BCFE4FF0FF3002E04FF037
:10142800FF30704702B010BD38B50D4B1D68C3685A
:10143800EB1A40F6B83293420FD90446837913B1B8
:10144800FFF7D0FF08E0C37913B1FFF7C1FE03E04F
:101458000222044B83F82620E560002038BD00BF37
:10146800FC090020BC5F00202DE9F04383B000AFE9
:1014780015461E46BC6A02F1080323F00703ADEBCC
:10148800030DE946684606F027FA4FF000080DF804
:10149800058004F1080323F00703ADEB030D68464C
:1014A8003146224606F018FA0DF80480381D4946E0
:1014B8002A4600F065F878686946E2B200F046F915
:1014C8000C37BD46BDE8F08300B587B0164B1A68E7
:1014D800164B1A60072314E0144A126802F00F0131
:1014E80001F13000392801D901F1370059B20DF165
:1014F800180E714401F80C0C12090C490A60013BE2
:10150800DBB213F0800FE7D000238DF81430084BBE
:101518009A89996803AB00930648074BFFF74AFE80
:1015280007B05DF804FB00BF107AFF1FB85F00200A
:10153800BC5F0020985F00207114000800B5ADF56D
:10154800077D0D4881A9FFF77FFC68B101A881A933
:1015580000F036F841A881A900F064F8074801A90D
:1015680041AAFFF7D3FE02E00448FFF75DFF0DF53F
:10157800077D5DF804FB00BF885F0020985F0020AE
:1015880010B5931ECB5C0A2B04D1013A92B2531EBC
:101598000024CC54002302E0013101339BB2934272
:1015A80002D20C782F2CF7D1934206D00133D21AED
:1015B800013192B2FFF768FC10BD4FF0FF3010BD4B
:1015C80070B586B001900E4604AB0393144B1868AF
:1015D80001A9FFF7D9FC019B5A1C01922F221A700E
:1015E8000130C5B27068C0F3130003A9FFF7CCFC43
:1015F8000446034606E0019A511C019130211170FE
:101608000133DBB2042BF6D9019804A9224606F06F
:1016180063F90022019B1A552819C0B206B070BDA3
:10162800B85F00202DE9F04184B005460E463549E3
:10163800052206F051F96C1D00F0C8FA2146FFF7A3
:10164800BDFC05F118047368C3F38553DAB2012AA7
:101658004CD005F119073B212976202A0CD9A2F193
:101668002104E4B204EB84046400274B1C4401A861
:10167800264906F0D3FA11E003EB83035B00244C00
:101688001C44736813F4001F04D001A8214906F014
:10169800C5FA03E001A8204906F0C0FA38462146F9
:1016A80006F0BCFA204606F017FB07EB000808F125
:1016B80001082C233B54404601A906F0AFFA01A8C3
:1016C80006F00AFB08EB000401343A2308F800305E
:1016D800B6F90B0001A9FFF743FC204601A906F063
:1016E8009DFA00E001342378002BFBD10A232370F4
:1016F80000236370284606F0EFFAC0B204B0BDE8D4
:10170800F08100BF3CC800089400002044C80008CD
:10171800300000204CC8000850C8000802781207A2
:1017280002F0805243789B0503F07C631343827870
:10173800520502F400121A43C3781B0503F4801300
:1017480013434068C0F31300184370472DE9F04372
:1017580089B081460E46174603A80021142206F0D8
:1017680031F934460025A8469AE001342378202B25
:10177800FBD0092BF9D00A2BF7D020464E4904227A
:1017880006F078F830B903238DF8053004340135B4
:10179800EDB237E020464949042206F06BF830B92B
:1017A80000238DF8063004340135EDB22AE02046D6
:1017B8004349032206F05EF830B901238DF806305C
:1017C80003341D44EDB21DE020463E49052206F0D3
:1017D80051F830B904238DF8053005340135EDB2E0
:1017E80010E020463849042206F044F848B901239D
:1017F8008DF8053000238DF8063004340235EDB23B
:1018080000E00025012D03D0022D0AD040E001346C
:101818002378002B44D0413BDBB2192BF7D83FE0AB
:101828000134237843B1A3F13002D2B2092A03D993
:101838002B2B01D02D2BF3D193B39DF80530012B21
:1018480008D12046FFF748FBCDF8170004238DF890
:10185800163007E0204606F003F8ADF8170002231B
:101868008DF8163001258DF804508DF80750CDF805
:10187800089001A8FFF752FF04908DF81450134800
:1018880003A9FFF7B9FAA8445FFA88F8002507E02A
:10189800237823B101343B2BFAD1002500E0002541
:1018A80023781BB1A31BBB42FFF660AF4FFA88F049
:1018B80009B0BDE8F08300BF58C8000850C8000848
:1018C8004CC8000860C8000868C80008785F002095
:1018D80039B10B682BB1054A9360022382F8263090
:1018E80070470322014B83F826207047BC5F002015
:1018F80038B5104C20460021282206F063F807234B
:1019080084F826300C4B636040F25B73A3810B4B69
:10191800A3614FF2CC63A383094B23616FF07F432C
:101928006361084B2362002584F8245004F01EFAF2
:10193800284638BDBC5F002070C80008C0A8000A4F
:10194800C0A800014D58080808B501F051FA0E4B1F
:101958001B6A1BB100200D4901F038FA0A4B586880
:1019680003F108010A4A01F07DFA10F1050F05D0CC
:1019780040B90222044B83F8262008BD0122024BFD
:1019880083F8262008BD00BFBC5F0020DC5F002074
:10199800D918000808B5134B93F82630023B052BDD
:1019A8001FD8DFE803F006031E121A15FFF7CCFF55
:1019B80008BD05F021FAFFF787FD0B48FFF708FC83
:1019C8000422084B83F8262008BDFFF7B7FD08BDA1
:1019D8000222044B83F8262008BD0322014B83F81A
:1019E800262008BDBC5F0020985F0020704700BF1C
:1019F800FEE700BFFEE700BFFEE700BFFEE700BF4F
:101A0800704700BF704700BF704700BF08B5FFF7B9
:101A180061FB024A13680133136008BDE85F0020C8
:101A280008B50820FEF780FD28B1012005F008FF61
:101A38000820FEF789FD08BD014B1868704700BFF4
:101A4800E85F002030B44478013CC3785A1E00D5C2
:101A58000332921013F0030F02D11BB9104D02E0AC
:101A68000F4D00E00F4D35F914402244013A40F281
:101A78006D1404FB032380780344A3F5C7435F3B3D
:101A880008784A78C2EB021292004FF4616404FBB2
:101A9800002288780244044800FB032030BC7047C9
:101AA80098C8000880C8000880510100F0B4002AD6
:101AB80003DB164646F2DF3502E0324E16440025B7
:101AC800314BA3FB06231B0C1D44304C04FB136451
:101AD8002F4BA3FB0423DB0A0B704FF4616202FB5C
:101AE80013422C4BA3FB02435B094B70C3EB03135C
:101AF8009B00D41A8C706A1C274E82FB0667D1198A
:101B0800D317C3EBA103C3EBC303D31A0370234B4F
:101B180083FB05235A19EB17C3EB222300E00B467E
:101B2800591E0A46002900DACA1C921013F003064F
:101B380002D11BB91A4C02E0194C00E0194CB4F957
:101B48000040224440F26D1404FB0322AA42E6DC62
:101B5800AA1AC37016B91BB9114902E0104900E06E
:101B680010490C23013B01EB430531F91340944222
:101B7800F8DC013343702D88521B01328270F0BCAF
:101B8800704700BF807EAA8307452EC2805101009E
:101B9800C5B3A2918988888893244992B1F98CB3F6
:101BA80098C8000880C8000800B583B00246684697
:101BB80001A9FFF77BFF002001A9FEF719FE00200D
:101BC8006946FEF783FE03B05DF804FB00B583B0F9
:101BD800002001A9FEF758FE00206946FEF7BCFE6A
:101BE800684601A9FFF72EFF03B05DF804FB00BFAC
:101BF8002DE9F04385B00746884615460120242183
:101C0800002201F00DFC40B30646D7F80490446862
:101C180084F800806570002525716571A571E571EE
:101C28004068083079681C2205F056FEA570E570FA
:101C38002046718900F0F2F86080D9F80C3004AAC7
:101C480042F8043D00950123019330462946FF23BD
:101C580000F048FA304601F0B3FB05B0BDE8F08368
:101C68002DE9F04385B005460F464668337803F002
:101C78000F039B001FFA83F85B429CB221B201F06C
:101C880061FB00287FD12B89032B7CD96B681B78DB
:101C9800082B74D1414B186800F0F003E02B02D0F8
:101CA8004FF0010901E04FF00009394600F036FA1B
:101CB80008B14FF00009B9F1000F03D1284601F02F
:101CC8007FFB67E02B89072B5DD9284600F0ACF82D
:101CD80018B1284601F074FB5CE02846222101F087
:101CE80031FBF8B12846414601F02CFB00284ED1C3
:101CF80002202989002201F093FB8146002846D062
:101D0800294601F079FC002841D1D9F804604846F9
:101D180021B201F017FB002839D1284601F050FB09
:101D28004D4605E028466FF0210101F00BFB70BB22
:101D38006A681A4B1B68F360194B1B6833610023F0
:101D4800137053884FF6F6718B4202D909335380CA
:101D580001E008335380FF2333720023B372F37218
:101D68002846414601F0EEFA48B9002200920123C4
:101D78000193029728460949FF2300F059F928469C
:101D880001F01EFB06E0284601F01AFB02E0284697
:101D980001F016FB05B0BDE8F08300BFF45F00203A
:101DA800EC5F002008B50A460321FFF721FF08BDB4
:101DB80008B50A460B21FFF71BFF08BD10B483B016
:101DC8000023ADF8063010F0010406D0994204DD76
:101DD80003788DF8073001390130002303E00288C9
:101DE8001344023902300129F9DC002902DD0278A6
:101DF8008DF80620BDF80600034498B200EB1343A3
:101E08009AB202EB134024B103029BB2C0F307203D
:101E1800184380B203B05DF8044B704708B5FFF76C
:101E2800CDFFC04380B208BD70B5054600263446D4
:101E380014E068686989FFF7C1FF204484B204EBA5
:101E480010446B8913F0010F07D0C6F10106F6B2F2
:101E580023029BB2C4F307241C432D68002DE8D14C
:101E680026B123029BB2C4F307241C43E04380B28B
:101E780070BD00BF10B40F4B1B680DE093F829200C
:101E880012F0010F07D004685A68996862400A4244
:101E980001D118460BE01B68002BEFD1064B1868E0
:101EA80028B190F8293013F0010F00D100205DF817
:101EB800044B704710880020148800202DE9F04159
:101EC8000746D0F8048098F800301A09042A02D08E
:101ED80001F076FA9FE00E4603F00F039C00B8F875
:101EE800020000F0C7FC01467B89A34202D33B896C
:101EF800834203D2384601F063FA8CE0384601F099
:101F080027FBD8F81020454B1A60D8F80C20444B12
:101F18001A603446012594F8293013F0010F0CD0CB
:101F280014F1040F09D063683BB13C4A106883423E
:101F38000ED0214600F0F2F850B91DB1394B1C689B
:101F4800002500E02468B44200D12468002CE2D1C6
:101F5800334B1868314600F0E1F828B9304B1B685C
:101F680003F0F003E02B03D1384601F029FA52E0E0
:101F78001CB9384601F024FA4DE0B8F8063023F0D1
:101F8800C0039BB23BB1384600F0F6FA074600287A
:101F980041D0D0F80480244B1E60244BC3F8008045
:101FA8003846314601F0BCFB60BB98F80930062B77
:101FB80009D0112B02D0012B0FD109E03846314648
:101FC80003F092FF1EE03846314602F009FF19E09F
:101FD80038463146FFF744FE14E0104B1868314686
:101FE80000F09CF858B90D4B1B6803F0F003E02B88
:101FF80005D0C7F8048038460221FFF7D3FE3846DB
:1020080001F0DEF90023084A1360084A1360044A05
:102018001360024A13600020BDE8F081F45F0020DD
:10202800EC5F002010880020F05F0020F85F00209F
:102038002DE9F04383B005460C9EAAB3894698461D
:102048001746142101F07EF9002843D16C6884F802
:1020580008809DF82C3063723B6823614523237008
:102068009DF828306370288900F0FEFB608000230B
:10207800A371E371DFF86880B8F8000000F0F4FBA2
:10208800A080B8F800300133A8F80030B9F1000F8B
:1020980002D0D9F8003013B97368E36000E0E36058
:1020A8000023A372E37204E043681B6902AF47F898
:1020B800043D338C43B12A89934205D228463146E0
:1020C8003A4600F013FB06E07369304629463A4663
:1020D800984700E0FE2040B203B0BDE8F08300BF9F
:1020E800000A0020F0B585B007460E4614461D4686
:1020F8001046FFF7BFFE68B19DF8282000929DF8B2
:102108002C20019202903846314622462B46FFF792
:102118008FFF00E0FC2040B205B0F0BD0346421E30
:1021280012F1030F13D891F8292002F0020202F0ED
:10213800FF009AB14A689A420BD089685A400A420D
:1021480009D1C9430B40994207D0002070470120AC
:10215800704700207047002070470120704700BF7B
:10216800F0B585B005460C4603786E46A3F13002FB
:10217800D2B2092A00F285805AB2302A0AD1691CE3
:102188006B785AB2782A01D0582A05D1AB78023533
:10219800102703E00A2701E00D4608270020DAB2DD
:1021A800A2F13001C9B2092907D85AB200FB0723A6
:1021B800A3F1300015F8013FF1E7102F1BD10929D1
:1021C80009D9A2F16101C9B2052904D9A2F14101D5
:1021D800C9B205290FD800015BB203F10A01613ABF
:1021E800D2B2192A01D8612300E04123CB1A18433F
:1021F80015F8013FD3E75AB22E2A07D103AB9E4206
:1022080041D230606B7804360135AFE763B15AB21A
:10221800202A09D00C2A07D00A2A05D00D2A03D073
:10222800092A01D00B2A30D16B46F31A9B100133CF
:10223800042B20D8DFE803F0321F030A1400B0F1A2
:10224800807F24D2009B40EA036014E0B0F5803F11
:102258001FD2019B1B04009A43EA026318430AE059
:10226800FF2818D8019B1B04009A43EA0263029ACC
:1022780043EA0223184384B100F000FB20600123E5
:102288000CE000230AE0002308E0002306E0002316
:1022980004E0002302E0002300E00123184605B013
:1022A800F0BD00BF00B583B001A9FFF759FF08B121
:1022B800019801E04FF0FF3003B05DF804FB00BF68
:1022C80008B50346074A1268824203D10168054AE5
:1022D800116001E002680A600520194600F068FFF5
:1022E80008BD00BF040A00202DE9F04107468846D2
:1022F800446863689A889AB91B684360606807F104
:102308000801142205F0E8FA20460121FFF750FDE4
:10231800204601F043F985B2204601F051F800E06B
:1023280000257C680AE063681E68204601F036F9DB
:10233800284485B2204601F043F83446002CF2D1F7
:1023480038464146FFF7BCFF034A13885B1B1380DE
:102358002846BDE8F08100BF080A00202DE9F041B9
:10236800054688460026184B1B680024214620464F
:102378001DE0EA685F69974209D19A69D5F810E0CB
:10238800724504D1B3F80CE0AA8896450AD0013406
:1023980028B193F81FE0C27F964502D902E018469B
:1023A80000E018461A6802B90B4619461346002B76
:1023B800DFD110B1FFF798FF0644464501DA012C3A
:1023C800D1DC3046BDE8F081040A002008B501469A
:1023D800062000F0EDFE08BD10B50446406908B1BE
:1023E80000F0EEFF2046FFF7F1FF10BDF8B50746F5
:1023F8000E464C68608800F03DFA227802F00F0221
:10240800C2EB82329300184485B2E08800F032FAB9
:10241800C0F30C00C100706800240470447084701C
:10242800C470818001EB050E1FFA8EFEA0F806E04D
:102438007D684FF0010C1CE06B689A8891420BD2C2
:1024480005603CB1E28891423FD39B889E453CD8C9
:10245800266010E07E600EE0914236D0DD88A94209
:1024680033D324B1E488A24201D04FF0000C1D6898
:102478001C46002DE0D155B92CB12660E28883882E
:102488009A4202D103E07E6001E04FF0000CBB7F6E
:1024980013F0010F25D0BCF1000F14D07B685B68E6
:1024A8009B885BB9026806E05368C1889A889142A4
:1024B80007D11A681846002AF6D104E04FF0000C3C
:1024C80001E04FF0000C6046F8BD304601F066F8B8
:1024D800054A1388181A1080304600F071FF002052
:1024E800F8BD0020F8BD00BF080A002008B5062086
:1024F80000F04EFE08BD00BF70B505460E4605202B
:1025080000F046FE044650B928463146FFF726FF3C
:10251800B04203DB052000F03BFE044694B12046A0
:102528000021202205F04EFA0323E377064B1A68B0
:1025380022601C6004F108002946142205F0CCF939
:10254800204670BD002070BD040A002038B5094B34
:10255800186800240BE0C37F23B1013BC37704460E
:10256800006804E005682146FFF7BEFE28460028FB
:10257800F1D138BD040A00202DE9F04780464568AE
:102588002B7803F00F03052B40F0A380E88800F0B8
:1025980071F9C0F30C004FEAC00A688800F06AF9C4
:1025A8002B7803F00F03C3EB83339F00384487B2C3
:1025B800404600F0F3FF81464A4B1B8803440A2B30
:1025C8000BDD28464946FFF7C9FE002800F0818048
:1025D800444B1B884B440A2B7BDC434B1C6800266E
:1025E8000DE06269EB689A4207D1A2692B699A42A9
:1025F80003D1A289AB889A4203D026462468002CCE
:10260800EFD134B928464946FFF776FF044690B91A
:102618005FE0E88800F02EF9C0F30C0058B9E089B3
:1026280000F028F9C0F30C0028B104F1080029468D
:10263800142205F051F92B4A13889944A2F8009006
:10264800EB8803F020039BB22BB9A37F43F001036F
:10265800A3775744A78320464146FFF7C7FE0028C3
:102668003DD0A38B1433A38363685F683D68384605
:1026780004F10801142205F02FF9A08B00F0F4F8FA
:1026880078800023BB71FB71BB72FB723846142142
:10269800FFF7C4FB7881D4F804800AE06F68284605
:1026A8006FF0130100F04EFE4046294600F086FF09
:1026B8003D68002DF2D120463146FFF701FE404625
:1026C80000F06CFF074A1388181A10804046BDE8CE
:1026D800F087404600F074FE0020BDE8F087002037
:1026E800BDE8F087080A0020040A00202DE9F04F11
:1026F8008DB005460A910B920C8C43680993D888D3
:1027080000F0B8F8C0F30C03049300F4005083B24F
:102718000893B5F80890A9F114091FFA89F9A4F1EA
:1027280014030793002B00DA0733C3F3CF03069390
:10273800002414268AE0079B4B45B4BF00230123DD
:10274800049AC2F30C02089941EA020A0BB94AF446
:10275800005A23B9069BDB009BB2059301E0CDF834
:10276800149002201421002200F05AFE804600280E
:1027780072D040680999142205F0AEF8D8F804B070
:102788006B6833446B606B899E1B6E81059E31E0DC
:102798006C89B44228BF3446A4B20CB92D6829E02C
:1027A800FFF7A4FE074620B9404600F009FEFF20C7
:1027B80053E06B68009301940320214602223B46B4
:1027C80000F090FD039038B93846FFF7FFFD40460A
:1027D80000F0F6FDFF2040E0284600F0E9FE7D61AC
:1027E800204B3B614046039900F0E8FE361BB6B229
:1027F80006B12D68002ECBD12646504600F034F89D
:10280800ABF80600059F07F1140080B200F02CF821
:10281800ABF8020000238BF80A308BF80B305846CF
:102828001421FFF7FBFAABF80A000A9843694146FE
:102838000B9A9847404600F0C3FDC7EB09091FFAF9
:1028480089F9049B069A13449BB20493B9F1000FCB
:102858007FF471AF002000E0FF2040B20DB0BDE86A
:10286800F08F00BFE1230008030A43EA002080B28A
:10287800704700BF08B5FFF7F7FF08BD00F47F43B6
:102888001B0243EA006300F47F0243EA122343EA8F
:102898001060704708B5FFF7F1FF08BD10B4024695
:1028A800481C0B7803F0C001C02910D0014607E08E
:1028B8001478087884420CD101310132013BDBB233
:1028C800002BF5D1013208780028E9D102E0002078
:1028D80000E001205DF8044B704700BF421C0378FC
:1028E80003F0C001C0290AD0104602E00130013BC4
:1028F800DBB2002BFAD10378002BEFD100E01046B1
:10290800013070472DE9F04784B014461289B2F5BA
:10291800007F00F2BE80192A40F2BB802046604B3F
:102928001968002300F0BEFE2389984240F0B18068
:102938005B4B1E683088FFF797FF0546032800F2B7
:10294800A8804FF48C7303FB00F3564AD35C022B28
:1029580040F09F804FF48C7303FB00F3D1180320E1
:10296800D054F37803F00F034B71B088FFF77CFF66
:102978008046F088FFF778FF074696F90230002B6B
:1029880069DA4FF48C73474A03FB05235B79002B04
:1029980061D1B8F1010F5ED14FF48C7303FB0526AA
:1029A8000C363F4B1B6803F10C0830464146FFF7D5
:1029B80075FF00284FD14046FFF790FF043048E0EC
:1029C800FFF78CFF814601A849460A2204F084FFDC
:1029D800019BB3F1012F34D1BDF80C30B3F5806FF2
:1029E8002FD10298FFF756FF4FF48C732D4A03FB43
:1029F800052398602C4B984205D94FF48C7303FB40
:102A08000523294A9A60DFF89CA04FF48C7303FBD6
:102A180005F70AEB070808F58678404609F10A0128
:102A2800042204F059FF5744D7F810718FB34FF4BC
:102A38008C7303FB05A530464146D5F81421B847E9
:102A480027E0BDF80C00FFF70FFF0A304844013FAC
:102A5800BFB2002FB4D14FF48C73124A03FB052385
:102A6800D3F810615EB111464FF48C7202FB05F386
:102A7800C81803460C300021D3F81421B047094A7E
:102A88004FF48C7303FB05F5511900235355C1F816
:102A98001031204600F094FC04B0BDE8F08700BF78
:102AA8007C1000200C0A0020803A09002DE9F04132
:102AB80082B006460C46904600204FF488710246C4
:102AC80000F0AEFC00284FD0054647683846002184
:102AD8000C2204F077FF4046FFF7C6FE388001233A
:102AE800BB7000233B7101237B710C37611E00E032
:102AF80007460131781C002204E000F8013B01324E
:102B0800D2B201310B785CB22E2C01D0002BF4D15B
:102B18003A700B78002BEBD1044604F8053B4FF4D0
:102B28008073ADF80430ADF80630013001A90422F5
:102B380004F0D2FE6968611A284689B200F008FDDF
:102B48000C4B03EB86060C4C20683146352203F00B
:102B580037FB206829463246352303F01BFB044621
:102B6800284600F02DFC00E0FF2460B202B0BDE86A
:102B7800F08100BF6C0E00207810002038B50446A4
:102B88004FF48C7303FB00F3454AD35C022B17D038
:102B9800032B71D0012B40F0828011464FF48C72C8
:102BA80002FB00F3CA180220C85400205070012507
:102BB8009570D07011460C312246FFF777FF38BD6B
:102BC8004FF48C73364A03FB00229378013BDBB247
:102BD8009370002B63D14FF48C73314A03FB0022AE
:102BE800D3780133DBB2D370042B37D14FF48C7315
:102BF8002B4A03FB00235B785A1C012A0FDC294966
:102C080051F822205AB14FF48C72254902FB001466
:102C1800013363700123A3700023E37038BD4FF4C0
:102C28008C731F4A03FB0423D3F810515DB111467E
:102C38004FF48C7202FB04F3C81803460C300021D1
:102C4800D3F81421A847164A4FF48C7303FB04F4F5
:102C5800111900231355C1F8103138BD10494FF42C
:102C68008C7000FB04F288188370014640780C31A0
:102C78002246FFF71BFF38BD4FF48C73084A03FB4D
:102C880000229368013B93604BB9054A4FF48C735B
:102C980003FB04F4111900231355C1F8103138BD92
:102CA8000C0A00206C0E002010B5002404E0204619
:102CB800FFF764FF0134E4B2032CF8D910BD00BF5C
:102CC8002DE9F0410026B646B446344614E02A4DB4
:102CD8004FF48C7303FB04F3EE18EB5C73B1032B16
:102CE80008D1264B1B7835795F1B674502DD5FFAF3
:102CF80087FCA6460134E4B2032CE8D9042C10D191
:102D0800BEF1030F32D84FF48C7303FB0EF31A4C49
:102D1800E35C032B2CD174464FF48C76164B06FBE0
:102D28000E36074601233370144803785D1C05707E
:102D38003371C6F81011C6F81421384604F0CCFFD8
:102D4800FE2804D8384604F0C7FF054600E0FF25F2
:102D580006F10C0039462A4604F0BEFD2E44002335
:102D680033732046FFF70AFFFB2002E0FF2000E054
:102D7800FF2040B2BDE8F0810C0A00200A0A0020BA
:102D880070B5064600241AE04FF48C7303FB04F375
:102D98000D4AD35C032B10D14FF48C7303FB042131
:102DA80030460C3104F05CFE38B94FF48C72064B97
:102DB80002FB0435D5F80C0170BD0134E4B2032CD4
:102DC800E2D94FF0FF3070BD0C0A002001280AD864
:102DD800054B1B683BB131B129B10B681BB11A46D1
:102DE800024B43F820207047781000206C0E00201A
:102DF80000B583B0104B23F00303104A136010484A
:102E0800FFF750FA01900F4B1B6893B903F004FACF
:102E18000C4B186068B10C49002203F01DF9094BEE
:102E280018680A49002203F0F3F9002001A9FFF706
:102E3800CDFF03B05DF804FB770E00207C10002066
:102E4800B4C8000878100020B0C800080D29000890
:102E580008B5034B1B680BB1FFF726FF08BD00BF81
:102E680078100020F8B5174C246804B309B310B3E0
:102E7800047814B31E4617460D46044604F02CFF8A
:102E8800FF281CD82046FFF70DFAB0F1FF3F02D10A
:102E98002046FFF775FFB0F1FF3F02D02860002001
:102EA8000EE0204639463246FFF70AFF08E0F220D6
:102EB80006E0F22004E0F22002E0F22000E0F22036
:102EC80040B2F8BD7810002010B4164B1B6801887A
:102ED8005A18904211D014797CB9134C2468A24234
:102EE8000BD0124C2468944201D1104A10605A5AEF
:102EF80002805A5A1A44C11A518041885A1882428B
:102F08000DD014795CB9094C2468844201D1074C6E
:102F1800226004885C5201881944D31A4B805DF8FA
:102F2800044B704788100020841000208010002077
:102F38000A4B23F003030A4A13604FF42051198007
:102F480000225A801A715A1806480260012010712E
:102F580011805180044A1360704700BFFF5F002052
:102F6800881000208410002080100020B0B108B51F
:102F780003460B4A126890420FD30A4A12689042DD
:102F88000BD20838002203F8042C074B1B68984220
:102F980001D2054B1860FFF797FF08BD704700BFC7
:102FA80088100020841000208010002003314FF684
:102FB800FC730B400B2B00D80C23B3F5205F4DD8C6
:102FC800F0B4294A1468A0424BD3284A12689042A8
:102FD80047D2A0F10801091B89B230F8085C6A1AC7
:102FE800083A92B293423BD83BD066193779C7B9B1
:102FF800655B0B4408339BB21D4A1268B24202D18A
:10300800E2181B4E3260E21800261671E552518014
:1030180020F8083CE25AB2F5205F22D014446380BD
:103028001FE003F1140595421BD80B4408339BB2EB
:10303800E2180F4D2D68AA4201D20D4D2A600025D5
:10304800157130F8085CE552518020F8083CE25AC6
:10305800B2F5205F05D01444638002E00020704779
:103068000020F0BC704700BF8810002084100020AA
:103078008010002000284ED030B4034603334FF6AA
:10308800FC751D400B2D00D80C25B5F5205F44D8E4
:10309800234B1C68234B1B681B1B9BB235E0E018B5
:1030A8000179002930D1E25AD21A083A2946AA42AF
:1030B8002AD314318A4212D35A19083292B2A1186B
:1030C80000250D710588A5524B80028001230371EC
:1030D800A35AB3F5205F04D023445A8001E00123AA
:1030E8000371104B1B6898420CD103E00C4A12681C
:1030F8001B8813441A791AB10B4A12689342F5D106
:10310800084A1360083009E00388C5F520518B424E
:10311800C5DB002002E000207047002030BC70476B
:10312800881000208010002084100020002301E077
:1031380001339BB2092BFBD930B4114921F00301AB
:10314800002518E02A4600230E4840F825300BE0F9
:103158000C4850F822400C6040F822100A4830F819
:103168001200014401339BB2084830F8120098421B
:10317800EED80135ADB2092DE4D930BC704700BF97
:103188008F100020F05D0020D8C80008C4C80008CF
:10319800092809D8054B53F820301BB11968034A90
:1031A80042F820101846704700207047F05D002054
:1031B8000B4629B1034A52F82010196042F8203012
:1031C800704700BFF05D002070B504460D4619B386
:1031D8000A6843689A421FD0124B186809E00268CF
:1031E80063689A4204D1C66800F0BEFE304600E02B
:1031F800C0680028F3D10C4B1B680BE04BB11A6870
:103208003AB161688A4204D10DB12A6800E000220F
:103218001A60DB68002BF1D10DB12B6800E00023A8
:10322800636070BD1C8800202488002009B10B68E9
:1032380000E00023C360704709B10B6800E0002379
:103248008360704770B5044616461D46FFF7BCFFFD
:1032580020463146FFF7F0FF20462946FFF7E6FFF4
:1032680070BD00BFF8B50446002545608560C5609F
:1032780080F82950069DC5610A4E35786F1C377055
:1032880080F82C50089D0561FFF7DCFF2046079B5E
:10329800984728B9044B1A6822601C602046F8BD7C
:1032A8000020F8BD185E002010880020014B18602F
:1032B800704700BF1488002008B590F8293013F033
:1032C800010F0DD143F0010380F8293013F0100FDE
:1032D80006D013F0200F03D00146043103F0DCF9C7
:1032E80008BD00BF70B4039D032825D8DFE800F0AF
:1032F80002080406362004E00E2002E0002000E068
:103308002220033020F003040C44BDF81060B442BE
:1033180014DC00241C6025B120F003002844586008
:1033280001E00020586002205873198159811A73EE
:103338000122DA81184602E0002000E0002070BC7B
:10334800704700BF10B461B30B4660B3002905DABB
:10335800494289B242898A4201D226E089B2027B77
:1033680044680AB1032A08D1E21A426000F1100148
:103378008A420DD2446001201EE0013A92B2012A2D
:1033880015D8002B15DA42898A4214D3E41A44600E
:103398009BB242891A444281028913440381002066
:1033A8000AE0002008E0002006E0012004E00120F7
:1033B80002E0012000E001205DF8044B704700BFE7
:1033C80060B338B50146002424E0CB89013B9BB2A9
:1033D800CB81F3B90D680B7B4A7B12F0020F03D047
:1033E8000B690846984710E0032B03D10920FFF723
:1033F800DFFE0AE0013B9BB2012B03D80820FFF750
:10340800D7FE02E00846FFF7B1FD0134E4B22946D1
:1034180000E000210029D8D1204638BD002070479F
:103428002DE9F04188461646032800F28180DFE83E
:1034380000F002080406362704E00E2702E0002701
:1034480000E02227032E76D8DFE806F0435E5E020E
:103458000920FFF79DFE054600286FD0067300235C
:103468000360C319133323F003034360A0F80880F3
:10347800FC1C24F00304C4F5FA744445A8BF444670
:10348800A3B243810122C281C3EB080407461DE0B1
:103498000920FFF77DFE28B92846FFF791FF002095
:1034A800BDE8F08106730022427302603860A2B260
:1034B8000281B2F5FA7F28BF4FF4FA72428100F117
:1034C800100141600121C181A41A0746002CDFDCEC
:1034D80027E007F1130020F0030008F1030323F0AD
:1034E8000303184480B2FFF7C5FD054648B30744F7
:1034F800133727F003074760A0F80880A0F80A8070
:103508000023036006730CE00820FFF741FE054620
:10351800D0B100234360A0F80880A0F80A800360B7
:1035280006730123EB8100236B732846BDE8F08105
:103538000020BDE8F0810020BDE8F0810020BDE852
:10354800F0810020BDE8F0810020BDE8F08100BFD7
:1035580038B504460D4602898A421ED98A1A05E002
:10356800691A8DB223891344238124686189A94289
:10357800F6D3237B4BB9A94207D063681B1B5919A3
:10358800204689B2FFF712FD04466581258120682F
:1035980008B1FFF715FF0023236038BD034600205C
:1035A80002E00130C0B21B68002BFAD1704700BF9F
:1035B80010B1C3890133C381704700BF98B1034676
:1035C80031B970470C891A8922441A81034600E0F0
:1035D80010B418680028F5D108891A8902441A819C
:1035E80019605DF8044B704710B50C46FFF7E6FF0D
:1035F8002046FFF7DDFF10BD002844D02DE9F0413B
:103608000D460746002941D002890B899A423FD3CB
:103618004FF0000846467B89991B6C89C8EB040269
:10362800914201DB94B201E09B1B9CB27868696807
:1036380030444144224604F04FF92644B6B244448B
:103648001FFA84F86B89434502D82D684FF00008AB
:103658007B89B34205D13F6817B9DDB9002600E080
:1036680000262DB16A892B899A4201D12B689BB912
:103678002FB17A893B899A4201D13B6873B9002DF1
:10368800C9D100200BE0F22040B27047F22006E0DA
:10369800F22004E0F22002E0FA2000E0FA2040B232
:1036A800BDE8F08180B32DE9F84388469146054688
:1036B80061B370B381B300273E461DE02BB1698921
:1036C800994202D85B1A9BB215E06C89E41AA4B23D
:1036D8004C4500D94C46696808EB06001944224657
:1036E80004F0FAF82744BFB22644B6B2C4EB090482
:1036F8001FFA84F900232D68B9F1000F01D0002DBD
:10370800DCD13846BDE8F883002070470020BDE8CA
:10371800F8830020BDE8F8830020BDE8F88300BFE7
:103728002DE9F041804643685F7A184B1C680025F4
:103738002E4624E0237C9F421FD12CB123681BB165
:10374800134A1268934218D1D4F814C0BCF1000F80
:1037580013D0A069214642460E4BE04768B14EB1EE
:10376800E368F360094B1A68E2601C6001254FF0BA
:10377800000802E001254FF000082646E4680DB96C
:10378800002CD7D12846BDE8F08100BF1C5E002080
:10379800F45F0020EC5F002010B40024154A138861
:1037A800591C11804FF6FF72934203D14FF44042E7
:1037B800104B1A80002014E00F4B53F820301B6880
:1037C8000BE0598B0B4A1288914205D10134A4B2FF
:1037D800B4F5804FE2D309E0DB68002BF1D101306A
:1037E800C0B20328E8D9034B188800E000205DF830
:1037F800044B7047E8000020ECC8000870B4856AE4
:10380800848D2A19016BC38E40F2B456B34200D995
:1038180033460B44D31A002B02DBC485501A09E047
:103828006B1A002B03DD0022C285104602E0491BFB
:10383800C185002070BC704710B50446838D1944BB
:1038480089B2818540F66833994200D9838520463C
:10385800FFF7D4FF40F2D923984206DDA37F43F057
:103868000203A377204602F023F810BD50B110B52B
:103878000446406808B1FFF7A3FD04202146FFF77E
:1038880097FC10BD704700BF10B503E00468FFF750
:10389800EDFF20460028F9D110BD00BF0161704737
:1038A800C1677047C0F88810704700BF4161704712
:1038B800C0F8841080F82020704700BF037ED3B181
:1038C8000A2B18D0012B16D010B50446406F18B13A
:1038D800FFF776FD002363674FF6FF73A386E06E5C
:1038E800FFF7D2FF206FFFF7CFFF0023E3662367C0
:1038F800A4F86A3010BD70472DE9F04182B0A84A9B
:10390800136801331360A74A137801331370A64B69
:103918001C6800261CE194F82120A24B1B789A42CF
:1039280001D1E46814E184F82130237E022B03D10D
:1039380094F84620062A54D094F846100C2952D000
:1039480094F89120BAB194F890300133DBB284F83E
:103958009030511E9548415C8B4246D3002384F831
:103968009030062A02D8013284F89120204602F0CD
:1039780047F900253EE0A28E12F4004F01D1013232
:10398800A286226F9AB3B4F93400B4F94420904265
:103998002FDB022B0AD0B4F94020B4F9423003EBF4
:1039A800E203834A525C9340A4F844300023A38680
:1039B800B4F86020B4F84C30934228BF13465B0833
:1039C800A4F84E30E28EB3EB420F02DA5200A4F8AC
:1039D8004E20E38EA4F84C30204602F085F80025EE
:1039E80008E0012506E0012504E0002502E00025A5
:1039F80000E00025237E062B0BD1A27F12F0100FCA
:103A080007D0616A664A1268521A282A01D9013514
:103A1800EDB2227A12F0080F2CD0042B01D0072B1C
:103A28002AD1626A5E4B1B689A1AD4F88C0000F59A
:103A3800242303F6B8435F49A1FB0313B2EB531FDA
:103A480003D90135EDB2012719E094F892105A4BC9
:103A580003FB01035749A1FB0313B2EB531F0DD915
:103A6800204602F0AFF894F89230013384F892308F
:103A7800002704E0002702E0002700E00027237E5B
:103A8800032B07D1616A464A1268521A282A01D9BB
:103A98000135EDB2092B07D1626A414B1B689B1AAD
:103AA800F02B01D90135EDB265B32046FFF706FFCB
:103AB80016B1E368F36002E0E2683B4B1A604FB16D
:103AC800206DA16A638B0093A38B01932246231D6B
:103AD80001F0CCFFD4F88850D4F81080E7680220B1
:103AE8002146FFF765FB0022344B1A701DB1404692
:103AF8006FF00901A847314B1B78002B7FF407AF03
:103B08003C4625E0E568E37F0133DBB2E37794F8D0
:103B18002020934217D30023E377284A1370D4F860
:103B280084301BB120692146984700E00020234BD0
:103B38001B78002B7FF4EBAE40B9204601F0B8FEAD
:103B480026462C4604E026462C4601E026462C460E
:103B5800002C7FF4E0AE1A4B1D681CE06A6A104B1B
:103B68001B689B1AF02B01D8002300E0012383B1C6
:103B78002846FFF7A3FE14B1EB68E36002E0EA68A9
:103B88000F4B1A60EE6802202946FFF711FB3546F5
:103B980001E02C46ED68002DE0D102B0BDE8F081CF
:103BA80020880020215E00201C8800200CC9000805
:103BB800FCC80008D34D6210F824010018880020C2
:103BC8003488002010B50C4603688B4202D1DB68AC
:103BD80003600EE0124A136007E0DA68A24202D1DD
:103BE800E268DA6005E00E4B1A600D4B1B68002B8B
:103BF800F3D10023E3602046FFF760FE237E0A2B03
:103C08000BD0012B09D0A37F13F0010F05D043F08F
:103C18000203A377204601F04BFE0023237610BD54
:103C28002888002030B583B00446002947D0037E99
:103C3800042B01D0072B42D1636F23B9A28D40F624
:103C480068339A423BD0206DA16A638B0093A38BA3
:103C580001932246231D01F009FF2046FFF72EFE9F
:103C68004A4B1B68A34203D1DA68484B1A600EE03E
:103C7800474A136007E0DA68A24202D1E268DA60D4
:103C880005E0434B1A60424B1B68002BF3D100231D
:103C9800E36001223F4B1A70237E042B09D10A23CB
:103CA80023763D4B1A68E2601C6002F027F800207A
:103CB80069E002202146FFF77BFA002063E0237EBB
:103CC800072B58D8DFE803F00426313F4757574FF2
:103CD800638BC3B1314B1B68A34203D1DA682F4B06
:103CE8001A600EE02A4A136007E0DA68A24202D19D
:103CF800E268DA6005E0264B1A60254B1B68002B4A
:103D0800F3D10023E36002202146FFF751FA002493
:103D1800254632E022482146FFF754FF032021467A
:103D2800FFF746FA0024254627E018482146FFF702
:103D380049FF0122174B1A7002202146FFF738FA73
:103D48000024254619E0204601F06AFD0546A0B981
:103D58000523237611E0204601F062FD054660B98F
:103D68000523237609E0204601F05AFD054620B9CF
:103D78000923237601E000252C461CB115B92046FD
:103D880001F096FD284640B203B030BD1C880020E3
:103D98002888002018880020348800202C880020DB
:103DA8002488002008B5037E012B03D0837F43F0CD
:103DB800100383770121FFF735FF08BD10B54AB11D
:103DC800144608461189FFF737FD2046FFF7F8FA31
:103DD800002005E01BB90846FFF7E4FF00E00020DB
:103DE80040B210BDF8B50446456F6F7B00234367AA
:103DF800C66F26B1006921462A46B04705E0002073
:103E080021462A460346FFF7D9FFB0B917F0200F1D
:103E18001AD0A38D40F66832934201D00133A385AE
:103E2800E56F25B12069214600221346A84740B214
:103E380010F10A0F0AD1F6200BE040B210F10A0F78
:103E480006D06567002004E0002002E0002000E0C2
:103E5800F62040B2F8BD00BF70B5164A137801339A
:103E68001370154B1C6822E094F82120114B1B7825
:103E78009A421CD084F82130A37F13F0010F09D097
:103E880043F00203A377204601F012FDA37F23F03D
:103E98000303A377E668636F43B1084D00232B70D3
:103EA8002046FFF79FFF2B78002BDAD13446002CF1
:103EB800DAD170BD215E00201C88002018880020FF
:103EC80008B5FFF7C9FF054A13780133DBB2137051
:103ED80013F0010F01D0FFF70FFD08BD205E002091
:103EE8002DE9F04383B00446037E0A2B08D11B4812
:103EF8002146FFF767FE02202146FFF759F92AE01D
:103F08000E46D0F85090D0F82880D0F8885007692D
:103F180013482146FFF756FE0122124B1A70206FF4
:103F280008B1FFF7B1FCE06E08B1FFF7ADFC4EB188
:103F3800638B0093A38B0193484641462246231D79
:103F480001F094FD02202146FFF732F91DB13846F1
:103F58006FF00901A84703B0BDE8F083348800205A
:103F68001C8800201888002008B50121FFF7B8FF39
:103F780008BD00BF10B50A4B1B680024204608E0A6
:103F8800596A084A1268521AA24201D314461846BE
:103F9800DB68002BF4D108B1FFF7E6FF10BD00BFC6
:103FA8003488002020880020F8B50E4B1B687F2439
:103FB80000252F460EE05A7E82420AD8944208D342
:103FC8005E6A09490968891BA94202D314460D464D
:103FD8001F46DB68002BEED117B13846FFF7C4FF48
:103FE800F8BD00BF1C88002020880020034A106804
:103FF800034B1B6818441060704700BFE4000020A2
:104008002088002038B505460220FFF7C1F804468D
:1040180068B9FFF7AFFF0220FFF7BAF8044630B9D6
:104028002846FFF7C1FF0220FFF7B2F80446002C2C
:1040380038D020460021942203F0C4FC657641F272
:104048001C13A4F866300025A4F8685040F66833BD
:10405800A385E3856572FF23A3724FF40673E38695
:104068000623A4F84430A4F84050A4F842304FF690
:10407800FF73A3860123A4F84C30FFF7B7FFA065B0
:104088002065A064E065084B1B686362074B1B78DA
:1040980084F82130E577064BE367064BC4F88C308B
:1040A80084F89250204638BD20880020215E0020E8
:1040B800C53D000800DD6D0008B54020FFF7A2FFF0
:1040C80008BD00BF10B504460846FDF7D3FE30B161
:1040D800038C23B1283B9BB29C4228BF1C46204638
:1040E80010BD00BFF8B504461F46037E002B67D1FC
:1040F8000D46002966D00B684360828308B10368C7
:1041080033B9201DFDF7B6FE00285DD04368236053
:10411800668B26B9FFF740FB6083002856D0FFF76F
:1041280065FF0022A26220650138A064E06540F6C0
:104138006833A385E3852263A4F860304FF40670E2
:10414800E0862946FFF7BEFFE0860123A4F84C303D
:1041580000EB800000FA03F3A4F84E30C4F8807036
:104168002046022101F0FAFA054638BB02232376DD
:10417800C6B1184B1B68A34203D1DA68154B1A6005
:104188000EE0154A136007E0DA68A24202D1E2683D
:10419800DA6005E0104B1A600F4B1B68002BF3D157
:1041A8000023E3600D4B1A68E2601C6001F0A6FD75
:1041B80001220B4B1A70204601F07AFB284606E0D4
:1041C800F72004E0FA2002E0FC2000E0FE2040B2E4
:1041D800F8BD00BF2C880020288800201C880020FB
:1041E8001888002070B50546204B1B6803F114049D
:1041F8009889FEF73FFBC0F30F30052834D91B4BD5
:104208001B689889FEF736FB000B0538800080B2E2
:10421800002327E01946E25C012A03D022B3022AD0
:1042280003D01AE001339BB21CE0E2185278042A4A
:104238001AD11A1D824217DC21448E78CA7842EAC4
:104248000622511E89B240F2B356B14201D940F25A
:10425800B452EA8604339BB204E021444A781AB186
:1042680013449BB28342D5D370BD00BF245E0020A7
:1042780000B583B01D4B1B7813F0040F2ED113F03B
:10428800020F1BD01A4B1A68816A531A002B1BDBCA
:10429800838D0B44D31A002B16DC164B1B6816496A
:1042A8000988588800901B880193144B186811449A
:1042B800134A144B01F0DAFB002012E013F0010F4F
:1042C80002D0114B1B6843620B4B1B8843B1837FA1
:1042D80043F00203837701F0EBFA02E0002000E0EC
:1042E800002040B203B05DF804FB00BF345E00203C
:1042F800285E0020245E00202C5E0020305E002016
:10430800F45F0020EC5F0020208800203A4B1B78E7
:1043180013F0040F67D130B583B0054613F0100FC2
:1043280012D0364B1B68364A1068364A1188364A0E
:1043380012685C8800941B8801931144334A344BFB
:1043480001F094FB002054E013F0020F4ED0407EA1
:10435800FFF758FE044600284AD02C4B1B68036020
:104368006B8B43832A4B1B684360244B1A68138862
:10437800838303230376244B1B68591C81620163E2
:10438800D189A0F86010D289A0F86220A0F84E1058
:10439800013B43652B6903616B6943612B7A23F009
:1043A800730303721B4B1A68C260186001F0A6FC05
:1043B8000122194B1A702046FFF714FFE08E211DC9
:1043C800FFF780FEE0862046122101F0C7F9054676
:1043D80028B120460021FFF783FD284609E0204642
:1043E80001F066FA05E0002040B27047002000E0C6
:1043F800FF2040B203B030BD345E0020245E0020B0
:10440800305E00202C5E0020285E0020F45F002033
:10441800EC5F00201C88002018880020F8B50446AE
:104428008B4B1B7813F0100F00F08881B0F86000F8
:10443800A26D8618616D874B1B68CD1A002D0FDBA6
:10444800994204D184490968511A002908DB824934
:1044580009688A4226D1814A1268D289904221D2BB
:104468007E4A1268D18988B2A4F86010B4F8625004
:10447800D28991B28D4201D2A4F862206365764B4D
:104488001B68A36540B994F891305BB984F8903003
:10449800012384F8913005E094F8913013B100239A
:1044A80084F891306C4B1A68A36CD11A002940DC4F
:1044B8000021A4F864106A49098849BBA06DB4F8C2
:1044C80060100144B14225D1B4F93410002923DB2E
:1044D8009A4223D194F84720531CDBB29A4201D266
:1044E80084F8473094F84730032B0AD9B4F84C20A5
:1044F800E38E13449BB29A4212D2A4F84C300123A3
:1045080011E0032B0ED1204601F02EFB01230AE017
:10451800002308E0002306E0002304E0002302E073
:10452800012300E00123002B40F0BF8084F84730CE
:10453800BBE0012900F18780216D511A002900F3A1
:104548008280A17F11F0040F06D021F00401A17729
:10455800B4F84E10A4F84C10002084F84600B4F8C3
:104568004210B4F9405001EBE501A4F84410D31A05
:104578009BB2A4F86430B4F866100B44A4F8663013
:1045880084F84700A264237E032B39D9B4F84C2061
:10459800B4F84E309A4207D2E38E13449BB29A4243
:1045A8002ED2A4F84C302BE0E38E03FB03F393FBED
:1045B800F2F313449BB29A4222D2A4F84C301FE083
:1045C800256F2B6823676868FEF7E8FFB4F8643046
:1045D8005BB1EB689889FEF74DF910F0010F04D034
:1045E800B4F86430013BA4F864306868FEF7D6FF7D
:1045F800B4F86830181AA4F868002846FFF736F9A6
:10460800236FABB1DB685868FEF744F90546236FA2
:104618001E89DB689889FEF72DF910F0030018BF92
:104628000120304428440C4B1B68C01A0028C7DD01
:10463800236F1BB94FF6FF73A38601E00023A386FF
:104648000023E37731E00023A4F864302DE000BFB5
:10465800345E0020285E0020305E0020245E0020AA
:104668002C5E0020E56E2B68E3660BB9A4F86A306F
:104678006868FEF793FFB4F864305BB1EB6898891B
:10468800FEF7F8F810F0010F04D0B4F86430013BDD
:10469800A4F864306868FEF781FFB4F86830181A27
:1046A800A4F868002846FFF7E1F8E36EDBB1944A06
:1046B8001568DB685868FEF7EDF80646E36E1F8953
:1046C800DB689889FEF7D6F810F0030018BF0120C0
:1046D80038443044281A002805DB226D884B1B68B3
:1046E8009B1A002BBEDDA36B43B3E26B84490968B8
:1046F800521A002A22DA834A1168CB1AB4F84020E9
:1047080042F3CC01591A89B288B28B189BB2A4F82B
:10471800403010F4004F01D0494288B2B4F842202A
:1047280042F38D01411A0A4492B2A4F8422043F39D
:10473800CC031344A4F844300023A363724B1B88B2
:10474800002B00F0CB80227E062A00F2C780A16AE7
:104758006E4A12688D1A012D2BD41344CB1A0133DB
:10476800002B26DC2B466A4A50684289AA4210DA96
:104778000189491B89B204E09B1A01810022428108
:10478800006842899A42F7DB594209B2FEF7DAFD1E
:1047980003E0694209B2FEF7D5FD5C4D2988A36A9A
:1047A800C81A5B4A118901441181D2682B60536091
:1047B80006E0521A002A03DAA37F43F00203A37724
:1047C800524B1968A26A8B1A002BC0F28380A38D02
:1047D8001344CB1A0133002B7CDC914276D14C4B2D
:1047E8001D89DB689889FEF745F810F0030018BFAB
:1047F80001202B189BB2444A1380A28D934235D9CD
:10480800434BDB689889FEF735F810F0010F0DD09F
:104818003F4BDE68B5892846FEF72CF800F03E00CD
:10482800FEF722F825F47C552843B081A28D384B39
:104838001A81DB689889FEF71DF800F0020083B240
:104848001BB1334A1389013B1381314D68682989AB
:10485800FEF77EFE2E89EB689889FEF70BF810F0BC
:10486800030018BF01203044274B1880264B1988B5
:10487800264B1A680A44A262A38D5B1AA3852046B8
:10488800FEF7BCFF224B5B681A8922B1214A1360EC
:1048980000221F4B5A601E4BDB689889FDF7EAFF20
:1048A80010F0010F04D01C4A137843F02003137052
:1048B800A37F13F0010F05D003F0FE0343F00203BA
:1048C800A377F8BD43F00103A377F8BD204600F0B5
:1048D800CBFFF8BD204600F0C7FFF8BD0B4B1B68A7
:1048E800A16A5A1A002A05DBA28D0A449B1A0133D1
:1048F800002B03DDA37F43F00203A377F8BD00BFBD
:10490800305E0020208800202C5E0020285E0020D9
:10491800405E0020385E0020355E002030B583B050
:10492800A54B1B7813F0040F29D0037E022B06D168
:10493800026DA24B1B689A420ED0002311E0A04BD7
:104948001B68816A5A1A002A08DB828D0A449B1A5E
:10495800002B05DD002304E0012302E0002300E032
:104968000123002B00F00B82964A137843F00803CA
:104978001370837F23F001038377F5201EE213F081
:10498800020F0AD0037E023BDBB2012B05D9837FDD
:1049980043F002038377002010E2837F13F0100FA7
:1049A80002D1894B1B6843620446002380F8923089
:1049B800FFF718FC237E023B072B00F2E281DFE8B9
:1049C80013F008008200E9000D016201E900960178
:1049D800CA01794B1B7803F01203122B5AD1236FAB
:1049E800DB685868FDF756FF0130744B1B68984226
:1049F80050D1B4F866200132A4F86620704A1268D3
:104A0800511CA1622163A364704B1B68D989A4F867
:104A18006010DB89A4F86230013A626504232376CA
:104A2800E08EE118FFF74EFBE08600EB80035B00A9
:104A3800A4F84E30B4F84C30012B01D1400080B2BC
:104A4800A4F84C00B4F86830013BA4F86830206F33
:104A580003682367FEF70AFF236F1BB94FF6FF733E
:104A6800A38603E00023A38684F84630D4F8803078
:104A780023B1206921460022984700E0002040B277
:104A880010F10A0F00F07F81A37F43F00203A377A0
:104A9800002093E1484B1B7813F0100F00F075814C
:104AA8004A4B1B68454A1068494A1188444A1268AB
:104AB8005C8800941B8801931144464A464B00F0D9
:104AC800D5FF00207AE13C4B1B7813F0100F51D032
:104AD8003A4B1868A36CC31A012B3AD4236DC31A36
:104AE800002B36DC04232376636923B12069214631
:104AF8000022984700E0F22048B140B210F10A0FB6
:104B080000F045812046FFF72FFAF62056E1B4F869
:104B18004C502046FFF782FCB4F8643013B1013BD7
:104B2800A4F86430012D03D1E38E5B009BB200E052
:104B3800E38EA4F84C30234B1B7813F0200F00F0C1
:104B48002881A37F43F00203A3770723237600205D
:104B580034E11E4B1B681E4A1188194A12685C888A
:104B680000941B88019311441A4A1B4B00F07EFFE6
:104B7800002023E113F0020F00F00D81A36A013B2E
:104B88000F4A1268934240F00881204600F0C4FFA3
:104B9800002013E12046FFF741FC0A4B1B7813F075
:104BA800200F00F0FC80A37F43F00203A3770723C4
:104BB8002376002002E100BF345E0020305E002032
:104BC800285E0020355E002020880020245E00201A
:104BD8002C5E0020F45F0020EC5F00202046FFF7E9
:104BE8001DFC784B1B7813F0200F3CD0764B1B78BC
:104BF80013F0100F2FD0226D744B1B689A422AD1E4
:104C0800A37F43F00203A3772046FEF757FE704BBD
:104C18001B68A34203D1DA686D4B1A600EE06D4A37
:104C2800136007E0DA68A24202D1E268DA6005E0C0
:104C3800684B1A60674B1B68002BF3D10122664B47
:104C48001A700A232376654B1A68E2601C6001F02B
:104C580055F80020B2E0A37F43F00203A3770823AE
:104C680023760020AAE0584B1B7813F0100F00F0B1
:104C78009880226D554B1B689A4240F09480062319
:104C8800237600209AE02046FFF7C8FB4D4B1B789F
:104C980013F0200F00F08980A37F43F00203A3776D
:104CA8002046FEF70BFE4A4B1B68A34203D1DA6885
:104CB800474B1A600EE0474A136007E0DA68A242E1
:104CC80002D1E268DA6005E0424B1A60414B1B688A
:104CD800002BF3D10122404B1A700A2323763F4B55
:104CE8001A68E2601C6001F009F8002066E02046BE
:104CF800FFF794FB344B1B7813F0100F57D0226D3D
:104D0800324B1B689A4254D12046FEF7D7FD304BF0
:104D18001B68A34203D1DA682D4B1A600EE02D4AB6
:104D2800136007E0DA68A24202D1E268DA6005E0BF
:104D3800284B1A60274B1B68002BF3D10122264B06
:104D48001A700A232376254B1A68E2601C6000F06B
:104D5800D5FF002032E02046FFF760FB1A4B1B7896
:104D680013F0100F27D0226D184B1B689A4224D1DC
:104D7800144A137843F01003137000201EE000203B
:104D88001CE000201AE0F62018E0002016E0F620CB
:104D980014E0002012E0002010E000200EE00020C7
:104DA8000CE000200AE0002008E0002006E00020D7
:104DB80004E0002002E0002000E0002040B203B040
:104DC80030BD00BF355E0020345E0020305E00201C
:104DD8001C8800202888002018880020348800209B
:104DE800F0B583B004460D464368A24A13601978AB
:104DF80001F00F0103EB81039F4A136089004942C8
:104E0800FEF7A0FA002840F0B9812389132B40F25D
:104E1800B5819A4B18682946FDF780F9002840F0BB
:104E2800AD81964B1B6803F0F003E02B00F0A681E0
:104E3800914B1B689889FDF71DFDC0F30F30C0EB3F
:104E480080308100204609B2FEF77CFA002840F045
:104E58009581894D2E683088FDF70CFD30802E68CD
:104E68007088FDF707FD70802E687068FDF712FDE9
:104E78007060834B18602E68B068FDF70BFDB0605A
:104E8800804B18602E68F089FDF7F4FCF0812B68E0
:104E98009889FDF7EFFC00F03F077B4B1F702289D4
:104EA80017F0030318BF01231344784A1380784B83
:104EB8001868054600261CE0A98B6F4B1B681A88EA
:104EC800914214D16A8B5B889A4210D16A68714BFF
:104ED8001B689A420BD12A68684B1B689A4206D114
:104EE8004EB1EB68F360E860694B1D6003E02E4645
:104EF800ED68002DE0D1002D43D1674B1D681BE004
:104F0800A98B5D4B1B681A88914214D16A8B5B8808
:104F18009A4210D16A685F4B1B689A420BD12A6883
:104F2800564B1B689A4206D12846FFF7A1F920463E
:104F3800FEF746FA25E1ED68002DE1D1574B1E68D2
:104F4800304600210EE0428B4B4B1B685B889A422F
:104F580006D10368494A1268934205D020B11BB1B3
:104F68000146C0680028EED158B121B1C368CB60B2
:104F7800C6604A4B1860FFF7C9F92046FEF720FAC9
:104F8800FFE0002D00F0DC80454B00221A602189EB
:104F980019815C6038490968D960424B1A60424BF4
:104FA8001A7017F0080F03D0637B43F00103637393
:104FB8006B6F6BB12846FEF715FF10F10A0F00F072
:104FC800B1806B6F23B1314B1B88002B40F0AA8056
:104FD800364B1D602846FFF7A1FC10F10A0F00F0C0
:104FE800A180314B1B7813F0080F0FD0D5F888300B
:104FF8001BB128696FF00A01984725482946FEF732
:10500800E1FD02202946FEF7D3F88BE013F0100FDC
:1050180013D0AB7F13F0100F06D1D5F888301BB131
:1050280028696FF00B01984719482946FEF7CAFD11
:1050380002202946FEF7BCF874E0B5F8642052B1A6
:10504800AB6F1BB128692946984700E0002040B2A1
:1050580010F10A0F66D0134B1A68002A3CD0AB7FB8
:1050680013F0100F24D01046FEF7AAF92846FEF7D1
:105078007BFF57E03C5E0020245E0020F45F0020A8
:10508800285E0020305E0020345E00202C5E002068
:105098001C880020EC5F0020348800202488002031
:1050A800405E0020385E0020355E002038880020F1
:1050B800EC6F24B1286929460023A04704E00020AA
:1050C80029460346FEF77AFE43B213F10A0F29D0A8
:1050D80010B12D4B1B686B672C4B1B7813F0200FFE
:1050E8001AD06B6F23B15A7B42F020025A7313E037
:1050F800AB8D40F66832934201D00133AB85EC6F3B
:105108002CB12869294600221346A04700E0002058
:1051180040B210F10A0F05D000221D4B1A60284634
:1051280000F0C6FB00231A4A1360174A1360194B94
:10513800586830B3FEF744F90022164B5A6020E055
:10514800154B1B689889FDF795FB00F0040083B2A6
:1051580083B9114B1B68114A1188114A1268588883
:1051680000901B8801930F4B186811440E4A0F4B8F
:1051780000F07CFC2046FEF723F902E02046FEF70B
:105188001FF903B0F0BD00BF385E0020355E002077
:1051980038880020405E0020245E00202C5E00201D
:1051A800285E0020305E0020F45F0020EC5F0020C5
:1051B800037E042B05D0072B03D0022B01D0032B31
:1051C80014D1A9B1B0F866308B4205D2837F63F061
:1051D8007F038377FF200EE0B0F86830052B09D9EC
:1051E800837F63F07F038377FF2004E0F32002E0EE
:1051F800002000E0002040B2704700BF38B50C46E0
:105208001D4691421BD29DF8143013F0020F0DD1A8
:10521800049B9B7F13F0400F12D19DF818302BB1DF
:10522800049BDB6E13B9049B1B6F53B104F2B75197
:1052380021F003018A42A8BF0A4691B201E000E0CA
:10524800FFE70022FEF7ECF828B14289121B2A80FA
:105258000481448138BD002038BD00BF2DE9F047E6
:105268008146884616469A469DF8207017F0010533
:1052780000D0042507F0020303F0FF0203B10C225B
:1052880015440420FDF784FF044628B94046FEF77C
:1052980097F80020BDE8F087877200230360C0F804
:1052A8000480B8F808305B1B038140461421FEF7E0
:1052B80049F828B12046FEF7D9FA0020BDE8F08762
:1052C80063685F68E760B9F81A00FDF7CDFA3880BF
:1052D800E768B9F81C00FDF7C7FA7880E768504618
:1052E800FDF7CCFA7860E768C5F38705053546EA27
:1052F8000535A8B2FDF7B8FAB881E36800229A74B8
:10530800DA742046BDE8F0872DE9F04106460C46E0
:1053180098460A4402F11401012089B20022FEF7DE
:105328007FF8074628B34568708BFDF79DFA2880FB
:10533800B08BFDF799FA6880C5F80480B06AFDF76C
:105348009DFAA860A0080530000300F4704040F002
:105358001000FDF789FAA881F08DFDF785FAE8813C
:1053680000232B746B74AB74EB74B26AF38D134423
:1053780033633846BDE8F08170B582B005460C4607
:10538800C668886AFDF77AFAB060EE68E08DFDF7C6
:105398006BFAF081A26AE38D13442363EE68AB7A5B
:1053A80013F0010F09D040F2B450211DFEF78AFE18
:1053B80040F00170FDF762FA7061B4F93430B3F16E
:1053C800FF3F01D10023A3860CB1236833B9201D08
:1053D800FCF750FD002828D043682360A36B3BB935
:1053E800134B1B68A363EB685868FDF753FAE06337
:1053F800EB686A6851685B1A9BB25189C91A518176
:1054080069680A89D31A0B816B68EA685A60EB6885
:1054180000221A745A746868A37A627A0092062283
:1054280001922146221DFCF75DFE02B070BD00BF4F
:10543800208800202DE9F04F8FB00024ADF83640C9
:10544800B0F86240C58E6408AC4228BF2C4605946B
:10545800002900F0768107919B46924681461146C5
:10546800FFF7A6FE002840F06E81B9F86860D9F809
:105478006C30099313B96FE03B4600E0099B1F6845
:10548800002FF9D10993997A11F0010F01D0042264
:1054980000E0002211F0020F01D00C2300E00023ED
:1054A8001A44099B19890A44059B9A1A92B2B9F8B9
:1054B8006A30ADF8363063B150469A4528BF184671
:1054C8000A901B1AADF83630121A92B2DDF8248011
:1054D80002E0B84600230A930A9B534543D2002AA8
:1054E80045D0002947D0C3EB0A059542A8BF154609
:1054F800ACB21BF0010F17D0CDF80090CDF804B076
:1055080001230293032021460DF13603FFF776FEAF
:105518000B90002800F004814068079B0A9A9918AC
:10552800224602F0D9F90CE0032021460122FDF7BA
:1055380077FF0B90002800F0F380079B0A9A13442A
:1055480043600A9B1C44A4B20B98FEF727F830442A
:1055580086B2DDF8248011E0DDF8248000230A9368
:105568001C460B930AE00A9C00230B9306E00A9C56
:1055780000230B9302E00A9C00230B930027069755
:1055880043464A46B946D846DDF814B0174664E0A3
:10559800C4EB0A05ADB25D4528BF5D4618F0010FA2
:1055A80018D0B9FA89F35B090097CDF80480029303
:1055B800002029465A460DF13603FFF71FFE0590D5
:1055C800002800F0A2804068079B19192A4602F0BB
:1055D80083F91DE0002029460122FDF721FF0890EC
:1055E800002800F09680079B234443600020014672
:1055F8000246FDF715FF059030B93B464F469946E0
:105608000898FDF7DDFE8BE005980899FDF7D6FFB1
:105618000598FDF7C3FF304486B2062E08D9DDF899
:1056280014803B464F4699464046FDF7C9FE77E051
:10563800FB6D00220092384605992344FFF70EFEC1
:105648000346002869D0B9F1000F02D0069A10600D
:1056580000E081462C44A4B20693544598D33A46B8
:105668004F46C346984691460A9BD3B1099B5C684E
:105678000A9D0FE023892B44238123684BB9606876
:105688006389184407992A4602F026F963892B444E
:1056980063812468002CEDD1099A13890A99194469
:1056A8001181BDF83630A9F86A300B9D45B1099CC7
:1056B80060682946FDF782FF2A89238913442381DC
:1056C800099B13B9C9F86C7001E0099B1F60D9F8F0
:1056D8005C305344C9F85C30B9F86630CAEB030A49
:1056E800A9F866A0A9F86860B8F1000F2CD0D8F81E
:1056F8000C405CB31BF0020F2AD1A5890820FDF7E6
:10570800B3F82843A081002023E03B464F46994642
:1057180006E03B464F46994602E03B464F469946CF
:1057280099F81E3063F07F0389F81E300B9B13B184
:105738001846FDF745FE17B13846FEF7A5F8FF20D5
:1057480007E0F22005E004E0002002E0002000E08D
:10575800002040B20FB0BDE8F08F00BFB0F868304D
:10576800052B06D9837F63F07F038377FF2040B240
:10577800704770B582B00D4611F0020F01D10026B6
:1057880000E00126314606B10421B0F86630002B4E
:1057980042D0044600200246FDF742FE014628B9E1
:1057A800A37F63F07F03A377FF2036E000962046AF
:1057B8002A46E36DFFF752FD014628B9A37F63F03F
:1057C8007F03A377FF2028E0E26E12B9E06604E0C9
:1057D8001A461368002BFBD111600023A4F86A3025
:1057E80015F0030F07D0E36D0133E365B4F86630B5
:1057F800013BA4F8663015F0010F03D0A37F43F0F6
:105808002003A3774868FDF7C9FEB4F86830184448
:10581800A4F86800002000E0FF2040B202B070BD8C
:1058280070B50546C46E0CB917E01C462368002BFA
:10583800FBD1E3689889FDF71DF810F0070F0CD12C
:10584800E668B4890120FDF70FF82043B081AB7FEB
:1058580043F02003AB77002003E028460121FFF73F
:105868007DFF40B270BD00BF30B583B00446006D07
:10587800FDF704F80346204600210A46FFF744FDD9
:1058880090B10546A37F23F00303A377A37A627A36
:105898000092062201922146221DFCF723FC28468D
:1058A800FDF78EFD002000E0FE2040B203B030BDC1
:1058B8002DE9F8436C4B1B68834200F0D180054604
:1058C800B0F84C80B0F86030984528BF9846C46E50
:1058D800837F13F0020F0ED04CB1E3685868FCF7D1
:1058E800D9FFAB6CC01A23891844404503D9284610
:1058F800FFF7BAFFB5E02F6F0FB99BE01F463B6873
:10590800002BFBD196E0E3689889FCF7B3FF2B6F77
:10591800A3B1AB7F13F0440F12D1EB6E2BB11A6811
:1059280082B91A89EB8E9A420ED2B5F866306BB1FD
:10593800B5F86830052B0BD901230AE0012308E0EC
:10594800012306E0012304E0012302E0012300E033
:1059580000231BB9AB7F13F0A00F77D02368EB6649
:105968002B7E022B0DD0D4F80C90B9F80C601020C7
:10597800FCF77AFF3043A9F80C00AB7F23F0030350
:10598800AB7720462946FFF7F7FCE3685868FCF731
:1059980081FF0646B4F80890E3689889FCF76AFF27
:1059A80010F0030018BF0120484430442B6D1B1A27
:1059B800002B00DA28652689E3689889FCF75AFFE6
:1059C80010F0030018BF0120C6422FD00023236027
:1059D8002B6F13B92C6727462BE0E3685868FCF750
:1059E80059FF0646FB685868FCF754FF301A002830
:1059F80019DA05F1700901E0D9F80090D9F80030FA
:105A08005BB1DB685868FCF745FF0646E3685868F1
:105A1800FCF740FF301A0028EEDBD9F8003023608D
:105A2800C9F8004005E03C60274602E02046FDF743
:105A38001DFFEC6E54B1E3685868FCF72BFFAB6CA4
:105A4800C01A2389184440457FF65DAFEB6E0BB949
:105A5800A5F86A30AB7F03F07F03AB77002000E046
:105A6800002040B2BDE8F883388800202DE9F043D3
:105A780083B08146884617461E460120142100221D
:105A8800FDF7CEFC68B305464468BDF82800FCF76E
:105A9800EBFE2080BDF82C00FCF7E6FE608048464F
:105AA800FCF7ECFE60604046FCF7E8FEA06045F2BB
:105AB8001400FCF7D9FEA08100230B22A2736822F0
:105AC800E27323746374A374E3740093062301934D
