:020000040800F2
:100000000000022099020008A90F0008AD0F0008A7
:10001000B10F0008B50F0008B90F0008000000007C
:10002000000000000000000000000000BD0F0008FC
:10003000C10F000800000000C50F0008C90F00082C
:10004000C9030008C9030008C9030008C903000860
:10005000C9030008C9030008C9030008C903000850
:10006000C9030008D10F0008C9030008C90300082C
:10007000C9030008C9030008C9030008C903000830
:10008000C9030008C9030008C9030008C903000820
:10009000C9030008C9030008C9030008C903000810
:1000A000C9030008C9030008C9030008C903000800
:1000B000C9030008C9030008C9030008C9030008F0
:1000C000C9030008C9030008C9030008C9030008E0
:1000D000C9030008C9030008C9030008C9030008D0
:1000E000C9030008C9030008C9030008C9030008C0
:1000F000C9030008C9030008C9030008C9030008B0
:10010000C9030008C9030008C9030008C90300089F
:10011000C9030008C9030008C9030008C90300088F
:10012000C9030008C9030008C9030008C90300087F
:10013000C9030008C9030008C9030008C90300086F
:10014000C9030008C9030008C9030008C90300085F
:10015000C9030008C9030008C9030008C90300084F
:10016000C9030008C9030008C9030008C90300083F
:10017000C9030008C9030008C9030008C90300082F
:10018000C903000800B583B000F028FD304B314AA8
:100190001360314A1360314B314A03E01168196032
:1001A000043304322F498B42F8D32A4B1A682E4B62
:1001B0009A4204D1284B1A682C4B9A4200D0FEE791
:1001C000234B2B4A13602B4A13602B4B02E0002277
:1001D0001A600433294A9342F9D3254B1B6813B99B
:1001E000244B1B6803B1FEE700F004FD01A869463B
:1001F00000F096FC224C234B1C1BA410002504E0AD
:100200001F4B53F8253098470135AC42F8DC1E4CA3
:100210001E4B1C1BA410002504E01B4B53F825307B
:1002200098470135AC42F8DC0198009900F064FE73
:100230000546174C174B1C1BA41004E0013C144B43
:1002400053F824309847002CF8DC284600F044FC92
:10025000BABADECA00000020AC080020000000206E
:10026000A0B10008B00800207856341232547698B5
:10027000B008002074A50020B008002078A5002058
:10028000F4030008F4030008F4030008F403000872
:10029000F4030008F403000808B5FFF773FF00BF7C
:1002A00000BEFEE71EF0040F0CBFEFF30880EFF373
:1002B00009807146414A10472DE9F04182B0044659
:1002C0008846134B5E6B9D6B9F6A1B6B13F0020F8E
:1002D0000DD00F4BDB6A002B09DA4BF6AB6100F057
:1002E00005FD20B14FF00042094BDA620CE00948ED
:1002F00000F01EFCCDF800802046394632462B46E1
:1003000000F07CFC00BEFEE702B0BDE8F08100BF5B
:1003100000ED00E01CAF000800BEFEE71EF0040F79
:100320000CBFEFF30880EFF309807146244A1047B1
:100330002DE9F04182B007468846084B5D6B9C6B07
:100340009E6A074800F0F4FBCDF80080384631463D
:100350002A46234600F052FC00BEFEE700ED00E016
:100360002CAF00081EF0040F0CBFEFF30880EFF372
:1003700009807146134A10472DE9F04182B00746C3
:100380008846084B5D6B9C6B9E6A074800F0D0FB6B
:10039000CDF80080384631462A46234600F02EFC30
:1003A00000BEFEE700ED00E038AF000800BEFEE74B
:1003B00000BEFEE700BEFEE770470000B90200087D
:0C03C000310300087903000800BEFEE7CE
:1003CC00A0B1000800000020B0080020A0B1000877
:1003DC000000000000000000B008002078A50020FC
:0803EC00000000000000000009
:1003F80010B50446B0F5E06F0FD0B0F5C06F0CD063
:10040800B0F5A06F09D0B0F5806F06D0B0F5407F89
:1004180003D00548792100F087FD44F0BF6444F417
:100428000034024BDC6010BD08AD000800ED00E0B0
:1004380010B50446C378012B03D92148932100F055
:1004480073FD63780F2B03D91D48942100F06CFDD0
:10045800A3780F2B03D91A48952100F065FDE3789E
:1004680013B3184BDA68D243C2F30222C2F1040173
:10047800C9B20F2343FA02F063788B40DAB2A1784D
:1004880000EA010313431B01DBB222780E490A4438
:1004980082F800332378580903F01F03012202FA77
:1004A80003F341F8203010BD23785A0903F01F03E5
:1004B8000121994002F12003034A42F8231010BD9C
:1004C80008AD000800ED00E000E100E010B50446CA
:1004D800042806D010F1050F03D00948ED2100F0DB
:1004E80023FD042C05D1074A136843F00403136065
:1004F80010BD044A136823F00403136010BD00BF45
:1005080008AD000810E000E010B5044603792BB1EF
:10051800042B03D03048822100F006FD6379082BB4
:1005280007D00C2B05D0102B03D02B48832100F0CB
:10053800FBFC2268D30DDB0503B91AB926488421D0
:1005480000F0F2FCA379012B03D92348852100F0A0
:10055800EBFCA379002B33D0204B1A68216822EAE0
:1005680001021A605A68216822EA01025A60227957
:1005780002F1804202F59E32106821680143116041
:100588009A68216822EA01029A60DA68216822EAF8
:100598000102DA606379102B09D1104B996822683F
:1005A8000A439A60D96822680A43DA6010BD03F1E9
:1005B800804303F59E33196822680A431A6010BD08
:1005C800237903F1804303F59E331A68216822EAF0
:1005D80001021A6010BD00BF30AD0008003C0140A8
:1005E80010B50446431E012B3DD904283BD00828EA
:1005F80039D0102837D0202835D0402833D080284B
:1006080031D0B0F5807F2ED0B0F5007F2BD0B0F57B
:10061800806F28D0B0F5006F25D0B0F5805F22D06C
:10062800B0F5005F1FD0B0F5804F1CD0B0F5004F7B
:1006380019D0B0F5803F16D0B0F5003F13D0B0F513
:10064800802F10D0B0F5002F0DD0B0F5801F0AD044
:10065800B0F5001F07D0B0F5800F04D008484FF45C
:10066800867100F061FC074A1368234052692242F0
:1006780002D01BB9002010BD002010BD012010BD04
:1006880030AD0008003C014010B50446C30DDB0541
:1006980003B920B9034840F2231100F045FC024B8E
:1006A8005C6110BD30AD0008003C01402DE9F0410F
:1006B80005460E46464B984223D003F58063984280
:1006C8001FD003F5806398421BD003F580639842DE
:1006D80017D003F58063984213D003F580639842DE
:1006E8000FD003F5806398420BD003F580639842DE
:1006F80007D003F58063984203D03648C12100F043
:1007080013FC33681BB93348C22100F00DFC337960
:10071800032B03D92F48C32100F006FCF379022BE1
:1007280003D92C48C42100F0FFFB00244CE001232E
:10073800A34032681A409A4245D12B684FEA4408D0
:10074800032707FA08F7FF433B402B602A683379F1
:1007580003FA08F313432B603379013BDBB2012B17
:1007680023D87379032B03D91A48D62100F0DCFB70
:10077800AB681F40AF60AA68737903FA08F31343A4
:10078800AB60B379012B03D91248DD2100F0CCFB13
:100798006A68A1B201238B4022EA03036B606A688E
:1007A800B3798B409BB213436B60EA68A1B24900EE
:1007B80003238B4022EA0303EB60EA68F37903FA28
:1007C80008F31343EB6001340F2CB0D9BDE8F08176
:1007D8000000024064AD000870B505460C46164698
:1007E800364B984224D003F58063984220D003F515
:1007F800806398421CD003F58063984218D003F5B3
:100808008063984214D003F58063984210D003F5B2
:10081800806398420CD003F58063984208D003F5B2
:100828008063984204D026484FF4077100F07CFB9F
:100838000F2C04D9224840F21D2100F075FB3EB36D
:10084800092E25D026B3012E22D0022E20D0032E29
:100858001ED0042E1CD0052E1AD0092E18D0062E14
:1008680016D0092E14D0072E12D0082E10D0092E1B
:100878000ED00A2E0CD00B2E0AD00C2E08D00D2E1E
:1008880006D00F2E04D00E4840F21E2100F04CFB7B
:1008980004F007039B009E40E108083155F8212029
:1008A8000F2000FA03F322EA030345F8213055F834
:1008B80021301E4345F8216070BD00BF0000024092
:1008C80064AD000810B4294B9B6803F00C03042B9B
:1008D80005D0082B06D053BB254B036029E0254BD8
:1008E800036026E0214B5A685B6803F03F0312F46B
:1008F800800F09D01F4AB2FBF3F21C4B5B68C3F3AD
:10090800881303FB02F208E0194AB2FBF3F3174A13
:100918005168C1F3881101FB03F2144B5B68C3F300
:10092800014301335B00B2FBF3F3036001E0104BBA
:1009380003600E4A9368C3F303130F49CC5CE4B217
:100948000368E34043609468C4F382240C5DE4B216
:1009580023FA04F484609268C2F342328A5CD2B209
:10096800D340C3605DF8044B704700BF00380240B5
:100978000024F40040787D010400002038B50446C6
:100988000D460E4B034003B920B90D4840F24941CA
:1009980000F0CAFA012D04D9094840F24B4100F091
:1009A800C3FA25B1074B1A6B14431C6338BD054ABB
:1009B800136B23EA0404146338BD00BF00EE9B8167
:1009C80098AD00080038024038B504460D460E4B75
:1009D800034003B920B90D4840F2DE4100F0A4FA03
:1009E800012D04D9094840F2DF4100F09DFA25B1F4
:1009F800074B5A6C14435C6438BD054A536C23EAB0
:100A08000404546438BD00BFCCA0F8FF98AD0008BA
:100A18000038024038B504460D460E4B034003B972
:100A280020B90D4840F2055100F07EFA012D04D995
:100A3800094840F2065100F077FA25B1074B1A69C8
:100A480014431C6138BD054A136923EA0404146180
:100A580038BD00BF00EE9FDD98AD000800380240A9
:100A680038B505460C46082803D90F48892100F0F7
:100A78005BFA0F2C03D90C488A2100F055FA04F0D0
:100A8800030292000F209040A108084B023153F84E
:100A9800214024EA000043F8210053F82100954042
:100AA800054343F8215038BDC8AD0008003801405F
:100AB80010B50446012803D903489B2100F034FAF5
:100AC800024B1C6010BD00BFC8AD0008DC00274207
:100AD800FEE700BF08B50D4B1B6813B90C4A0B4B5A
:100AE8001A600A4B1A68C31C23F00303134409490C
:100AF8008B4206D905F0BCFA0C2303604FF0FF3097
:100B080008BD02490B60104608BD00BFB4080020AC
:100B180078A5002000FC012001230360014B0B6035
:100B2800704700BF140000200FB400B583B004ABB9
:100B380053F8042B01930848802105F0D9FC011EC5
:100B480003DD054800F042F80146084603B05DF8A9
:100B580004EB04B0704700BFBC080020F0B585B0B6
:100B680006460C46174B1B6883B9174B01930423A1
:100B780002930323039301AF012528463946ABBEF0
:100B88000546B5F1FF3F13D00E4B1D600D4B1B689A
:100B980001930296039401AE052528463146ABBE63
:100BA8000546B5F1FF3F06D0A54207D0601B07E018
:100BB8004FF0FF3004E04FF0FF3001E04FF0FF301E
:100BC80005B0F0BD3C090020FCAD000808B5FFF7F2
:100BD800C5FF08BD08B500F017F9024B024A9A6034
:100BE80008BD00BF00ED00E00000000808B500F0F7
:100BF8002DF908BDF8B504460D4617461E46264889
:100C0800FFF792FF25482168FFF78EFF24486168A7
:100C1800FFF78AFF2348A168FFF786FF2248E168AB
:100C2800FFF782FF21482169FFF77EFF20486169AD
:100C3800FFF77AFF1F48A169FFF776FF1E48E169B1
:100C4800FFF772FF1D48FFF76FFF1D482946FFF7A2
:100C58006BFF1C4CE16A1C48FFF766FF216B1B48C1
:100C6800FFF762FFE16B1A48FFF75EFF15F0800F90
:100C780003D018483946FFF757FF15F4004F03D043
:100C880015483146FFF750FF1448FFF74DFF144849
:100C98000699FFF749FFF8BD00AE000810AE00083E
:100CA80020AE000830AE000840AE000850AE000884
:100CB80060AE000870AE000880AE000890AE000874
:100CC8009CAE000800ED00E0ACAE0008BCAE000829
:100CD800CCAE0008DCAE0008ECAE0008FCAE0008A4
:100CE80004AF000838B583691B888B4230D10446AD
:100CF80003684568013B042B2CD8DFE803F0032B7D
:100D080024241B002868144905F0AEFA70B96B68F2
:100D180013B90123236016E0042B02D102232360B8
:100D280011E0082B02D1032323600CE04FF0FF33BE
:100D3800236008E02B68023B012B02D800230360E4
:100D480001E0AB680360A3690233A361012038BDE9
:100D5800002038BD002038BDFCAD000882B000235B
:100D680001930093254A136843F480331360234B9F
:100D78001B6803F400330093019B01330193009B2C
:100D88001BB9019BB3F5A06FF1D11C4B1B6813F481
:100D9800003F02D00123009301E000230093009B51
:100DA800012B29D1154B9A689A609A6842F400423F
:100DB8009A609A6842F4A0529A60114A5A601A6876
:100DC80042F080721A600D4B1B6813F0007FFAD056
:100DD80040F203720B4B1A60A3F580639A6822F005
:100DE80003029A609A6842F002029A60034B9B6879
:100DF80003F00C03082BF9D102B070470038024009
:100E0800193C4005003C024008B50D4B1A6842F0F9
:100E180001021A60002199601A6822F0847222F493
:100E280080321A60074A5A601A6822F480221A60CF
:100E3800D960FFF793FF4FF00062034B9A6008BD3B
:100E4800003802401030002400ED00E0234B9B687E
:100E580003F00C03042B07D0082B09D0002B2DD14D
:100E68001F4A204B1A602CE01F4A1E4B1A6028E0CC
:100E78001A4B5A685B6803F03F0312F4800F09D0DD
:100E8800194AB2FBF3F2154B5B68C3F3881303FBF3
:100E980002F208E0124AB2FBF3F3104A5168C1F3B8
:100EA800881101FB03F20D4B5B68C3F30143013367
:100EB8005B00B2FBF3F30B4A136002E0084A094BEC
:100EC8001A60064B9B68C3F30313084AD25CD2B27C
:100ED80004490B68D3400B60704700BF00380240DC
:100EE8000024F4002C00002040787D011C00002024
:100EF80008B505F079F804F08DF800F01BF804F057
:100F08006BFA08B104F0B2F8024B186804F0B6F8AE
:100F1800F5E700BF40090020024A13680133136057
:100F2800704700BF40090020FEE700BF00230360B0
:100F3800704700BF70B5154C20460021202205F0EF
:100F480045F90423A377124B63604FF2DA63A38158
:100F5800104BA3614FF2CC63A3830F4B23616FF057
:100F68007F43636101F0F4FE054604F11801A28B8A
:100F780001F058FA06462846214601F0E5FA2560B0
:100F88002846064901F0E2FA304670BD3C58002078
:100F980048AF0008C0A8000AC0A80001350F000823
:100FA800704700BFFEE700BFFEE700BFFEE700BFD7
:100FB800FEE700BF704700BF704700BF704700BF23
:100FC80008B5FFF7A9FF08BD08B50820FFF708FB1B
:100FD80028B1012005F03CF80820FFF755FB08BDB3
:100FE8002DE9F04385B0074688461546012024219F
:100FF800002201F031F840B30646D7F8049044685F
:1010080084F800806570002525716571A571E5710A
:101018004068083079681C2205F062F8A570E57010
:101028002046718900F0F2F86080D9F80C3004AAE3
:1010380042F8043D00950123019330462946FF23D9
:1010480000F048FA304600F0D7FF05B0BDE8F0835D
:101058002DE9F04385B005460F464668337803F01E
:101068000F039B001FFA83F85B429CB221B200F089
:1010780085FF00287FD12B89032B7CD96B681B78CF
:10108800082B74D1414B186800F0F003E02B02D014
:101098004FF0010901E04FF00009394600F036FA37
:1010A80008B14FF00009B9F1000F03D1284600F04C
:1010B800A3FF67E02B89072B5DD9284600F0ACF821
:1010C80018B1284600F098FF5CE02846222100F07D
:1010D80055FFF8B12846414600F050FF00284ED190
:1010E80002202989002200F0B7FF8146002846D057
:1010F800294601F095F8002841D1D9F804604846FE
:1011080021B200F03BFF002839D1284600F074FFD7
:101118004D4605E028466FF0210100F02FFF70BB17
:101128006A681A4B1B68F360194B1B68336100230C
:10113800137053884FF6F6718B4202D909335380E6
:1011480001E008335380FF2333720023B372F37234
:101158002846414600F012FF48B9002200920123B8
:101168000193029728460949FF2300F059F92846B8
:1011780000F042FF06E0284600F03EFF02E0284665
:1011880000F03AFF05B0BDE8F08300BF64580020C6
:101198005C58002008B50A460321FFF721FF08BD67
:1011A80008B50A460B21FFF71BFF08BD10B483B032
:1011B8000023ADF8063010F0010406D0994204DD92
:1011C80003788DF8073001390130002303E00288E5
:1011D8001344023902300129F9DC002902DD0278C2
:1011E8008DF80620BDF80600034498B200EB1343BF
:1011F8009AB202EB134024B103029BB2C0F307205A
:10120800184380B203B05DF8044B704708B5FFF788
:10121800CDFFC04380B208BD70B5054600263446F0
:1012280014E068686989FFF7C1FF204484B204EBC1
:1012380010446B8913F0010F07D0C6F10106F6B20E
:1012480023029BB2C4F307241C432D68002DE8D168
:1012580026B123029BB2C4F307241C43E04380B2A7
:1012680070BD00BF10B40F4B1B680DE093F8292028
:1012780012F0010F07D004685A68996862400A4260
:1012880001D118460BE01B68002BEFD1064B1868FC
:1012980028B190F8293013F0010F00D100205DF833
:1012A800044B704780800020848000202DE9F041A5
:1012B8000746D0F8048098F800301A09042A02D0AA
:1012C80000F09AFE9FE00E4603F00F039C00B8F86A
:1012D800020000F001FC01467B89A34202D33B894E
:1012E800834203D2384600F087FE8CE0384600F08F
:1012F8004BFFD8F81020454B1A60D8F80C20444B07
:101308001A603446012594F8293013F0010F0CD0E7
:1013180014F1040F09D063683BB13C4A106883425A
:101328000ED0214600F0F2F850B91DB1394B1C68B7
:10133800002500E02468B44200D12468002CE2D1E2
:10134800334B1868314600F0E1F828B9304B1B6878
:1013580003F0F003E02B03D1384600F04DFE52E0D5
:101368001CB9384600F048FE4DE0B8F8063023F0C6
:10137800C0039BB23BB1384600F030FA074600285C
:1013880041D0D0F80480244B1E60244BC3F8008061
:101398003846314600F0D8FF60BB98F80930062B74
:1013A80009D0112B02D0012B0FD109E03846314664
:1013B80003F0BEF81EE03846314602F0DDFA19E0C7
:1013C80038463146FFF744FE14E0104B18683146A2
:1013D80000F09CF858B90D4B1B6803F0F003E02BA4
:1013E80005D0C7F8048038460221FFF7D3FE3846F7
:1013F80000F002FE0023084A1360084A1360044AFA
:101408001360024A13600020BDE8F0816458002090
:101418005C58002080800020605800206858002018
:101428002DE9F04383B005460C9EAAB38946984639
:101438001746142100F0A2FD002843D16C6884F8F7
:1014480008809DF82C3063723B6823614523237024
:101458009DF828306370288900F038FB60800023ED
:10146800A371E371DFF86880B8F8000000F02EFB84
:10147800A080B8F800300133A8F80030B9F1000FA7
:1014880002D0D9F8003013B97368E36000E0E36074
:101498000023A372E37204E043681B6902AF47F8B4
:1014A800043D338C43B12A89934205D228463146FC
:1014B8003A4600F04DFA06E07369304629463A4646
:1014C800984700E0FE2040B203B0BDE8F08300BFBB
:1014D80044090020F0B585B007460E4614461D465F
:1014E8001046FFF7BFFE68B19DF8282000929DF8CE
:1014F8002C20019202903846314622462B46FFF7AF
:101508008FFF00E0FC2040B205B0F0BD0346421E4C
:1015180012F1030F13D891F8292002F0020202F009
:10152800FF009AB14A689A420BD089685A400A4229
:1015380009D1C9430B40994207D0002070470120C8
:10154800704700207047002070470120704700BF97
:1015580008B50346074A1268824203D10168054A62
:10156800116001E002680A600520194600F03CFCA1
:1015780008BD00BF480900202DE9F041074688460C
:10158800446863689A889AB91B684360606807F181
:101598000801142204F0A4FD20460121FFF700FEF3
:1015A800204600F017FE85B2204600F025FD00E039
:1015B80000257C680AE063681E68204600F00AFE81
:1015C800284485B2204600F017FD3446002CF2D19D
:1015D80038464146FFF7BCFF034A13885B1B13805C
:1015E8002846BDE8F08100BF4C0900202DE9F041F4
:1015F800054688460026184B1B68002421462046CD
:101608001DE0EA685F69974209D19A69D5F810E048
:10161800724504D1B3F80CE0AA8896450AD0013483
:1016280028B193F81FE0C27F964502D902E0184618
:1016380000E018461A6802B90B4619461346002BF3
:10164800DFD110B1FFF798FF0644464501DA012CB7
:10165800D1DC3046BDE8F0814809002008B50146D4
:10166800062000F0C1FB08BD10B50446406908B16A
:1016780000F0C2FC2046FFF7F1FF10BDF8B50746A1
:101688000E464C68608800F027FA227802F00F02B4
:10169800C2EB82329300184485B2E08800F01CFA4D
:1016A800C0F30C00C100706800240470447084709A
:1016B800C470818001EB050E1FFA8EFEA0F806E0CB
:1016C8007D684FF0010C1CE06B689A8891420BD240
:1016D80005603CB1E28891423FD39B889E453CD847
:1016E800266010E07E600EE0914236D0DD88A94287
:1016F80033D324B1E488A24201D04FF0000C1D6816
:101708001C46002DE0D155B92CB12660E2888388AB
:101718009A4202D103E07E6001E04FF0000CBB7FEB
:1017280013F0010F25D0BCF1000F14D07B685B6863
:101738009B885BB9026806E05368C1889A88914221
:1017480007D11A681846002AF6D104E04FF0000CB9
:1017580001E04FF0000C6046F8BD304600F03AFD5D
:10176800054A1388181A1080304600F045FC0020FE
:10177800F8BD0020F8BD00BF4C09002008B50620C0
:1017880000F022FB08BD00BF70B505460E460520D7
:1017980000F01AFB044650B928463146FFF726FFE9
:1017A800B04203DB052000F00FFB044694B120464D
:1017B8000021202204F00AFD0323E377064B1A6870
:1017C80022601C6004F108002946142204F088FCF9
:1017D800204670BD002070BD480900202DE9F04763
:1017E800804645682B7803F00F03052B40F0A38053
:1017F800E88800F071F9C0F30C004FEAC00A688865
:1018080000F06AF92B7803F00F03C3EB83339F00D2
:10181800384487B2404600F0DDFC81464A4B1B88BD
:1018280003440A2B0BDD28464946FFF7DFFE002854
:1018380000F08180444B1B884B440A2B7BDC434BD4
:101848001C6800260DE06269EB689A4207D1A2691C
:101858002B699A4203D1A289AB889A4203D02646C3
:101868002468002CEFD134B928464946FFF78CFF8D
:10187800044690B95FE0E88800F02EF9C0F30C0048
:1018880058B9E08900F028F9C0F30C0028B104F138
:1018980008002946142204F023FC2B4A1388994493
:1018A800A2F80090EB8803F020039BB22BB9A37F2A
:1018B80043F00103A3775744A78320464146FFF727
:1018C800DDFE00283DD0A38B1433A38363685F68D3
:1018D8003D68384604F10801142204F001FCA08B8D
:1018E80000F0F4F878800023BB71FB71BB72FB72C7
:1018F80038461421FFF78AFC7881D4F804800AE07E
:101908006F6828466FF0130100F038FB40462946FF
:1019180000F070FC3D68002DF2D120463146FFF7FB
:1019280017FE404600F056FC074A1388181A108024
:101938004046BDE8F087404600F05EFB0020BDE869
:10194800F0870020BDE8F0874C09002048090020F6
:101958002DE9F04F8DB005460A910B920C8C436827
:101968000993D88800F0B8F8C0F30C03049300F486
:10197800005083B20893B5F80890A9F114091FFA2A
:1019880089F9A4F114030793002B00DA0733C3F392
:10199800CF030693002414268AE0079B4B45B4BF67
:1019A80000230123049AC2F30C02089941EA020AAF
:1019B8000BB94AF4005A23B9069BDB009BB2059386
:1019C80001E0CDF8149002201421002200F044FB1D
:1019D8008046002872D040680999142204F080FBE0
:1019E800D8F804B06B6833446B606B899E1B6E81BA
:1019F800059E31E06C89B44228BF3446A4B20CB9C4
:101A08002D6829E0FFF7BAFE074620B9404600F0E6
:101A1800F3FAFF2053E06B680093019403202146FA
:101A280002223B4600F07AFA039038B93846FFF7AD
:101A380015FE404600F0E0FAFF2040E0284600F09E
:101A4800D3FB7D61204B3B614046039900F0D2FBFC
:101A5800361BB6B206B12D68002ECBD126465046AD
:101A680000F034F8ABF80600059F07F1140080B2C7
:101A780000F02CF8ABF8020000238BF80A308BF842
:101A88000B3058461421FFF7C1FBABF80A000A983F
:101A9800436941460B9A9847404600F0ADFAC7EBB8
:101AA80009091FFA89F9049B069A13449BB2049307
:101AB800B9F1000F7FF471AF002000E0FF2040B2C1
:101AC8000DB0BDE8F08F00BF71160008030A43EAA5
:101AD800002080B2704700BF08B5FFF7F7FF08BDC8
:101AE80000F47F431B0243EA006300F47F0243EAE9
:101AF800122343EA1060704708B5FFF7F1FF08BDED
:101B080010B4164B1B6801885A18904211D01479EA
:101B18007CB9134C2468A2420BD0124C246894421E
:101B280001D1104A10605A5A02805A5A1A44C11AEE
:101B3800518041885A1882420DD014795CB9094CF9
:101B48002468844201D1074C226004885C520188D1
:101B58001944D31A4B805DF8044B7047580900208C
:101B680054090020500900200A4B23F003030A4AB5
:101B780013604FF42051198000225A801A715A18A4
:101B8800064802600120107111805180044A1360D8
:101B9800704700BF6F5800205809002054090020E2
:101BA80050090020B0B108B503460B4A12689042AC
:101BB8000FD30A4A126890420BD20838002203F861
:101BC800042C074B1B68984201D2054B1860FFF79D
:101BD80097FF08BD704700BF58090020540900202E
:101BE8005009002003314FF6FC730B400B2B00D833
:101BF8000C23B3F5205F4DD8F0B4294A1468A042ED
:101C08004BD3284A1268904247D2A0F10801091B19
:101C180089B230F8085C6A1A083A92B293423BD803
:101C28003BD066193779C7B9655B0B4408339BB25B
:101C38001D4A1268B24202D1E2181B4E3260E21805
:101C480000261671E552518020F8083CE25AB2F598
:101C5800205F22D0144463801FE003F114059542ED
:101C68001BD80B4408339BB2E2180F4D2D68AA42CB
:101C780001D20D4D2A600025157130F8085CE55237
:101C8800518020F8083CE25AB2F5205F05D0144490
:101C9800638002E0002070470020F0BC704700BF5E
:101CA80058090020540900205009002000284ED06F
:101CB80030B4034603334FF6FC751D400B2D00D896
:101CC8000C25B5F5205F44D8234B1C68234B1B68B3
:101CD8001B1B9BB235E0E0180179002930D1E25A8C
:101CE800D21A083A2946AA422AD314318A4212D370
:101CF8005A19083292B2A11800250D710588A5520B
:101D08004B80028001230371A35AB3F5205F04D0EE
:101D180023445A8001E001230371104B1B68984249
:101D28000CD103E00C4A12681B8813441A791AB1C3
:101D38000B4A12689342F5D1084A1360083009E04B
:101D48000388C5F520518B42C5DB002002E0002046
:101D58007047002030BC7047580900205009002007
:101D680054090020002301E001339BB2092BFBD961
:101D780030B4114921F00301002518E02A46002358
:101D88000E4840F825300BE00C4850F822400C6013
:101D980040F822100A4830F81200014401339BB27F
:101DA800084830F812009842EED80135ADB2092D36
:101DB800E4D930BC704700BF5F090020C05600203E
:101DC80070AF00085CAF0008092809D8054B53F824
:101DD80020301BB11968034A42F820101846704792
:101DE80000207047C05600200B4629B1034A52F81C
:101DF8002010196042F82030704700BFC0560020FC
:101E080070B504460D4619B30A6843689A421FD054
:101E1800124B186809E0026863689A4204D1C668E0
:101E280000F0EEFE304600E0C0680028F3D10C4B0D
:101E38001B680BE04BB11A683AB161688A4204D159
:101E48000DB12A6800E000221A60DB68002BF1D18E
:101E58000DB12B6800E00023636070BD8C8000200A
:101E68009480002009B10B6800E00023C36070472C
:101E780009B10B6800E000238360704770B5044621
:101E880016461D46FFF7BCFF20463146FFF7F0FF18
:101E980020462946FFF7E6FF70BD00BFF8B50446A7
:101EA800002545608560C56080F82950069DC5619C
:101EB8000A4E35786F1C377080F82C50089D0561E4
:101EC800FFF7DCFF2046079B984728B9044B1A68A0
:101ED80022601C602046F8BD0020F8BDE8560020AE
:101EE80080800020014B1860704700BF848000206C
:101EF80008B590F8293013F0010F0DD143F0010314
:101F080080F8293013F0100F06D013F0200F03D0FB
:101F18000146043102F0F6FD08BD00BF70B4039D10
:101F2800032825D8DFE800F002080406362004E07C
:101F38000E2002E0002000E02220033020F00304FD
:101F48000C44BDF81060B44214DC00241C6025B1B8
:101F580020F003002844586001E000205860022067
:101F68005873198159811A730122DA81184602E0DF
:101F7800002000E0002070BC704700BF10B461B3BF
:101F88000B4660B3002905DA494289B242898A4280
:101F980001D226E089B2027B44680AB1032A08D13B
:101FA800E21A426000F110018A420DD24460012019
:101FB8001EE0013A92B2012A15D8002B15DA42899F
:101FC8008A4214D3E41A44609BB242891A4442817B
:101FD80002891344038100200AE0002008E0002061
:101FE80006E0012004E0012002E0012000E00120D9
:101FF8005DF8044B704700BF60B338B50146002454
:1020080024E0CB89013B9BB2CB81F3B90D680B7BF4
:102018004A7B12F0020F03D00B690846984710E07C
:10202800032B03D10920FFF7DFFE0AE0013B9BB237
:10203800012B03D80820FFF7D7FE02E00846FFF778
:10204800B1FD0134E4B2294600E000210029D8D1CD
:10205800204638BD002070472DE9F04188461646D5
:10206800032800F28180DFE800F002080406362722
:1020780004E00E2702E0002700E02227032E76D88E
:10208800DFE806F0435E5E020920FFF79DFE054685
:1020980000286FD0067300230360C319133323F09D
:1020A80003034360A0F80880FC1C24F00304C4F573
:1020B800FA744445A8BF4446A3B243810122C281B1
:1020C800C3EB080407461DE00920FFF77DFE28B989
:1020D8002846FFF791FF0020BDE8F0810673002233
:1020E800427302603860A2B20281B2F5FA7F28BF5B
:1020F8004FF4FA72428100F1100141600121C1815F
:10210800A41A0746002CDFDC27E007F1130020F0B3
:10211800030008F1030323F00303184480B2FFF718
:10212800C5FD054648B30744133727F00307476042
:10213800A0F80880A0F80A800023036006730CE06A
:102148000820FFF741FE0546D0B100234360A0F800
:102158000880A0F80A80036006730123EB8100233E
:102168006B732846BDE8F0810020BDE8F0810020AF
:10217800BDE8F0810020BDE8F0810020BDE8F081D5
:102188000020BDE8F08100BF38B504460D4602893D
:102198008A421ED98A1A05E0691A8DB22389134426
:1021A800238124686189A942F6D3237B4BB9A942CC
:1021B80007D063681B1B5919204689B2FFF712FD27
:1021C800044665812581206808B1FFF715FF0023C3
:1021D800236038BD0346002002E00130C0B21B680E
:1021E800002BFAD1704700BF10B1C3890133C381F6
:1021F800704700BF98B1034631B970470C891A89F6
:1022080022441A81034600E010B418680028F5D16A
:1022180008891A8902441A8119605DF8044B7047CD
:10222800002844D02DE9F0410D460746002941D049
:1022380002890B899A423FD34FF0000846467B89B2
:10224800991B6C89C8EB0402914201DB94B201E04E
:102258009B1B9CB27868696830444144224603F06D
:102268003FFF2644B6B244441FFA84F86B894345BD
:1022780002D82D684FF000087B89B34205D13F682A
:1022880017B9DDB9002600E000262DB16A892B892F
:102298009A4201D12B689BB92FB17A893B899A421E
:1022A80001D13B6873B9002DC9D100200BE0F220A1
:1022B80040B27047F22006E0F22004E0F22002E08B
:1022C800FA2000E0FA2040B2BDE8F08180B32DE9A1
:1022D800F84388469146054661B370B381B3002739
:1022E8003E461DE02BB16989994202D85B1A9BB220
:1022F80015E06C89E41AA4B24C4500D94C466968CB
:1023080008EB06001944224603F0EAFE2744BFB250
:102318002644B6B2C4EB09041FFA84F900232D68D9
:10232800B9F1000F01D0002DDCD13846BDE8F883A3
:10233800002070470020BDE8F8830020BDE8F8833E
:102348000020BDE8F88300BF2DE9F04180464368CE
:102358005F7A184B1C6800252E4624E0237C9F4298
:102368001FD12CB123681BB1134A1268934218D1AC
:10237800D4F814C0BCF1000F13D0A069214642461E
:102388000E4BE04768B14EB1E368F360094B1A6839
:10239800E2601C6001254FF0000802E001254FF0C3
:1023A80000082646E4680DB9002CD7D12846BDE8B8
:1023B800F08100BFEC560020645800205C580020D3
:1023C80010B40024154A1388591C11804FF6FF7267
:1023D800934203D14FF44042104B1A80002014E07E
:1023E8000F4B53F820301B680BE0598B0B4A1288AF
:1023F800914205D10134A4B2B4F5804FE2D309E08B
:10240800DB68002BF1D10130C0B20328E8D9034BB7
:10241800188800E000205DF8044B70473400002065
:1024280084AF000870B50646037E53BB0C461AB944
:10243800FFF7C6FF024630B3002513E0184B53F8E8
:1024480025301B680BE0598B914207D1EBB1196815
:10245800E9B1F4B12068F0B181421ED0DB68002BED
:10246800F1D10135032DE9DD14B1236803B13360DF
:1024780072830C4B1A68F2601E6002F021F800208B
:102488000CE0FA200AE0FE2008E0F82006E0F82038
:1024980004E0F82002E0F82000E0F82040B270BD27
:1024A80084AF00089C80002070B4856A848D2A1946
:1024B800016BC38E40F2B456B34200D933460B4485
:1024C800D31A002B02DBC485501A09E06B1A002BC3
:1024D80003DD0022C285104602E0491BC1850020A9
:1024E80070BC704710B50446838D194489B2818544
:1024F80040F66833994200D983852046FFF7D4FF18
:1025080040F2D923984206DDA37F43F00203A37764
:10251800204601F0AFFD10BD50B110B5044640682B
:1025280008B1FFF769FD04202146FFF75DFC10BDE7
:10253800704700BF10B503E00468FFF7EDFF2046C1
:102548000028F9D110BD00BF01617047C0F888109C
:10255800704700BF037ED3B10A2B18D0012B16D0C9
:1025680010B50446406F18B1FFF746FD00236367B6
:102578004FF6FF73A386E06EFFF7DCFF206FFFF7CF
:10258800D9FF0023E3662367A4F86A3010BD7047BB
:102598002DE9F04182B0A84A136801331360A74AB5
:1025A800137801331370A64B1C6800261CE194F8BD
:1025B8002120A24B1B789A4201D1E46814E184F8E7
:1025C8002130237E022B03D194F84620062A54D0CA
:1025D80094F846100C2952D094F89120BAB194F886
:1025E80090300133DBB284F89030511E9548415C3D
:1025F8008B4246D3002384F89030062A02D8013251
:1026080084F89120204601F0DDFE00253EE0A28EF0
:1026180012F4004F01D10132A286226F9AB3B4F9A5
:102628003400B4F9442090422FDB022B0AD0B4F9CD
:102638004020B4F9423003EBE203834A525C9340F2
:10264800A4F844300023A386B4F86020B4F84C30D2
:10265800934228BF13465B08A4F84E30E28EB3EBD2
:10266800420F02DA5200A4F84E20E38EA4F84C3050
:10267800204601F01BFE002508E0012506E00125A3
:1026880004E0002502E0002500E00025237E062B5B
:102698000BD1A27F12F0100F07D0616A664A126848
:1026A800521A282A01D90135EDB2227A12F0080F00
:1026B8002CD0042B01D0072B2AD1626A5E4B1B68F1
:1026C8009A1AD4F88C0000F5242303F6B8435F491E
:1026D800A1FB0313B2EB531F03D90135EDB2012758
:1026E80019E094F892105A4B03FB01035749A1FBD8
:1026F8000313B2EB531F0DD9204601F045FE94F8A1
:102708009230013384F89230002704E0002702E079
:10271800002700E00027237E032B07D1616A464A81
:102728001268521A282A01D90135EDB2092B07D1AE
:10273800626A414B1B689B1AF02B01D90135EDB237
:1027480065B32046FFF706FF16B1E368F36002E0C1
:10275800E2683B4B1A604FB1206DA16A638B00930E
:10276800A38B01932246231D01F062FDD4F8885003
:10277800D4F81080E76802202146FFF735FB0022D5
:10278800344B1A701DB140466FF00901A847314B10
:102798001B78002B7FF407AF3C4625E0E568E37F14
:1027A8000133DBB2E37794F82020934217D3002358
:1027B800E377284A1370D4F884301BB12069214686
:1027C800984700E00020234B1B78002B7FF4EBAEEA
:1027D80040B9204601F04EFC26462C4604E0264629
:1027E8002C4601E026462C46002C7FF4E0AE1A4B1E
:1027F8001D681CE06A6A104B1B689B1AF02B01D8F5
:10280800002300E0012383B12846FFF7A3FE14B19B
:10281800EB68E36002E0EA680F4B1A60EE6802209A
:102828002946FFF7E1FA354601E02C46ED68002D10
:10283800E0D102B0BDE8F08190800020F156002080
:102848008C800020A4AF000894AF0008D34D62101C
:10285800F824010088800020A480002010B50C46D0
:1028680003688B4202D1DB6803600EE0124A1360F2
:1028780007E0DA68A24202D1E268DA6005E00E4BAE
:102888001A600D4B1B68002BF3D10023E360204630
:10289800FFF760FE237E0A2B0BD0012B09D0A37F04
:1028A80013F0010F05D043F00203A377204601F08F
:1028B800E1FB0023237610BD9880002030B583B05B
:1028C8000446002947D0037E042B01D0072B42D1B0
:1028D800636F23B9A28D40F668339A423BD0206DCE
:1028E800A16A638B0093A38B01932246231D01F0F9
:1028F8009FFC2046FFF72EFE4A4B1B68A34203D1DC
:10290800DA68484B1A600EE0474A136007E0DA6855
:10291800A24202D1E268DA6005E0434B1A60424BFA
:102928001B68002BF3D10023E36001223F4B1A7090
:10293800237E042B09D10A2323763D4B1A68E260D3
:102948001C6001F0BDFD002069E002202146FFF770
:102958004BFA002063E0237E072B58D8DFE803F00A
:102968000426313F4757574F638BC3B1314B1B6820
:10297800A34203D1DA682F4B1A600EE02A4A13608B
:1029880007E0DA68A24202D1E268DA6005E0264B85
:102998001A60254B1B68002BF3D10023E36002204B
:1029A8002146FFF721FA0024254632E02248214635
:1029B800FFF754FF03202146FFF716FA00242546A7
:1029C80027E018482146FFF749FF0122174B1A70E4
:1029D80002202146FFF708FA0024254619E0204680
:1029E80001F000FB0546A0B90523237611E0204637
:1029F80001F0F8FA054660B90523237609E0204678
:102A080001F0F0FA054620B90923237601E00025F4
:102A18002C461CB115B9204601F02CFB284640B2C3
:102A280003B030BD8C800020988000208880002072
:102A3800A48000209C8000209480002008B5037E9C
:102A4800012B03D0837F43F0100383770121FFF725
:102A580035FF08BD10B54AB1144608461189FFF77D
:102A680041FD2046FFF7C8FA002005E01BB90846DB
:102A7800FFF7E4FF00E0002040B210BDF8B50446BF
:102A8800456F6F7B00234367C66F26B100692146F7
:102A98002A46B04705E0002021462A460346FFF7AC
:102AA800D9FFB0B917F0200F1AD0A38D40F66832BD
:102AB800934201D00133A385E56F25B120692146F2
:102AC80000221346A84740B210F10A0F0AD1F62097
:102AD8000BE040B210F10A0F06D06567002004E051
:102AE800002002E0002000E0F62040B2F8BD00BF60
:102AF80070B5164A137801331370154B1C6822E021
:102B080094F82120114B1B789A421CD084F821306C
:102B1800A37F13F0010F09D043F00203A3772046E7
:102B280001F0A8FAA37F23F00303A377E668636F95
:102B380043B1084D00232B702046FFF79FFF2B78E9
:102B4800002BDAD13446002CDAD170BDF1560020C2
:102B58008C8000208880002008B5FFF7C9FF054A4F
:102B680013780133DBB2137013F0010F01D0FFF7B4
:102B78000FFD08BDF05600202DE9F04383B0044650
:102B8800037E0A2B08D11B482146FFF767FE022067
:102B98002146FFF729F92AE00E46D0F85090D0F8E0
:102BA8002880D0F88850076913482146FFF756FE59
:102BB8000122124B1A70206F08B1FFF7BBFCE06EC0
:102BC80008B1FFF7B7FC4EB1638B0093A38B019359
:102BD800484641462246231D01F02AFB0220214691
:102BE800FFF702F91DB138466FF00901A84703B095
:102BF800BDE8F083A48000208C800020888000201D
:102C080008B50121FFF7B8FF08BD00BF10B50A4B92
:102C18001B680024204608E0596A084A1268521ABC
:102C2800A24201D314461846DB68002BF4D108B140
:102C3800FFF7E6FF10BD00BFA480002090800020B1
:102C4800F8B50E4B1B687F2400252F460EE05A7EF0
:102C580082420AD8944208D35E6A09490968891BE6
:102C6800A94202D314460D461F46DB68002BEED15D
:102C780017B13846FFF7C4FFF8BD00BF8C800020AD
:102C880090800020034A1068034B1B6818441060AA
:102C9800704700BF300000209080002038B50546FE
:102CA8000220FFF791F8044668B9FFF7AFFF02204A
:102CB800FFF78AF8044630B92846FFF7C1FF02201B
:102CC800FFF782F80446002C38D0204600219422D1
:102CD80003F07CFA657641F21C13A4F866300025EF
:102CE800A4F8685040F66833A385E3856572FF232E
:102CF800A3724FF40673E3860623A4F84430A4F8BD
:102D08004050A4F842304FF6FF73A3860123A4F87D
:102D18004C30FFF7B7FFA0652065A064E065084B5D
:102D28001B686362074B1B7884F82130E577064BF4
:102D3800E367064BC4F88C3084F89250204638BDBF
:102D480090800020F15600205D2A000800DD6D000B
:102D580008B54020FFF7A2FF08BD00BF10B5044624
:102D68000846FEF77FFA30B1038C23B1283B9BB2AB
:102D78009C4228BF1C46204610BD00BF70B50546C2
:102D8800204B1B6803F114049889FEF7A5FEC0F3D5
:102D98000F30052834D91B4B1B689889FEF79CFE19
:102DA800000B0538800080B2002327E01946E25C5A
:102DB800012A03D022B3022A03D01AE001339BB2BE
:102DC8001CE0E2185278042A1AD11A1D824217DC34
:102DD80021448E78CA7842EA0622511E89B240F20E
:102DE800B356B14201D940F2B452EA8604339BB2D9
:102DF80004E021444A781AB113449BB28342D5D3E4
:102E080070BD00BFF456002000B583B01D4B1B7881
:102E180013F0040F2ED113F0020F1BD01A4B1A68AF
:102E2800816A531A002B1BDB838D0B44D31A002BAA
:102E380016DC164B1B6816490988588800901B88B1
:102E48000193144B18681144134A144B01F0F0F91C
:102E5800002012E013F0010F02D0114B1B684362EF
:102E68000B4B1B8843B1837F43F00203837701F048
:102E780001F902E0002000E0002040B203B05DF854
:102E880004FB00BF04570020F8560020F456002029
:102E9800FC56002000570020645800205C58002091
:102EA800908000203A4B1B7813F0040F67D130B59F
:102EB80083B0054613F0100F12D0364B1B68364A04
:102EC8001068364A1188364A12685C8800941B8854
:102ED80001931144334A344B01F0AAF9002054E01D
:102EE80013F0020F4ED0407EFFF7D8FE04460028AC
:102EF8004AD02C4B1B6803606B8B43832A4B1B689F
:102F08004360244B1A681388838303230376244B76
:102F18001B68591C81620163D189A0F86010D289AD
:102F2800A0F86220A0F84E10013B43652B690361AD
:102F38006B6943612B7A23F0730303721B4B1A6886
:102F4800C260186001F0BCFA0122194B1A702046C1
:102F5800FFF714FFE08E211DFFF700FFE0862046F3
:102F6800122100F0DDFF054628B120460021FFF7B9
:102F780003FE284609E0204601F07CF805E0002021
:102F880040B27047002000E0FF2040B203B030BDDF
:102F980004570020F456002000570020FC5600205B
:102FA800F8560020645800205C5800208C800020CF
:102FB80088800020F8B504468B4B1B7813F0100F5F
:102FC80000F08881B0F86000A26D8618616D874BAB
:102FD8001B68CD1A002D0FDB994204D1844909687A
:102FE800511A002908DB824909688A4226D1814A98
:102FF8001268D289904221D27E4A1268D18988B259
:10300800A4F86010B4F86250D28991B28D4201D20E
:10301800A4F862206365764B1B68A36540B994F8F1
:1030280091305BB984F89030012384F8913005E041
:1030380094F8913013B1002384F891306C4B1A68DE
:10304800A36CD11A002940DC0021A4F864106A4955
:10305800098849BBA06DB4F860100144B14225D17C
:10306800B4F93410002923DB9A4223D194F847207D
:10307800531CDBB29A4201D284F8473094F84730A7
:10308800032B0AD9B4F84C20E38E13449BB29A421E
:1030980012D2A4F84C30012311E0032B0ED12046A4
:1030A80001F044F901230AE0002308E0002306E0C8
:1030B800002304E0002302E0012300E00123002BA9
:1030C80040F0BF8084F84730BBE0012900F18780D9
:1030D800216D511A002900F38280A17F11F0040F9D
:1030E80006D021F00401A177B4F84E10A4F84C10D2
:1030F800002084F84600B4F84210B4F9405001EBBF
:10310800E501A4F84410D31A9BB2A4F86430B4F8CB
:1031180066100B44A4F8663084F84700A264237E46
:10312800032B39D9B4F84C20B4F84E309A4207D260
:10313800E38E13449BB29A422ED2A4F84C302BE073
:10314800E38E03FB03F393FBF2F313449BB29A421F
:1031580022D2A4F84C301FE0256F2B6823676868DB
:10316800FFF738F8B4F864305BB1EB689889FEF77C
:10317800B3FC10F0010F04D0B4F86430013BA4F89C
:1031880064306868FFF726F8B4F86830181AA4F8AD
:1031980068002846FFF7C0F9236FABB1DB685868B1
:1031A800FEF7AAFC0546236F1E89DB689889FEF79F
:1031B80093FC10F0030018BF0120304428440C4B46
:1031C8001B68C01A0028C7DD236F1BB94FF6FF73B1
:1031D800A38601E00023A3860023E37731E00023E0
:1031E800A4F864302DE000BF04570020F8560020F2
:1031F80000570020F4560020FC560020E56E2B688E
:10320800E3660BB9A4F86A306868FEF7E3FFB4F820
:1032180064305BB1EB689889FEF75EFC10F0010F33
:1032280004D0B4F86430013BA4F864306868FEF751
:10323800D1FFB4F86830181AA4F868002846FFF7D8
:103248006BF9E36EDBB1944A1568DB685868FEF7E2
:1032580053FC0646E36E1F89DB689889FEF73CFC41
:1032680010F0030018BF012038443044281A002801
:1032780005DB226D884B1B689B1A002BBEDDA36BF8
:1032880043B3E26B84490968521A002A22DA834A56
:103298001168CB1AB4F8402042F3CC01591A89B20C
:1032A80088B28B189BB2A4F8403010F4004F01D0BC
:1032B800494288B2B4F8422042F38D01411A0A44C7
:1032C80092B2A4F8422043F3CC031344A4F8443048
:1032D8000023A363724B1B88002B00F0CB80227E57
:1032E800062A00F2C780A16A6E4A12688D1A012D5B
:1032F8002BD41344CB1A0133002B26DC2B466A4A05
:1033080050684289AA4210DA0189491B89B204E04F
:103318009B1A018100224281006842899A42F7DBA8
:10332800594209B2FEF72AFE03E0694209B2FEF7E4
:1033380025FE5C4D2988A36AC81A5B4A1189014495
:103348001181D2682B60536006E0521A002A03DA12
:10335800A37F43F00203A377524B1968A26A8B1A22
:10336800002BC0F28380A38D1344CB1A0133002BAA
:103378007CDC914276D14C4B1D89DB689889FEF73D
:10338800ABFB10F0030018BF01202B189BB2444A76
:103398001380A28D934235D9434BDB689889FEF799
:1033A8009BFB10F0010F0DD03F4BDE68B589284616
:1033B800FEF792FB00F03E00FEF788FB25F47C55F3
:1033C8002843B081A28D384B1A81DB689889FEF7B3
:1033D80083FB00F0020083B21BB1334A1389013B1F
:1033E8001381314D68682989FEF7CEFE2E89EB6876
:1033F8009889FEF771FB10F0030018BF01203044D4
:10340800274B1880264B1988264B1A680A44A26253
:10341800A38D5B1AA3852046FFF746F8224B5B680D
:103428001A8922B1214A136000221F4B5A601E4B91
:10343800DB689889FEF750FB10F0010F04D01C4A96
:10344800137843F020031370A37F13F0010F05D006
:1034580003F0FE0343F00203A377F8BD43F0010332
:10346800A377F8BD204600F0E1FDF8BD204600F046
:10347800DDFDF8BD0B4B1B68A16A5A1A002A05DB53
:10348800A28D0A449B1A0133002B03DDA37F43F06E
:103498000203A377F8BD00BF0057002090800020EA
:1034A800FC560020F856002010570020085700202E
:1034B8000557002030B583B0A54B1B7813F0040FD7
:1034C80029D0037E022B06D1026DA24B1B689A42BB
:1034D8000ED0002311E0A04B1B68816A5A1A002AFB
:1034E80008DB828D0A449B1A002B05DD002304E0CB
:1034F800012302E0002300E00123002B00F00B82EF
:10350800964A137843F008031370837F23F001036E
:103518008377F5201EE213F0020F0AD0037E023BE8
:10352800DBB2012B05D9837F43F0020383770020A8
:1035380010E2837F13F0100F02D1894B1B6843629E
:103548000446002380F89230FFF718FC237E023BE4
:10355800072B00F2E281DFE813F008008200E9009F
:103568000D016201E9009601CA01794B1B7803F04D
:103578001203122B5AD1236FDB685868FEF7BCFA86
:103588000130744B1B68984250D1B4F86620013260
:10359800A4F86620704A1268511CA1622163A364D2
:1035A800704B1B68D989A4F86010DB89A4F86230D5
:1035B800013A626504232376E08EE118FFF7CEFB1B
:1035C800E08600EB80035B00A4F84E30B4F84C3082
:1035D800012B01D1400080B2A4F84C00B4F8683047
:1035E800013BA4F86830206F03682367FEF794FF57
:1035F800236F1BB94FF6FF73A38603E00023A3864E
:1036080084F84630D4F8803023B12069214600225E
:10361800984700E0002040B210F10A0F00F07F81C7
:10362800A37F43F00203A377002093E1484B1B7864
:1036380013F0100F00F075814A4B1B68454A10685B
:10364800494A1188444A12685C8800941B8801938F
:103658001144464A464B00F0EBFD00207AE13C4B12
:103668001B7813F0100F51D03A4B1868A36CC31A8B
:10367800012B3AD4236DC31A002B36DC042323769E
:10368800636923B1206921460022984700E0F220AF
:1036980048B140B210F10A0F00F045812046FFF70B
:1036A800AFFAF62056E1B4F84C502046FFF782FCFA
:1036B800B4F8643013B1013BA4F86430012D03D190
:1036C800E38E5B009BB200E0E38EA4F84C30234B02
:1036D8001B7813F0200F00F02881A37F43F002032A
:1036E800A37707232376002034E11E4B1B681E4A6C
:1036F8001188194A12685C8800941B880193114448
:103708001A4A1B4B00F094FD002023E113F0020F2E
:1037180000F00D81A36A013B0F4A1268934240F002
:103728000881204600F0DAFD002013E12046FFF76B
:1037380041FC0A4B1B7813F0200F00F0FC80A37F9C
:1037480043F00203A37707232376002002E100BF9A
:103758000457002000570020F85600200557002085
:1037680090800020F4560020FC5600206458002069
:103778005C5800202046FFF71DFC784B1B7813F09F
:10378800200F3CD0764B1B7813F0100F2FD0226DF2
:10379800744B1B689A422AD1A37F43F00203A37794
:1037A8002046FEF7D7FE704B1B68A34203D1DA68A8
:1037B8006D4B1A600EE06D4A136007E0DA68A242AA
:1037C80002D1E268DA6005E0684B1A60674B1B6853
:1037D800002BF3D10122664B1A700A232376654B1E
:1037E8001A68E2601C6000F06BFE0020B2E0A37F64
:1037F80043F00203A377082323760020AAE0584B5E
:103808001B7813F0100F00F09880226D554B1B6841
:103818009A4240F094800623237600209AE02046BE
:10382800FFF7C8FB4D4B1B7813F0200F00F0898081
:10383800A37F43F00203A3772046FEF78BFE4A4B93
:103848001B68A34203D1DA68474B1A600EE0474A67
:10385800136007E0DA68A24202D1E268DA6005E0A4
:10386800424B1A60414B1B68002BF3D10122404B9D
:103878001A700A2323763F4B1A68E2601C6000F036
:103888001FFE002066E02046FFF794FB344B1B78B0
:1038980013F0100F57D0226D324B1B689A4254D147
:1038A8002046FEF757FE304B1B68A34203D1DA6867
:1038B8002D4B1A600EE02D4A136007E0DA68A24229
:1038C80002D1E268DA6005E0284B1A60274B1B68D2
:1038D800002BF3D10122264B1A700A232376254B9D
:1038E8001A68E2601C6000F0EBFD002032E0204620
:1038F800FFF760FB1A4B1B7813F0100F27D0226DCF
:10390800184B1B689A4224D1144A137843F01003C9
:10391800137000201EE000201CE000201AE0F620B2
:1039280018E0002016E0F62014E0002012E0002045
:1039380010E000200EE000200CE000200AE000204B
:1039480008E0002006E0002004E0002002E000205B
:1039580000E0002040B203B030BD00BF0557002092
:1039680004570020005700208C80002098800020F9
:1039780088800020A4800020F0B583B004460D465E
:103988004368A24A1360197801F00F0103EB810321
:103998009F4A136089004942FEF7F0FA002840F078
:1039A800B9812389132B40F2B5819A4B18682946AF
:1039B800FDF7ACFD002840F0AD81964B1B6803F085
:1039C800F003E02B00F0A681914B1B689889FEF765
:1039D80083F8C0F30F30C0EB80308100204609B275
:1039E800FEF7CCFA002840F09581894D2E68308882
:1039F800FEF772F830802E687088FEF76DF87080D8
:103A08002E687068FEF778F87060834B18602E682F
:103A1800B068FEF771F8B060804B18602E68F089C6
:103A2800FEF75AF8F0812B689889FEF755F800F0F0
:103A38003F077B4B1F70228917F0030318BF012330
:103A48001344784A1380784B1868054600261CE012
:103A5800A98B6F4B1B681A88914214D16A8B5B88BB
:103A68009A4210D16A68714B1B689A420BD12A6836
:103A7800684B1B689A4206D14EB1EB68F360E86068
:103A8800694B1D6003E02E46ED68002DE0D1002D46
:103A980043D1674B1D681BE0A98B5D4B1B681A88D7
:103AA800914214D16A8B5B889A4210D16A685F4B45
:103AB8001B689A420BD12A68564B1B689A4206D15A
:103AC8002846FFF7A1F92046FEF796FA25E1ED68AA
:103AD800002DE1D1574B1E68304600210EE0428B85
:103AE8004B4B1B685B889A4206D10368494A1268A7
:103AF800934205D020B11BB10146C0680028EED121
:103B080058B121B1C368CB60C6604A4B1860FFF753
:103B1800C9F92046FEF770FAFFE0002D00F0DC80BE
:103B2800454B00221A60218919815C60384909686F
:103B3800D960424B1A60424B1A7017F0080F03D035
:103B4800637B43F0010363736B6F6BB12846FEF729
:103B580095FF10F10A0F00F0B1806B6F23B1314B64
:103B68001B88002B40F0AA80364B1D602846FFF7C3
:103B7800A1FC10F10A0F00F0A180314B1B7813F063
:103B8800080F0FD0D5F888301BB128696FF00A01EB
:103B9800984725482946FEF761FE02202946FEF788
:103BA80023F98BE013F0100F13D0AB7F13F0100F35
:103BB80006D1D5F888301BB128696FF00B019847FA
:103BC80019482946FEF74AFE02202946FEF70CF955
:103BD80074E0B5F8642052B1AB6F1BB1286929466F
:103BE800984700E0002040B210F10A0F66D0134B4E
:103BF8001A68002A3CD0AB7F13F0100F24D010466F
:103C0800FEF7FAF92846FEF7FBFF57E00C570020AD
:103C1800F456002064580020F85600200057002071
:103C280004570020FC5600208C8000205C5800209F
:103C3800A4800020948000201057002008570020FE
:103C480005570020A8800020EC6F24B12869294678
:103C58000023A04704E0002029460346FEF7FAFEA9
:103C680043B213F10A0F29D010B12D4B1B686B67B3
:103C78002C4B1B7813F0200F1AD06B6F23B15A7B93
:103C880042F020025A7313E0AB8D40F6683293423B
:103C980001D00133AB85EC6F2CB12869294600228D
:103CA8001346A04700E0002040B210F10A0F05D0EB
:103CB80000221D4B1A60284600F0DCF900231A4A3E
:103CC8001360174A1360194B586830B3FEF794F91C
:103CD8000022164B5A6020E0154B1B689889FDF7A7
:103CE800FBFE00F0040083B283B9114B1B68114A34
:103CF8001188114A1268588800901B8801930F4B4D
:103D0800186811440E4A0F4B00F092FA2046FEF74D
:103D180073F902E02046FEF76FF903B0F0BD00BF6B
:103D28000857002005570020A880002010570020C1
:103D3800F4560020FC560020F856002000570020BA
:103D4800645800205C5800202DE9F04781468846D9
:103D580016469A469DF8207017F0010500D00425F4
:103D680007F0020303F0FF0203B10C2215440420FC
:103D7800FEF72AF8044628B94046FEF73DF9002028
:103D8800BDE8F087877200230360C0F80480B8F8A4
:103D980008305B1B038140461421FEF7EFF828B179
:103DA8002046FEF7B9FB0020BDE8F08763685F682E
:103DB800E760B9F81A00FDF789FE3880E768B9F8B6
:103DC8001C00FDF783FE7880E7685046FDF788FE03
:103DD8007860E768C5F38705053546EA0535A8B272
:103DE800FDF774FEB881E36800229A74DA742046FD
:103DF800BDE8F0872DE9F04106460C4698460A448E
:103E080002F11401012089B20022FEF725F90746C4
:103E180028B34568708BFDF759FE2880B08BFDF7F5
:103E280055FE6880C5F80480B06AFDF759FEA860A1
:103E3800A0080530000300F4704040F01000FDF7C2
:103E480045FEA881F08DFDF741FEE88100232B7423
:103E58006B74AB74EB74B26AF38D134433633846F6
:103E6800BDE8F08170B582B005460C46C668886A20
:103E7800FDF736FEB060EE68E08DFDF727FEF081B5
:103E8800A26AE38D13442363EE68AB7A13F0010F43
:103E980009D040F2B450211DFEF760FF40F00170D8
:103EA800FDF71EFE7061B4F93430B3F1FF3F01D164
:103EB8000023A3860CB1236833B9201DFDF7D2F97E
:103EC800002828D043682360A36B3BB9134B1B68B9
:103ED800A363EB685868FDF70FFEE063EB686A6858
:103EE80051685B1A9BB25189C91A518169680A895C
:103EF800D31A0B816B68EA685A60EB6800221A745F
:103F08005A746868A37A627A00920622019221465E
:103F1800221DFDF7DFFA02B070BD00BF90800020BF
:103F2800B0F86830052B06D9837F63F07F03837769
:103F3800FF2040B2704770B582B00D4611F0020FF5
:103F480001D1002600E00126314606B10421B0F86F
:103F58006630002B42D0044600200246FEF77CF86B
:103F6800014628B9A37F63F07F03A377FF2036E0DB
:103F7800009620462A46E36DFFF7E6FE014628B97B
:103F8800A37F63F07F03A377FF2028E0E26E12B9D6
:103F9800E06604E01A461368002BFBD11160002389
:103FA800A4F86A3015F0030F07D0E36D0133E36519
:103FB800B4F86630013BA4F8663015F0010F03D061
:103FC800A37F43F02003A3774868FEF703F9B4F80A
:103FD80068301844A4F86800002000E0FF2040B2D0
:103FE80002B070BD70B50546C46E0CB917E01C462A
:103FF8002368002BFBD1E3689889FDF76DFD10F06D
:10400800070F0CD1E668B4890120FDF75FFD204356
:10401800B081AB7F43F02003AB77002003E0284654
:104028000121FFF77DFF40B270BD00BF30B583B0FE
:104038000446006DFDF754FD0346204600210A465C
:10404800FFF7D8FE90B10546A37F23F00303A377BB
:10405800A37A627A0092062201922146221DFDF778
:1040680039FA2846FDF7C8FF002000E0FE2040B2DC
:1040780003B030BD2DE9F8436C4B1B68834200F058
:10408800D1800546B0F84C80B0F86030984528BF1C
:104098009846C46E837F13F0020F0ED04CB1E368CC
:1040A8005868FDF729FDAB6CC01A238918444045B0
:1040B80003D92846FFF7BAFFB5E02F6F0FB99BE089
:1040C8001F463B68002BFBD196E0E3689889FDF713
:1040D80003FD2B6FA3B1AB7F13F0440F12D1EB6E2E
:1040E8002BB11A6882B91A89EB8E9A420ED2B5F8AA
:1040F80066306BB1B5F86830052B0BD901230AE09F
:10410800012308E0012306E0012304E0012302E083
:10411800012300E000231BB9AB7F13F0A00F77D079
:104128002368EB662B7E022B0DD0D4F80C90B9F8DF
:104138000C601020FDF7CAFC3043A9F80C00AB7FD7
:1041480023F00303AB7720462946FFF78BFEE3688D
:104158005868FDF7D1FC0646B4F80890E3689889DA
:10416800FDF7BAFC10F0030018BF012048443044A2
:104178002B6D1B1A002B00DA28652689E3689889BD
:10418800FDF7AAFC10F0030018BF0120C6422FD08B
:10419800002323602B6F13B92C6727462BE0E368B5
:1041A8005868FDF7A9FC0646FB685868FDF7A4FCAB
:1041B800301A002819DA05F1700901E0D9F80090E1
:1041C800D9F800305BB1DB685868FDF795FC064606
:1041D800E3685868FDF790FC301A0028EEDBD9F840
:1041E80000302360C9F8004005E03C60274602E043
:1041F8002046FEF791F9EC6E54B1E3685868FDF774
:104208007BFCAB6CC01A2389184440457FF65DAF30
:10421800EB6E0BB9A5F86A30AB7F03F07F03AB7781
:10422800002000E0002040B2BDE8F883A88000200C
:104238002DE9F04383B08146884617461E46012083
:1042480014210022FDF708FF68B305464468BDF84D
:104258002800FDF73BFC2080BDF82C00FDF736FC5C
:1042680060804846FDF73CFC60604046FDF738FC3E
:10427800A06045F21400FDF729FCA08100230B2261
:10428800A2736822E27323746374A374E3740093C3
:1042980006230193284639463246FF23FDF71AF9CB
:1042A8002846FDF7A9FE03B0BDE8F083026F12B9F6
:1042B80070471A4600E008B51368002BF9D1C36EA1
:1042C8001360036FC3660022026790F8463001331B
:1042D80080F846308263FFF7CDFE08BDF8B5066F5B
:1042E80016B307463368036700F16C0500E02D68D4
:1042F8002B685BB1DB685868FDF7FEFB0446F36882
:104308005868FDF7F9FB201A0028F0DB2B683360AA
:104318002E6033680BB9A7F86A3097F84630013336
:1043280087F846300023BB63F8BD00BF036F4BB36B
:10433800837F13F0040F25D110B50446FFF7CEFF95
:10434800B4F84C30B4F86020934203D95208A4F86A
:104358004E2002E05B08A4F84E30B4F84E20E38EFD
:10436800B2EB430F02DA5A00A4F84E20B4F84E20FC
:1043780003EB43031344A4F84C30A37F43F0040336
:10438800A37710BD704700BF30B583B00446006DF9
:104398000138FDF7A5FB0346204600210A46FFF732
:1043A80029FD60B10546A37A0022009206220192F7
:1043B8002146221DFDF78EF82846FDF71DFE03B0A5
:1043C80030BD00BF2DE9F04182B0056F05B9C56E5B
:1043D800002D3ED00446EB689889FDF77DFB10F070
:1043E800010F03D02B891BB1002202E0002200E05C
:1043F800012202F0FF08EB682046002182F001024A
:104408005B68FFF7F7FC064618B34768B8F1000F7A
:1044180008D0BD891120FDF759FB25F47C552843A8
:10442800B88109E0686803892A899B1A07F1140191
:1044380001229BB2FDF74AFFA37A002200920622CE
:10444800019230462146221DFDF744F83046FDF71B
:10445800D3FD02B0BDE8F081F8B505460F46164613
:104468000720FDF7B1FC002827D00446002303608D
:104478008760C6604560114B1A680AB91860F8BDB4
:104488005368AB4217D95D1B556002600B4B18602F
:10449800F8BD516863685B1A6360116811B14868B8
:1044A800834207D211B14868C31A4B60136823606E
:1044B8001460F8BD0A46002AEBD1F8BD2457002045
:1044C80008B5094B1B686BB9084B1B6813B9084B37
:1044D8001B683BB10122044B1A60FA2005490022EF
:1044E800FFF7BAFF08BD00BF205700208C800020CE
:1044F800A48000200145000808B5FEF72DFB084BF5
:104508001B6813B9074B1B682BB1FA200649002218
:10451800FFF7A2FF08BD0022044B1A6008BD00BFC8
:104528008C800020A480002001450008205700202E
:104538002DE9F04383B005468946D0F80480038905
:1045480098F8001001F00F018A1CB3EB820F04DB0E
:1045580089004942FDF712FD18B12846FDF74CFDC8
:1045680095E06C684B4B18684946FCF7CFFF074647
:104578002088FDF7B1FA06466088FDF7ADFA464B8C
:10458800D3F800E0744600210A4642E0638A834279
:104598001CD117B99CB123688BB1D4F800C03D4B2E
:1045A8001B689C450BD09FB14CB1BCF1000F06D0E5
:1045B8008CEA030CD9F808301CEA030F0AD159B960
:1045C800237C13F0040F09D0012309E0002307E03E
:1045D800002305E0002303E0012301E02146012335
:1045E800ABB1A38AB34212D114F1040F07D06368A8
:1045F8002BB1DFF8A8C0DCF800C0634507D152B181
:10460800E368D360C4F80CE0234B1C6003E0224647
:10461800E468002CBAD104B90C462CB9D9F80420A6
:104628001C4B1B689A422FD128466FF00701FDF7F3
:10463800A5FC18B12846FDF7DFFC28E064B1A7699E
:1046480037B1E069009621462A46144BB8471EE068
:104658002846FDF7D1FC1AE097B90E4B1B6803F00A
:10466800F003E02B0CD098F8001001F00F01023194
:1046780028468900FDF782FC28460321FCF78AFDBD
:104688002846FDF7B9FC02E02846FDF7B5FC03B063
:10469800BDE8F08364580020AC8000205C580020FE
:1046A80010B5044600EB80039B00094AD05838B186
:1046B800FDF7A2FC04EB84039B000021044AD150BF
:1046C80004EB8404A400034B1C440023A37010BD16
:1046D8002C5700203C5700202DE9F84F4FF0000ED2
:1046E8004FF00A0CF04673466746E146E3467646C5
:1046F8008A464AE01A4603EB8304A400434921444E
:104708008C7879B20A2902D10CB9DFB23BE0002CCF
:1047180039D050B102EB8205AD003D490D446968BE
:1047280005688D4201D1D8B26DE0012C1ED102EB93
:1047380082018900364C615861B102EB8202920015
:1047480004F110010A44D27872451CD35FFA83FC45
:10475800964618E002EB820292002C490A44D2786D
:10476800B24210D35FFA83FB16460CE0012C0AD93B
:1047780002EB8202920025490A44D278424502D3CC
:104788005FFA83F990460133DBB2092BB2D91AF0EC
:10479800020F33D17BB20A2B02D11AF0010F2FD0AE
:1047A80004467BB2092B01DCFFB216E04FFA89F30D
:1047B800092B02DC5FFA89F70CE04FFA8BF3092B1F
:1047C80002DC5FFA8BF705E04FFA8CF3092B19DC52
:1047D8005FFA8CF73846FFF763FF34B1226807EBBE
:1047E80087039B000A490B445A6007EB8702920033
:1047F800064B13440022DA70F8B204E0FF2002E00E
:10480800FF2000E0FF2040B2BDE8F88F3C570020B1
:104818002C570020F8B506460D4617464C6820462A
:104828001946062201F05CFCA01D3946062201F05B
:1048380057FC0823237300236373B3693046294662
:104848009847F8BD002942D02DE9F8430F4609687A
:1048580000293FD01C461646054608462946FCF75F
:1048680055FEC8BB3B6803F0F003E02B36D0384652
:104878002146FFF731FF041E32DBDFF87080A0000D
:104888000719BF0008EB070303F1100902229A7405
:104898009D6018460C303146062201F021FC0023A9
:1048A80089F8033058F80770E7B104EB84008000FA
:1048B8001C4648F800402846394605F1230233468D
:1048C800FFF7A8FF3846FDF797FB20460BE0F220DC
:1048D80040B27047F22006E0F22004E0F22002E045
:1048E800204600E0002040B2BDE8F8832C570020A5
:1048F8002DE9F84306460F469046994603202A219B
:104908000022FDF7A9FB002840D005464468BDF801
:104918002C00FDF7DBF8A08204F1160049460622B8
:1049280001F0DEFB04F120000999062201F0D8FB12
:1049380020464146062201F0D3FBA01D3946062237
:1049480001F0CEFB04F11C000899042201F0C8FB19
:1049580004F126000A99042201F0C2FB0022A27386
:104968000123E3730823237462740622A2740422C9
:10497800E274237306236373B36930462946984764
:1049880004462846FDF738FB204600E0FF2040B2E9
:10499800BDE8F88300287FD02DE9F04F85B00546A3
:1049A80014460E465389292B03D81046FDF724FBDD
:1049B8006FE05768FB89B3F5807F08D1BB7C062B75
:1049C80005D1FB7C042B02D13B8A082B03D020465F
:1049D800FDF712FB5DE007F11C0A03A8514604220B
:1049E80001F07EFB07F1260B02A85946042201F0CC
:1049F80077FB2B1D019309D06B6853B1029A934240
:104A080014BF4FF000084FF0010804E04FF0000811
:104A180001E04FF0000807F11609B8F1000F01D0C6
:104A2800012300E00223284603A94A46FFF70AFFAC
:104A3800BB8AB3F5807F29D1B8F1000F26D00220B8
:104A4800FDF744F8B88258465146042201F048FB65
:104A580050460199042201F043FB07F12000494622
:104A6800062201F03DFB38464946062201F038FB94
:104A780048463146062201F033FBB81D314606226E
:104A880001F02EFBAB692846214698472046FDF7E2
:104A9800B3FA05B0BDE8F08F704700BF10B5002429
:104AA8002AE0204604EB84029200154B13449B78BD
:104AB80003B3A30023449B00114A1A44D37801335B
:104AC800DBB2D370EF2B09D804EB840189000C4AC0
:104AD8000A449278012A04D1012B02D9FFF7E0FD9C
:104AE80008E0032A06D100EB80008000044B18443C
:104AF800022383700134E4B2092CD2D910BD00BF5F
:104B08003C57002000B585B0024600F1230304326B
:104B18000092064A01920291012203921946044A20
:104B2800FFF7E6FE05B05DF804FB00BFB4AF000870
:104B3800ACAF000870B505460E46144602EB82027B
:104B48009200124B13449B78022B13D104EB84027E
:104B580092000E4B1344DB78E32B0BD90C4911441C
:104B6800FFF7D0FF30B904EB84029200074B1344DF
:104B780003229A7004EB8404A4002846314605F108
:104B88002302044B2344FFF745FE70BD3C57002029
:104B980030570020385700202DE9F04106460D46D1
:104BA800174600F1230808683146FCF7AFFC0028D7
:104BB80074D12B6803F0F002E02A71D0002D71D077
:104BC800002B71D028460121FFF786FD041E6DDBFE
:104BD80004EB84029200374B13449B7833B904EBFF
:104BE80084029200334B134401229A7004EB84022E
:104BF8009200304B13449B78012B00D02FB93046DC
:104C08002946FFF77FFF0FB951E0FF2004EB84022C
:104C18009200284B13449B78012B0AD9264B1C7011
:104C28001446304639464246244B2344FFF7F2FDEA
:104C38003DE0012B3BD104E01A7B012A06D11B6819
:104C480000E03B46002BF7D1002200E001227AB1B8
:104C5800032019890022FDF7FFF9054660B139469E
:104C6800FDF7DEFA40B12846FDF7C6F9002503E056
:104C78003846FDF7B9FA3D4675B104EB84039B004D
:104C88000F4AD05808B1FDF7B7F904EB8404A40023
:104C98000B4B1D5100200AE0FF2008E0F22006E03F
:104CA800F22004E0F22002E0F22000E0204640B2C8
:104CB800BDE8F0813C5700202857002038570020D5
:104CC8002C57002070B582B005460E46144608469B
:104CD8000E21FDF753F9002877D120682946FCF703
:104CE80015FC002869D1236803F0F002E02A15D1E9
:104CF80001238DF8003000238DF801305E238DF8F4
:104D08000230637803F07F038DF80330A3788DF8C1
:104D18000430E3788DF805306B464FE06A68A9687F
:104D28005A400A420AD09BB24FF6A962934205D074
:104D380015F10C044BD0EB68002B4AD0274B1A789E
:104D480002EB82018900264B0B449B78012B28D962
:104D5800216802EB82039B00224803445B68994266
:104D680021D128463146FFF7E5FE33E053B203EB85
:104D7800830080001A490144897801290ED92168E5
:104D88000346184803445B68994207D1D2B2134BD3
:104D98001A7028463146FFF7CDFE1BE00132D2B229
:104DA80002E0002200E0002253B2092BDEDD284693
:104DB80021463246FFF7F0FE0CE00B4B2846314601
:104DC80005F12302FFF726FD04E0FE2002E0FC20A7
:104DD80000E0FC2040B202B070BD00BF28570020A0
:104DE8003C5700202C570020ACAF000870B5044693
:104DF80043890E2B3DD90E4640688589037813F008
:104E0800010F14D0012B09D1437883B983785E2B25
:104E18000DD1637B43F01003637308E01749062242
:104E280001F02CF918B9637B43F008036373082D6C
:104E380003D0B5F5C16F10D01BE096F8293013F0F8
:104E4800200F16D020466FF00D01FDF797F880B9B6
:104E580020463146FCF72AFA0EE096F8293013F07E
:104E6800200F06D0304606F123012246FFF792FDB7
:104E780002E02046FDF7C0F8002070BDACAF000886
:104E8800F0B585B001A800F0E7F9029F0320BDF84E
:104E980004100246FDF7E0F8064648B90CE06068E1
:104EA8007919628901F01CF963891D44246801E0BD
:104EB80004460025002CF2D1144B1B689A68012A7D
:104EC80002D91A68002306E0039AFBE74FF0004175
:104ED8001160D26801330D49096888689842F5D88D
:104EE80000238B6041F21403094AD35813F0800F52
:104EF80008D01346802141F214029950002141F252
:104F080008029950304605B0F0BD00BF089900204E
:104F18000080024070B50C46094B1B689E6800254E
:104F280007E070196168628901F0DAF863891D4445
:104F38002468002CF5D1A8B200F0AEF9002070BDAD
:104F4800F080002070B50546062380F8223002263E
:104F580080F8236080F82460032380F8253000243B
:104F680080F8264080F8274080F82840204605F140
:104F7800230100F049F940F2DC532B84322385F8F1
:104F880029300C480C49324600F06CFA0B480C49A1
:104F9800042200F0F1F907E0064800EB44104FF452
:104FA800400100F085FA0134012CF5DD00F0F2FA39
:104FB80070BD00BFF48000208C9900200C9900205F
:104FC8003481002038B50446FFF75AFF50B1054632
:104FD800236921469847044610B12846FDF70CF886
:104FE800204600E0FF2040B238BD00BF08B573225C
:104FF80080F82A20742280F82B20044A4261044A4F
:105008008261FFF79FFF002008BD00BFCD4C00085C
:105018001D4F000810B588B0FCF7A6FDFCF7A2FEEE
:105028000E4B07936FF07F43069303F52843C13374
:1050380005930B4C002300930A4B01930A4B0293F0
:10504800204607A906AA05ABFCF728FF2046FCF76F
:1050580049FF2046FCF74CFF08B010BDC0A8000A65
:10506800B0800020F54F0008F54D000808B502484B
:10507800FFF7A8FF08BD00BFB080002000B583B0CF
:105088000190019B0C4A12689B1AF92B04D9019ACA
:10509800094B1A60FDF760FD019B084A12689B1ACC
:1050A80041F28732934204D9019A044B1A60FFF700
:1050B800F5FC03B05DF804FBF4570020F857002016
:1050C80084B0019000230393019B039302E0039BA8
:1050D800013B0393039B002BF9D104B0704700BF39
:1050E80008B54FF000700121FBF794FC4FF00070F9
:1050F8000021FBF78FFC08BD0123036000234360F8
:105108008360C36003614FF4804242618361C3617D
:105118004FF40062026243628362C36203634363C3
:105128008363C36340220264202242648364C364AD
:10513800036543658365C3650366802242668366AB
:10514800C366036743678367C3674FF08062C0F82D
:1051580080204FF00072C0F88420C0F888304FF4E7
:105168000011C0F88C10C0F89030C0F89430C0F826
:105178009830C0F89C30C0F8A030C0F8A4204FF494
:105188008032C0F8A8204FF48002C0F8AC204FF459
:105198000052C0F8B020C0F8B430C0F8B83070473A
:1051A80010B50446012804D908484FF41971FBF7D3
:1051B800BBFE2CB1064A136843F00803136010BD08
:1051C800034A136823F00803136010BDBCAF00083E
:1051D8000080024010B50446012804D908484FF45D
:1051E8001F71FBF7A1FE2CB1064A136843F00403B4
:1051F800136010BD034A136823F00403136010BD45
:10520800BCAF00080080024038B50C46054650B1D6
:10521800082808D0102806D0182804D00B4840F2D7
:105228002B31FBF781FE6279237943EA0223084A8E
:10523800AB50E278A3781B0443EA0263627843EA3E
:10524800022322781343034AAB5038BDBCAF000891
:105258004080024044800240002303604360836032
:105268000B4B1A681368C3F30D43043B0360094BE7
:105278001B689968012903D91B689B68436001E092
:10528800936843608260D268014B1A60704700BF20
:10529800EC80002008990020334B1B681A68002A0C
:1052A8005CDB30B440F2F45290420CD92F4AA2FB96
:1052B8000012920A94B240F2F45101FB120292B227
:1052C80012B1013400E00124012C30D11A6842F0F7
:1052D80040521A60244B1A68C0F30C0050601168E1
:1052E80041F0004111601A68D2681A6024E02AB9B6
:1052F8001D490D68296841F08051296040F2F45138
:105308005960611E91420BD1196841F00051196032
:10531800174901FB040101F2F451C1F30C01596072
:10532800196841F000411960DB68013200E0002291
:10533800A242DCD30C4A136041F214030D4AD3583D
:1053480013F0040F0CD01346042141F214029950B3
:10535800002141F204029950012002E00020704728
:10536800012030BC704700BFF08000200BB002ACB9
:105378000CFAFFFF0080024070B4134B1860002342
:1053880016E05D0144194FF00046465144F2F455C9
:10539800656040F2F45505FB0315A560551E9D4256
:1053A80004D95D1C00EB4515E56000E0E0600133C1
:1053B8009342E6D341F20C03044AD050044A054B09
:1053C8001A6070BC704700BFEC800020008002406B
:1053D800E080002008990020204B1B681A68002AEA
:1053E8000BDB1A6812F4807F07D01D4A12685360DD
:1053F800936801339360012070471A68002A14DB10
:105408001A6812F4007F10D0186810F480700CD15C
:10541800134A11680B60136800225A6001229A60CF
:105428000E4B1A68D2681A6070471A68002A11DB96
:10543800186810F400700FD11A6812F480720CD139
:1054480007490868816801318160D968034B196090
:10545800104670470020704700207047EC800020FD
:105468000899002070B4104B1860002313E05C0109
:1054780005194FF48016065140F2F45404FB031446
:10548800AC60541E9C4204D95C1C00EB4414EC60D4
:1054980000E0E86001339342E9D341F21003034A84
:1054A800D05070BC704700BFF080002000800240E0
:1054B80038B505460C4669B1B1F5800F0AD0B1F58B
:1054C800000F07D0B1F5400F04D0044840F28651D0
:1054D800FBF72AFD2B681C432C6038BDBCAF0008C5
:1054E800024A136843F001031360704700900240BA
:1054F800044B1B6813F0010F01D0012070470020F6
:10550800704700BF00900240034941F218028B58CF
:1055180043F480138B5070470080024010B5044656
:10552800012804D90A484FF4FA61FBF7FDFC3CB1A5
:10553800084941F218028B5843F400538B5010BDB0
:10554800044941F218028B5823F400538B5010BDC4
:10555800BCAF00080080024010B50446012804D9F9
:105568000A4840F2E771FBF7DFFC3CB1084941F219
:1055780018028B5843F002038B5010BD044941F2C6
:1055880018028B5823F002038B5010BDBCAF0008E3
:105598000080024008B50120FFF702FEFFF7B4FFC4
:1055A8000120FFF717FE0120FFF7B8FF0120FFF7E2
:1055B800D3FF08BD30B583B005460C4600230193E0
:1055C800202804D9194840F68101FBF7ADFC012CCD
:1055D80006D9102C04D0154840F68201FBF7A4FC2C
:1055E8001348026902F01C01EB029BB243EA010274
:1055F800A30103F4F863134343F001030361019B20
:10560800013301930A4B1B6913F0010F03D0019A70
:10561800084B9A42F3D9019A074B9A4203D0044B9C
:10562800586980B200E0002003B030BDBCAF00086C
:1056380000800240FEFF0400FFFF040070B582B046
:1056480006460C46154600230193202804D919481C
:105658004FF40B61FBF768FC012C06D9102C04D021
:10566800144840F6B101FBF75FFC1348026902F0E9
:105678001C01F3029BB243EA0102A30103F4F8639D
:10568800134343F0030345610361019B0133019315
:10569800094B1B6913F0010F03D0019A074B9A427B
:1056A800F3D9019A064B9A4201D1002000E001206B
:1056B80002B070BDBCAF000800800240FEFF0400CD
:1056C800FFFF040070B586B004460D46002305931D
:1056D80000930368012B04D9A1484FF48C71FBF7A0
:1056E80023FC63683BB1B3F5000F04D09C4840F23B
:1056F8001911FBF719FCA3683BB1B3F5800F04D06F
:1057080097484FF48D71FBF70FFCE368CBB1B3F505
:10571800003F16D0B3F5802F13D0B3F5C02F10D0AB
:10572800B3F5002F0DD0B3F5202F0AD0B3F5402FD5
:1057380007D0B3F5602F04D0894840F21B11FBF75E
:10574800F3FB23693BB1B3F5803F04D084484FF4A1
:105758008E71FBF7E9FB63693BB1B3F5804F04D069
:105768007F4840F21D11FBF7DFFBA3693BB1B3F59E
:10577800005F04D07A484FF48F71FBF7D5FBE369DB
:10578800B3F5805F05D023B1754840F21F11FBF7D0
:10579800CBFB236AB3F5006F05D023B170484FF4F3
:1057A8009071FBF7C1FB636AB3F5806F05D023B135
:1057B8006B4840F22111FBF7B7FBA36A3BB1B3F585
:1057C800007F04D066484FF49171FBF7ADFBE36AA4
:1057D800802B05D023B1624840F22311FBF7A4FBCC
:1057E800236B53B1202B08D0402B06D0602B04D05C
:1057F8005B484FF49271FBF797FB636B102B05D056
:1058080023B1574840F22511FBF78EFBA36BB3F188
:10581800004F05D023B152484FF49371FBF784FB36
:10582800E36BB3F5007F08D0B3F5407F05D023B113
:105838004B4840F22711FBF777FB236C402B08D02D
:10584800802B06D0C02B04D045484FF49471FBF749
:105858006BFB636C33B1202B04D0414840F2291113
:10586800FBF762FBA36C33B1082B04D03C484FF420
:105878009571FBF759FB236D40F20442934209D01E
:10588800042B07D033B1102B04D035484FF4967150
:10589800FBF74AFB636D40F20242934207D0022BAA
:1058A80005D023B12E4840F22D11FBF73DFB236EA6
:1058B800B3F5803F04D32A484FF49771FBF734FBC4
:1058C800636E33B1802B04D0254840F22F11FBF7CB
:1058D8002BFBA36E53B1102B08D0202B06D0302BF6
:1058E80004D01F484FF49871FBF71EFBE36E082B9A
:1058F80005D023B11A4840F23111FBF715FB236F8D
:10590800042B05D023B116484FF49971FBF70CFB13
:10591800636F022B05D023B1114840F23311FBF716
:1059280003FBA36FB3F5803F05D023B10C484FF4B8
:105938009A71FBF7F9FAE36FB3F5803F04D308488F
:1059480040F23511FBF7F0FAD4F8803053B1B3F1D7
:10595800806F07D0024840F23711FBF7E5FA01E003
:10596800BCAF0008D4F88430B3F1007F05D023B170
:10597800B0484FF49C71FBF7D7FAD4F888303BB1A4
:10598800B3F1807F04D0AB4840F23911FBF7CCFA71
:10599800D4F88C30B3F5001F05D023B1A5484FF4D7
:1059A8009D71FBF7C1FAD4F89030CBB1B3F5804FB5
:1059B80016D0B3F5004F13D0B3F5404F10D0B3F560
:1059C800803F0DD0B3F5A03F0AD0B3F5C03F07D054
:1059D800B3F5E03F04D0974840F23B11FBF7A4FA37
:1059E800D4F89430802B05D023B192484FF49E719F
:1059F800FBF79AFAD4F89830402B05D023B18D489C
:105A080040F23D11FBF790FAD4F89C3053B1082BC3
:105A180008D0102B06D0182B04D086484FF49F715D
:105A2800FBF782FAD4F8A030042B05D023B18148C3
:105A380040F23F11FBF778FAD4F8A430B3F1007FB5
:105A480005D023B17B484FF4A071FBF76DFAD4F869
:105A5800A830B3F5803F05D023B1764840F2411114
:105A6800FBF762FAD4F8AC30B3F5003F25D0B3F5B4
:105A7800802F22D0B3F5002F1FD0B3F5801F1CD084
:105A8800B3F5001F19D0B3F5800F16D0B3F1817F9D
:105A980013D0B3F1827F10D0B3F1847F0DD0B3F16E
:105AA800887F0AD0B3F1907F07D0B3F1A07F04D0EC
:105AB80060484FF4A171FBF737FAD4F8B030B3F56A
:105AC800807F29D0B3F5007F26D0B3F5806F23D02F
