:020000040800F2
:100000000000022099020008792600087B260008DB
:100010007D2600087F2600088126000800000000D9
:10002000000000000000000000000000832600081F
:1000300085260008000000008726000889260008A1
:10004000C5030008C5030008C5030008C503000870
:10005000C5030008C5030008C5030008C503000860
:10006000C50300089D260008C5030008C503000855
:10007000C5030008C5030008C5030008C503000840
:10008000C5030008C5030008C5030008A926000829
:10009000A1260008B1260008B9260008C5030008FB
:1000A000C5030008C5030008C5030008C503000810
:1000B000C5030008C5030008C5030008C503000800
:1000C000C5030008C5030008C5030008C5030008F0
:1000D000C5030008C5030008C5030008C5030008E0
:1000E0009F260008C5030008C5030008C5030008D3
:1000F000C5030008C5030008C5030008C5030008C0
:10010000C5030008C5030008C5030008C5030008AF
:10011000C5030008C5030008C5030008C50300089F
:10012000C5030008C5030008C5030008C50300088F
:10013000C5030008C5030008C5030008C50300087F
:10014000C5030008C5030008C5030008C50300086F
:10015000C5030008C5030008C5030008C50300085F
:10016000C5030008C5030008C5030008C50300084F
:10017000C5030008C5030008C5030008C50300083F
:10018000C503000800B583B000F076FE304B314A5D
:100190001360314A1360314B314A03E01168196032
:1001A000043304322F498B42F8D32A4B1A682E4B62
:1001B0009A4200D0FEE7284B1A682C4B9A42F9D19C
:1001C000234B2B4A13602B4A13602B4B02E0002277
:1001D0001A600433294A9342F9D3254B1B6813B99B
:1001E000244B1B6803B1FEE700F052FE694601A8EC
:1001F00000F0E6FD224B234CE41AA4100025AC428B
:1002000014DC214B214CE41AA4100025AC4213DC71
:100210000099019801F01AFC05461D4B1D4CE41A8B
:10022000A410002C0EDC284600F0A6FD144B53F859
:10023000253098470135E2E7134B53F825309847AE
:100240000135E3E7013C124B53F824309847E8E7C7
:10025000BABADECA00000020E40900200000002035
:10026000E8090108E80900207856341232547698DB
:10027000E80900206C860020E80900207086002034
:10028000F0030008F0030008F0030008F003000882
:10029000F0030008F003000808B5FFF773FF00BE85
:1002A000FEE71EF0040F0CBFEFF30880EFF30980A8
:1002B0007146414A10472DE9F04182B00446884614
:1002C000124B5E6B9F6B9D6A1B6B13F0020F03D08A
:1002D0000E4BDB6A002B0CDB0D4800F079FDCDF8EE
:1002E00000803B4632462946204600F0D5FD00BE40
:1002F000FEE74BF6AB6100F049FE0028ECD04FF072
:100300000042024BDA6202B0BDE8F08100ED00E08D
:10031000FC03010800BEFEE71EF0040F0CBFEFF364
:100320000880EFF309807146244A10472DE9F04117
:1003300082B004468846084B5E6B9F6B9D6A0748F7
:1003400000F046FDCDF800803B4632462946204667
:1003500000F0A2FD00BEFEE700ED00E00C04010885
:100360001EF0040F0CBFEFF30880EFF30980714615
:10037000134A10472DE9F04182B004468846084BE5
:100380005E6B9F6B9D6A074800F022FDCDF80080F0
:100390003B4632462946204600F07EFD00BEFEE781
:1003A00000ED00E01804010800BEFEE700BEFEE715
:1003B00000BEFEE770470000B70200082D030008EA
:0803C0007503000800BEFEE712
:1003C800E809010800000020E8090020E809010800
:1003D8000000000000000000E809002070860020EE
:0803E80000000000000000000D
:1003F000C3785BB903785A0903F01F03012101FA9E
:1004000003F32032134941F82230704710B4124BE5
:10041000DA68D243C2F30222C2F10403DCB20F2134
:1004200041FA02F24378A340DBB281780A401343D9
:100430001B01DBB2027807490A4482F800330378D3
:10044000580903F01F03012202FA03F341F8203098
:1004500010BC704700E100E000ED00E0084201D16F
:10046000002070470120704708B50C4B98420AD015
:1004700001214FF0806000F077FB00214FF0806099
:1004800000F072FB08BD01214FF0007000F06CFB22
:1004900000214FF0007000F067FB08BD00640040D1
:1004A000036823F002030360036843F00103036061
:1004B000002300E00133426812F0010F03D14FF630
:1004C000FF729342F6D1436813F0010F6DD08B7920
:1004D000012B3BD0036823F080030360CB79012B11
:1004E00039D0036823F0400303600B7A012B37D027
:1004F000036823F0200303604B7A012B35D0036897
:1005000023F0100303608B7A012B33D0036823F0B0
:1005100008030360CB7A012B31D0036823F0040376
:1005200003608A78CB781B0643EA82730A7943EA30
:1005300002434A7943EA02530A88013A1343C361EA
:10054000036823F00103036000231EE0036843F007
:1005500080030360C2E7036843F040030360C4E71D
:10056000036843F020030360C6E7036843F0100309
:100570000360C8E7036843F008030360CAE7036841
:1005800043F004030360CCE70133426812F0010F2B
:1005900003D04FF6FF729342F6D1436813F0010F78
:1005A00001D10120704700207047002070470000F3
:1005B00070B4837A012202FA03F33B4AD2F80012A4
:1005C00041F00101C2F80012D2F81C42D9430C409C
:1005D000C2F81C42027BB2B9334AD2F80C420C403A
:1005E000C2F80C42847AC688458845EA06454834F4
:1005F00042F83450857A8688048844EA06444835AF
:1006000002EBC5025460027B012A1FD0C27A002A85
:1006100034D1254CD4F804220A40C4F804220289BB
:100620002AB9214AD2F814422140C2F81412028990
:10063000012A2AD0427B012A2ED01B4AD2F800324E
:1006400023F00103C2F8003270BC7047164AD2F89A
:100650000C421C43C2F80C42847A0688458845EA5D
:100660000645483442F83450857A8688C48844EA7E
:100670000644483502EBC5025460C7E70A4CD4F87B
:1006800004221A43C4F80422C9E70749D1F8142206
:100690001A43C1F81422CDE7034AD2F81C120B43C7
:1006A000C2F81C32C9E700BF0064004003468268FC
:1006B00012F0806F09D1826812F0006F4ED182680B
:1006C00012F0805F4CD0022000E00020042844D0CB
:1006D000F0B4054600F1180212019C5804F0010420
:1006E0009C500A7A002A3DD100F1180212019C5850
:1006F0000F684E7A46EA475634439C508A7A02F095
:100700000F028A7205F1180424011A19566826F09E
:100710000F06566056688F7A3E4356608E7B4A7B42
:10072000120442EA06620E7B42EA0622CE7A324385
:1007300003EB0515C5F888218E7C4A7C120442EA39
:1007400006620E7C42EA0622C97B0A43C5F88C2168
:100750001A5942F001021A51F0BC70470120B5E766
:100760000420B3E700F1180424011E594F6842EA3F
:10077000C7024F7A3A4332431A51BFE710B401F12E
:100780001B031B01C35803F004031372002B3BD15E
:1007900001F11B031B01C3585B0D136001F11B0327
:1007A0001B01C418C35803F002035372636803F0BB
:1007B0000F03937263681B0AD37400EB0113D3F821
:1007C000B841D472D3F8B841240A1473D3F8B841AD
:1007D000240C5473D3F8B841240E9473D3F8BC415D
:1007E000D473D3F8BC41240A1474D3F8BC41240C4C
:1007F0005474D3F8BC311B0E937461B1036943F098
:100800002003036110BC704701F11B031B01C35897
:10081000DB085360C2E7C36843F02003C360F1E71D
:1008200022B9436923EA01014161704743691943D1
:100830004161704708B543690B426DD040294DD0E6
:1008400011D9B1F5006F62D021D8B1F5007F54D035
:10085000B1F5806F56D0B1F5807F0DD1806901214F
:10086000FFF7FCFD08BD042924D007D910292BD09F
:1008700020292ED0082922D0002008BD012914D01B
:100880000229F9D1C0680321FFF7E8FD08BDB1F5E1
:10089000803F28D0B1F5003F2AD0B1F5004FEBD111
:1008A00040680421FFF7DAFD08BD80681B49FFF7A7
:1008B000D5FD08BDC0680821FFF7D0FD08BDC068A0
:1008C0001021FFF7CBFD08BD00690321FFF7C6FD2E
:1008D00008BD00690821FFF7C1FD08BD00691021AE
:1008E000FFF7BCFD08BD40680821FFF7B7FD08BD54
:1008F00040681021FFF7B2FD08BD80690221FFF7B3
:10090000ADFD08BD80690421FFF7A8FD08BD806921
:100910007021FFF7A3FD08BD002008BD0101010003
:10092000B1F5807F3ED011D9B1F5006F40D020D90C
:10093000B1F5803F30D0B1F5003F30D0B1F5004F78
:1009400003D10023836104234360704708291DD02D
:1009500007D8012917D0042902D10823C3607047A2
:100960007047202915D0402902D110230361704718
:100970007047B1F5007F18D0B1F5806F02D1042324
:100980004360704770470D4B836070471023C3600E
:1009900070470823036170470823436070471023A2
:1009A00043607047042343607047042343607047EB
:1009B0000023836104234360704700BF01010100ED
:1009C00000230F2B40D8F0B425E0846822408260D9
:1009D00082684C79AC402243826044689FB2012611
:1009E000BE4024EA0604446044688A79BA4092B260
:1009F00022434260C2689CB266000324B44022EAEB
:100A00000402C260C268CC7904FA05F51543C560DA
:100A100001330F2B16D801229A400C68A243F7D15C
:100A200004685D000322AA40D243144004600468B5
:100A30000E79AE40344304600C79013CE4B2012CE1
:100A4000D8D8C2E7F0BC704770470183704730B414
:100A500001F007039B009A40C908083150F8214073
:100A60000F2505FA03F324EA030340F8213050F878
:100A700021301A4340F8212030BC704710B4284B75
:100A80009B6803F00C03042B22D0082B23D013B156
:100A9000244B036001E0234B0360214CA368C3F3A4
:100AA00003132149CB5CDAB20368D3404360A268E8
:100AB000C2F382228A5CD2B223FA02F28260A26876
:100AC000C2F342328A5CD2B2D340C36010BC7047DA
:100AD000164B0360E1E7124B5A685B6803F03F0373
:100AE00012F4800F12D0114AB2FBF3F20C4B5B6888
:100AF000C3F3881303FB02F3094A5268C2F30142AD
:100B000001325200B3FBF2F30360C6E7054AB2FBC1
:100B1000F3F2034B5B68C3F3881303FB02F3EBE7C9
:100B2000003802400024F4000400002040787D01D9
:100B300029B9054A136B23EA000010637047024A83
:100B4000136B1843106370470038024029B9054AF7
:100B5000136923EA000010617047024A13691843C1
:100B6000106170470038024029B9054A136A23EA28
:100B7000000010627047024A136A184310627047FF
:100B800000380240002303E00133DBB20A38C0B270
:100B90000928F9D81B01DBB21843704782B0002343
:100BA0000193114BDB6813F0400F19D14FF0FF3266
:100BB0000D4BDA600C4BDA6802F04002019B013306
:100BC0000193019BB3F5803F01D0002AF2D0064B80
:100BD000DB6813F0400F01D1002002E0012000E0AB
:100BE000012002B0704700BF00280040024AD368CD
:100BF00023F08003D36070470028004082B00023B8
:100C00000193114BCA225A6253225A62DA6822F0C7
:100C1000A002DA600C4BDA6802F02002019B01337B
:100C20000193019BB3F5004F01D0002AF2D0064B8F
:100C3000DB6813F0200F05D10020FF22024B5A621F
:100C400002B070470120F8E70028004038B50D4693
:100C50000346F8B9234A926812F0400F01D10022EE
:100C6000CA70FBB12C786878000240EA0440AC7886
:100C70002043EC7840EA04441A4BCA225A625322B9
:100C80005A62FFF78BFF0346E8B9FF21154A51620C
:100C9000184638BD134A926812F0400FE1D1002285
:100CA000CA70DEE72878FFF76DFF04046878FFF765
:100CB00069FF44EA0024A878FFF764FF2043EC783A
:100CC00040EA0444D8E704F07F3424F0FE44054BA6
:100CD0001C60FFF78BFFFFF791FF03460028D4D07D
:100CE0000123D2E70028004038B50D46024638B946
:100CF0004B7813F0100F03D003F0EF030A334B705F
:100D0000BAB1EC786878000240EA0440AC7820433D
:100D10002C7840EA4434174BCA225A6253225A6252
:100D2000FFF73CFF0346A8B9FF21124A516218465B
:100D300038BDE878FFF726FF04046878FFF722FF44
:100D400044EA0024A878FFF71DFF20432C7840EAEE
:100D50004434E0E724F07F4424F0C004054B5C6099
:100D6000FFF744FFFFF74AFF03460028DCD00123CA
:100D7000DAE700BF00280040FEE7000008B50346A0
:100D80000C4A12685AB10B4A1068033323F003036C
:100D90000344094A934206D8064A136008BD07492E
:100DA000044A1160EFE709F061FA0C2303604FF089
:100DB000FF3008BDEC09002000FC012070860020F7
:100DC00001230360014B0B60704700BF140000203B
:100DD0000FB400B583B004AB53F8042B019380210A
:100DE00006480BF037FF002803DD0146034800F0FA
:100DF0003FF803B05DF804EB04B07047F40900203D
:100E0000F0B585B006460C46174B1B6883B9174BE7
:100E10000193042302930323039301AF0125284682
:100E20003946ABBE0546B5F1FF3F14D00E4B1D60F1
:100E30000D4B1B6801930296039401AE05252846CD
:100E40003146ABBE0546B5F1FF3F07D0AC4208D0F6
:100E5000601B05B0F0BD4FF0FF30FAE74FF0FF30F8
:100E6000F7E74FF0FF30F4E7740A0020DC020108D6
:100E700008B5FFF7C5FF08BD08B500F01BF9024B28
:100E8000024A9A6008BD00BF00ED00E000000008C3
:100E900008B500F031F908BDF8B504460D4617460F
:100EA0001E462748FFF794FF21682648FFF790FF6A
:100EB00061682548FFF78CFFA1682448FFF788FF89
:100EC000E1682348FFF784FF21692248FFF780FF8C
:100ED00061692148FFF77CFFA1692048FFF778FF8F
:100EE000E1691F48FFF774FF1E48FFF771FF2946AD
:100EF0001D48FFF76DFF1D4CE16A1D48FFF768FFB5
:100F0000216B1C48FFF764FFE16B1B48FFF760FF94
:100F100015F0800F0AD115F4004F0CD11748FFF7D8
:100F200057FF06991648FFF753FFF8BD3946154895
:100F3000FFF74EFFEFE731461348FFF749FFEDE7B4
:100F4000E0020108F0020108000301081003010893
:100F50002003010830030108400301085003010881
:100F600060030108700301087C03010800ED00E044
:100F70008C0301089C030108AC030108DC03010891
:100F8000E4030108BC030108CC03010838B58369F8
:100F90001B888B4201D0002038BD04460368456899
:100FA000013B042B2AD8DFE803F0032921211B0091
:100FB0001349286809F09AFA40B96B6813B90123FC
:100FC000236013E0042B05D0082B06D04FF0FF332D
:100FD00023600BE00223236008E00323236005E085
:100FE0002B68023B012B06D9AB680360A36902336F
:100FF000A361012038BD00230360F7E7002038BD5E
:10100000DC02010882B0002301930093264A136892
:1010100043F480331360244B1B6803F400330093C4
:10102000019B01330193009B1BB9019BB3F5A06F9A
:10103000F1D11D4B1B6813F4003F06D00123009330
:10104000009B012B04D002B0704700230093F7E708
:10105000154B9A689A609A6842F400429A609A68BE
:1010600042F4A0529A60114A5A601A6842F08072A3
:101070001A600D4B1B6813F0007FFAD040F2037228
:101080000B4B1A60A3F580639A6822F003029A6002
:101090009A6842F002029A60034B9B6803F00C03CB
:1010A000082BF9D1CFE700BF00380240193C4005BA
:1010B000003C024008B50D4B1A6842F001021A606C
:1010C000002199601A6822F0847222F480321A603A
:1010D000074A5A601A6822F480221A60D960FFF722
:1010E00091FF4FF00062034B9A6008BD0038024048
:1010F0001030002400ED00E0224B9B6803F00C034D
:10110000042B15D0082B17D01BB11F4A1F4B1A6098
:1011100002E01D4A1D4B1A601A4B9B68C3F3031370
:101120001B4AD35CDAB219490B68D3400B60704795
:10113000184A164B1A60EFE7124B5A685B6803F0C7
:101140003F0312F4800F13D0124AB2FBF3F20D4B9F
:101150005B68C3F3881303FB02F30A4A5268C2F3C5
:10116000014201325200B3FBF2F3084A1360D3E7A5
:10117000054AB2FBF3F2034B5B68C3F3881303FB2E
:1011800002F3EAE7003802400024F4002C000020BB
:101190001C00002040787D0110B40A490A4B4B60C6
:1011A0000A4B0B4A5A6000220A704A708A70142453
:1011B0000C720420C8601A705A709A701C72D86041
:1011C00010BC70477C370020780A00206C37002064
:1011D000C80A002038B5044643780278934217D0F5
:1011E0002078E268904219D06568207A024600FBB8
:1011F000035009F071F863780133DBB26370E26881
:1012000093420ED0627823789A420DD0012038BDE7
:1012100080780128E4D101322270E1E700222270B7
:10122000E2E700236370EDE70123A370EEE738B532
:10123000044603784278934212D008460022A270F6
:101240006568217A0A4601FB035109F045F82378C5
:101250000133DBB22370E268934206D0012038BD2F
:101260008278002AE9D1002038BD002323700120B4
:1012700038BD0000254B1A6C42F000721A641A6BDC
:1012800042F008021A63A3F530531A6822F00302F1
:101290001A601A6842F002021A605A6802F00102EB
:1012A0005A60DA6822F00302DA60DA6842F001027A
:1012B000DA609A6822F003029A609A6842F00202A9
:1012C0009A601A6A42F009021A621A6822F00C0245
:1012D0001A601A6842F008021A605A6802F00202A4
:1012E0005A60DA6822F00C02DA60DA6842F004022E
:1012F000DA609A6822F00C029A609A6842F008025A
:101300009A601A6A42F090021A62704700380240EE
:1013100000B585B00368DB0003601A0CADF800204F
:10132000027A43EA82039BB2827A43EA4203ADF82F
:1013300002304368DB0043601A0CADF80420427AA7
:1013400043EA82039BB2C27A43EA4203ADF8063015
:101350000023ADF808308DF80A308DF80B300123EA
:101360008DF80C308DF80D306846FFF721F905B087
:101370005DF804FB10B586B002210A48FFF75AFA5F
:1013800008B906B010BD074C02212046FFF7C8FA85
:1013900001AA00212046FFF7F1F901A90248FFF751
:1013A00019FFEEE7006400407C37002010B586B0DE
:1013B00010210A48FFF73EFA08B906B010BD074CE5
:1013C00010212046FFF7ACFA01AA01212046FFF7C1
:1013D000D5F901A90248FFF7FDFEEEE700640040E1
:1013E0007C37002000B587B001210B48FFF722FAB7
:1013F00010B907B05DF804FB01210748FFF790FA28
:1014000001A90648FFF713FF0028F2D001A90248FE
:10141000FFF74CF9EDE700BF006400406C37002097
:10142000124B1B6813B10022104B1A60104B9B68C3
:1014300013F0806F09D10E4B9B6813F0006F04D13D
:101440000B4B9B6813F0805F0ED000B587B001A9ED
:101450000848FFF7ECFE10B907B05DF804FB01A9DE
:101460000348FFF723F9F7E7704700BF1C0B002084
:10147000006400406C37002003781B0703F08053A2
:101480004278920502F07C6213438278520502F49E
:1014900000121343C278120502F48012134340680D
:1014A000C0F313001843704730B587B000248DF89F
:1014B000044001258DF806508DF805408DF8074051
:1014C0000A4B029301A8FFF7D7FF03904FF4801354
:1014D00004938DF814508DF815508DF816408DF842
:1014E000174003A8FFF714FF07B030BD55FF0F00EA
:1014F00070B584B0414A136C43F000731364404BE1
:101500001B680833C3F313033E4A1360FFF7B2FEB0
:101510003D4D2846FEF7A8FF0F23ADF80430002408
:101520008DF806408DF8074003238DF80830022619
:101530008DF809608DF80A408DF80B408DF80C404D
:101540008DF80D408DF80E408DF80F4001A928460A
:10155000FEF7A6FFFFF7A8FF012231462846FFF756
:101560005FF9012210212846FFF75AF9012211469E
:101570002846FFF755F901224FF400412846FFF7AE
:101580004FF901224FF480612846FFF749F91423EF
:101590008DF8003005238DF801308DF802400125CB
:1015A0008DF803506846FEF723FF15238DF80030B1
:1015B00006268DF801608DF802408DF803506846CC
:1015C000FEF716FF13238DF800308DF801608DF8BB
:1015D00002408DF803506846FEF70AFF16238DF887
:1015E00000308DF801608DF802408DF80350684698
:1015F000FEF7FEFEFFF7D0FD04B070BD00380240DC
:10160000107AFF1F8C3700200064004008B54FF4AB
:1016100080610D48FFF70EF930B94FF400410A48D8
:10162000FFF708F940B908BD4FF480610648FFF79D
:1016300077F9FFF75DFFF0E74FF400410248FFF74D
:101640006FF9FFF755FFEEE70064004010B58AB070
:101650000C46019204282AD0204B0493012C29D057
:1016600000238DF80C308DF80F308DF80D0001231C
:101670008DF80E300138C0B2984221D9019BCDF8C7
:101680001F3004238DF81E3003A8FFF7F5FE0690E7
:1016900004238DF81C3000238DF81D300593012C98
:1016A00016D005A90E48FFF795FD0AB010BD0D4BE9
:1016B0000493D3E701238DF80C308DF80F30D4E775
:1016C000BDF90430ADF81F3002238DF81E30DBE782
:1016D00005A90548FFF77EFDE7E700BF55FF0F00AE
:1016E0007C370020AAFF0F006C370020C0F31300E6
:1016F000704730B4002209E0A3F16101C9B20529A5
:1017000012D81344A3F15702214628464C1EB1B10A
:101710001201451C0378A3F13001C9B20929EBD8A5
:101720001344A3F13002EFE7A3F14101C9B2052947
:1017300003D81344A3F13702E6E74FF0FF32104617
:1017400030BC704710B4002300E00133C25C202A93
:10175000FBD0092AF9D00A2AF7D02D2A03D02B2A48
:1017600001D0002207E00133FBE702EB82025400C4
:101770000A19303A0133C15CA1F13004E4B2092CFA
:10178000F3D9104610BC704738B505460C460E48D4
:10179000A0FB0530C00813D100202268531C236031
:1017A000094BA3FB0513DB0803EB830359006B1AFA
:1017B00030331370236800221A700130C0B238BD74
:1017C000FFF7E2FFE9E700BFCDCCCCCC10B582B08B
:1017D0000191002807DB002401A9FFF7D5FF204471
:1017E000C0B202B010BD4A1C01922D220A704042C4
:1017F0000124F1E738B504460D4600090FD1002059
:1018000004F00F04092C0DDD37342B685A1C2A60B4
:101810001C702B6800221A700130C0B238BDFFF76F
:10182000E9FFEDE73034F0E700B585B001910246FD
:1018300003A902A800F0E0FF9DF80A30092B04D8A4
:10184000019B5A1C019230221A7001A99DF80A00CE
:10185000FFF79AFF019B5A1C01922E221A709DF8E5
:101860000930092B04D8019B5A1C019230221A70AE
:1018700001A99DF80900FFF787FF019B5A1C0192FF
:101880002E221A709DF80B0001A900F5FA60FFF7EF
:101890007BFF019B5A1C019220221A709DF80C308C
:1018A000092B04D8019B5A1C019230221A7001A9FD
:1018B0009DF80C00FFF768FF019B5A1C01923A2229
:1018C0001A709DF80D30092B04D8019B5A1C019207
:1018D00030221A7001A99DF80D00FFF755FF019BFA
:1018E0005A1C01923A221A709DF80E30092B04D826
:1018F000019B5A1C019230221A7001A99DF80E001A
:10190000FFF742FF0022019B1A7005B05DF804FB4F
:101910002DE9F04182B004460D460191013AD6B25C
:10192000002108F057FC08BB0025204608F07AFC8F
:10193000804608F059FA0146204608F0A3F9074608
:1019400001A94046FFF720FF0544EDB2AE4248D959
:101950000021384608F034FC002842D1019B5A1C73
:1019600001922E221A700135EDB227E004F10044F5
:101970006B1C01932D232B700125D6E71C4938469B
:1019800008F08AFA074608F04DFCC0B2194BA3FBD9
:101990000023DB0803EB83035C00001BC4B220467A
:1019A00008F026FA0146384608F06CF90746019B14
:1019B0005A1C019230341C700135EDB200213846BA
:1019C00008F0FEFB20B9B542D8D301E0013B0193FA
:1019D000019B13F8012C302A03D113F8022C2E2A74
:1019E000F4D10022019B1A7002B0BDE8F08100BF63
:1019F00000002041CDCCCCCC00B585B06846FFF7C7
:101A00003DF80F4A019BA2FB03239B09013BB3F165
:101A1000807F09D20B4A5360F0210B4B83F82310CF
:101A200000239360072313600022074B83F82320D1
:101A30004FF000424EF2FC031A6005B05DF804FB63
:101A4000D34D621010E000E000ED00E008B5FFF7B4
:101A5000D3FF00F09FFEFFF79FFBFFF749FD07F064
:101A6000C7FE07F023F800F029FD00F053FD00F059
:101A70007BFB03E0074B186807F094F8FFF7D0FCF6
:101A800000F08EFD07F034FB0028F3D007F034F8A7
:101A9000F0E700BF180B002008B5032806D8DFE8E0
:101AA00000F016020304FEE7FEE7FEE741F288308D
:101AB00000F034FFBFF34F8F0549CA6802F4E062BB
:101AC000044B1343CB60BFF34F8F00BFFDE708BD4E
:101AD00000ED00E00400FA05084B1A6801321A60B4
:101AE0001A68074BA3FB02139B094FF47A7101FBA1
:101AF000132313B90122034B1A607047180B0020FF
:101B0000D34D62101C0B00207047000003695A6817
:101B100003689A4201D000207047044B1B6803F50C
:101B2000EA433033024A9360F5E700BF180B002008
:101B300090370020F0B583B0064608461446002BC7
:101B400051D1002A4FD0118903F060FD6068011D5A
:101B50008378C27842EA032212B295B2043543195F
:101B600027897F1B0025DD55DFF890E0DEF8005067
:101B700005F5EA453035DFF888C0CCF80850D6F8CE
:101B800014C0DEF8005005F5A445083575610078ED
:101B900000F0F000402822D009D820280ED03028AC
:101BA00009D1B5690097D2B23046A8471DE0902808
:101BB00011D0D02819D0C6F814C016E001237373D1
:101BC00008220D4B83F825200C4B1B6803F5EA43D4
:101BD0003033B36009E0012386F8AA3005E0012321
:101BE00086F8AB3001E003F0CBFF204603F0E1FACA
:101BF000002003B0F0BD00BF94380020180B002077
:101C00009037002008B508460622044B83F82520AB
:101C1000034903F02FFD002008BD00BF94380020C9
:101C2000351B000808B5437B1BB990F8AC30042B7A
:101C300006D090F8AC30013380F8AC30002008BDFD
:101C4000084604F07DF86FF0090008BD02680B46F5
:101C500000290FDBC3F3072313700268531C0360D2
:101C60004B42C9B2DBB258BF5942517003680133CD
:101C70000360704701F1FF03ECE770B504460E46C0
:101C8000084608F06FFD054601462046FFF7DEFFD7
:101C90002A463146206808F01FFB2068284420604F
:101CA00070BD10B4002407E001F17F020EE0621C59
:101CB0000355002910DD14464A4201F07F0302F06B
:101CC0007F0258BF53420A460029EDDBD11100299B
:101CD000EDDD63F07F03EAE7104610BC70470000BB
:101CE000437B03B9704710B50446006904F028F837
:101CF000002363730322024B83F8252010BD00BF2D
:101D00009438002070B50446049E8361016082808F
:101D100000254573062217491C3008F0DDFA04221D
:101D2000B11804F1220008F0D7FAA573124904F1A2
:101D3000250008F0B9FC114904F1750008F0B4FC65
:101D40000F4D3146284608F0AFFC0E49284608F0F2
:101D5000ADFBC4F8A4500C4D3146284608F0A4FC55
:101D60000A49284608F0A2FBC4F8A0500123A4F8B1
:101D7000A83070BD340401083C040108480401087F
:101D80004438002058040108BC38002060040108D1
:101D900038B5457B15B10125284638BD04460023DA
:101DA00080F8AC3004F078F82061114B42F29B725D
:101DB000214604F089F8A8B92146206903F058FCAF
:101DC0000C49206903F05AFC04220B49206903F0F6
:101DD0005AFC0749206903F054FC0849206903F0C4
:101DE0004BFCD9E72046FFF77BFF0125D4E700BF76
:101DF000051C0008091B0008251C00080D1B000815
:101E00002DE9F041ADF5816D054602AB019300F17E
:101E10001C07384608F0A6FCC4B20C34E4B205F145
:101E20002506304608F09EFCC0B218B10444E4B266
:101E30000234E4B205F17508404608F093FCC0B2E4
:101E400018B10444E4B20234E4B2019B5A1C01927A
:101E500010221A7021460198FFF723FF019B1844B6
:101E60000190264901A8FFF708FF019B5A1C019227
:101E700004221A70304608F075FC08B3019B5A1C06
:101E80000192C0221A701E2101A8FFF7DFFE394619
:101E900001A8FFF7F2FE9DF91130002B16DB02A915
:101EA000019A521A0123D2B2286905F0A5F9B0B1FE
:101EB0002846FFF715FF01200DF5816DBDE8F08183
:101EC000019B5A1C019200221A70DCE7314601A8DE
:101ED000FFF7D3FE414601A8FFF7CFFEDFE72869F1
:101EE00005F0D0FB064B1B6803F5A44308336B6178
:101EF0000722044B83F825200020DDE72C0401088D
:101F0000180B002094380020437B0BB90120704748
:101F10002DE9F04F83B000AF1546884604460846C9
:101F200008F020FC064600F1020A00F1090323F044
:101F30000703ADEB030DEB4641460DF1020008F03F
:101F4000B3FB4FF001098DF80090404608F00AFC01
:101F50008DF8010030233B71284608F003FC504403
:101F60007871284608F0FEFB504400F10208093061
:101F700020F00700ADEB000D42460021684608F056
:101F800021FA0222391D684608F0A6F95246594640
:101F90000DF1020008F0A0F904366E44284608F05E
:101FA000E1FB02462946304608F096F94B461FFAF7
:101FB00088F26946206905F01FF938B12046FFF71D
:101FC0008FFE01200C37BD46BDE8F08F206905F07B
:101FD00059FB0020F6E70000437B0BB90120704756
:101FE00010B582B004460F4B1A889B78ADF80420D8
:101FF0008DF806300123032201A9006905F0FCF8E1
:10200000012304220021206905F0F6F8206903F07D
:10201000B7FD002060730322034B83F8252002B034
:1020200010BD00BF2804010894380020437B0BB981
:10203000FF207047F0B589B00D46044602AF0DF1A0
:102040000906019682238DF80830084608F08AFBBD
:10205000411D3046FFF725FE019B013308AE46F8CF
:102060001C3DB4F8A8103046FFF7F0FDB4F8A830D6
:102070000133A4F8A83029463046FFF7FEFD019A47
:10208000531C019301231370019AD21B92B239465B
:10209000206905F0B1F828B12046FFF721FE0120A4
:1020A00009B0F0BD206905F0EDFA0020F8E7437BA8
:1020B000DBB110B582B00446C0238DF80430002394
:1020C0008DF805300123022201A9006905F094F87A
:1020D00028B9206905F0D6FA012002B010BD2046CB
:1020E000FFF7FEFD4FF0FF30F7E74FF0FF3070478E
:1020F0000E4B1A6843699A4216D910B50446437BC1
:1021000063B9837B6BB90322094B83F8252063698C
:1021100003F5A44308336361002010BDFFF7C7FF38
:10212000F5E7FFF735FEF2E700207047180B0020B7
:102130009438002010B586B01C4601A800F082F843
:10214000C3B20BB906B010BD9DF82020214601A8EE
:1021500000F0FEF80128F5D101A90248FFF73AF88E
:10216000F0E700BF6C37002000B587B0154B1A6848
:10217000154B1A60072308E006A8184400F80C1C49
:10218000120911490A60013B5BB2002B0ADB0E4ABF
:10219000126802F00F0000F130013929ECD900F18A
:1021A0004101E9E700238DF81430084B9A899968BA
:1021B00003AB0093064B0748FFF7A4FD07B05DF89B
:1021C00004FB00BF107AFF1F403800209438002025
:1021D0003521000890370020184B5B7B03B970470E
:1021E00030B5ADF5077D044681A91548FFF71FF806
:1021F000F0B1D4F8A00008F0B5FAC5B22A46D4F878
:10220000A01001A808F068F881A901AB581900F0E6
:10221000BDF881A941A800F0EFF841AA01A907483B
:10222000FFF772FE38B181A90548FEF7D3FF02E03F
:102230000248FFF75DFF0DF5077D30BD90370020A8
:102240007C3700202DE9F04F83B081460E461746BB
:1022500000238DF80130931ECB5C0A2B01D00023A4
:1022600007E0571EBFB27B1E0022CA54F7E70133B6
:102270009BB2F25C2F2A05D09F42F8D1002003B018
:10228000BDE8F08F01331FFA83FA4FF0010839E0FF
:102290000134A4B2335D2F2B01D0A742F8D85FFAE6
:1022A00084FB5FFA8AF3ABEB030B5FFA8BFBB8F1AD
:1022B000010F17D0B8F1000F1BD0B8F1030F18D8D9
:1022C00000250E2D29D805EB850305EB43035A465F
:1022D0001E49194406EB0A0007F0CEFFB8B10135DC
:1022E000EDB2EEE7594606EB0A00FFF702FA01905D
:1022F00050B301341FFA84FA574512D908F1010886
:102300005FFA88F8B8F1030F0BD85446C2E708F11A
:1023100001085FFA88F88DF801500F2DE9D10020EF
:10232000ADE702A8012300F8083DFFF7A5F8C9F8BA
:102330000400042389F80830002389F80930C9F81B
:1023400000309DF801009AE7002098E78804010812
:1023500010B50446013B012B08D90846FFF7F2F9F6
:10236000C4F80B000423A372012010BD084607F037
:1023700079FF0022044B07F047FA07F057FCA4F856
:102380000B000223A372EFE7000030402DE9F04379
:1023900085B00F460DF1080904AC44F80C9D461CAD
:1023A0004FF02F0880F800804868FFF79FF921461A
:1023B000FFF720FA054602464946304607F08CFFF3
:1023C0007419013406F805807968C1F3855101EB71
:1023D000810301EB4301074B19448D7A2A462046BD
:1023E00007F07AFF05F10A0000236355C0B205B07B
:1023F000BDE8F0838804010870B586B004460E4637
:1024000001AD00952946D6F80B00FFF70DFA2A46D4
:102410002049204608F024F87368C3F385535A1EF8
:10242000D2B2012A16D90D2B21D0032B25D0694613
:10243000D6F80F00FFF7A8F901A9204608F036F8F2
:102440001549204608F032F8204608F08BF9C0B252
:1024500006B070BDB6F90F0007F0CAFC4FF0765118
:1024600007F01AFD062201A9FFF752FAE4E70099E6
:10247000D6F80F00FFF7AAF9DEE7D6F80F0007F04D
:10248000B7FC4FF0765107F007FD092201A9FFF7CD
:102490003FFAD1E7640401088404010809B10B681C
:1024A00023B90422044B83F825207047024A936025
:1024B000032382F8253070479438002038B5104C3B
:1024C00028220021204607F07DFF002584F82550B2
:1024D0000C4B636042F29B73A3810B4BA3614FF2E1
:1024E000CC63A383094B23616FF07F436361084B87
:1024F000236284F8245005F031FB284638BD00BF24
:102500009438002030050108C0A80B07C0A80B01B3
:102510004D58080808B502F043FB0F4B1B6A83B9FE
:102520000D4803460D4A00F10801406802F074FBB3
:1025300010F1050F0AD068B90322074B83F8252054
:1025400008BD0749002002F015FBE9E70222024B13
:1025500083F8252008BD00BF943800209D24000882
:10256000B438002008B582680B4B1B689A4209D228
:10257000437B43B9037B5A1E02733BB90422074BCA
:1025800083F8252008BDFFF7ABFB08BD0322034BF2
:1025900083F8252008BD00BF14390020943800209E
:1025A00038B5314B93F82530013B092B5BD8DFE878
:1025B00003F0055A0B052529303456510A222B4BBE
:1025C0001A73FFF7A7FF38BD284B5B7B1BB1274869
:1025D000FFF702FD38BD06F00BFC234DAB68234C22
:1025E00023602046FFF7D4FB052385F82530204BD8
:1025F0001B6803F59C530833A36038BD1B48FFF7E5
:10260000B1FF38BD1948002380F8AA30FFF7F8FB66
:1026100038BD1648FFF7A6FF38BD144C2046FFF71B
:10262000A1FF94F8AA302BB9124B1A68104B1B6803
:102630009A4203D30D48FFF7CFFD38BD2046D4F8AA
:10264000A410FFF7F3FC0A4B1B6803F5FA63094A71
:102650001360EFE70322044B83F8252038BD0422E2
:10266000014B83F8252038BD943800209037002096
:10267000143900200C3900207047FEE7FEE7FEE722
:10268000FEE770477047704708B5FFF725FA024A22
:1026900013680133136008BD143900207047704778
:1026A00008B5FEF767FE08BD08B5FEF79BFE08BD3E
:1026B00008B5FEF77BFE08BD08B5FEF7A7FF08BD0D
:1026C000304B1A6C42F080521A642F490A6842F467
:1026D00080720A601A6F42F480321A671A6F22F40D
:1026E00080321A671A6F42F001021A67274B1A6884
:1026F000D2B26432D2B2234B1B6F13F0020F05D15A
:10270000224B1B689A42F6D2002100E001211D4AAB
:10271000136F23F44073136731B3136F43F4807363
:102720001367184A136F43F400431367184BCA2208
:102730005A6253225A62DA6842F08002DA60144B1D
:10274000DB6813F0400FFAD0C1B97C2141F63F722B
:102750000F4B1A6142EA01421A61DA6822F08002E4
:10276000DA60FF225A627047064B9A6842F4C81238
:102770009A601A6F42F440721A67D2E77F21FF22F3
:10278000E6E700BF00380240007000401439002026
:102790000028004000B583B0FFF792FF10238DF8AA
:1027A000073006238DF8053001238DF8063002A985
:1027B000032301F8043D0020FEF796FA012802D019
:1027C0000220FFF769F900208DF800008DF8010064
:1027D0008DF802006946FEF739FA012802D002207E
:1027E000FFF75AF903B05DF804FB0000014B1868CD
:1027F000704700BF1439002070B4002A31DB144642
:1028000046F2DF35334AA2FB0432120C1544324E35
:1028100006FB1246314BA3FB0623DB0A0B704FF479
:10282000616404FB13642E4BA3FB04235B094B7010
:10283000C3EB03139A00A21A8A70691C294B83FB0D
:1028400001235A18CB17C3EBA203C3EBC303CB1A64
:102850000370254A82FB05325319EA17C2EB232283
:1028600010E0224C14440025CCE7CB1C0EE0204C99
:10287000B4F90040234440F26D1404FB02339D423E
:102880000DDA0A46511E0B460029EEDB9B1012F0B2
:102890000306ECD10AB9164CEAE7164CE8E7EB1A46
:1028A000C27016B9A2B9124900E011490C22013ACE
:1028B00001EB420531F91240A342F8DB01324270CC
:1028C000B5F900505B1BDBB20133837070BC7047FD
:1028D0000849EBE707452EC280510100C5B3A2911C
:1028E0008988888893244992B1F98CB3807EAA8321
:1028F0005C0501084405010800B583B0024601A942
:102900006846FFF779FF01A90020FEF79FF96946A5
:102910000020FEF7E9F903B05DF804FB034B1B68E8
:102920001844024B1B689842FBD8704714390020AA
:102930002DE9F04385B0074688461546002224213C
:10294000012002F064FC40B30646D7F804904468C6
:1029500084F800806570002525716571A571E571A9
:1029600040681C227968083007F0B6FCA570E57055
:102970007189204600F0F5F86080D9F80C3004AA7F
:1029800042F8043D012301930095FF232946304678
:1029900000F07AFA304602F00CFC05B0BDE8F08396
:1029A0002DE9F04385B005460F464668317801F0C1
:1029B0000F0189000FFA81F849420CB2214602F05A
:1029C000BAFBD0B92B89032B17D96B681B78082B5E
:1029D00071D1424B186800F0F003E02B13D04FF098
:1029E0000109394600F06CFA08B14FF00009B9F15D
:1029F000000F0BD02B89072B0CD8284602F0D9FBEF
:102A000005B0BDE8F0834FF00009EAE7284602F080
:102A1000D0FBF5E7284600F0AAF868B9222128463D
:102A200002F089FB30B34146284602F084FB38B1FE
:102A3000284602F0BEFBE3E7284602F0BAFBDFE7D8
:102A400000222989022002F0E2FB81460028EFD013
:102A5000294602F0BAFC0028EAD1D9F804602146E0
:102A6000484602F068FB0028E2D1284602F0A1FBAC
:102A70004D4606E06FF02101284602F05CFB00287D
:102A8000D6D16A68154B1B68F360154B1B68336120
:102A90000023137053884FF6F6718B420FD9093318
:102AA0005380FF2333720023B372F37241462846EA
:102AB00002F041FB30B1284602F07BFBA0E708336F
:102AC0005380EEE702970123019300220092FF2337
:102AD0000249284600F07EF9EDE700BF24390020C6
:102AE0001C39002008B50A460321FFF721FF08BD65
:102AF00008B50A460B21FFF71BFF08BD10B483B0D1
:102B00000023ADF8063010F0010407D0994208DD2B
:102B1000431C02788DF80720013900E003460022AB
:102B200005E00346FBE71888024402390233012915
:102B3000F9DC002902DD1B788DF80630BDF80600AF
:102B4000024490B200EB124290B200EB124024B16A
:102B500003029BB2C0F30720184380B203B010BC3D
:102B6000704708B5FFF7CAFFC04380B208BD70B513
:102B700005460026344600E02D68A5B169896868DD
:102B8000FFF7BCFF204484B204EB10446B8913F0C0
:102B9000010FF1D0C6F10106F6B223029BB2C4F3D5
:102BA00007241C43E8E726B123029BB2C4F30724A1
:102BB0001C43E04380B270BD184B1B680DE0184AFF
:102BC000106838B190F82D2012F0010F02D118468C
:102BD00000E0184610BC70471B68A3B193F82D2085
:102BE00012F0010FF8D010B402685C689968624076
:102BF0000A42EED01B68002BE1D093F82D2012F092
:102C0000010FF7D0F0E7064A10680028E3D090F8EB
:102C10002D2012F0010FDED118467047746100209C
:102C2000786100202DE9F8430746D0F8049099F820
:102C300000301A09042A04D002F0BBFA0020BDE8D3
:102C4000F8830E4603F00F034FEA8308B9F8020039
:102C500000F0DDFC7B89984502D83B89984203D976
:102C6000384602F0A6FAE9E70146384602F05BFB77
:102C7000D9F81020524B1A60D9F80C20514B1A6029
:102C80003446012507E0002D5AD04F4B1C68002523
:102C9000B44257D09CB194F82D3013F0010FF2D00C
:102CA00014F1040FEFD06368002BECD0444A106895
:102CB000834204D0214600F003F90028E3D0002C21
:102CC00042D001231BB13F4B186800284DD1002C86
:102CD00059D0B9F8063023F0C0039BB23BB1384657
:102CE00000F016FB07460028A8D0D0F80490374B18
:102CF0001E60374BC3F800903146384602F0F8FBAF
:102D0000002848D199F80930062B4ED0112B3ED01F
:102D1000012B4FD031462A4B186800F0D1F858B932
:102D2000274B1B6803F0F003E02B05D0C7F8049095
:102D300002213846FFF7D6FE384602F03AFA2AE07A
:102D40002468A5E72468A5E799F80930112B01D07C
:102D50000123B7E7C844B8F80230B3F5884F01D073
:102D60000123AFE734460023ACE7314600F0A8F872
:102D700028B9144B1B6803F0F003E02BA7D13846A9
:102D800002F017FA5AE7384602F013FA56E73146CE
:102D9000384604F0C9FF00230C4A13600C4A136044
:102DA000084A1360064A136048E73146384603F084
:102DB00007FFF0E731463846FFF7F2FDEBE700BFCB
:102DC000243900201C3900207461002020390020A3
:102DD000283900202DE9F04383B005460C9E002AD7
:102DE00041D0894698461746142102F0A4F90028DC
:102DF00045D16C6884F808809DF82C3063723B687C
:102E00002361452323709DF828306370288900F0E2
:102E1000F9FB60800023A371E371DFF86880B8F8E4
:102E2000000000F0EFFBA080B8F800300133A8F8F4
:102E30000030B9F1000F02D0D9F800308BB97368B7
:102E4000E3600023A372E372B38C13B12A89934227
:102E50000FD373693A4629463046984703B0BDE818
:102E6000F083E360EDE743681B6902AF47F8043D78
:102E7000EAE73A463146284600F002FBEEE76FF0FB
:102E80000100EBE7200B0020F0B585B005460E46AB
:102E900014461F461046FFF78FFE70B102909DF852
:102EA0002C3001939DF8283000933B462246314652
:102EB0002846FFF78FFF05B0F0BD6FF00300FAE77B
:102EC000431E13F1030F11D891F82D3013F0020FA8
:102ED0000ED04B6898420DD08A68434013420BD104
:102EE000D24332EA000309D0002070470120704726
:102EF0000020704700207047002070470120704775
:102F0000F0B585B005460C4690F900306F463EE0BE
:102F10006A1C95F90130782B04D0582B02D0154645
:102F200008263CE095F902300235102637E0102ED5
:102F300023D1A2F16101C9B2052904D9A2F141014D
:102F4000C9B2052919D800010A33613AD2B2192A47
:102F500011D861229B1A184315F9013FDAB2A2F188
:102F60003001C9B20929E2D800FB0633A3F13000D1
:102F700015F9013FF2E74122ECE72E2B11D103AB0B
:102F80009F424CD2386095F9013004370135A3F1E6
:102F90003002D2B2092A40D8302BB9D00A260020FC
:102FA000DCE76BB1202B0BD00C2B09D00A2B07D000
:102FB0000D2B05D0092B03D00B2B01D000232FE0C4
:102FC0006B46FB1A9B100133042B0AD8DFE803F091
:102FD0002809030F1900B0F1807F24D2009B40EA3A
:102FE000036034B300F017FB2060012318E0B0F554
:102FF000803F1AD2019B1B04009A43EA02631843E4
:10300000EFE7FF2813D8019B1B04009A43EA0263F1
:10301000029A43EA02231843E3E7002300E0002377
:10302000184605B0F0BD0023FAE70023F8E70023B7
:10303000F6E70123F4E700B583B001A9FFF760FFCD
:1030400020B94FF0FF3003B05DF804FB0198FAE7B8
:1030500008B5074B1B68834206D003680B60014626
:10306000052001F08FFF08BD0268014B1A60F6E7EA
:10307000240B00202DE9F041074688464468636828
:103080009A8812B100257C681EE01B6843601422F8
:1030900000F10801606807F01FF901212046FFF7E1
:1030A00027FD204602F066F985B2204602F081F83D
:1030B000E9E763681E68204602F05CF90544ADB29A
:1030C000204602F076F83446002CF2D141463846CC
:1030D000FFF7BEFF034A13885B1B13802846BDE839
:1030E000F08100BF220B00202DE9F0410546884603
:1030F000002628E09A69D5F810E072450FD1B3F8A0
:103100000CE0AA8896450AD100E018461A6882B1F8
:10311000194613467BB1EA685F699742EAD00134E9
:103120000028F2D093F81FE0C27F9645EED81846EB
:10313000ECE70B46ECE710B1FFF79CFF0644464571
:1031400007DA012C05DD044B1B68002421462046CC
:10315000E0E73046BDE8F081240B002008B50146C9
:10316000062001F00FFF08BD10B50446406908B104
:1031700002F01FF82046FFF7F1FF10BDF8B5074633
:103180000E464C68608800F042FA257805F00F057D
:10319000A0EB8505ADB2E08800F039FAC0F30C0071
:1031A000C100D6F804C000248CF800408CF801401F
:1031B0008CF802408CF80340ACF8041005EB010ECB
:1031C0001FFA8EFEACF806E07D68012025E0CCF801
:1031D0000050F4B1E28891423FD39B889E453CD891
:1031E000266065B3BB7F13F0010F43D0002844D0A5
:1031F0007B685B689B88002B3ED1DCF800204AB3DB
:103200005368BCF806109A88914224D11A689C46EB
:10321000F5E77E60E5E71D681C46002DE1D06B6890
:103220009A889142D3D3914217D0DD88A94214D312
:10323000002CF0D0E488A242EDD00020EBE73CB1B6
:10324000E2882660BCF804309A42CBD00020C9E75F
:103250007E60C7E7F8BD0020F8BD304602F08AF86E
:1032600080B2064A1388181A1080304601F0A1FF78
:103270000020F8BD0020F8BD0020F8BD220B002082
:1032800008B5062001F06CFE08BD000070B50546CB
:103290000E46052001F064FE044690B12022002174
:1032A000204607F08FF80323E3770D4B1A6822605E
:1032B0001C601422294604F1080007F00DF820468E
:1032C00070BD31462846FFF70FFF864202DD002C15
:1032D000E4D1F4E7052001F043FE0446F7E700BF20
:1032E000240B002038B5094B1868002404E0056859
:1032F0002146FFF7BFFE284638B1C37F002BF6D02A
:10330000013BC37704460068F6E738BD240B002074
:103310002DE9F047814645682B7803F00F03052B14
:1033200026D1E88800F073F9C0F30C004FEAC00A18
:10333000688800F06CF92F7807F00F07A0EB87077B
:10334000BFB2484602F016F880464B4B1B88034438
:103350000A2B03DC494B1C68002611E00146284675
:10336000FFF7C2FE20B1444B1B8843440A2BF1DD1A
:10337000484601F01EFF4FF0000877E0264624681B
:103380005CB16269EB689A42F8D1A2692B699A42F2
:10339000F4D1A289AB889A42F0D1002C44D0E888BD
:1033A00000F035F9C0F30C00002845D0324B1A88E4
:1033B0009044A3F80080EB8813F0200F05D1A37F81
:1033C00043F00103A3775744A78349462046FFF7FC
:1033D000D5FE00284DD0A38B1433A38363685F68A8
:1033E0003D68142204F10801384606F075FFA08BF1
:1033F00000F008F978800023BB71FB71BB72FB728F
:1034000014213846FFF7ADFB7881D4F804800DB362
:103410006F686FF01301284601F08DFE2946404683
:1034200001F0B6FF3D68F2E741462846FFF72EFF60
:1034300004460028BAD19BE7E08900F0E8F8C0F321
:103440000C000028B2D01422294604F1080006F02E
:1034500043FFABE731462046FFF7FAFD404601F057
:1034600089FF80B2044A1388181A10804046BDE8CC
:10347000F0874FF00008F9E7220B0020240B002012
:103480002DE9F04F8DB005460A910B92B1F82480DA
:1034900043680993D88800F0BAF8C0F30C0304938A
:1034A00000F400530893B5F80890A9F114091FFA25
:1034B00089F9A8F114084346B8F1000F05DBC3F3FE
:1034C000CF030793002414267EE008F10703F6E7F4
:1034D000CDF8149000221421022001F098FE8246BB
:1034E000002800F08A8014220999406806F0F4FE52
:1034F000DAF804B06B6833446B606B899E1B6E8195
:10350000059E1CE0FFF7BCFE074610B36B680194F4
:103510000093034602222146032001F0DDFD0390C3
:10352000F8B1284601F02FFF7D61354B3B610399CF
:10353000504601F02DFF361BB6B206B12D68CEB154
:103540006C89B44228BF3446A4B2002CDAD12D686D
:10355000F5E7504601F02DFE4FF0FF300DB0BDE80D
:10356000F08F3846FFF7FAFD504601F022FE4FF08B
:10357000FF30F3E7069800F045F8ABF80600059E2B
:1035800006F1140080B200F03DF8ABF80200002311
:103590008BF80A308BF80B3014215846FFF7E1FA0C
:1035A000ABF80A000A9843690B9A5146984750466F
:1035B00001F0FFFDA9EB06091FFA89F9049B079AA0
:1035C00013449BB204932646B9F1000F13D04B4627
:1035D000049AC2F30C0208990A430692C84502DA1B
:1035E00042F4005206929845BFF672AF079BDB008B
:1035F0009BB205936EE70020B0E74FF0FF30ADE7D8
:1036000069310008030A43EA002080B2704708B518
:10361000FFF7F8FF08BD030203F47F0343EA0063EA
:10362000020A02F47F42134343EA1060704708B570
:10363000FFF7F1FF08BD037B8B4203D0017300232A
:1036400043734383704730B4048B4369651C05831F
:10365000234483F8F0104369018B4C1C04830B4412
:1036600083F8F02030BC704710B4028B4369541CBF
:103670000483134483F8F01010BC704710B4028B1D
:103680004369541C04830C0A134483F8F0404369D3
:10369000028B541C0483134483F8F01010BC704751
:1036A00010B4028B4369541C04830C0E134483F83A
:1036B000F0404369028B541C0483C1F30744134454
:1036C00083F8F0404369028B541C0483C1F3072440
:1036D000134483F8F0404369028B541C0483134461
:1036E00083F8F01010BC70470146B8B14369028BF3
:1036F000501C08831344FF2283F8F02008E0432B7A
:103700000CD84A69581C08831344002283F8F0201F
:103710000B8B432BF3D913F0030FF0D1704700004C
:10372000002800F0A4802DE9F0410646002900F0B1
:10373000A18015460C4600224FF49A71104601F004
:1037400066FD2061002800F09980637B1BB94D4A1B
:103750001368013313604B4B1B682360426862613E
:103760000123137062695370636996F826209A707A
:1037700063690027DF70D4F814802068FFF74BFFDF
:10378000C8F8040063691F725F7263699F72DF7219
:1037900063691F735F739F73DF73082D08D0042D57
:1037A00006D0032D07D1237B043BDBB2012B02D8CB
:1037B00063697268DA6062690023137453749374E6
:1037C000D3746269137553759375D37562691376F3
:1037D00053769376D37604E00021024411770133C7
:1037E0009BB20F2B09D86269184696F826108B42B7
:1037F000F2D2F11891F82710EFE7002306E0626992
:103800001A44002182F82C1001339BB23F2BF6D9C9
:10381000002306E060691844002280F86C20013320
:103820009BB27F2BF6D962690023632182F8EC10EA
:103830006FF07D0082F8ED00532082F8EE0082F8F0
:10384000EF10238305E062691A4482F8F0300133F7
:103850009BB2432BF7D9012235212046FFF7F3FE17
:1038600029462046FFF700FF0020BDE8F0816FF0F9
:103870000D0070476FF00500BDE8F0814FF0FF309C
:10388000BDE8F0813000002048B110B50446006961
:1038900008B101F08EFC00232361636110BD704705
:1038A00070B582B00646046A04212046FFF7C3FEC5
:1038B000032221463046FFF733FF0546C0B1637B44
:1038C0000133DBB26373092B2FD89BB2C3EB4312D6
:1038D00003EB8203DA0093B203F2F313144A82FB80
:1038E0000312DB17C3EB62136383284602B070BD7B
:1038F000022239212046FFF7A6FEB18C2046FFF7B1
:10390000BDFE2046FFF7F0FE218BF03189B2206921
:1039100001F009FD2169606800964323054A04F01F
:1039200017FB2046FFF7B0FFC9E742F21073D3E759
:10393000D34D62107805010808B5036A1B7B012B83
:1039400003D00A2B01D0052B01D1FFF7A9FF08BD39
:1039500070B582B00646046A0023636206212046E1
:10396000FFF769FE012221463046FFF7D9FE0546E2
:10397000A8B1637B0133DAB26273052A41D84FF4F0
:103980007A7393409BB203F2F3131F4A82FB031234
:10399000DB17C3EB62136383284602B070BD0222BB
:1039A00039212046FFF74FFEB18C2046FFF766FE17
:1039B000042237212046FFF746FE01212046FFF76B
:1039C00053FE03212046FFF74FFE1C212046FFF740
:1039D0004BFE06212046FFF747FE2046FFF784FEF8
:1039E000218BF03189B2206901F09DFC216960686A
:1039F00000964323054A04F0ABFA2046FFF744FF44
:103A0000B7E74EF66023BEE7D34D62107805010894
:103A100070B582B00646046A01212046FFF70BFE0E
:103A2000032221463046FFF77BFE0546A8B1637BA3
:103A30000133DAB26273052A59D84FF47A7393408E
:103A40009BB203F2F3132B4A82FB0312DB17C3EB87
:103A500062136383284602B070BD022239212046DA
:103A6000FFF7F1FDB18C2046FFF708FE042232215A
:103A70002046FFF7E8FD606AFFF7D9FD01462046C2
:103A8000FFF70EFE042236212046FFF7DCFD206AF8
:103A9000FFF7CDFD01462046FFF702FE0422372145
:103AA0002046FFF7D0FD01212046FFF7DDFD032171
:103AB0002046FFF7D9FD1C212046FFF7D5FD062142
:103AC0002046FFF7D1FD2046FFF70EFE218BF03197
:103AD00089B2206901F027FC2169606800964323C0
:103AE000054A04F035FA2046FFF7CEFE9FE74EF672
:103AF0006023A6E7D34D62107805010838B5056A42
:103B0000074B9B785BB10446064B9868FFF783FD33
:103B10002862AB681B696B622046FFF779FF38BDEE
:103B20002C3900203839002070B582B00646046A6E
:103B300003212046FFF77FFD032221463046FFF791
:103B4000EFFD0546C0B1637B0133DBB26373092B24
:103B50003CD89BB2C3EB431203EB8203DA0093B26F
:103B600003F2F3131B4A82FB0312DB17C3EB62134E
:103B70006383284602B070BD022239212046FFF738
:103B800062FD4FF410712046FFF778FD04223221C8
:103B90002046FFF758FD606AFFF749FD01462046C1
:103BA000FFF77EFD2046FFF79FFD218BF03189B2A4
:103BB000206901F0B8FB2169606800964323064A3A
:103BC00004F0C6F92046FFF75FFEBCE742F210732F
:103BD000C6E700BFD34D62107805010870B582B00A
:103BE0000546046A0C212046FFF725FD04222146E4
:103BF0002846FFF795FD064638B1637B01336373B2
:103C000014236383304602B070BD04223221204663
:103C1000FFF719FD606AFFF70AFD01462046FFF72E
:103C20003FFD2046FFF760FD218BF03189B220690E
:103C300001F079FB2169606800954323034A04F091
:103C400087F92046FFF720FED7E700BF7805010877
:103C500038B50546046A08212046FFF7ECFC00222F
:103C600004F12401284604F0E1FC637B0133637313
:103C70000123638338BD0000002867D030B583B0CE
:103C80000546046A002C4DD0636BB3F1FF3F0ED0A4
:103C90001E332F4AA2FB03235B09B3F5803F01D3F8
:103CA0004FF6FF739BB2A3830BB90123A383A36BCE
:103CB000B3F1FF3F0ED01E33254AA2FB03235B095D
:103CC000B3F5803F01D34FF6FF739BB2E3830BB98B
:103CD0000123E383A28BE38B9A4202D30BB100232F
:103CE000A383A37B03B3A36A0193E36A00932BB975
:103CF000636A019A134043F08073009304F1240136
:103D0000284601F04BF901A9284601F07DF96946E2
:103D1000284601F073F9284601F0B8F90A21204637
:103D2000FFF789FC03B030BD94F8243013F0800F06
:103D300002D1FF230193D8E7BF2B03D96FF07F4354
:103D40000193D2E74FF6FF730193CEE7704700BFB0
:103D5000898888882DE9F04F85B004468B460A2271
:103D60000021CB4806F02EFBBBF80A302B2B40F28B
:103D70009381DBF80430A360BBF808700023019343
:103D80000093F0255B4609E000230093EC276C25A7
:103D9000F8E7AD1AADB2BF1ABFB21B6813B15A89AA
:103DA0009542F6D29946002B00F07981D3F804A011
:103DB000A8E0D9F8003013B15B681B78BAE00023A3
:103DC000B8E0013DADB24FF0FF38002423461D445A
:103DD000ADB20235ADB2002C00F082800023039317
:103DE00065E0042B40F05E811C464FF00608EEE7CC
:103DF000032B40F25A814FF007080424E7E713F041
:103E0000030F40F055811C46082B28BF0824A3420D
:103E1000C0F051814FF00808D9E7042B40F04E81E3
:103E20001C464FF00308D2E7012B40F04A811C46A4
:103E30004FF00008CBE7012B40F046811C464FF0C5
:103E40000108C4E7042B40F042811C464FF00208F1
:103E5000BDE7042B40F03E811C464FF00408B6E756
:103E6000042B40F03A811C464FF00508AFE74FF0B5
:103E7000FF380024ABE70422334603A9484601F08B
:103E800008FB042C1BD914F0030F40F0D68001224C
:103E90007F4B03F808200398FFF7BDFB7D4B43F8E9
:103EA0002800043CE4B20436B6B208F10108784BAD
:103EB00013F80830A3B9032CDDD8A2B2DCE7042C38
:103EC00000F0B680012C40F0B8809DF80C300393D0
:103ED00001226F4B03F80820039A6E4B43F8282009
:103EE000B9F80A309D420DD3ED1AADB2FF1ABFB238
:103EF000BD4280F0A780002F00F0A480D9F8009088
:103F0000D9F804A0B9F1000F00F09C8029461AF8F6
:103F10000520FF2A00F09680BD4280F09380AE1C01
:103F2000B6B26B1CB9F80A008342BFF642AF01314A
:103F30001AF801303B2A9AD801A151F822F000BFAB
:103F4000C33D0008E33D00086F3E0008F13D000856
:103F50006F3E00086F3E0008FF3D00086F3E0008FE
:103F60006F3E00086F3E00086F3E00086F3E00087D
:103F70006F3E00086F3E00086F3E00086F3E00086D
:103F80006F3E00086F3E00086F3E00086F3E00085D
:103F90006F3E00086F3E00086F3E00086F3E00084D
:103FA0006F3E00086F3E00086F3E00086F3E00083D
:103FB0006F3E00086F3E00086F3E00086F3E00082D
:103FC0006F3E00086F3E00086F3E00086F3E00081D
:103FD0006F3E00086F3E00086F3E00086F3E00080D
:103FE0006F3E00086F3E00086F3E00086F3E0008FD
:103FF0006F3E00086F3E00086F3E00086F3E0008ED
:104000006F3E00086F3E00086F3E00081B3E000830
:10401000293E0008373E0008453E00086F3E000874
:104020006F3E00086F3E0008533E0008613E0008E6
:104030000398FFF7FCFA03904AE76FF0050005B01C
:10404000BDE8F08F124B1B7853B1124B1B68002157
:104050000F4A1170012B0ED0022B0FD0032B10D062
:10406000009B002B7FF490AE019B73B1009B0193EA
:104070006C272C2586E601230093F1E701230193A9
:10408000EEE7012301930093EAE70020D7E700BFA2
:104090002C390020383900206FF00100CFE76FF095
:1040A0000100CCE76FF00500C9E76FF00500C6E737
:1040B0006FF00500C3E76FF00500C0E76FF0050083
:1040C000BDE76FF00500BAE76FF00500B7E76FF0E6
:1040D0000500B4E76FF00500B1E76FF00500AEE74B
:1040E00010B582B0046A0023A362E362244BDB783C
:1040F00013B1244BDB682363214B1B793BB3214B6A
:104100001B6963631E4B5B792BB31E4B5B69A36317
:10411000A3681B6963621A4B9B79FBB1194B9869C1
:10412000FFF779FAA0620123A373154BDB7923B162
:10413000144BD869FFF76FFAE062002404F108031A
:104140000F4AD25C0AB1012C0BD902B010BD236B0F
:104150005B086363D6E7236BA363D9E70023A373EC
:10416000E3E7084A52F82300FFF755FA02A941F89D
:10417000040D204600F0FEFC0134E4B2DEE700BF8F
:104180002C3900203839002070B50446066A00F04A
:1041900092FF0A4D2946204600F000FF294620469E
:1041A00000F02CFF2946204600F02EFF0C2130465F
:1041B000FFF741FA2046FFF7CBFB70BD74050108FD
:1041C00070B504461546066A506853892B2B02D9F0
:1041D0000378022B05D00023B360284600F0E9FFE6
:1041E00070BD002394F82620934209D2E21892F879
:1041F0002710C218127F9142EDD10133DBB2F1E7F3
:104200004068FFF714FA33689842E4D129463046F3
:10421000FFF7A0FD0028DED1194B5B78002BDAD028
:10422000184B1B79052B0CD0062B1CD0022BD2D19E
:10423000337B062BCFD1002373832046FFF75EFC30
:10424000C9E7337B012B07D0033BDBB2022BC2D87B
:104250002046FFF711FDBEE72046FFF741FF20464D
:10426000FFF7F6FCB7E7327B032A05D0012A03D01B
:10427000042A01D0052AD9D12046FFF785FFAAE7F5
:104280002C3900203839002078B108B50246036A7D
:1042900013B1187B082800D008BD09685B6A9942F1
:1042A000FAD11046FFF79AFCF6E7704770B582B076
:1042B0000646046A05212046FFF7BDF90322214680
:1042C0003046FFF72DFA0546C0B1637B0133DBB200
:1042D0006373092B30D89BB2C3EB431203EB820309
:1042E0001A0193B203F2F313154A82FB0312DB1790
:1042F000C3EB62136383284602B070BD02223921EA
:104300002046FFF7A0F9B18C2046FFF7B7F9204609
:10431000FFF7EAF9218BF03189B2206901F003F847
:10432000216960680096432304F1200203F010FE27
:104330002046FFF7A9FAC8E744F62063D2E700BF9A
:10434000D34D621008B5036A1B7B012B03D00A2BE7
:1043500001D0052B01D1FFF7A9FF08BD10B50D4B0A
:104360001C6803E02046FFF7E7FA24688CB1236A53
:10437000002BFAD0DA8B511ED983012AF2D0226A9F
:10438000938B591E9183012BEFD12046FFF7DAFF63
:10439000EBE710BD7461002070B582B00546046A79
:1043A00000212046FFF747F9002323626362A362DE
:1043B000E362A36363632363072221462846FFF772
:1043C000AFF9064640B3637B0133DBB26373092B5D
:1043D00037D89BB2C3EB431203EB8203DA0093B2EC
:1043E00003F2F313184A82FB0312DB17C3EB6213C9
:1043F0006383284600F05FFE144C2146284600F0F7
:10440000CDFD2146284600F0F9FD2146284600F062
:10441000FBFD304602B070BD2046FFF765F9218BE9
:10442000F03189B2206900F07EFF21696068009553
:10443000432304F1200203F08BFD2046FFF724FA0A
:10444000C1E742F21073CBE7D34D62107405010847
:1044500010B50446026A137B0C2B0CD0062B0AD035
:10446000012B0CD0082B16D0052B1DD0042B1ED0F1
:10447000032B28D010BD2046FFF76AFA10BD537BEE
:10448000052B02D8FFF7C4FA10BDFFF785FF2046C1
:10449000FFF75EFA10BD537B012B02D9FFF7ECFB4F
:1044A00010BDFFF7D5FB10BDFFF700FF10BD537B1C
:1044B000082B02D8FFF7F4F910BDFFF76DFF204677
:1044C000FFF746FA10BD537B012B02D9FFF740FAE4
:1044D000D0E7FFF729FB10BD10B50B4B1C6802E0BD
:1044E000012B0AD0246874B1226A002AFAD0538BB7
:1044F000012BF5D9013B5383F4E7013B538320465D
:10450000FFF7A6FFEEE710BD7461002098B110B56B
:10451000046A90F82D2022F0080280F82D204CB17A
:10452000606818B103F0BCFD0023636000212046E1
:10453000FFF781F810BD704700284CD070B50446D5
:10454000056A90F82D3003F0F70380F82D3013F052
:10455000200F44D0838CB3F5107F43D375B36868C4
:1045600008B103F09DFD3C220021284605F02AFFFA
:1045700003F0B0FD686000283AD0037A43F02003CE
:1045800003721D4E44223146686803F0A1FC4322A9
:104590003146686803F056FD22461849686803F002
:1045A0007BFD2046FFF7D4F9024670B994F82D3010
:1045B00043F0080384F82D30104670BD3C2000F015
:1045C0003FFC054688B12062CDE72046FFF79EFFFD
:1045D0004FF0FF32F0E76FF00D02104670476FF0BA
:1045E0000D02E9E74FF0FF32E6E74FF0FF32E3E775
:1045F0004FF0FF32E0E700BF74050108C141000839
:104600004A1C0B7803F0C001C0291AD01146D3B957
:1046100001301378002BF3D1002070474A1C0B782F
:1046200003F0C001C02908D011466BB901300B78E6
:10463000002BF3D1002010BC70470020FBE70120C5
:10464000F9E70020704710B404780A789442F6D154
:1046500001310130013BDBB2E7E7421C037803F094
:10466000C001C02905D010462BB90378002BF4D126
:104670000246501C70470130013BDBB2F4E70000FA
:104680002DE9F04784B014461289B2F5007F01D8B5
:10469000192A05D8204600F08CFD04B0BDE8F0874B
:1046A000002360490968204600F0F3FE2389984200
:1046B000F0D15C4B1E683088FEF7A4FF0546032846
:1046C000E8D84FF48C7303FB00F3574AD35C022BFA
:1046D000E0D14FF48C7303FB00F3D1180320D054C6
:1046E000F37803F00F034B71B088FEF78BFF804621
:1046F000F088FEF787FF074696F90230002B20DB93
:104700004FF48C73484A03FB0523D3F810616EB154
:1047100013464FF48C7202FB05F202F108001844B4
:104720001344D3F8142100210430B0473E4A4FF41B
:104730008C7303FB05F5511900235355C1F8103153
:10474000A8E74FF48C73384A03FB05235B79002BF1
:10475000D6D1B8F1010FD3D14FF48C7303FB05F31D
:10476000083313441E1D2F4B1B6803F10C084146F0
:104770003046FFF745FF0028C2D14046FFF76DFFE6
:10478000043007E0BDF80C00FEF73CFF0A3050444F
:10479000013FBFB2002FB3D0FFF75FFF82460A226E
:1047A000014601A805F098FD019BB3F1012FE9D165
:1047B000BDF80C30B3F5806FE4D10298FEF737FFF7
:1047C0004FF48C73184A03FB05239860174B9842EB
:1047D00005D94FF48C7303FB0523144A9A60DFF864
:1047E00048804FF48C7909FB05F909F58477474433
:1047F000043704220AF10A01384605F06DFDC84469
:10480000D8F81081B8F1000F3FF444AF4FF48C7327
:10481000054A03FB0525D5F8142139463046C04723
:1048200038E700BF280B0020400D0020803A090027
:104830002DE9F04182B006460C46904600224FF426
:104840008871104600F0E3FC002853D00546476805
:104850000C220021384605F0B5FD4046FEF7D2FE99
:1048600038800123BB7000233B7101237B710C371F
:10487000611E0FE000F8013B0132D2B2013191F923
:1048800000302E2B01D0002BF4D13A7091F900307A
:1048900023B107460131781C0022F0E7044604F8F2
:1048A000053B4FF48073ADF80430ADF806300422B8
:1048B0000DEB0201013005F00FFD6968611A89B244
:1048C000284600F030FD0D4B03EB86060C4C3522DC
:1048D0003146206803F0B6FB35233246294620686E
:1048E00003F099FB0446284600F063FC204602B022
:1048F000BDE8F0814FF0FF34F8E700BF380D00202D
:10490000300D002038B504464FF48C7303FB00F3E0
:10491000484AD35C022B18D0032B76D0012B00D051
:1049200038BD11464FF48C7303FB00F31A44022088
:10493000C8540020507001259570D0700833194478
:1049400022460431FFF774FF38BD4FF48C72394BA7
:1049500002FB00329378013BDBB29370002BDFD176
:104960004FF48C72334B02FB0032D3780133DBB24D
:10497000D370042B3AD14FF48C732E4A03FB0023DF
:104980005B785A1C012A20DD4FF48C73294A03FB03
:104990000423D3F810516DB113464FF48C7202FB0F
:1049A00004F202F1080018441344D3F81421002142
:1049B0000430A8471F4A4FF48C7303FB04F4111909
:1049C00000231355C1F8103138BD1B4951F822207E
:1049D000002AD9D04FF48C72164902FB001401331F
:1049E00063700123A3700023E37038BD11494FF4B5
:1049F0008C7202FB00F28818837008321144224640
:104A000004314078FFF714FF38BD4FF48C72094B26
:104A100002FB00329368013B9360002B80D1054A72
:104A20004FF48C7303FB04F4111900231355C1F8E0
:104A3000103175E7400D0020380D002010B500241E
:104A400004E02046FFF75EFF0134E4B2032CF8D9FE
:104A500010BD00002DE9F0410025AE46AC462C46C5
:104A600001E00134E4B2032C13D82B4E4FF48C73C5
:104A700003FB04F3F518F35C5BB1032BF1D1274B77
:104A80001B782E799F1B6745EBDD5FFA87FCA646F6
:104A9000E7E7042C21D0064601232B701F4803783A
:104AA0005F1C07702B71C5F81011C5F81421304632
:104AB00005F058FEFE2825D9FF273A46314605F174
:104AC0000C0005F009FC3D4400232B732046FFF742
:104AD00019FF6FF00400BDE8F081BEF1030F16D896
:104AE0004FF48C7303FB0EF30B4CE35C032B03D0EE
:104AF0004FF0FF30BDE8F0814FF48C7505FB0E459B
:104B00007446C8E7304605F02DFE0746D5E74FF05E
:104B1000FF30BDE8F08100BF400D0020340D0020C3
:104B200070B50646002401E00134E4B2032C1BD822
:104B30004FF48C7303FB04F30D4AD35C032BF3D1C6
:104B40004FF48C7101FB04F10831114404313046FB
:104B500005F0CCFC0028E7D14FF48C72044B02FB2B
:104B60000435D5F80C0170BD4FF0FF3070BD00BFAB
:104B7000400D0020012800D97047074B1B68002B0F
:104B8000FAD00029F8D00B68002BF5D01A46034B59
:104B900043F82020F0E700BF300D0020380D002042
:104BA00000B583B0114B23F00303114A1360114881
:104BB000FEF741FA0190104B1B6813B103B05DF88A
:104BC00004FB03F087FA0C4B18600028F6D0002293
:104BD0000A4903F07DF900220949074B186803F0E0
:104BE0005BFA01A90020FFF7C5FFE7E72F0B0020C4
:104BF000280B00207C050108300D002074050108F9
:104C00008146000808B5034B1B680BB1FFF716FF80
:104C100008BD00BF300D0020F8B51A4C246814B34D
:104C200021B330B390F9004034B31F4616460D4609
:104C3000044605F097FDFF2821D82046FEF7FBF932
:104C4000B0F1FF3F05D0B0F1FF3F06D02860002053
:104C5000F8BD2046FFF764FFF5E73A4631462046A7
:104C6000FFF7F8FEF8BD6FF00D00F8BD6FF00D0016
:104C7000F8BD6FF00D00F8BD6FF00D00F8BD6FF0DE
:104C80000D00F8BD300D002030B4174B1B68174ADB
:104C9000156801885A1890420DD014795CB9954274
:104CA00009D0134C2468A24217D05A5A02805A5A8B
:104CB0001A44C11A518041885A1890420BD0147975
:104CC0004CB90B4C2468A0420AD004885C5201887D
:104CD0001944D31A4B8030BC7047054A1060E4E792
:104CE000034C2260F1E700BFA4110020A8110020AE
:104CF000A01100200A4B23F003030A4A13604FF46B
:104D00002051198000225A801A715A1806480260F0
:104D10000120107111805180044A1360704700BF58
:104D200063390020A4110020A8110020A011002048
:104D3000B0B108B503460B4A126890420FD30A4A35
:104D4000126890420BD20838002203F8042C074B5B
:104D50001B68984201D2054B1860FFF795FF08BD0C
:104D6000704700BFA4110020A8110020A01100204E
:104D7000033189B221F0030189B20B2900D80C213B
:104D8000B1F5205F52D82B4B1A6882422BD82A4BA0
:104D90001B68984227D2F0B4A0F10804A41AA4B268
:104DA00030F8085C2B1B9BB2083B9BB299423FD862
:104DB00018D056193779DFB9555B0B199BB20833F8
:104DC0009BB21E4909688E420ED0D11800260E7182
:104DD000D5524C8020F8083CD15AB1F5205F01D063
:104DE0000A445380F0BC7047D118144E3160ECE790
:104DF00001F114059D42F5D80B199BB208339BB203
:104E0000D1180E4D2D68A94201D20C4D2960002504
:104E10000D7130F8085CD5524C8020F8083CD15A0E
:104E2000B1F5205FDED00A445380DBE700207047F5
:104E30000020D7E7A4110020A8110020A011002015
:104E4000002851D00246033292B222F0030292B2FD
:104E50000B2A00D80C22B2F5205F47D830B4244B7F
:104E60001C68244B1B681B1B9BB215E001230371BC
:104E7000204B1B68984205D0083033E01C4A12686A
:104E80001B8813441A791AB11B4A12689342F5D150
:104E9000184A1360F0E70388C2F520518B4220DAEC
:104EA000E01801790029F6D1E15AC91A08391546E6
:104EB0009142F0D31435A942D8D31A4492B20832A1
:104EC00092B2A11800250D710588A5524B80028071
:104ED00001230371A35AB3F5205FC9D023445A803C
:104EE000C6E7002030BC70470020704700207047A4
:104EF000A4110020A0110020A811002030B400232C
:104F000001E001339BB2092BFBD9114921F00301C8
:104F1000002512E00F4850F822400C6040F82210A3
:104F20000D4830F81200014401339BB20B4830F8B1
:104F300012008342EED30135ADB2092D05D82A46C1
:104F40000023044840F82530F0E730BC704700BF2C
:104F5000AF110020D8350020A00501088C050108FC
:104F6000092809D8064B53F820303BB11968044A88
:104F700042F82010184670470020704718467047C6
:104F8000D83500200B4629B1034A52F82010196089
:104F900042F82030704700BFD835002070B5044675
:104FA0000D4609B30A6843689A421DD0114B186830
:104FB00003E0C66800F0C4FE304628B102686368AA
:104FC0009A42F6D0C068F8E70B4B1B6800E0DB683C
:104FD00053B1002BFBD01A68002AF8D061688A42CE
:104FE000F5D12A681A60F2E715B12B68636070BDCD
:104FF0000023FBE7806100208861002011B10B686D
:10500000C36070470023FBE711B10B6883607047F2
:105010000023FBE770B5044616461D46FFF7BEFFAA
:1050200031462046FFF7F0FF29462046FFF7E6FF0E
:1050300070BD0000F8B50446002545608560C56078
:1050400080F82D500562069DC5610B4E35786F1CAA
:10505000377080F83050089D0561FFF7DBFF204670
:10506000079B984728B9054B1A6822601C602046A8
:10507000F8BD0020F8BD00BF00360020746100209C
:10508000014B1860704700BF7861002008B590F8A8
:105090002D3013F0010F09D143F0010380F82D30BA
:1050A00013F0100F02D013F0200F00D108BD011D26
:1050B00003F070FAFAE708B590F82D3013F0010FFD
:1050C00006D003F0FE0380F82D3013F0200F00D13E
:1050D00008BD03F043FAFBE770B4039C032826D80D
:1050E000DFE800F002080406362004E00E2002E0AB
:1050F000002000E02220033020F003050D44BDF81D
:105100001060B54215DC00251D606CB120F0030075
:105110002044586002205873198159811A73012262
:10512000DA81184670BC704700205860F2E7002012
:10513000F8E70020F6E7002935D00B46002834D0E8
:1051400000290CDB89B210B4027B446872B1032AD7
:105150000CD0013A92B2012A1BD9012014E0494235
:1051600089B242899142EED901207047E21A426029
:1051700000F110018A4209D39BB242891A4442814C
:10518000028913440381002010BC70474460012051
:10519000FAE7002B01DB0120F6E74289914206D8AD
:1051A000E41A4460E8E700207047002070470120BF
:1051B000EAE738B540B30146002405E00B6908462C
:1051C00098470134E4B22946F9B1CB89013B9BB23F
:1051D000CB81BBB90D680B7B4A7B12F0020FEDD17E
:1051E000032B07D0013B9BB2012B07D90846FFF7E1
:1051F0009FFDE6E70920FFF7C5FEE2E70820FFF77D
:10520000C1FEDEE70021DFE70024204638BD2DE99E
:10521000F041032800F28380DFE800F00208040672
:10522000362404E00E2402E0002400E02224164686
:105230000D46032A75D8DFE802F0436565020920B0
:10524000FFF78EFE0746002859D00673002303603F
:1052500004F110030344033323F003034360058187
:10526000E11C21F00301C1F50071A942A8BF294644
:1052700089B241810123C3816D1A8046002D3ADD38
:105280000920FFF76DFE0446A8B10673002343739F
:105290000360C8F80000ABB20381B3F5007F28BFFC
:1052A0004FF40073438100F1100242600122C28179
:1052B000ED1A8046E2E73846FFF77BFF27461EE0FF
:1052C00004F1130020F0030083B2C81C80B220F068
:1052D0000300184480B2FFF7B3FD074678B104F12C
:1052E00010030344033323F0030343600581458126
:1052F0000023036006730123FB8100237B73384680
:10530000BDE8F0810820FFF72BFE07460028F6D005
:10531000002343600581458103600673EBE70027A6
:10532000EDE70027EBE738B504460089884220D92D
:105330000D4606E0EB1A9DB20B1A22891344238115
:10534000246863899D42F5D8227B52B99D4208D0DA
:105350006368191B89B2294489B22046FFF708FD0A
:10536000044665812581206808B1FFF722FF0023EC
:10537000236038BD002302E00133DBB2006800285F
:10538000FAD11846704710B1C3890133C381704701
:1053900090B1034609B110B405E070470A891C8931
:1053A00022441A81034618680028F7D11A8908890F
:1053B00002441A81196010BC704710B50C46FFF703
:1053C000E7FF2046FFF7DFFF10BD002852D02DE990
:1053D000F0410D46074600294FD002890B899A42B9
:1053E0004FD34FF00008464610E09B1B9CB215E0DF
:1053F0009E4227D01DB16A892B899A4229D01FB1BC
:105400007A893B899A422BD0002D30D07B89991B19
:105410006C89A4EB08029142E7DB94B27868696872
:1054200022464144304404F057FF2644B6B2444477
:105430001FFA84F87B896A899045D9D32D684FF08B
:105440000008D5E73F680FB10026D3E7EDB9002685
:10545000D0E72B68002BD2D06FF00500BDE8F081BB
:105460003B68002BD0D06FF00500BDE8F081002034
:10547000BDE8F0816FF00D0070476FF00D00BDE8E2
:10548000F0816FF00D00BDE8F0816FF00D00BDE818
:10549000F0812DE9F04128B30F469046054629B327
:1054A000002613E06A89D21A94B2A04500D244467D
:1054B000696822461944B81904F00EFF2644B6B2B2
:1054C000A8EB04041FFA84F800232D68B8F1000F3C
:1054D00009D045B1002BE5D069898B42E2D35B1A34
:1054E0009BB2F2E700263046BDE8F0810026FAE7DD
:1054F0002DE9F843814643685F7A194B1C68002503
:105500002E4616E0D4F81480B8F1000F0FD0154BDA
:105510004A462146A069C04748B1CEB1E368F3606E
:105520000F4B1A68E2601C6001254FF00009264607
:10553000E4688DB984B1237C9F42F8D1002CE1D07E
:105540002368002BDED0084A12689342EFD1D9E7D6
:1055500001254FF00009EAE72846BDE8F88300BFBF
:10556000043600201C3900202439002010B4002407
:1055700009E04FF44042144B1A800CE00134A4B20D
:10558000B4F5804F1DD2104A1388591C11804FF674
:10559000FF729342EDD0002003280ED80B4B53F836
:1055A00020301B6833B1598B074A12889142E5D0ED
:1055B000DB68F7E70130C0B2EEE7034B188810BC98
:1055C00070470020FBE700BF38000020C405010839
:1055D00070B4856A848D2A19016BC38E40F2B4566B
:1055E000B34200D933460B44D31A002B03DBC485E6
:1055F000501A70BC70476B1A002B03DD0022C28565
:105600001046F6E7491BC1850020F2E710B50446B5
:10561000838D194489B2818540F66833994200D957
:1056200083852046FFF7D4FF40F2D923984200DC5F
:1056300010BDA37F43F00203A377204602F022F8B7
:10564000F6E750B110B50446406808B1FFF7B1FD68
:1056500021460420FFF796FC10BD704738B110B505
:105660000468FFF7EEFF2046002CF9D110BD70470B
:1056700001617047C167704781677047C0F8881043
:10568000704741617047C0F8841080F8202070474F
:10569000037ED3B10A2B18D0012B16D010B50446C7
:1056A000406F18B1FFF785FD002363674FF6FF7366
:1056B000A386E06EFFF7D2FF206FFFF7CFFF002336
:1056C000E3662367A4F86A3010BD70472DE9F04106
:1056D00082B0A94A136801331360A84A13780133D2
:1056E0001370A74B1C68002600E0E468002C00F053
:1056F0001E81217E94F82120A04B1B789A42F4D081
:1057000084F8213002291ED094F846300C2B55D055
:1057100094F89150EDB194F890300133DBB284F8F5
:1057200090306A1E97498A5C934255D3002384F8CF
:105730009030062D02D8013584F89150204602F0B1
:1057400052F900253BE094F84630062BDCD10125C8
:1057500035E0B4F93420002A01DB0132A286226F41
:105760006AB3B4F93400B4F94420904227DB02292B
:105770000BD0B4F94010B4F9422002EBE1028249A7
:10578000CB5C02FA03F3A4F844300023A386B4F8F8
:105790006030B4F84C20934228BF13465B08A4F84D
:1057A0004E30E28EB3EB420F02DA5300A4F84E30D3
:1057B000A4F84C20204602F08BF800E00125237E5F
:1057C000062B0BD0227A12F0080F3FD0042B12D0F8
:1057D000072B10D000273AE00025F0E7A27F12F057
:1057E000100FEFD0616A644A1268521A282AE9D968
:1057F0000135EDB2E6E7604B1A68636AD21AD4F855
:105800008C1001F5242303F6B8436048A0FB030382
:10581000B2EB531F03D90135EDB2012717E094F81D
:1058200092305B4800FB03135849A1FB0313B2EB12
:10583000531F01D800270AE0204602F0B7F894F879
:105840009230013384F89230002700E00027237E55
:10585000032B21D0092B28D0002D2FD1E568E37F21
:105860000133DBB2E37794F8202093425CD300232A
:10587000E377484A1370D4F88430002B4CD021468B
:1058800020699847434B1B78002B7FF42AAF0028F0
:1058900044D026462C4629E7616A374A1268521AD4
:1058A000282AD7D90135EDB2D4E7626A324B1B689A
:1058B0009B1AF02BD0D90135EDB2CDE72046FFF78A
:1058C000E7FED6B1E368F360DFB9D4F88850D4F8C6
:1058D0001080E76821460220FFF754FB00222D4B81
:1058E0001A701DB16FF009014046A847294B1B787B
:1058F000002B7FF4F6AE3C46F8E6E268204B1A60D7
:10590000E2E7A16A206DA38B0193638B0093231DB3
:10591000224601F09FFFD8E70020B3E7204601F0C0
:10592000B1FE26462C46E1E626462C46DEE61A4B1C
:105930001D6803E0012353B92C46ED68C5B16A6ABE
:105940000D4B1B689B1AF02BF4D80023F3E7284675
:10595000FFF79EFE44B1EB68E360EE682946022043
:10596000FFF710FB3546E9E7EA680B4B1A60F4E7EE
:1059700002B0BDE8F08100BF84610020093600203C
:1059800080610020D4050108B4050108D34D6210E0
:10599000F82401007C6100209861002010B50C46BD
:1059A00003688B420AD0144A1360134B1B6853B12F
:1059B000DA68944205D0104B1A60F6E7DB680360A2
:1059C00001E0E268DA600023E3602046FFF760FE52
:1059D000237E0A2B05D0012B03D0A37F13F0010FE8
:1059E00002D10023237610BD43F00203A3772046A3
:1059F00001F048FEF5E700BF8C61002030B583B0B0
:105A0000044621B1037E042B0BD0072B09D0237E43
:105A1000072B00F2A180DFE803F0466B76848D9FB0
:105A20009F96636FDBB1A16A206DA38B0193638B9B
:105A30000093231D224601F00DFF2046FFF728FEAC
:105A4000494B1B689C4210D0484A1360474B1B6867
:105A50008BB1DA6894420CD0444B1A60F6E7A28D01
:105A600040F668339A42DED1D1E7DA683E4B1A60DD
:105A700001E0E268DA600023E36001223C4B1A7027
:105A8000237E042B05D021460220FFF77BFA002558
:105A90002BE00A232376374B1A68E2601C6002F081
:105AA00023F8002521E0638BB3B1334B1B689C4284
:105AB0000AD02E4A13602D4B1B685BB1DA68944202
:105AC00006D02A4B1A60F6E7DA682B4B1A6001E021
